:1000000000800010D9310000093200000B320000DE
:100010000D3200000F32000011320000000000001D
:100020000000000000000000000000000D31000092
:10003000153200000000000077310000AD310000F3
:100040001B3200001B3200001B3200001B3200007C
:100050001B3200001B3200001B3200001B3200006C
:100060001B3200001B3200001B3200001B3200005C
:100070001B3200001B3200001B3200001B3200004C
:100080001B3200001B3200001B3200001B3200003C
:100090001B3200001B3200001B3200001B3200002C
:1000A0001B3200001B3200001B3200001B3200001C
:1000B0001B3200001B3200001B3200001B3200000C
:1000C0001B3200001B3200001B32000010B5054C33
:1000D000237833B9044B13B10448AFF300800123F4
:1000E000237010BDC80200100000000060810000F5
:1000F0000C4B43B10C4810B50C49AFF300800C48D1
:10010000036823B910BD0A48036833B97047094B27
:10011000002BF7D0BDE810401847064B002BF5D058
:10012000184700BF0000000060810000CC020010F2
:10013000C8020010000000007047000070B50D4CB0
:10014000236883B90C4D4FF0FF31286801F056F950
:1001500023682BB9261D02D0304602F083FF2660AB
:10016000286801F073F920684FF0FF31BDE8704056
:1001700002F090BFDC140010FC18001010B504460B
:1001800002F089FE204610BD70B50C4C236883B97F
:100190000B4D4FF0FF31286801F030F923682BB97F
:1001A000261D02D0304602F05DFF2660286801F06F
:1001B0004DF92068BDE8704002F06FBFDC140010FC
:1001C000FC18001070B50546094B064645F80C3B77
:1001D0005DB100F12C04AC4207D0103CE368002B69
:1001E000F9D09B6820469847F5E7304670BD00BFC0
:1001F000707D000010B50446084B443040F8443C84
:10020000203340F8143C02F04BFF04F1300002F0C0
:10021000A1FA2046FFF7D6FF204610BD447C00001F
:10022000A0F13000E6E700BF10B50446FFF7CAFFB3
:10023000204602F030FE204610BD00000000000005
:100240002DE9F04730A7D7E900673148FFF776FF7F
:10025000304801F001FE04462D48FFF795FF204687
:1002600003F040F928A3D3E9002303F08FF903F04A
:100270004FFC03F037F902460B462748274902F0A6
:100280007BFA0024DFF888A04FF03338DFF8949031
:100290001F48FFF753FF1F4801F0DEFD05461C48CD
:1002A000FFF772FF284603F01DF932463B4603F084
:1002B0006DF903F02DFC2146054603F07DFC20F08E
:1002C000004003F00FF942464B4603F0EFFB0028D5
:1002D000DED0284603F006F902460B460E480F49C9
:1002E00002F04AFA5046FFF729FF0A4801F0AAFD3A
:1002F00004465046FFF748FF22460949064802F0E7
:100300003BFA2C46C0E700BF6666666666660A4032
:10031000E4020010E80200101C030010AC79000099
:10032000C57900003333B33F10B50446FFF762FFD1
:10033000204602F0B0FD204610BDA0F13000F3E7EA
:1003400037B5124C124B20462360124DFFF7F6FED4
:100350001149201D01F03AFD2046FFF715FF2A46FE
:100360000E49204602F06EFD4FF416530C4C0093DC
:100370000C4A00230C49204602F078F92A46204610
:100380000A4903B0BDE8304002F05CBDE402001051
:100390009C790000C80000103FC00920390100000E
:1003A000EC02001003C0092002C00920F501000082
:1003B0000748084A08B5121A002104F0ECF902F0C7
:1003C000FAFC04F01DF902F0FDFC02F03DFD00BF57
:1003D000C802001094200010022801DD02F09EBC2B
:1003E0000120704708B5012002F02EFD08B5FFF787
:1003F000F9FF70B50E460446154601F023FC0136A0
:1004000009D02046002101F037FC29462046BDE8EE
:10041000704001F02EBC70BD38B504460D464368EF
:100420005AB1C26820461360012101F025FC29461B
:100430002046BDE8384001F01CBC0269F2E7032207
:10044000FFF7D7BF70B50E460446154601F0FAFB1C
:10045000013606D02A462046BDE870400221FFF74B
:10046000DBBF70BD0022FFF7EDBF0000014800F0C8
:1004700003B800BFDC790000036870B5DB68044690
:10048000984763685A6823681AB99B68BDE870404A
:1004900018475B68156898476368281A00285A68E7
:1004A00007DC916859601B68002BEAD050689847B8
:1004B000E7E7236810681B69BDE870401847000033
:1004C00010B5044601300DD110BD9C4209D1204623
:1004D000896801F0CDFC2046BDE81040022101F002
:1004E000E0BC0C310B685A1CEFD10248BDE810404B
:1004F00000F0BAB8297A0000884208B508D0431C39
:1005000006D0013106D0044800F0AEF84FF0FF31BC
:10051000084608BD0146FBE7F87900000B685A1C45
:1005200001D118467047834201D1486870470C31A9
:10053000F4E70000421C10B5044607D0FFF7EEFFB9
:10054000431C044602D1024800F08EF8204610BD3C
:10055000097A000000F038B808B500F035F838B175
:1005600000F03AF830B900F02FF80028FBD108BDB0
:100570004FF0FF3008BDEFF31080C04300F00100E2
:100580007047000008B5FFF7F6FF72B6064B1A6811
:1005900022B980F00100054AC0B210701A681A68CA
:1005A00001321A6008BD00BF540300105003001050
:1005B00030B585B06D46182420462946ABBE0446AA
:1005C000204605B030BD0000024B186800F0010065
:1005D000704700BFF0ED00E037B540F2051401AD03
:1005E00020462946ABBE0446204603B030BD00007D
:1005F00000B599B0FFF7C6FF17496846FFF732FF0D
:10060000164906A8FFF72EFF15490CA8FFF72AFF89
:10061000144912A8FFF726FF019A039B96201A603F
:10062000079A0A9B1A600D9A109B1A60139A159BE1
:100630001A6002F0C1FA019A049B96201A60079A88
:10064000099B1A600D9A0F9B1A60139A169B1A60E9
:1006500002F0B2FAE0E700BF32C0092034C009203E
:1006600035C0092037C009200FB4012008B502F0B9
:10067000EBFB01F011BB000008B5024C2368984762
:10068000FCE700BFCC00001008B50B4800F098FE56
:100690000A4B18600A4800F093FE0A4B18600A489B
:1006A00000F08EFE094B186003F0AAFFBDE8084079
:1006B0000021084602F086BB887A0000FC18001072
:1006C000847A000060030010807A00005803001054
:1006D000FFF7D2BF10B5044600F0D2FD2146BDE8B9
:1006E000104002460148FFF7BFBF00BF487A000034
:1006F00002F0AEBC0B4AF0B4C2F1805303F50043E4
:10070000B3F5806F194628BF4FF48061064F074D3F
:100710005B1A074C07489E183A602E602360016000
:10072000F0BC7047982000101816001068030010E5
:10073000141600106403001000F026FFFFF7DAFF24
:100740000348002100F0C4FE00F01CFDFEE700009D
:10075000D0000010024B4FF0FF31186800F04EBE81
:1007600060030010014B186800F070BE60030010B9
:1007700030B502788C78013A4368D2B213B19D78D3
:10078000A54207D2022A4B60416006D803B19960A6
:10079000886030BD18465B68F0E700238B6030BD91
:1007A000436802785968013A022A41604FF000021A
:1007B00005D809B188605A609A60184670475A6037
:1007C000FBE70000034B5A684260002258608260D9
:1007D000704700BFF01F0010104B10B5DA688AB1E7
:1007E0009A8A8A42DC680CD3C460D860C46803610A
:1007F00004B12061521A92B28282998A8A1A9A822C
:1008000010BD3CB900248A1AC460D86003619A8282
:10081000848210BDA38A1A442346E2E70820001010
:100820002DE9F041174DEB6853B10026AB8A164F06
:10083000013BDFF85880AB82AA8A0AB9EC680CB990
:10084000BDE8F081A36833B161685960616809B19E
:100850008B606260A66021463846FFF789FFA38A55
:10086000AB826378042B01BFD8F80030E28A9B1872
:10087000A38201236370E368EB600BB11D61E66046
:100880002661D9E708200010F01F00108420001016
:1008900083682BB142685A6042685AB193607047CE
:1008A000054B5A68904202D142685A60704713461D
:1008B000002AF6D1704700BFF01F001010B5846801
:1008C00001462CB94378012B0DD1074C03E0A468F5
:1008D0002378002BFBD00846FFF7DAFF2046BDE85F
:1008E0001040FFF745BF10BDF01F0010036910B5A1
:1008F00063B1C268DA60C2684AB1998A848A2144C5
:10090000998213610023C3600023036110BD9A82A2
:10091000FAE7000070B4114BDD78EFF31086EFF3C7
:10092000108272B69A78954211D901329A701A786B
:10093000541CA54208BF00241C7006B962B695423B
:1009400007D970BC03EBC203586099607047002E52
:10095000F4D070BC0220FFF7BDBE00BF74180010B9
:10096000032303700023438043608360C3607047A8
:10097000F8B5438804469BB18068036A9C4228D13D
:10098000E368036290F82430026A52BB82789A428C
:1009900006D083701F4B1B68984201D0FFF78EFF73
:1009A00001261D4F656825BB1B4843686BB1194E76
:1009B0009A7831688B789A4207D9FFF7D9FE0122DD
:1009C000336828465A7000F0D3FE00202070F8BD2E
:1009D0001346002BD6D0DA689442F9D1E268DA6087
:1009E000D0E7516819B189788B4238BF0B46D2687D
:1009F000CBE72046FFF7D4FE0546002100F0F6F8CD
:100A00002846FFF773FF6E7029463846FFF7B0FEA1
:100A1000C8E700BF3C200010F01F00102DE9F8438C
:100A200043880546002B63D0324F81683A68914273
:100A30005ED1013B9BB243801BB100242046BDE840
:100A4000F8830B6A984229D1C3680B6291F824306D
:100A50000C6A5CBB8B706A68DFF89C80002A3BD014
:100A60002846FFF79DFE06464FF00109214600F09B
:100A7000BDF83046FFF73AFF336A3968EB60D8F8C3
:100A80000430A5F80290AE6035628A789B789A426D
:100A900014D3304600F06CFED0E71346002BD5D0BF
:100AA000DA689542F9D1EA68DA60CFE762681AB18C
:100AB0009278934238BF1346E468CAE74046FFF78E
:100AC00057FE31464046FFF753FE3B6883F80190DE
:100AD00086F801902046DDE7D8F8042092789A4203
:100AE000ABD94046FFF744FE01223B685A70F1E75C
:100AF000FF24A3E73C200010F01F0010438870B5CE
:100B000004460E46134D43B92A68116A8260C160DB
:100B1000106201336380002070BD80682A689042B3
:100B2000F7D081B1937882789A4202D28370FFF72E
:100B3000C5FE62684AB129682046FFF719FE0921FF
:100B4000304600F037FE012070BD2B6863605A60AC
:100B50009C60F4E73C200010F0B54FF080764FF039
:100B6000000E836A056B9B0802BF1E4B1B889B0807
:100B700005EB8302540748BF043A02E94200A2F1A0
:100B80004004A2F14406A2F10C0746F804EFBE426D
:100B9000FBD1C66942F8206C41631249C4620968FE
:100BA000C90017D5112B15D96FF00701103B5B0851
:100BB0004B43A3F138010A444FF0CC302146914217
:100BC0000BD108331C44231F9D423CBF4FF0CC3354
:100BD00044F8043C044B2B60F0BD41F8040C41F890
:100BE000080DECE7907A0000A52E5AE2C36A19625C
:100BF0007047C36A19625A6270470000054B1B7840
:100C000023B94FF08052044B1A6070470122034B06
:100C10001A707047BC13001004ED00E0BD13001003
:100C200038B51A4B1A4C186801234370FFF7CAFDF8
:100C30006578A3783BB917486570FFF7B1FDBDE84B
:100C4000384000F07BBD04EBC503586802789AB9C0
:100C5000198900F0BBF9E37801359D4208BF0025F2
:100C6000EFF31083EFF3108272B6A278013AA2700C
:100C7000002BDED162B6DCE7012A03D1996800F0CF
:100C800033F9E8E700F0BAFFE5E700BF3C200010C9
:100C900074180010F01F0010084B4FF0FF301A6856
:100CA000074B1A6000225A60072243F8042C054AB9
:100CB000136843F07F431360704700BFA87A0000B9
:100CC00014E000E020ED00E07047000008B50B4B99
:100CD000186801234370FFF775FD00F0ADF9084A6D
:100CE000136801331360FFF79BFD00F0AFFC05486C
:100CF000FFF756FDBDE8084000F020BD3C20001085
:100D000084200010F01F0010064B1A68136BD26A83
:100D1000934203D81A68044B9A4202D00120FFF78D
:100D2000D9BC70473C200010A52E5AE2002ABBBF58
:100D300022F000420732033222F00702A8BF22F05D
:100D4000030210B5B4BF10230C2392B1D4188C4207
:100D50000FD801440344544241600360826021443F
:100D60009818814202D300510346F9E70020186029
:100D700010BD012010BDEFF3108372B6026803F0BE
:100D800001030AB11168016003B962B610467047E9
:100D900081420DD3436899420AD2EFF3108372B6B1
:100DA00002680A60016013F0010003D162B6704767
:100DB0000120704700207047012303700023103981
:100DC0008908437083704360038143818381C181BB
:100DD0007047000070B5858904461646002D38D04E
:100DE00043891A1D50F8222001330A60C2899BB240
:100DF0009A42438104BF002343814368F3B143789F
:100E0000022B1BD1FFF7CCFC05460021FFF7EEFEBD
:100E10002389E9691A1D44F822100133E2899BB243
:100E20009A42238108BF0023284608BF2381FFF789
:100E30005DFD284600F09CFC002070BDEFF31080A3
:100E4000EFF3108372B6013DA5810028F4D162B69C
:100E500070BD4AB14268094B42B11968FFF788FC7E
:100E60000821304600F0A6FC012070BD1B684360DD
:100E70005A60986001234370F2E700BF3C200010E5
:100E8000C2898089101A704708B5FFF743FDBDE895
:100E90000840FFF7B3BE838910B504460BB34389FE
:100EA000043350F823300B604378022B04D1002127
:100EB000FFF730FDFFF7A2FEEFF31083EFF3108290
:100EC00072B6A289013AA28103B962B66389E28946
:100ED00001339BB29A42638101D1002363810420D4
:100EE00010BD184610BD0000436870B504460E469C
:100EF000002B4BD04578022D20D0032D0AD0012D98
:100F000061D1FFF74DFC044632461021FFF771FE18
:100F100065700EE00846FFF72EFF0546002852D008
:100F20002046FFF73DFC29460446FFF75FFE0123FC
:100F300063702046FFF7DAFC214622E0FFF730FC21
:100F400005460021FFF752FE2389E9691A1D44F87E
:100F50002210EFF31082EFF3108172B6A1890131F4
:100F6000A18102B962B6E28901339BB29A42238120
:100F700004BF00232381012328466B70FFF7B6FCD2
:100F80002946BDE870401048FFF7F2BB8089E1892F
:100F9000884213D223891A1D44F82260EFF310828D
:100FA000EFF3108572B60130A08102B962B6013349
:100FB0009BB2994208BF0023238170BD0320BDE886
:100FC0007040FFF787BB70BDF01F001010B5038B9A
:100FD00042781943062A04460183438B15D133EA2C
:100FE000010219D121EA030121832046FFF77EFC8B
:100FF000012320466370628B0821FFF7FAFD21462A
:10100000BDE810400548FFF7B3BB052A04D111EA3B
:10101000030201D04283E5E710BD00BFF01F0010BE
:101020000022034B1A60034A1268DA80704700BF3F
:10103000282000108C7A000008B50E4B5A680E4B21
:10104000196891420D4905D01A60DA880868013A9A
:1010500002449A8098880A8890420AD10022054862
:101060001A60FFF79DFBBDE8084001460148FFF705
:101070007FBB08BDF01F0010282000108420001046
:1010800030B500240A4A136843B90360816013B184
:101090009D68691A996044B1206030BD9D68A9427D
:1010A000F3D31C46491B1B68EEE7106030BD00BF40
:1010B00038200010C0B1431C11D00C4B984211D8FD
:1010C0004FF47A710A4B1B685A1E01FB0020B0FBDB
:1010D000F3F34FF6FE70834206D898B270474FF68E
:1010E000FF7070474FF6FE70704700BF00093D006B
:1010F000447A000038B1830704D10378002B18BF6D
:101100000020704700207047B0B50E4D00AF287822
:10111000A8B90D4C236893F8241000F06DFB2368E8
:10112000DA78FF2A03D1DA6A203282F3098862680A
:101130000AB984E80C0000F017FD01232B70002091
:10114000B0BD00BF352000103C200010014B1878C6
:10115000704700BF3520001010B5EFF3108434B98C
:10116000EFF305841CB9EFF31484E40702D4034BB6
:10117000187810BDDFF808C000DF10BD3520001062
:101180004D11000090B589B000AFEFF31083002B34
:1011900037D1EFF30583002B33D1FFF7DDFF28B9FB
:1011A000194C246814B1646804B1A047EFF31484A7
:1011B00004F00304022C18D0032C1CD0012C1ED0E8
:1011C00007F1200484F30988104C2478E40710D533
:1011D000022484F31488BFF34F8FBFF36F8FDFF8BF
:1011E00030C000DF2437BD4690BD084C2478E407AA
:1011F000F5D40324EDE7054C2478E407EFD5FF2070
:10120000F0E78220EEE700BF24200010727A000091
:101210000911000070B50B461646024610B90024AD
:10122000204670BD00680028F9D0B2F90440E51CE2
:10123000ADB2062DF3D8D168C1B11269043444EAC5
:10124000012100F017FB0028E9D00A4B013853F8C0
:101250002040094AE36A5A63084B1B6843B19B6804
:1012600033B13146E0789847E063D9E70A46E5E7CD
:10127000E663D5E7381800101D1400002420001084
:1012800008B500F0B1FA18B1024B013853F820004C
:1012900008BD00BF3818001010B5FFF72BFF04463B
:1012A00070B1084B1B681BB1DB680BB1C06B984772
:1012B000E07800F035FBFF280CBF8120002010BD36
:1012C000802010BD2420001008B528B1FFF7F2FEE1
:1012D00000F090FC402008BD08BD000010B5EFF301
:1012E000108434B9EFF305841CB9DFF80CC000DFBB
:1012F00010BD822010BD0000C9120000830705D177
:1013000038B1436901691B681846704700231946C4
:10131000FAE70346FBE7000010B504460846DFF88D
:101320000CC000DF84E80300204610BDFD12000061
:1013300010B548B1046824B1237823B92046FFF7DB
:101340000FFB204610BD002010BD70B510F0030447
:1013500005460E4611D180B10378032B0DD1084606
:10136000FFF7A8FE01462846FFF7C8FB012806D173
:10137000002E14BFC120812070BD802070BD20468A
:1013800070BD820708B50AD148B10378032B06D196
:10139000FFF744FBFF280CBF8120002008BD802000
:1013A00008BD10B510F0030407D130B10378032B4A
:1013B00003D1FFF7DDFA204610BD802010BD0000EC
:1013C00070B50546EFF3108494B9EFF305867EB946
:1013D000EFF31484E40706D4064C24781CB9BDE866
:1013E0007040FFF7A5BF2846DFF80CC000DF70BDD6
:1013F000002070BD352000103113000010B5EFF350
:10140000108434B9EFF305841CB9DFF80CC000DF99
:1014100010BD822010BD00004B130000084808B525
:101420004FF0FF310068FFF7E9FFDFF818C000DF79
:101430000446FFF75DF92046DFF80CC000DFFEE749
:1014400030200010811200009912000010B5EFF357
:10145000108434B9EFF305841CB9DFF80CC000DF49
:1014600010BD822010BD0000831300002DE9F04163
:1014700080460F461646EFF3108404BBEFF3058356
:10148000D3B9EFF31483DB0706D40E4B1B781BB9DB
:10149000BDE8F041FFF7BEBE0B4D4FF0FF312868AD
:1014A000FFF7ACFF404639463246DFF820C000DF88
:1014B00004462868FFF7CAFF2046BDE8F0810024F3
:1014C000FAE700BF35200010302000101512000090
:1014D0000022FFF7CBBF000010B5EFF3108434B942
:1014E000EFF305841CB9DFF80CC000DF10BD8220CB
:1014F00010BD0000A313000010B5044660B10168E0
:1015000051B1406848B1037833B90431890089B2D8
:10151000FFF752FC606810BD002010BD38B5114CBB
:1015200023780BB900F0A6FAFF220F4B25781B6831
:101530009A708DB929460D48FFF7DEFF0C4B2A46FD
:10154000186029460B48FFF765FE0B4B18600B48E7
:10155000FFF736FF0A4B1860012300202370094B68
:10156000187038BD342000103C200010787A00003C
:10157000F8180010947A0000EC1F0010AC7A0000FC
:10158000302000103520001010B5EFF3108474B92E
:10159000EFF305845CB9EFF31484E40703D4BDE8EA
:1015A0001040FFF7BBBFDFF80CC000DF10BD82208A
:1015B00010BD00001D1500002DE9FF410C468046BE
:1015C00018B30378012B25D10846FFF773FD02A954
:1015D00002464046FFF7FEFB012811D10020002CF7
:1015E0000246034618BF4020029904460D4616469F
:1015F0001F462046294632463B4604B0BDE8F081EE
:101600000020024603461020EEE7802405460646E9
:101610000746EEE7002580242E462F46E9E770B501
:101620000E461446054660B15AB90378012B08D11D
:10163000FFF726FC38B128463146FFF725FC204647
:1016400070BD802070BD812070BD0000F8B5114EC6
:1016500034682CB1A368104F013BA360A26802B1AB
:10166000F8BD2568214638683560FFF7D8FF10B10E
:101670000420FFF72FF86379012B07D1E16820469A
:10168000FFF7FEFC002DEBD02C46E7E7012323718A
:10169000F8E700BF38200010F81800107FB50446A6
:1016A0001646084601B122B180232360204604B0CB
:1016B00070BD0B78012BF7D102A9FFF7ECFB0428D2
:1016C00008BF102301AD14BF0196019395E80700F0
:1016D00084E80700EAE7000038B504461546EFF352
:1016E000108010B9EFF3058028B12A462046FFF795
:1016F000D5FF204638BD08461146DFF80CC000DF94
:1017000084E80700F5E70000B91500007FB50A4C32
:101710004FF0FF32216803A8FFF7DEFF039B102B79
:10172000F6D1049901A8FFF7F7FD019B002BEFD03C
:1017300002989847ECE700BFF8180010054B586076
:1017400002234370044B1B681BB11B690BB1C06BB8
:10175000184770473C2000102420001008B50348AB
:10176000FFF71EF8BDE80840FFF7E8BFF01F0010C4
:1017700070B5044618B9BDE87040FFF7EFBF0B4ED7
:10178000A2783068012583789A4208D9FFF71AF8C1
:10179000336820465D70BDE87040FFF7CFBF6570CD
:1017A0002146BDE870400248FEF7E2BF3C20001031
:1017B000F01F001038B50D46014680B14FF6FF739B
:1017C0009842074C02D02068FFF706F823680548C6
:1017D0005D70FEF7E5FFBDE83840FFF7AFBF38BDED
:1017E0003C200010F01F0010024B186800B1C078B8
:1017F000704700BF3C20001010B5A8B9194B1B68FA
:10180000997083F82410184843689B788B4201D85C
:10181000002010BD134C2168FEF7AAFF01222368A7
:101820005A70FFF79BFFF3E7104B1B88984217D8BD
:101830000F4B013853F8204094B10A4BA1701B683C
:1018400084F824109C42DED02046FFF737F86378F6
:10185000012BDDD10448FEF7A3FFFFF789FFD7E78F
:10186000FF2010BD3C200010F01F0010747A000013
:10187000381800102DE9F0470D4611F0FF0F804693
:10188000234816469A4608BF0135FFF774FA044606
:1018900020B94FF000094846BDE8F08700211D4BF4
:1018A00006631B88280A1C4EA0628B4201F10109C5
:1018B000EFD006EB890252F8042C0F464946002A65
:1018C000F3D10123EDB284F80390C4F81CA0C4F84E
:1018D00038A022706370A57084F824506260A26002
:1018E000E26022612262A282E2822283628384F821
:1018F000252018B90948FFF73EFA206320464146E3
:10190000FFF72AF9204646F82740FFF731FFC2E7E4
:10191000201C0010747A00003818001028160010DF
:101920002DE9F84F4D4D18B12B68DB78984241D125
:1019300000232C680127637001F0BDFBE062FFF714
:10194000E3F92B68DFF828811C6AA4B92A684449A6
:10195000D3784448013B41F82340116BFFF718FA54
:10196000296841480C63FFF713FA2C60FFF7F6FE75
:101970002046BDE8F88F6368B3B12046FEF710FF3C
:1019800006460021FFF732F93046FEF7AFFF7770C9
:1019900031464046FEF7ECFEE368326A6780A66097
:1019A000E26034621C46D0E7E2686380A360E360D3
:1019B0001446CAE72D4B1B8898424DD8284B471E2A
:1019C00053F827609946002E46D04FF0010A304662
:1019D000FEF75EFF3046FEF789FFDFF894B0346A09
:1019E000B4B9316B1F4849F82740FFF7D1F93146A8
:1019F00034631D48FFF7CCF91D48296843689A787D
:101A00008B789A42B4D901234B70FEF7B1FEADE753
:101A10006368DBB12046FEF7C3FE80460021FFF776
:101A2000E5F84046FEF762FF88F801A041465846B7
:101A3000FEF79EFEE368D8F82020A4F802A0C4F8C0
:101A40000880E260C8F820401C46C9E7E26863806D
:101A5000A360E3601446C3E7FF2489E73C2000103D
:101A60003818001028160010201C0010747A00008E
:101A7000F01F001038B52C4B2C491A88002318464B
:101A800093424DD32A4B402219882A48FFF74EF93A
:101A9000294B2A481A882A4B42F000421968FFF75E
:101AA00045F9284B08221988274B284C1868FFF75E
:101AB0003DF9FF230025E370012320486370A562F0
:101AC0002570A57084F824506560A560E5602561E7
:101AD0002562A582E5822583658384F82550FFF77A
:101AE0004AF91B4920632046FFF736F80422194BB8
:101AF00020461A705D60184B1A70DD601D619D8272
:101B0000164B1C6002236370FFF718FE144A154B36
:101B100012781D705D70DA70BDE83840FFF780BA4A
:101B200041F823000133ABE7747A00003818001045
:101B3000407A0000201C0010907A00002816001047
:101B40003C7A0000427A00005C0300104420001040
:101B5000D1060000F01F0010082000103C200010EB
:101B6000717A00007418001008B51E4B1A6842F410
:101B70007F021A601B681B0203F07F43DB43B3FA4A
:101B800083F3194ADBB21268C3F10803C2F30222DD
:101B9000934298BF531C6FF08072144802FA03F30B
:101BA000016803F07F4321F07F4213430360FFF796
:101BB00073F80F4B0028186012DBFF22012100F19F
:101BC000604000F5644002701A6853099B0003F1FD
:101BD000604302F01F0203F5614301FA02F21A604A
:101BE00008BD00BF20ED00E00CED00E01CED00E0C2
:101BF000202000100321FFF7DDBD0000426810B572
:101C00007AB1FEF7CDFD0446FEF770FE01212046B5
:101C10006170FEF7EBFF2146BDE810400348FEF778
:101C2000A7BD42880132428010BD00BFF01F0010E6
:101C300010B50021044600F01BF9012004F01F0438
:101C4000A04010BD38B505464B1C0C4629600FD08E
:101C50000846FFF7EDFF24F01F0404F11803EB60C2
:101C600004F11C032B6104F1140368606B61AC6028
:101C700038BD006800F015B911B1012907D07047CF
:101C800082684168136823EA010313607047826821
:101C9000416813680B43F8E708B5FEF75DFC0022C6
:101CA000044BC3F8C020044A136923F004031361F2
:101CB00030BF08BD00C00F4000ED00E008B5104B7C
:101CC0001868E0B901210F4A1960D2F8C43043F412
:101CD0000003C2F8C430A2F5D022106702200A4BDC
:101CE0001B6850600948B3FBF0F3013BD36004204C
:101CF0005160074900F022FC1022064B1A6008BD13
:101D0000D013001000C00F40E400001000093D0097
:101D10006D04000000E100E008B5044B1B680BB93E
:101D2000FFF7CCFF024B986808BD00BFD01300102E
:101D300000400940034B98615A6942F001025A6120
:101D4000704700BF00400940024A536923F0010375
:101D500053617047004009400122014B1A607047EF
:101D6000004009400C4B00781A6822F0FF021A600C
:101D70000122196882400A431A601A6842F0807290
:101D80001A6058680028FCDA1A68C0F30B1022F0B9
:101D900080721A60704700BF0040034070B506466D
:101DA000FFF7E0FF04463046FFF7DCFF054630460C
:101DB000FFF7D8FFAC4282BF23462C461D46A842FF
:101DC00028BF2846A04238BF204670BD70B50C46DB
:101DD000164D064629462046FEF7ACFB144B3070E4
:101DE000D3F8C420294642F48052C3F8C420D3F863
:101DF000A8212046BDE8704022F04072C3F8A82117
:101E0000D3F8A82142F08072C3F8A821094B1A68C0
:101E1000094B1344094A93FBF2F3013B1B02084AA6
:101E200043F400131360FEF74BBB00BFB07A000011
:101E300000C00F40E40000103F5DC600405DC600DA
:101E40000040034008B5FFF7A9FFC0F3032343EAAE
:101E5000001080B208BD000008B5FFF79FFF01F039
:101E60005DFF024901F0B2FF08BD00BF01088039E3
:101E700010B5032400F16040A0F51C2043000009C8
:101E8000800000F1804000F53030026803F01E034E
:101E90009C4022EA040202600268994011430160FA
:101EA00010BD00F16040A0F51C2043099B0003F128
:101EB000804303F5303330B500F01F029C6EC1F350
:101EC000800505FA02F224EA02049C669C6E224315
:101ED0009A6695B9032443000009800000F1804010
:101EE00000F53030026C03F01E039C4022EA04022D
:101EF0000264026C99401143016430BD012810B4A2
:101F000008D0022808D010BC7047506820F00100AB
:101F1000506010E003460EE038230F4803FB010336
:101F20005868013006D018699C68046093F8363010
:101F3000002BEAD00023382251430748421840586A
:101F40000028E0D01BB992F83620002ADBD0034AE3
:101F50001946126810BC1047DC130010D41300108F
:101F6000034A00219068C0F34200FFF7C7BF00BFDB
:101F700000C00040034A01219068C0F34200FFF70F
:101F8000BDBF00BF00000140034A02219068C0F3BA
:101F90004200FFF7B3BF00BF00800940034A03219E
:101FA0009068C0F34200FFF7A9BF00BF00C009401E
:101FB00070B50B46066829498E4222D006DCA1F591
:101FC00080418E420CD000210C460BE024498E4209
:101FD0001AD001F580418E42F5D12249082401E052
:101FE000052421499AB10125726805FA03F31343C8
:101FF0007360204600F0A2FA1C4B05FA04F41C6042
:1020000070BD1B490624EDE71A490724EAE7012BB6
:102010000AD042683820184900FB021292F83610A4
:1020200092F83520D14217D1012202FA03F0B3FA17
:1020300083F371685B0921EA00017160716802FA3B
:1020400003F30B4208D1094B02FA04F4C3F88040B1
:10205000BFF34F8FBFF36F8F70BD00BF0000014013
:10206000008009409D1F0000611F000000E100E0AA
:10207000751F0000891F0000DC1300102DE9F04FD0
:10208000644B046887B09C4200F08D806ADCA3F545
:1020900080439C4279D0604B0801D3F800C0BCFB60
:1020A000F0F293B200FB12C2002A00F0AA800125D0
:1020B000E6469946AB464FF0000A0191039100268F
:1020C0004FEA4E030493DDF804804FEA8E03EFB22B
:1020D0000593F3B20093049B002BABBF059BB3FBAE
:1020E000F8F3B3FBF8F31B09A8BF5B090133C3F393
:1020F0004F03002B00F0888016B1012B08BF02238C
:10210000A8195843C000BEFBF0F00130C1EB5000ED
:102110000028B8BF40420290029A0398824262DAD5
:1021200091425AD10F2D07D1BB469946DDF800A048
:102130005F464B46CDF800A0217B41F08001217322
:10214000C3F30721DBB221712370009B43EA07121E
:10215000D2B284F82820237B03F07F03237307B0D7
:10216000BDE8F08F2D4B9C4229D003F580439C4263
:1021700091D12B4BD3F8AC2122F44022C3F8AC21EF
:10218000D3F8AC2142F4802224E0254BD3F8A821D7
:1021900022F0C002C3F8A821D3F8A82142F04002DF
:1021A000C3F8A82177E71E4BD3F8A82122F4407288
:1021B000C3F8A821D3F8A82142F48072F0E7184BA5
:1021C000D3F8AC2122F44032C3F8AC21D3F8AC21CF
:1021D00042F48032C3F8AC215DE7BB469946029ACF
:1021E000DDF800A003920136F3B2BB428844FFF44D
:1021F00070AF0F2D9CD0019B01350B44E644019339
:102200005DE70127009297E7002E0CBF0123022310
:1022100076E700BF00000140E400001000800940A4
:1022200000C00F40034B1960382341684B430249FB
:10223000CA507047D4130010DC13001010B50268A8
:10224000137DDB07FCD5382443680848117804FB6C
:1022500003035868C9B2013006D058699B6803600F
:10226000536843F001035360084610BDDC130010AF
:102270003821114A436801FB0323DA69013209D08E
:102280001A6B1B6A12681A4214D10368187DC0F3D6
:10229000801070470268127D920604D5002201204A
:1022A00083F83420704793F834000F288CBF002047
:1022B0000120704700207047DC13001038B5044639
:1022C0000D462046FFF7D4FF0028FAD038212368B6
:1022D000EDB21D706368044A01FB032393F83420B8
:1022E000013283F8342038BDDC1300102DE9F84F9B
:1022F0009A463C4C03680546A34218BF0024894611
:10230000904647681CB1237C03F03F0323743823B5
:102310004FF0FF32344E284603FB0763DA615A6000
:10232000002283F835201146FFF742FEB9F1000F75
:1023300055D02E494046FEF7F1F82D4983465046C8
:10234000FEF7ECF8A9F10203012B1BD8BAF1FF3F0D
:102350000BD0244B98420DD164B1237C244943F027
:10236000800323745046FEF7ABF8B9F1030F0CD08D
:10237000BDE8F88F382000FB076051461C30FEF79F
:102380005EF8F2E7B9F1010F29D1B8F1FF3F01D1B1
:10239000BDE8F88F07222B681A72124B9B450AD1B1
:1023A0004CB1237C404643F0400323740F49BDE801
:1023B000F84FFEF785B8382404FB07604146002239
:1023C0000430FEF73FF801226B68284604FB0366E1
:1023D00086F835200021BDE8F84FFFF7E9BDBDE8DC
:1023E000F88F00BF00000140DC130010407B0000AC
:1023F0001C7B00002DE9F0410F4605464649384652
:102400001646FEF797F8454904463046FEF792F81F
:1024100001462046FEF770F8414B0446984228607A
:102420005DD047D8A3F58043984250D001234FF0A8
:10243000000823724FF416512846C4F80480FFF7B1
:102440001DFE03222B6834491A733846FEF738F80C
:1024500032493046FEF734F87A1C03D041463846FC
:10246000FFF71FFD731C03D000213046FFF719FD55
:102470002B4B9C424BD03ED8A3F580439C4243D08B
:1024800038216A68274B284601FB02324FF0FF33A0
:1024900000215360D3611A46FFF728FF224B9C426C
:1024A00006D10122214B69681A602868204B03C3BA
:1024B000BDE8F0811F4B984217D003F58043984246
:1024C000B4D11D4AD2F8C43043F0007304E01A4A74
:1024D000D2F8C43043F00803C2F8C430A6E7164A65
:1024E000D2F8C43043F01003F6E7134AD2F8C430F0
:1024F00043F08073F0E70F4B9C420AD003F5804312
:102500009C42BDD1032300E000236B60B8E70123A8
:10251000FBE70223F9E700BFD07B0000647B0000EB
:1025200000000140DC13001000C00040D813001070
:10253000882000100080094000C00F4030B50C4CCE
:10254000A268A4681346B4F1805F0CD2131F094C33
:10255000094A53F8045F42F8045FA242F9D14FF0F0
:102560008053034A9360103043F8201030BD00BF01
:1025700000ED00E0C0000010FCFFFF0F2022264B02
:10258000C3F8A021D3F8A021920603D5D3F8A02147
:102590005006FBD50222C3F8042100220120C3F813
:1025A000A821C3F8AC210B22C3F80C01AA21C3F85F
:1025B00084205522C3F88C10C3F88C20C3F8800007
:1025C000C3F88C10C3F88C20134B1A46D3F888102C
:1025D0004901FBD50321C3F88010AA21C3F88C1050
:1025E0005521C3F88C10D2F8883013F0407FFAD010
:1025F0000523C2F80831094BC2F8C4300023C2F8E1
:10260000C831136823F4704323F03A0343F4405372
:1026100043F03A031360704700C00F40DE87280480
:102620000368DB69184703685B69184703689B6A9E
:10263000184700F0CDB9A0F13000FFF7FABF00F065
:10264000CAB9A0F13000FFF7FABF4FF0FF314430B4
:1026500000F020BDA0F13000FFF7F7BF443000F0DC
:102660001CBDA0F13000FFF7F9BF000038B50446EB
:102670001D46049B00F0B6F9294604F1300000F035
:102680004BF8064B04F1440003F1080228332260A2
:10269000236300F0E7FC204638BD00BF3C7C00000F
:1026A00070477047F8B50E46036804469B6B8F1859
:1026B00035469847BD4207D0236815F8011B1B6CAF
:1026C000204698470130F5D123682046DB6B9847B8
:1026D000A81BF8BDF8B50E46036804469B6B8F181F
:1026E00035469847BD4208D0236820465B6C984722
:1026F000431C02D005F8010BF4E723682046DB6B8E
:102700009847A81BF8BD002070470020704770470D
:1027100000207047002070471FB50446002200F0DB
:10272000CBF8094B2246236000230849236101A806
:1027300003F024F9064901A801F0AAFE206100F087
:1027400086FB204604B010BD047D0000F47C000030
:10275000F87C000010B50446054B0360006901F0E9
:10276000DDFC044B2046236000F0CAF8204610BD73
:10277000047D0000B47C00000EB477B50446036805
:1027800007AD55F8046B9B6B98472069019501F0E4
:102790007FFD019A3146206902F022FA054623683E
:1027A0002046DB6B9847284603B0BDE8704003B075
:1027B0007047C36810B504460BB19B689847204624
:1027C00010BD002310B5036043600A7804462F2A29
:1027D0000DD14A785AB1481C1946206023681A78EE
:1027E0002F2A06D10133236000F0C0F86060204634
:1027F00010BD002AF8D0013301312360EEE70068F4
:102800007047406808B520B100F039F8431E5842BF
:10281000584108BD10B50446FFF7F3FF00B16068EA
:1028200010BD406808B520B100F029F8B0FA80F07A
:10283000400908BD10B50446FFF7F3FF00B160681A
:1028400010BD4068003018BF01207047036818476A
:1028500008B10B68036070477047884238B504467A
:102860000D460AD0FFF7A5FF3CB1EB681BB15B68D2
:10287000294620469847EB68E360204638BD007B38
:1028800070470000036870B5044683B9094D4FF0E6
:10289000FF312868FEF7B2FD23682BB9261D02D050
:1028A000304600F0DFFB26602868FEF7CFFD206889
:1028B00070BD00BFFC18001038B50E4B0446036015
:1028C00000230D464360A16002730B48FFF7DAFF57
:1028D0004FF0FF3100F0DEFB55B1084B1A681C6069
:1028E00062600548FFF7CEFF00F0D7FB204638BDF9
:1028F0006560F6E7607D0000C0140010BC14001095
:1029000010B50446114B03601148FFF7BBFF4FF0B1
:10291000FF3100F0BFFBA3682BB10E4A13689C4245
:102920000ED1636813600A48FFF7ACFF00F0B5FBF7
:10293000237B13B9204600F0B1FA204610BD1346A0
:102940005A689442FBD162685A60ECE7607D0000EF
:10295000C0140010BC14001010B50446FFF7D0FFDF
:10296000204600F098FA204610BD0000F8B5074652
:1029700010480E46FFF786FF4FF0FF3100F08AFB4C
:102980000D4B1C6864B1A5688DB1324639462846A6
:1029900003F099F858B9284603F08DF8864206D11D
:1029A0000448FFF76FFF00F078FB2046F8BD64682D
:1029B000E8E700BFC0140010BC1400107047704757
:1029C000704700EB0112936902F10C001B68184775
:1029D0000430FFF733BC10B50C460430FFF76EFC33
:1029E000204610BD2DE9FF410F46002104469046C8
:1029F000174A184E184DC3620260416081608161C0
:102A0000816269460C3003950096FFF726FF684601
:102A1000FFF7CFFE694604F11C0003950096251DC3
:102A2000FFF71BFF6846FFF7C4FE424639462846BB
:102A3000FFF7E0FCE16A2846FFF720FB2846224624
:102A40000649FFF7EFFB204604B0BDE8F08100BF68
:102A5000707D0000BD2900004C7D0000C3290000EE
:102A600010B50446006930B1036861695B6A984734
:102A70000023236110BD6FF0150010BD30B4044673
:102A8000006903689D6A1346AC460A46616930BC1A
:102A9000604730B4044600690368DD6A1346AC46FB
:102AA0000A46616930BC6047036941691A68184683
:102AB000126B1047036941691A681846526B104738
:102AC00030B40446006903689D6B1346AC460A4661
:102AD000616930BC6047036941691A681846D26B66
:102AE0001047036941691A681846126C1047036958
:102AF00041691A681846526C104770B50D46016955
:102B0000044641B929680E6A00F114012846B0470D
:102B100018B9256170BD6FF0150070BD074B10B579
:102B20000360036904460BB1FFF79AFF044B20468C
:102B30002360FFF7E5FE204610BD00BF887D000042
:102B4000B47C000010B50446FFF7E8FF204600F013
:102B5000A2F9204610BD0000002210B5044611461F
:102B6000FFF7AAFE034B2046236000232361636125
:102B700010BD00BF887D000001F070BE01F0CCBE2A
:102B800001F020BE01F00FBE70B505464FF47A7417
:102B9000FFF7C2F895FBF4F4002C064602DDFDF7C2
:102BA000EAFC28B9FFF7B8F8801BA842FAD370BD39
:102BB000204600F055FAF5E74FF47A735843FFF7D3
:102BC000E3BF0000034B10B503600446FFF7A6FF08
:102BD000204610BDD47D000008B5084B1B685BB9CA
:102BE00007490848084AFFF705FC4FF41651BDE8AD
:102BF00008400448FFF742BA08BD00BFD8130010D0
:102C000002C009208820001003C00920704700007E
:102C1000022810B5044601DC002010BD01F026FAA0
:102C2000092300220360094B033C53F8240043F8B6
:102C3000242040B103681B699847041EECDA01F0B8
:102C400015FA644204604FF0FF3010BDF814001014
:102C5000F8B505460E46144601F008FA0923022D80
:102C600003600FDC124B1B680BB9FFF7B5FF35464D
:102C70003719104EBD4215D015F8011B3046FFF72D
:102C80001DFBF7E70C4B033D53F8250060B10368CB
:102C90002246DB6831469847041E03DA01F0E6F964
:102CA000634203602046F8BD4FF0FF34FAE700BFEF
:102CB000D813001088200010F814001070B50446D6
:102CC0000D46164601F0D2F90923022C03600BDCF5
:102CD0000F4B1B680BB9FFF77FFF0E48FFF7AEFAEB
:102CE00001242870204670BD0B4B033C53F8240090
:102CF00058B1036832469B6829469847041EF1DAAA
:102D000001F0B4F963420360ECE74FF0FF34E9E708
:102D1000D813001088200010F814001010B50446D5
:102D200001F0A4F90923022C036010DD0A4B033CD7
:102D300053F8240040B103689B699847041E08DAE1
:102D400001F094F9644204604FF0FF3010BD01209F
:102D500010BD002010BD00BFF814001070B504466F
:102D60000D46164601F082F90923022C03600BDDA3
:102D7000084B033C53F8240040B10368324629460F
:102D8000BDE87040DB691847002070BD4FF0FF3090
:102D900070BD00BFF8140010022808B504DC4FF421
:102DA000005300204B6008BD01F060F90923036067
:102DB0004FF0FF3008BD08B5FFF728FFFDF7BCFC5A
:102DC00008BD704708B5FFF7FCFFBDE80840FDF7F8
:102DD00037BA00000C4A10B513681844EFF30881A5
:102DE000884205D30C22094B4FF0FF301A6010BD0A
:102DF00007490C6824B10749096821448842F1D287
:102E00001060184610BD00BFE800001090200010B0
:102E10001416001018160010094C08B52368054652
:102E2000986801F035FA2368D86801F031FAFDF7A7
:102E300091FB08B1FDF7BCFB0DB1FDF7D9FBFEE737
:102E4000EC0000100120704708B5FFF7E5FF0021F6
:102E500002F0DDBC08B5FDF77DFC08BD08B5FDF747
:102E600081FC08BD10B501F053FC044610B90248BE
:102E7000FDF7FAFB204610BD187E000008B101F0F6
:102E80004FBC704710B50446FFF79CFE2046FFF785
:102E9000F5FF204610BDFFF7F1BF000010B5044656
:102EA0000C48FFF7EFFC4FF0FF3100F0F3F8002380
:102EB0001946094A52F82300A04208BF42F82310DD
:102EC0000133402BF6D10348FFF7DCFCBDE810408E
:102ED00000F0E3B8F8150010F81400102DE9F347DE
:102EE00089464E49064602F0DCFD044628B9FFF744
:102EF00073FE204602B0BDE8F0874949304602F033
:102F0000D0FD18B9FFF768FE0124F2E745493046C5
:102F100002F0C7FD18B9FFF75FFE0224E9E701F0F0
:102F2000A5F80923404F03604048FFF7ABFC4FF082
:102F3000FF3100F0AFF80024B84657F82450002DB8
:102F400054D00134402CF8D101F090F818230360DC
:102F50003648FFF797FC00F0A0F80DE031466846D0
:102F6000FFF72FFC6846FFF76CFC40B947F82400D8
:102F700001F07CF8022303604FF0FF34B9E76846A4
:102F8000FFF74FFC20B16846FFF754FC05463FE0D1
:102F90006846FFF73FFC824630B901F067F802232C
:102FA000036047F824A0E7E71820FFF75BFF064619
:102FB000FFF7D2FD1E4B68463360FFF720FC29F473
:102FC0008033024651463046FFF797FD071E0BDA65
:102FD00001F04CF87F4207601EB1336830465B68F1
:102FE000984748F82450C7E7354611E04FF0FF33C3
:102FF0000E4847F82430FFF745FC00F04EF83378D0
:103000003A2BABD16A460B49304602F0DBFC009DFF
:10301000002DE6D048F8245003346AE73D7E0000D6
:10302000447E0000357E0000F8140010F8150010F2
:10303000D47D0000F47C000038B50446FFF710FD95
:1030400005461CB1236820465B689847284638BD72
:10305000024B1B6803B11847704700BF1C160010D5
:10306000FEF73CB938B5044600F1080510220021EE
:10307000284601F090FB204640F8045FFEF7A0F9D7
:10308000206010B90248FDF7EFFA204638BD00BFB6
:103090004C7E00000068FEF7B1B90068FEF7D6B9B3
:1030A00010B504460068FEF717FA204610BD000070
:1030B00080F309887047EFF309807047684680F312
:1030C00009883F480078C00714BF0220032080F31E
:1030D00014887047DFF8ECC0EFF305831B0618BFB8
:1030E0006047EFF31483DB0708BF604700DF7047DA
:1030F000DFF8D4C0EFF305831B0618BF6047EFF37A
:103100001483DB0708BF604700DF7047EFF30980D7
:10311000816911F8021CF1B990E80F10E047EFF354
:10312000098C8CE80700294B93E8060091420FD0E8
:1031300039B12CE9F00FC1F82CC00CB4FDF7E4FD57
:103140000CBC1A60D2F82CC0BCE8F00F8CF30988D4
:103150006FF0020E704710B51D4A1268914209D8EF
:103160001C4C54F8214090E80F10A047EFF3098C55
:103170008CE80F0010BDFDF753FD144B93E80600DB
:10318000914210D0EFF3098C2CE9F00FC1F82CC05C
:103190000CB4FDF7B9FD0CBC1A60D2F82CC0BCE829
:1031A000F00F8CF309886FF0020E7047FDF78EFD6B
:1031B000FFF7E3BFFDF788FDFDF788FDFFF7DDBFF3
:1031C000727A0000770D0000910D00003C20001085
:1031D00000000000FCFFFFFF0649074A074B9A4228
:1031E000BEBF51F8040B42F8040BF8E704488047CF
:1031F000044800476C810000C8000010C80200109D
:103200007D250000B1030000FEE7FEE7FEE7FEE7D4
:10321000FEE7FEE7FEE7FEE7FEE7FEE781F000419E
:1032200002E000BF83F0004330B54FEA41044FEAAB
:10323000430594EA050F08BF90EA020F1FBF54EA46
:10324000000C55EA020C7FEA645C7FEA655C00F0E2
:10325000E2804FEA5454D4EB5555B8BF6D420CDDB3
:103260002C4480EA020281EA030382EA000083EA36
:10327000010180EA020281EA0303362D88BF30BDD6
:1032800011F0004F4FEA01314FF4801C4CEA11312C
:1032900002D0404261EB410113F0004F4FEA03338B
:1032A0004CEA133302D0524263EB430394EA050F16
:1032B00000F0A780A4F10104D5F1200E0DDB02FA85
:1032C0000EFC22FA05F2801841F1000103FA0EF219
:1032D000801843FA05F359410EE0A5F120050EF1DF
:1032E000200E012A03FA0EFC28BF4CF0020C43FA10
:1032F00005F3C01851EBE37101F0004507D54FF01D
:10330000000EDCF1000C7EEB00006EEB0101B1F56C
:10331000801F1BD3B1F5001F0CD349085FEA3000B2
:103320004FEA3C0C04F101044FEA445212F5800FBD
:1033300080F09A80BCF1004F08BF5FEA500C50F15A
:10334000000041EB045141EA050130BD5FEA4C0C3D
:10335000404141EB010111F4801FA4F10104E9D1C6
:1033600091F0000F04BF01460020B1FA81F308BFBD
:103370002033A3F10B03B3F120020CDA0C3208DD89
:1033800002F1140CC2F10C0201FA0CF021FA02F164
:103390000CE002F11402D8BFC2F1200C01FA02F1D4
:1033A00020FA0CFCDCBF41EA0C019040E41AA2BFF9
:1033B00001EB0451294330BD6FEA04041F3C1CDAC1
:1033C0000C340EDC04F11404C4F1200220FA04F0E1
:1033D00001FA02F340EA030021FA04F345EA03018B
:1033E00030BDC4F10C04C4F1200220FA02F001FA4D
:1033F00004F340EA0300294630BD21FA04F02946CF
:1034000030BD94F0000F83F4801306BF81F4801167
:103410000134013D4EE77FEA645C18BF7FEA655CDA
:1034200029D094EA050F08BF90EA020F05D054EAAC
:10343000000C04BF1946104630BD91EA030F1EBFB1
:103440000021002030BD5FEA545C05D140004941B5
:1034500028BF41F0004130BD14F580043CBF01F5A8
:10346000801130BD01F0004545F0FE4141F470018E
:103470004FF0000030BD7FEA645C1ABF1946104669
:103480007FEA655C1CBF0B46024650EA013406BF6A
:1034900052EA033591EA030F41F4002130BD00BF29
:1034A00090F0000F04BF0021704730B54FF48064E6
:1034B00004F132044FF000054FF0000150E700BF67
:1034C00090F0000F04BF0021704730B54FF48064C6
:1034D00004F1320410F0004548BF40424FF00001B3
:1034E0003EE700BF42004FEAE2014FEA31014FEAF6
:1034F00002701FBF12F07F4393F07F4F81F0605145
:10350000704792F0000F14BF93F07F4F704730B5B3
:103510004FF4607401F0004521F0004120E700BF46
:1035200050EA010208BF704730B54FF000050AE0CD
:1035300050EA010208BF704730B511F0004502D5CE
:10354000404261EB41014FF4806404F132045FEAD0
:10355000915C3FF4DCAE4FF003025FEADC0C18BF75
:1035600003325FEADC0C18BF033202EBDC02C2F16B
:10357000200300FA03FC20FA02F001FA03FE40EAFD
:103580000E0021FA02F11444C1E600BF70B54FF0FD
:10359000FF0C4CF4E06C1CEA11541DBF1CEA1355DF
:1035A00094EA0C0F95EA0C0F00F0DEF82C4481EA47
:1035B000030621EA4C5123EA4C5350EA013518BF67
:1035C00052EA033541F4801143F4801338D0A0FB54
:1035D00002CE4FF00005E1FB02E506F00042E0FB01
:1035E00003E54FF00006E1FB03569CF0000F18BF07
:1035F0004EF0010EA4F1FF04B6F5007F64F54074AF
:1036000004D25FEA4E0E6D4146EB060642EAC62141
:1036100041EA55514FEAC52040EA5E504FEACE2EAE
:10362000B4F1FD0C88BFBCF5E06F1ED8BEF1004FB1
:1036300008BF5FEA500E50F1000041EB045170BD2D
:1036400006F0004646EA010140EA020081EA030171
:10365000B4EB5C04C2BFD4EB0C0541EA045170BD6D
:1036600041F480114FF0000E013C00F3AB8014F1E7
:10367000360FDEBF002001F0004170BDC4F1000430
:10368000203C35DA0C341BDC04F11404C4F12005B1
:1036900000FA05F320FA04F001FA05F240EA02000C
:1036A00001F0004221F0004110EBD37021FA04F642
:1036B00042EB06015EEA430E08BF20EAD37070BDFC
:1036C000C4F10C04C4F1200500FA04F320FA05F05B
:1036D00001FA04F240EA020001F0004110EBD3705D
:1036E00041F100015EEA430E08BF20EAD37070BDCD
:1036F000C4F1200500FA05F24EEA020E20FA04F3A6
:1037000001FA05F243EA020321FA04F001F0004154
:1037100021FA04F220EA020000EBD3705EEA430EC5
:1037200008BF20EAD37070BD94F0000F0FD101F0F4
:103730000046400041EB010111F4801F08BF013C2D
:10374000F7D041EA060195F0000F18BF704703F06B
:103750000046520043EB030313F4801F08BF013DF2
:10376000F7D043EA0603704794EA0C0F0CEA1355AE
:1037700018BF95EA0C0F0CD050EA410618BF52EA68
:103780004306D1D181EA030101F000414FF000006E
:1037900070BD50EA410606BF1046194652EA43067C
:1037A00019D094EA0C0F02D150EA013613D195EAF0
:1037B0000C0F05D152EA03361CBF104619460AD138
:1037C00081EA030101F0004141F0FE4141F4700142
:1037D0004FF0000070BD41F0FE4141F4780170BD32
:1037E00070B54FF0FF0C4CF4E06C1CEA11541DBF97
:1037F0001CEA135594EA0C0F95EA0C0F00F0A7F899
:10380000A4EB050481EA030E52EA03354FEA0131C5
:1038100000F088804FEA03334FF0805545EA1313D8
:1038200043EA12634FEA022245EA111545EA1065A0
:103830004FEA00260EF000419D4208BF964244F137
:10384000FD0404F5407402D25B084FEA3202B61A56
:1038500065EB03055B084FEA32024FF480104FF42A
:10386000002CB6EB020E75EB030E22BFB61A75469E
:1038700040EA0C005B084FEA3202B6EB020E75EB31
:10388000030E22BFB61A754640EA5C005B084FEA99
:103890003202B6EB020E75EB030E22BFB61A754666
:1038A00040EA9C005B084FEA3202B6EB020E75EB71
:1038B000030E22BFB61A754640EADC0055EA060E32
:1038C00018D04FEA051545EA16754FEA06164FEA75
:1038D000C30343EA52734FEAC2025FEA1C1CC0D121
:1038E00011F4801F0BD141EA00014FF000004FF0AE
:1038F000004CB6E711F4801F04BF01430020B4F16F
:10390000FD0C88BFBCF5E06F3FF6AFAEB5EB030C26
:1039100004BFB6EB020C5FEA500C50F1000041EB23
:10392000045170BD0EF0004E4EEA113114EB5C04F0
:10393000C2BFD4EB0C0541EA045170BD41F48011C3
:103940004FF0000E013C90E645EA060E8DE60CEACB
:10395000135594EA0C0F08BF95EA0C0F3FF43BAFE8
:1039600094EA0C0F0AD150EA01347FF434AF95EA9F
:103970000C0F7FF425AF104619462CE795EA0C0F83
:1039800006D152EA03353FF4FDAE1046194622E750
:1039900050EA410618BF52EA43067FF4C5AE50EA2A
:1039A00041047FF40DAF52EA43057FF4EBAE12E71A
:1039B0004FF0FF3C06E000BF4FF0010C02E000BFFB
:1039C0004FF0010C4DF804CD4FEA410C7FEA6C5CDE
:1039D0004FEA430C18BF7FEA6C5C1BD001B050EA81
:1039E000410C0CBF52EA430C91EA030F02BF90EA6C
:1039F000020F0020704710F1000F91EA030F58BF2B
:103A0000994208BF90422CBFD8176FEAE37040F08C
:103A1000010070474FEA410C7FEA6C5C02D150EA2A
:103A2000013C07D14FEA430C7FEA6C5CD6D152EAE5
:103A3000033CD3D05DF8040B704700BF84461046AA
:103A400062468C461946634600E000BF01B5FFF7A9
:103A5000B7FF002848BF10F1000F01BD4DF808ED79
:103A6000FFF7F4FF0CBF012000205DF808FB00BF4A
:103A70004DF808EDFFF7EAFF34BF012000205DF8A4
:103A800008FB00BF4DF808EDFFF7E0FF94BF0120F1
:103A900000205DF808FB00BF4DF808EDFFF7CEFFF2
:103AA00094BF012000205DF808FB00BF4DF808ED31
:103AB000FFF7C4FF34BF012000205DF808FB00BF02
:103AC0004FEA410212F5001215D211D56FF4787346
:103AD000B3EB625212D94FEAC12343F0004343EAE9
:103AE000505311F0004F23FA02F018BF40427047C4
:103AF0004FF00000704750EA013005D111F000404E
:103B000008BF6FF0004070474FF00000704700BFE3
:103B10004FEA4102B2F1E04324BFB3F5001CDCF1EF
:103B2000FE5C0DD901F0004C4FEAC0024CEA507027
:103B3000B2F1004F40EB830008BF20F00100704756
:103B400011F0804F21D113F13872BCBF01F0004059
:103B5000704741F480114FEA5252C2F11802C2F18B
:103B6000200C10FA0CF320FA02F018BF40F001000C
:103B70004FEAC1234FEAD32303FA0CFC40EA0C00BE
:103B800023FA02F34FEA4303CCE77FEA625307D1FB
:103B900050EA01331EBF4FF0FE4040F44000704732
:103BA00001F0004040F0FE4040F40000704700BFCC
:103BB00080F0004002E000BF81F0004142001FBFE2
:103BC0005FEA410392EA030F7FEA226C7FEA236CEB
:103BD0006AD04FEA1262D2EB1363C1BFD2184140E0
:103BE00048404140B8BF5B42192B88BF704710F076
:103BF000004F40F4000020F07F4018BF404211F019
:103C0000004F41F4000121F07F4118BF494292EA80
:103C1000030F3FD0A2F1010241FA03FC10EB0C00AC
:103C2000C3F1200301FA03F100F0004302D5494239
:103C300060EB4000B0F5000F13D3B0F1807F06D3E6
:103C400040084FEA310102F10102FE2A51D2B1F1DE
:103C5000004F40EBC25008BF20F0010040EA0300D3
:103C60007047490040EB000010F4000FA2F1010280
:103C7000EDD1B0FA80FCACF1080CB2EB0C0200FA0A
:103C80000CF0AABF00EBC25052421843BCBFD04058
:103C90001843704792F0000F81F4000106BF80F4D2
:103CA00000000132013BB5E74FEA41037FEA226C95
:103CB00018BF7FEA236C21D092EA030F04D092F060
:103CC000000F08BF0846704790EA010F1CBF002094
:103CD000704712F07F4F04D1400028BF40F00040F1
:103CE000704712F100723CBF00F50000704700F011
:103CF000004343F0FE4040F4000070477FEA226238
:103D000016BF08467FEA23630146420206BF5FEA08
:103D1000412390EA010F40F4800070474FF0000308
:103D200004E000BF10F0004348BF40425FEA000CCF
:103D300008BF704743F0964301464FF000001CE077
:103D400050EA010208BF70474FF000030AE000BFCD
:103D500050EA010208BF704711F0004302D540420B
:103D600061EB41015FEA010C02BF8446014600207D
:103D700043F0B64308BFA3F18053A3F50003BCFA98
:103D80008CF2083AA3EBC25310DB01FA02FC634445
:103D900000FA02FCC2F12002BCF1004F20FA02F24C
:103DA00043EB020008BF20F00100704702F120023F
:103DB00001FA02FCC2F1200250EA4C0021FA02F2A0
:103DC00043EB020008BF20EADC7070474FF0FF0CA5
:103DD0001CEAD0521EBF1CEAD15392EA0C0F93EAA0
:103DE0000C0F6FD01A4480EA010C400218BF5FEA42
:103DF00041211ED04FF0006343EA501043EA5111B5
:103E0000A0FB01310CF00040B1F5000F3EBF4900AE
:103E100041EAD3715B0040EA010062F17F02FD2AB2
:103E20001DD8B3F1004F40EBC25008BF20F0010095
:103E3000704790F0000F0CF0004C08BF49024CEAAC
:103E4000502040EA51207F3AC2BFD2F1FF0340EA3E
:103E5000C250704740F400004FF00003013A5DDCAF
:103E600012F1190FDCBF00F000407047C2F10002F0
:103E7000410021FA02F1C2F1200200FA02FC5FEADD
:103E8000310040F1000053EA4C0308BF20EADC7027
:103E9000704792F0000F00F0004C02BF400010F499
:103EA000000F013AF9D040EA0C0093F0000F01F046
:103EB000004C02BF490011F4000F013BF9D041EA68
:103EC0000C018FE70CEAD15392EA0C0F18BF93EA6A
:103ED0000C0F0AD030F0004C18BF31F0004CD8D194
:103EE00080EA010000F00040704790F0000F17BF1B
:103EF00090F0004F084691F0000F91F0004F14D061
:103F000092EA0C0F01D142020FD193EA0C0F03D1B8
:103F10004B0218BF084608D180EA010000F00040BB
:103F200040F0FE4040F40000704740F0FE4040F496
:103F3000400070474FF0FF0C1CEAD0521EBF1CEA35
:103F4000D15392EA0C0F93EA0C0F69D0A2EB030253
:103F500080EA010C49024FEA402037D04FF08053ED
:103F600043EA111143EA10130CF000408B4238BFB2
:103F70005B0042F17D024FF4000C8B4224BF5B1AC0
:103F800040EA0C00B3EB510F24BFA3EB510340EA0E
:103F90005C00B3EB910F24BFA3EB910340EA9C00BC
:103FA000B3EBD10F24BFA3EBD10340EADC001B012C
:103FB00018BF5FEA1C1CE0D1FD2A3FF650AF8B42D0
:103FC00040EBC25008BF20F0010070470CF0004CDD
:103FD0004CEA50207F32C2BFD2F1FF0340EAC25008
:103FE000704740F400004FF00003013A37E792F0C9
:103FF000000F00F0004C02BF400010F4000F013A27
:10400000F9D040EA0C0093F0000F01F0004C02BF21
:10401000490011F4000F013BF9D041EA0C0195E78A
:104020000CEAD15392EA0C0F08D142027FF47DAF23
:1040300093EA0C0F7FF470AF084676E793EA0C0F13
:1040400004D14B023FF44CAF08466EE730F0004C11
:1040500018BF31F0004CCAD130F000427FF45CAFA1
:1040600031F000437FF43CAF5FE700BF014B1868BD
:10407000704700BFEC00001070B505460C4611B942
:104080000026304670BD18B183690BB900F052F9B3
:104090001F4B9C4232D16C68B4F90C30002BEFD02E
:1040A0002146284600F042F8236B064633B1216AC8
:1040B000284698470028B8BF4FF0FF36A3891B0653
:1040C00003D521692846FEF75BFD616B41B104F120
:1040D0004403994202D02846FEF752FD0023636351
:1040E000A16C21B12846FEF74BFD0023A36400F02C
:1040F0008DF90023A38100F08AF9C2E7054B9C42A9
:1041000001D1AC68C8E7044B9C4208BFEC68C3E728
:10411000947E0000B47E0000747E0000024B0146D5
:104120001868FFF7A9BF00BFEC0000108A892DE9CD
:10413000F041054610070C465AD44B68002B05DCAD
:104140000B6C002B02DC0020BDE8F081E66A002E3B
:10415000F9D0002312F480522F682B6033D0606DA9
:10416000A3895A0705D56368C01A636B0BB1236C2A
:10417000C01A00230246E66A216A2846B047431C5B
:10418000A38906D129681D294BD82B4ACA40D607D6
:1041900047D5002262602269D904226004D5421CFE
:1041A00001D12B6803B96065616B2F600029CAD00B
:1041B00004F14403994202D02846FEF7E1FC0020B6
:1041C0006063BDE8F081216A01232846B047411CA5
:1041D000C6D12B68002BC3D01D2B01D0162B01D1CB
:1041E0002F60B0E7A38943F04003A381BDE8F081CD
:1041F0000F69002FA7D0930718BF00230E6808BFD0
:104200004B69A6EB07080F608B60B8F1000F9ADDD1
:1042100043463A46216A2846A66AB047002807DC8A
:10422000A38943F04003A3814FF0FF30BDE8F08144
:104230000744A8EB0008E8E70100402038B50B6907
:1042400005460C46DBB118B183690BB900F072F872
:104250000C4B9C4209D16C68B4F90C307BB12146FF
:104260002846BDE83840FFF761BF074B9C4201D1AB
:10427000AC68F1E7054B9C4208BFEC68ECE7002016
:1042800038BD00BF947E0000B47E0000747E000044
:10429000014620B9044B0549186800F093B9044B56
:1042A0001868FFF7CBBF00BFD47E00003D4200007E
:1042B000EC000010014900F085B900BF3D4200004C
:1042C000002310B504460360436083608181436628
:1042D000C281036143618361194608225C3000F0AA
:1042E0005AFA054B24626362044BA362044BE362F7
:1042F000044B236310BD00BF195A00003F5A000051
:10430000775A00009B5A000070B568254A1E554335
:104310000E4605F17401FEF72FFC044640B1002162
:1043200080E842000C30A06005F1680200F033FA2A
:10433000204670BD836910B5044633BB8364C364F3
:104340000365124B124A1B688262984204BF012324
:10435000836100F01FF86060204600F01BF8A06049
:10436000204600F017F80022E06004216068FFF7A3
:10437000A7FF01220921A068FFF7A2FF0222122154
:10438000E068FFF79DFF0123A36110BDD47E00000C
:10439000B5420000F8B51C4B07461E68B36913B957
:1043A0003046FFF7C7FF4836B4687368013B03D552
:1043B000336833B13668F7E7B4F90C506DB168343F
:1043C000F4E704213846FFF79FFF30600028F1D161
:1043D0000C2304463B602046F8BD4FF6FF73E38193
:1043E00001236566A3812560A5606560256165611F
:1043F000A5610822294604F15C0000F0CCF9656350
:10440000A563A564E564E6E7D47E000070477047C5
:10441000F7B50F46114601AA054602F005FC06460F
:1044200018B90024204603B0F0BD2846FFF7B2FFBC
:1044300004460028F5D04FF4DB73019A394628462C
:1044400001F094F9002806DA0025FFF7DFFFA581C7
:10445000FFF7DDFFE5E70A4BE0816362094BA681C8
:10446000A362094B2462E362084B2363F305D9D5A9
:10447000022300222146284600F012F8D2E700BFAE
:10448000195A00003F5A0000775A00009B5A00005A
:10449000024B0A4601461868FFF7BABFEC0000104D
:1044A00000F000B82DE9F8430C4691461E4605463B
:1044B00018B183690BB9FFF73DFF3F4B9C4212D106
:1044C0006C68A38903F48473B3F5847F03D1214618
:1044D0002846FFF7B3FED4F82C80B8F1000F0CD1BA
:1044E0001D232B6057E0354B9C4201D1AC68E8E7B7
:1044F000334B9C4208BFEC68E3E7012E30D0022E1C
:1045000001D0002E55D123691BB92146284600F061
:10451000BFF821462846FFF791FE074600283AD10A
:1045200033464A46216A2846C047013033D0616B82
:1045300041B104F14403994202D02846FEF720FB22
:10454000002363630021236961602360A38908223B
:1045500023F40263A38104F15C0000F01CF91CE069
:1045600021462846FFF76AFEA28912F480520CD039
:10457000606DA3895A0713D56368C01A636B0BB1CA
:10458000236CC01A81440026BDE7216A33462846C1
:10459000C047411CEDD14FF0FF373846BDE8F883E6
:1045A0001B07EFD52368002BECD022699B1A184417
:1045B000E8E7162395E700BF947E0000B47E000074
:1045C000747E00002DE9F84380468946002600F1FC
:1045D000480414B93046BDE8F883A5686768013F10
:1045E00001D52468F5E7AB89012B07D9B5F90E3061
:1045F000013303D029464046C84706436835EEE7F5
:1046000070B500250C4E0D4CA41BA410A54209D179
:1046100003F0B4F900250A4E0A4CA41BA410A542CD
:1046200005D170BD56F8253098470135EEE756F8AC
:10463000253098470135F2E7BC020010BC0200109B
:10464000BC020010C402001070B50E46B1F90E1085
:1046500090B0002914461D4607DA00232B60B38969
:104660001A0610D44FF480630EE001AA02F012FB88
:104670000028F2DB029A02F47042A2F500535A427B
:104680005A412A60EEE740230020236010B070BD3D
:104690008B8973B59D0706460C4607D504F1470381
:1046A000236023610123636102B070BD01AB6A46E0
:1046B000FFF7CAFF009905463046FEF75DFA48B994
:1046C000B4F90C309A05EFD423F0030343F002034E
:1046D000A381E3E70D4BB362A389206043F080031D
:1046E000A381009B20616361019B5BB1B4F90E1053
:1046F000304602F0E1FA28B1A38923F0030343F026
:104700000103A381A3891D43A581CDE7B542000024
:10471000024B01461868FEF72FBA00BFEC000010EC
:10472000024B01461868FEF72BBA00BFEC000010E0
:1047300010B5C9B202449042034601D1002010BD19
:104740001C7801308C42F6D1184610BD10B5431EBE
:104750000A44914200D110BD11F8014B03F8014FFA
:10476000F7E7884210B501EB020303D8421E9942D5
:104770000CD110BD9842F9D28118D21AD34200D17F
:1047800010BD13F8014D01F8014DF7E711F8014B89
:1047900002F8014FEBE703460244934200D1704711
:1047A00003F8011BF9E738B502FB01F42146FEF7D7
:1047B000E3F9054618B122460021FFF7ECFF284631
:1047C00038BD000038B50546002943D051F8043CF7
:1047D0000C1F002BB8BFE418FEF73CFB1E4A136801
:1047E000104633B9636014602846BDE83840FEF7D0
:1047F00035BBA3420BD921686218934201BF1A68E6
:104800005B685218226063600460EDE713465A68E3
:104810000AB1A242FAD919685818A0420BD12068EF
:104820000144581882421960DED110685268014470
:1048300019605A60D8E702D90C232B60D4E72068AE
:1048400021188A4201BF116852680918216062600C
:104850005C60C9E738BD00BF2016001070B5CD1CE4
:1048600025F0030508350C2D38BF0C25002D064614
:1048700001DBA94203D90C233360002070BDFEF791
:10488000E9FA234A1468214691B9224C23681BB9DE
:10489000304600F07DFF20602946304600F078FF6A
:1048A000431C26D10C2330463360FEF7D7FAE4E7E9
:1048B0000B685B1B1AD40B2B0FD90B60CC18CD5097
:1048C0003046FEF7CBFA04F10B00231D20F0070061
:1048D000C31A1BD05A42E25070BD8C420BBF6368B2
:1048E0004B681360636018BF0C46E9E70C464968E3
:1048F000CAE7C41C24F00304A04205D0211A3046A4
:1049000000F046FF0130CDD02560D9E770BD00BF73
:104910002016001024160010F8B5074614460E465F
:1049200021B91146BDE8F840FEF726B922B9FEF7D5
:1049300027F925462846F8BD02F0E3FC84420FD94A
:1049400021463846FEF718F905460028F2D03146D0
:104950002246FFF7FBFE31463846FEF711F9E9E73C
:104960003546E7E7936810B4013B002B936008DA03
:104970009469A34202DBCBB20A2B02D110BC01F036
:1049800011BA1368581C10601970C8B210BC704777
:10499000F8B506460F461446D518AC4201D10020A2
:1049A00007E03A4614F8011B3046FFF7DBFF431CD3
:1049B000F3D1F8BD2DE9F04F9DB00C461746039397
:1049C000064618B183690BB9FFF7B4FC7C4B9C42D7
:1049D00057D17468A38918075DD52369002B5AD075
:1049E0000023099320238DF8293030234FF0010B49
:1049F0008DF82A30B846454615F8013B002B55D1B5
:104A0000B8EB070A0BD053463A4621463046FFF72B
:104A1000BFFF013000F0C480099B5344099398F80C
:104A20000030002B00F0BC8000234FF0FF320493D5
:104A30000793059206938DF853301A93052229782F
:104A40006048FFF775FE05F10108049B002831D18D
:104A5000D90644BF20228DF853201A0744BF2B22C9
:104A60008DF853202A782A2A2CD000210A20079A70
:104A7000A84698F800300135303B092B6DD971B349
:104A800026E0514B9C4201D1B468A3E74F4B9C42B6
:104A900008BFF4689EE72146304601F0E7F9002898
:104AA0009ED04FF0FF301DB0BDE8F08F252BA7D072
:104AB000A846A0E7434A4546801A0BFA00F018437F
:104AC0000490BBE7039A111D12680391002A01DBD1
:104AD000079204E0524243F002030792049398F8CD
:104AE00000302E2B10D198F8013008F101012A2B4B
:104AF00037D1039B08F102081A1D1B680392002B93
:104B0000B8BF4FF0FF330593314D032298F80010E2
:104B10002846FFF70DFE40B14023401B03FA00F08A
:104B2000049B08F101080343049398F8001006223F
:104B3000284808F101078DF82810FFF7F9FD002833
:104B400034D0254B03BB039B073323F00703083303
:104B50000393099B4B4409934CE700FB023201216C
:104B600086E700230A2518460593884698F8002012
:104B70000131303A092A03D9002BC5D00590C3E78B
:104B800005FB00200123F0E703AB00932246134B03
:104B900004A9304600F0C0F8B0F1FF3F8146D8D1FB
:104BA000A3895B063FF57DAF09987CE703AB0093D3
:104BB00022460A4B04A9304600F05EFBECE700BF3A
:104BC000947E0000D87E0000B47E0000747E000059
:104BD000DE7E0000E27E0000194D000091490000D9
:104BE00013460A46014602480068FFF7E3BE00BFCD
:104BF000EC000010002B2DE9F0471E46BBBF03F16F
:104C000000431E4600232D2388B0149F129927F0DD
:104C10002007462F1446109DDDF84CA00B7004D0E1
:104C2000452F00D10135022300E0032307AA049297
:104C300006AA03928DE828042246334601F020FAA2
:104C4000472F804602D1119BDB0726D5462F08EB64
:104C5000050911D198F80030302B0AD10022002329
:104C600020463146FEF7FAFE18B9C5F10105CAF82B
:104C70000050DAF8003099440022002320463146E3
:104C8000FEF7ECFE38B93022079B994505D9591C2F
:104C900007911A70F8E7CDF81C904046079B159ACB
:104CA000A3EB0803136008B0BDE8F0870346F7B52F
:104CB000002903F8022BB6BF2D222B2249420929D5
:104CC000427021DD0DF1070217460A2691FBF6F529
:104CD00006FB1511092D01F1300102F8011C02F14A
:104CE000FF34294609DC3031023A04F8011CBA428B
:104CF0001C4604D3201A03B0F0BD2246E6E712F8A2
:104D0000011B03F8011BF2E730221C46114404F892
:104D1000022B5970EEE700002DE9F04F91B00C46E0
:104D20001A9F93461E46054601F0E8FF03681846A1
:104D3000099300F0C0FE00230E933B680A900733EE
:104D400023F0070303F1080294F81880D4F800A0B8
:104D50003A60D3E90023C4E91223D4F84C90A76C3D
:104D600029F000430B934FF0FF32A64B38460B99C6
:104D700002F0EEFD002840F0F7814FF0FF32A14B2A
:104D800038460B99FEF77EFE002840F0ED810022A8
:104D9000002338464946FEF76BFE10B12D2384F8F8
:104DA0004330994B994FB8F1470F98BF1F460323E3
:104DB0004FF0000923612AF00403236000965B464C
:104DC0000FAA2146284600F0DFF9013040F09A8012
:104DD0004FF0FF3011B0BDE8F08F62680EA8531C91
:104DE0000DF1340E4AF4806341D106226260002145
:104DF0002360019363680DF13302059002920093E2
:104E00003A464B460691CDF81080CDF80CE0284686
:104E1000FFF7F0FE08F0DF03472B074609D10D9B93
:104E2000D81C02DB6268934259DDA8F102085FFAE0
:104E300088F8B8F1650F0D9936D80139424604F16A
:104E400050000D91FFF732FF0E9A81468318012A18
:104E5000236102DC2268D10701D5013323619DF86B
:104E60003330002BAAD02D2384F84330A6E7B8F1C5
:104E7000670F02D0B8F1470FB9D19AB1002106915E
:104E80000DF133018DE80C00236005903A46CDF812
:104E90001080CDF80CE002914B462846FFF7AAFEA1
:104EA0000746BCE70122A1E7B8F1660F19D1002936
:104EB00063680CDD216113B92268D20702D5013382
:104EC0000B4423610D9B4FF00009A365C7E713B99D
:104ED0002268D00701D50233F3E70123F1E74FF051
:104EE00067080D9B0E9A934205DB22682361D10768
:104EF000E8D50133E5E7002BCCBF0123C3F1020362
:104F00001344DEE723685A0507D423693A46594615
:104F10002846B04701302AD15AE7B8F1650F40F270
:104F2000DC80D4E9120100220023FEF797FD00285F
:104F300039D00123364A59462846B04701303FF45C
:104F400047AF0E9B0D9A9A4202DB2368D8070ED515
:104F50000A9B099A59462846B04701303FF438AFBA
:104F6000002704F11A080E9B013B9F4211DB2368C6
:104F70009F0708D5002704F11908E3680F9A9B1AC8
:104F80009F42C0F2E780E0680F9B9842B8BF184686
:104F900020E70123424659462846B04701303FF4F6
:104FA00017AF0137DFE70D9B002B33DC0123184AD5
:104FB00059462846B04701303FF40AAF0D9B23B94C
:104FC0000E9B13B92368D907D1D50A9B099A594674
:104FD0002846B04701303FF4FBAE4FF0000804F123
:104FE0001A090D9B5B42984501DB0E9B8EE701235E
:104FF0004A4659462846B04701303FF4E9AE08F129
:105000000108EEE7FFFFEF7FE97E0000ED7E000084
:105010003E7F00000E9AA36D9A42A8BF1A46002A4E
:10502000904636DC4FF0000A04F11A0328EAE878CB
:105030000B93D4F85890A9EB08039A4531DB0E9BEB
:105040000D9A9A4238DB2368DA0735D40E9B0D9906
:10505000A3EB0902A3EB01089045A8BF9046B8F165
:10506000000F31DC002728EAE87804F11A090D9ACC
:105070000E9B9B1AA3EB08039F42BFF678AF012358
:105080004A4659462846B04701303FF4A1AE0137A1
:10509000EDE7134659463A462846B0470130C1D19C
:1050A00096E601230B9A59462846B04701303FF453
:1050B0008FAE0AF1010ABCE70A9B099A59462846B5
:1050C000B0470130C2D183E6434607EB0902594697
:1050D0002846B0470130C5D17AE60E9A012A01DC94
:1050E000DB0734D501233A4659462846B0470130FC
:1050F0003FF46EAE0A9B099A59462846B0470130E4
:105100003FF466AED4E9120100220023FEF7A6FCAC
:1051100050B1002704F11A080E9B013B9F420CDBA3
:105120004B4604F15002F2E60E9B7A1C013B5946B5
:105130002846B0470130F3D14AE60123424659469A
:105140002846B04701303FF443AE0137E4E701237E
:105150003A46ECE70123424659462846B04701301B
:105160003FF436AE013708E73A464B4638464946E3
:1051700002F0EEFB00283FF430AE014B014F12E687
:10518000F17E0000F57E00002DE9F04791461F46B4
:105190008A680B6906469342B8BF1346C9F80030C7
:1051A00091F843200C46DDF8208012B10133C9F894
:1051B00000302368990642BFD9F800300233C9F89D
:1051C0000030256815F0060507D104F1190AE368D7
:1051D000D9F800209B1A9D422ADB94F843302268BC
:1051E000003318BF012392062FD404F1430239463D
:1051F0003046C047013022D02368E56803F006033B
:10520000042B18BF0025D9F800204FF0000908BF73
:10521000AD1AA368226908BF25EAE5759342C4BFA9
:105220009B1AED181A344D451BD10020BDE8F087BC
:105230000123524639463046C047013003D14FF072
:10524000FF30BDE8F0870135C1E73020E11881F873
:1052500043005A1C94F845102244023382F843104C
:10526000C3E70123224639463046C0470130E6D025
:1052700009F10109D7E700002DE9F04317460A7E3E
:1052800085B06E2A984606460C460C9B01F1430EEB
:1052900000F0BC801AD8632A2ED00AD8002A00F069
:1052A000C880582A00F08A8004F1420584F8422020
:1052B0002AE0642A01D0692AF6D121681A6811F01F
:1052C000800F23D0111D1960136827E0732A00F0A6
:1052D000B48008D86F2A2AD0702AE5D10A6842F033
:1052E00020020A6003E0752A21D0782ADCD17822D6
:1052F0006F4984F8452064E01A6801F14205111DE8
:105300001960136884F842300123A3E011F0400FC4
:1053100002F104011960D7D0B2F90030002B03DA92
:105320002D225B4284F8432062490A2217E020685C
:10533000196810F0800F03D0081D18600B6806E094
:1053400010F0400F01F104001860F7D00B886F2AAD
:1053500014BF0A2208225749002084F843006568D8
:10536000002DA560C0F29C80206820F00400206021
:10537000002B3FD1002D40F095807546082A0BD1B7
:105380002368DA0708D5236962689A42DEBF3023B2
:1053900005F8013C05F1FF35AEEB05032361CDF8BF
:1053A00000803B4603AA21463046FFF7EDFE013060
:1053B00055D14FF0FF3005B0BDE8F08381F84520AE
:1053C0003C492268186812F0800F00F104051D6046
:1053D00001D0036802E05506FBD50388D00744BF1F
:1053E00042F0200222601BB9226822F020022260D3
:1053F0001022B1E77546B3FBF2F002FB1033CB5C31
:1054000005F8013D03460028F5D1B7E708681A689A
:1054100010F0800F496904D0101D186013681960DE
:1054200007E010F0400F02F1040018601368F6D096
:105430001980002375462361B1E71A68111D1960B0
:105440001568002162682846FFF772F908B1401B11
:10545000606063682361002384F843309FE7236919
:105460002A4639463046C0470130A2D023689B0700
:1054700007D5002504F11909E368039A9B1A9D4298
:1054800005DBE068039B9842B8BF184693E7012309
:105490004A4639463046C04701308AD00135EBE7ED
:1054A000002BA7D10B7804F1420584F8423065E760
:1054B0000A7F0000F97E00002DE9F04115468A6858
:1054C00080460C4632B98A69002A0CBF01224FF08F
:1054D000FF328A6000262268D1065FBF1A68111D5C
:1054E00019601768A369DBB1012B07D12B686269CA
:1054F0001B78D35CA3B9002E31D106E0022B07D074
:10550000002E2CD1A369012B29D10120BDE8F08107
:1055100001F0E6FB2B681B78184443781B07EFD497
:1055200023680136DA065EBF2B681B783B702A6859
:105530006B6802F101022A60A26803F1FF3302F1F5
:10554000FF326B6058BF0137A26042B1002BC9DC4B
:10555000D4F880312946404698470028C2D02368B5
:1055600013F0100305D1E2680132E260A26902B1D2
:105570003B70236900201E442661BDE8F0810000D5
:105580002DE9F04F0C469A46744B87B08346164679
:1055900093E8070003ABA76883E80700704BA16995
:1055A000704A04F11C09032918BF1A467B1EB3F583
:1055B000AE7F84BF40F25D13A360236888BF6FF4A1
:1055C000AE7543F45063236098BF00274B464FF0FD
:1055D0000008009288BF7F193168019303AB53F82C
:1055E000280002220978FFF7A3F8019B28B3B8F13D
:1055F000010F56D162682AB908226260226842F41B
:1056000000722260226822F4A0622260A268511E09
:10561000A16092B132685D1C511C316012781A7021
:105620007368013B002B736006DCD4F8803131468F
:1056300058469847002877D12B4608F10108B8F161
:10564000030FC9D162680AB90A22626062684649DA
:105650006069891A019300F0ABF8019B4FF00008D4
:105660001D46A368002B39D0316860690A78805CD8
:10567000002833D0302A226821D110051FD508F127
:10568000010817B10133013FA3607368013B002B90
:1056900073601CDD336801333360A368013BA36092
:1056A000DFE7B8F1020FB1D1226802F4C061B1F5B1
:1056B000007FC2D1102142F480726160A5E722F41C
:1056C000106222600B78013505F8013CDDE7D4F863
:1056D00080313146584698470028DED02368D905E6
:1056E0000CD54D4508D915F8011C6F1ED4F87C3136
:1056F0003246584698473D464D452CD0226812F018
:1057000010021ED12A70636849465846009EB04771
:105710002268DAF8003012F0200F08D01A1DCAF8FB
:1057200000201B68186009E04FF00008D6E7D20798
:10573000F4D51A1DCAF800201B681880E3680133ED
:10574000E3600020A5EB0905A844256945442561CF
:1057500007B0BDE8F08F0120FAE700BF1C7F000012
:105760000D5D0000ED5B0000387F000038B5054698
:10577000084611460022054C22601A46FDF7AEFB92
:10578000431C02D1236803B12B6038BD9020001068
:1057900038B50023054C054608462360FDF71AFB83
:1057A000431C02D1236803B12B6038BD9020001048
:1057B00070B50B78441E5E2B13BF4A1C8A1C4B78B5
:1057C000002108BF012100F1FF0504F8011FA542D7
:1057D000FBD113B9013A104670BD81F001041146A6
:1057E000C4540D784A1C2D2D06D05D2DF3D00DB973
:1057F0000A46F0E72B46F2E74E785D2EFAD0B34228
:10580000F8DC023101339E42C454FBDCE9E7002995
:105810004FF480630CBF0222002200F001B80000A8
:105820002DE9F7431D46514B04461E680F4690462E
:1058300026B1B36913B93046FEF77CFD4C4B9C4250
:1058400052D17468B8F1020F06D0B8F1010F00F21E
:105850008980002DC0F2868021463046FEF7EEFC9E
:10586000616B41B104F14403994202D03046FDF727
:1058700087F9002363630023A3616360A3891B0688
:1058800003D521693046FDF77BF9A389B8F1020FF2
:1058900023F44A6323F00303A3815DD001AB6A467E
:1058A00021463046FEF7D0FEA3891843A0812DBBC8
:1058B000009D2846FEF72CFF074600284ED1DDF854
:1058C0000090A9453CD14FF0FF30A38943F002037B
:1058D000A3810023A36004F1470323602361012314
:1058E000636103B0BDE8F083224B9C4201D1B468F0
:1058F000A8E7214B9C4208BFF468A3E7002FD8D04B
:10590000B36913B93046FEF715FDB8F1010F08BFB2
:10591000A389276004BF43F00103A381A389276102
:1059200013F0080065611BD013F001004FF0000375
:105930001FBF6D42A360A561184608BFA560D0E7F0
:105940004846FEF7E5FE07460028BCD0A3894D4631
:1059500043F08003A381D3E70020B6E7A946F5E72B
:10596000A060BEE74FF0FF30BBE700BFEC000010C7
:10597000947E0000B47E0000747E00000EB44FF4EC
:10598000027100B59CB0ADF814106FF000410491A5
:1059900007914FF6FF711DAB02900690084853F82F
:1059A000042BADF81610006802A9019301F00EFD5A
:1059B0000022029B1A701CB05DF804EB03B0704724
:1059C000EC0000100EB44FF4017230B59CB01FAC67
:1059D00054F8045BADF814200290069000F06BF8C8
:1059E0000B4B03900B9300230F9314934FF6FF730D
:1059F00007900848ADF816302A46234602A90068E9
:105A0000019401F031FE1CB0BDE8304003B0704796
:105A10003B5A0000EC00001010B50C46B1F90E1016
:105A200001F076FF0028ABBF636DA3891B1823F438
:105A30008053ACBF6365A38110BD002070472DE982
:105A4000F0411F468B890546DB050C46164605D5F9
:105A500002230022B1F90E1001F05EF9A38932464B
:105A600023F48053A381B4F90E103B462846BDE8C9
:105A7000F04100F0E9B910B50C46B1F90E1001F093
:105A80004BF9431CA38915BF606523F4805343F48D
:105A90008053A38118BFA38110BDB1F90E1000F08F
:105AA00053BA10F8012B11F8013B012A28BF9A4282
:105AB000F7D0D01A7047034613F8012B002AFBD108
:105AC000181A0138704710B56AB10139841810F8F6
:105AD000013B11F8012F934203D1A04201D0002BCA
