:100000000080001091310000C1310000C3310000B8
:10001000C5310000C7310000C931000000000000F8
:10002000000000000000000000000000C5300000DB
:10003000CD310000000000002F31000065310000CC
:10004000D3310000D3310000D3310000D3310000A0
:10005000D3310000D3310000D3310000D331000090
:10006000D3310000D3310000D3310000D331000080
:10007000D3310000D3310000D3310000D331000070
:10008000D3310000D3310000D3310000D331000060
:10009000D3310000D3310000D3310000D331000050
:1000A000D3310000D3310000D3310000D331000040
:1000B000D3310000D3310000D3310000D331000030
:1000C000D3310000D3310000D331000010B5054C0E
:1000D000237833B9044B13B10448AFF300800123F4
:1000E000237010BDC802001000000000E45D000095
:1000F0000C4B43B10C4810B50C49AFF300800C48D1
:10010000036823B910BD0A48036833B97047094B27
:10011000002BF7D0BDE810401847064B002BF5D058
:10012000184700BF00000000E45D0000CC02001092
:10013000C8020010000000000368184708B10B68EF
:10014000036070477047000070B51F4C1F4D237847
:100150001F48042B34D8DFE803F00311171D2300D8
:1001600002F0A2FA212829D10123237022782B78CA
:1001700018491948BDE8704002F0A8BA02F094FA94
:1001800042281BD10223F0E702F08EFA134B1860CD
:100190000323EAE702F088FA114B18600423E4E72E
:1001A00002F082FA0D4B0E4A1B6812681344633347
:1001B000DB43DBB2984201D101232B700023D4E74B
:1001C00002F072FAFAE700BFD803001048030010EB
:1001D00014030010BC570000AC03001044030010CF
:1001E00040030010C36810B504460BB19B689847E4
:1001F000204610BD70B50546074B064645F80C3B3A
:1002000045B100F12C04AC4204D0103C2046FFF76D
:10021000E9FFF8E7304670BD145B000010B50446F6
:10022000FFF7E8FF204602F012FE204610BD000056
:1002300010B50446084B443040F8443C203340F8A5
:10024000143C02F009FF04F1300002F01BFA2046D2
:10025000FFF7D0FF204610BDF4590000A0F1300098
:10026000E6E700BF8FB5184B00220093174B694695
:100270001748184D039302F08DFB6846FFF7B2FF55
:100280002F46154E2B786BB1144B1B68342B09D1BC
:10029000134B1B68302B13D0124BDA685B6813606A
:1002A00000233B70104C3046E36862681A6002F02D
:1002B00051FC2369626830461A6002F04BFCE1E7AA
:1002C000084B1A69EAE700BF49010000B057000077
:1002D000E402001048030010CDCCCC3D44030010D4
:1002E00040030010640300104C03001010B50446D6
:1002F000FFF79EFF204602F0AAFD204610BDA0F1A8
:100300003000F3E72DE9F3414FF416574FF018088A
:10031000194C0023194E1A4D00971A4A1A492046C3
:1003200002F03CF92046194C3246294602F064FDA1
:1003300042460021204603F0A8FC2046144C1549F3
:1003400000F08CF842460021204603F09EFC204637
:10035000114C124900F082F800970023104A11490D
:10036000204602F01BF932462946204602B0BDE87D
:10037000F04102F041BD00BFE4020010C8000010CF
:10038000310200000BC009200AC009204C030010F4
:100390006403001032C009207C03001037C009201C
:1003A00003C0092002C009200748084A08B5121AEC
:1003B000002103F06AFC02F0D8FC03F09BFB02F082
:1003C000DBFC02F01BFD00BFC80200100C21001076
:1003D000022801DD02F07CBC0120704708B5012035
:1003E00002F00CFD08B5FFF7F9FF70B50E460446A4
:1003F000154601F037FC013609D02046002101F0F6
:100400004BFC29462046BDE8704001F042BC70BD5F
:1004100038B504460D4643685AB1C2682046136099
:10042000012101F039FC29462046BDE8384001F0A1
:1004300030BC0269F2E70322FFF7D7BF70B50E4662
:100440000446154601F00EFC013606D02A46204629
:10045000BDE870400221FFF7DBBF70BD0022FFF74F
:10046000EDBF0000014800F003B800BFF8570000DE
:10047000036870B5DB680446984763685A68236868
:100480001AB99B68BDE8704018475B6815689847C3
:100490006368281A00285A6807DC916859601B684D
:1004A000002BEAD050689847E7E7236810681B697B
:1004B000BDE870401847000010B5044601300DD16A
:1004C00010BD9C4209D12046896801F05BFC2046A2
:1004D000BDE81040022101F06EBC0C310B685A1CC3
:1004E000EFD10248BDE8104000F0CEB845580000FA
:1004F000884208B508D0431C06D0013106D0044814
:1005000000F0C2F84FF0FF31084608BD0146FBE796
:10051000145800000B685A1C01D1184670478342DA
:1005200001D1486870470C31F4E70000421C10B557
:10053000044607D0FFF7EEFF431C044602D10248F1
:1005400000F0A2F8204610BD2558000000F04CB87D
:1005500008B500F049F838B100F04EF830B900F0B5
:1005600043F80028FBD108BD4FF0FF3008BDEFF382
:100570001080C04300F001007047000008B5FFF78D
:10058000F6FF72B6064B1A6822B980F00100054AE0
:10059000C0B210701A681A6801321A6008BD00BF34
:1005A000E8030010E403001008B5074B1A6852B1C5
:1005B000FFF7DDFF1A68013A1A601B681BB9034B8D
:1005C0001B7803B962B608BDE8030010E40300100D
:1005D00030B585B06D46182420462946ABBE04468A
:1005E000204605B030BD0000024B186800F0010045
:1005F000704700BFF0ED00E037B540F2051401ADE3
:1006000020462946ABBE0446204603B030BD00005C
:1006100000B599B0FFF7B2FF17496846FFF71EFF14
:10062000164906A8FFF71AFF15490CA8FFF716FF91
:10063000144912A8FFF712FF019A039B96201A6033
:10064000079A0A9B1A600D9A109B1A60139A159BC1
:100650001A6002F08BFA019A049B96201A60079A9E
:10066000099B1A600D9A0F9B1A60139A169B1A60C9
:1006700002F07CFAE0E700BF32C0092034C0092054
:1006800035C0092037C009200FB4012008B502F099
:10069000B5FB01F011BB000008B5024C2368984778
:1006A000FCE700BFCC00001008B50B4800F098FE36
:1006B0000A4B18600A4800F093FE0A4B18600A487B
:1006C00000F08EFE094B186003F014FABDE80840F4
:1006D0000021084602F050BBA45800007419001015
:1006E000A0580000F40300109C580000EC03001018
:1006F000FFF7D2BF10B5044600F0D2FD2146BDE899
:10070000104002460148FFF7BFBF00BF6458000019
:1007100002F07ABC0B4AF0B4C2F1805303F50043F7
:10072000B3F5806F194628BF4FF48061064F074D1F
:100730005B1A074C07489E183A602E6023600160E0
:10074000F0BC70471021001090160010FC03001040
:100750008C160010F803001000F026FFFFF7DAFFF8
:100760000348002100F0C4FE00F01CFDFEE700007D
:10077000D0000010024B4FF0FF31186800F04EBE61
:10078000F4030010014B186800F070BEF403001071
:1007900030B502788C78013A4368D2B213B19D78B3
:1007A000A54207D2022A4B60416006D803B1996086
:1007B000886030BD18465B68F0E700238B6030BD71
:1007C000436802785968013A022A41604FF00002FA
:1007D00005D809B188605A609A60184670475A6017
:1007E000FBE70000034B5A684260002258608260B9
:1007F000704700BF68200010104B10B5DA688AB14E
:100800009A8A8A42DC680CD3C460D860C4680361E9
:1008100004B12061521A92B28282998A8A1A9A820B
:1008200010BD3CB900248A1AC460D86003619A8262
:10083000848210BDA38A1A442346E2E78020001078
:100840002DE9F041174DEB6853B10026AB8A164FE6
:10085000013BDFF85880AB82AA8A0AB9EC680CB970
:10086000BDE8F081A36833B161685960616809B17E
:100870008B606260A66021463846FFF789FFA38A35
:10088000AB826378042B01BFD8F80030E28A9B1852
:10089000A38201236370E368EB600BB11D61E66026
:1008A0002661D9E78020001068200010FC2000108D
:1008B00083682BB142685A6042685AB193607047AE
:1008C000054B5A68904202D142685A6070471346FD
:1008D000002AF6D1704700BF6820001010B5846868
:1008E00001462CB94378012B0DD1074C03E0A468D5
:1008F0002378002BFBD00846FFF7DAFF2046BDE83F
:100900001040FFF745BF10BD68200010036910B507
:1009100063B1C268DA60C2684AB1998A848A2144A4
:10092000998213610023C3600023036110BD9A8282
:10093000FAE7000070B4114BDD78EFF31086EFF3A7
:10094000108272B69A78954211D901329A701A784B
:10095000541CA54208BF00241C7006B962B695421B
:1009600007D970BC03EBC203586099607047002E32
:10097000F4D070BC0220FFF7BDBE00BFEC18001021
:10098000032303700023438043608360C360704788
:10099000F8B5438804469BB18068036A9C4228D11D
:1009A000E368036290F82430026A52BB82789A426C
:1009B00006D083701F4B1B68984201D0FFF78EFF53
:1009C00001261D4F656825BB1B4843686BB1194E56
:1009D0009A7831688B789A4207D9FFF7D9FE0122BD
:1009E000336828465A7000F0D3FE00202070F8BD0E
:1009F0001346002BD6D0DA689442F9D1E268DA6067
:100A0000D0E7516819B189788B4238BF0B46D2685C
:100A1000CBE72046FFF7D4FE0546002100F0F6F8AC
:100A20002846FFF773FF6E7029463846FFF7B0FE81
:100A3000C8E700BFB4200010682000102DE9F8437B
:100A400043880546002B63D0324F81683A68914253
:100A50005ED1013B9BB243801BB100242046BDE820
:100A6000F8830B6A984229D1C3680B6291F824304D
:100A70000C6A5CBB8B706A68DFF89C80002A3BD0F4
:100A80002846FFF79DFE06464FF00109214600F07B
:100A9000BDF83046FFF73AFF336A3968EB60D8F8A3
:100AA0000430A5F80290AE6035628A789B789A424D
:100AB00014D3304600F06CFED0E71346002BD5D09F
:100AC000DA689542F9D1EA68DA60CFE762681AB16C
:100AD0009278934238BF1346E468CAE74046FFF76E
:100AE00057FE31464046FFF753FE3B6883F80190BE
:100AF00086F801902046DDE7D8F8042092789A42E3
:100B0000ABD94046FFF744FE01223B685A70F1E73B
:100B1000FF24A3E7B420001068200010438870B5BC
:100B200004460E46134D43B92A68116A8260C160BB
:100B3000106201336380002070BD80682A68904293
:100B4000F7D081B1937882789A4202D28370FFF70E
:100B5000C5FE62684AB129682046FFF719FE0921DF
:100B6000304600F037FE012070BD2B6863605A608C
:100B70009C60F4E7B4200010F0B54FF080764FF0A1
:100B8000000E836A056B9B0802BF1E4B1B889B08E7
:100B900005EB8302540748BF043A02E94200A2F180
:100BA0004004A2F14406A2F10C0746F804EFBE424D
:100BB000FBD1C66942F8206C41631249C4620968DE
:100BC000C90017D5112B15D96FF00701103B5B0831
:100BD0004B43A3F138010A444FF0CC3021469142F7
:100BE0000BD108331C44231F9D423CBF4FF0CC3334
:100BF00044F8043C044B2B60F0BD41F8040C41F870
:100C0000080DECE7AC580000A52E5AE2C36A196241
:100C10007047C36A19625A6270470000054B1B781F
:100C200023B94FF08052044B1A6070470122034BE6
:100C30001A7070475014001004ED00E051140010B9
:100C400038B51A4B1A4C186801234370FFF7CAFDD8
:100C50006578A3783BB917486570FFF7B1FDBDE82B
:100C6000384000F07BBD04EBC503586802789AB9A0
:100C7000198900F0BBF9E37801359D4208BF0025D2
:100C8000EFF31083EFF3108272B6A278013AA270EC
:100C9000002BDED162B6DCE7012A03D1996800F0AF
:100CA00033F9E8E700F0BAFFE5E700BFB420001031
:100CB000EC18001068200010084B4FF0FF301A6845
:100CC000074B1A6000225A60072243F8042C054A99
:100CD000136843F07F431360704700BFC45800009F
:100CE00014E000E020ED00E07047000008B50B4B79
:100CF000186801234370FFF775FD00F0ADF9084A4D
:100D0000136801331360FFF79BFD00F0AFFC05484B
:100D1000FFF756FDBDE8084000F020BDB4200010EC
:100D2000FC20001068200010064B1A68136BD26A72
:100D3000934203D81A68044B9A4202D00120FFF76D
:100D4000D9BC7047B4200010A52E5AE2002ABBBFC0
:100D500022F000420732033222F00702A8BF22F03D
:100D6000030210B5B4BF10230C2392B1D4188C42E7
:100D70000FD801440344544241600360826021441F
:100D80009818814202D300510346F9E70020186009
:100D900010BD012010BDEFF3108372B6026803F09E
:100DA00001030AB11168016003B962B610467047C9
:100DB00081420DD3436899420AD2EFF3108372B691
:100DC00002680A60016013F0010003D162B6704747
:100DD0000120704700207047012303700023103961
:100DE0008908437083704360038143818381C1819B
:100DF0007047000070B5858904461646002D38D02E
:100E000043891A1D50F8222001330A60C2899BB21F
:100E10009A42438104BF002343814368F3B143787E
:100E2000022B1BD1FFF7CCFC05460021FFF7EEFE9D
:100E30002389E9691A1D44F822100133E2899BB223
:100E40009A42238108BF0023284608BF2381FFF769
:100E50005DFD284600F09CFC002070BDEFF3108083
:100E6000EFF3108372B6013DA5810028F4D162B67C
:100E700070BD4AB14268094B42B11968FFF788FC5E
:100E80000821304600F0A6FC012070BD1B684360BD
:100E90005A60986001234370F2E700BFB42000104D
:100EA000C2898089101A704708B5FFF743FDBDE875
:100EB0000840FFF7B3BE838910B504460BB34389DE
:100EC000043350F823300B604378022B04D1002107
:100ED000FFF730FDFFF7A2FEEFF31083EFF3108270
:100EE00072B6A289013AA28103B962B66389E28926
:100EF00001339BB29A42638101D1002363810420B4
:100F000010BD184610BD0000436870B504460E467B
:100F1000002B4BD04578022D20D0032D0AD0012D77
:100F200061D1FFF74DFC044632461021FFF771FEF8
:100F300065700EE00846FFF72EFF0546002852D0E8
:100F40002046FFF73DFC29460446FFF75FFE0123DC
:100F500063702046FFF7DAFC214622E0FFF730FC01
:100F600005460021FFF752FE2389E9691A1D44F85E
:100F70002210EFF31082EFF3108172B6A1890131D4
:100F8000A18102B962B6E28901339BB29A42238100
:100F900004BF00232381012328466B70FFF7B6FCB2
:100FA0002946BDE870401048FFF7F2BB8089E1890F
:100FB000884213D223891A1D44F82260EFF310826D
:100FC000EFF3108572B60130A08102B962B6013329
:100FD0009BB2994208BF0023238170BD0320BDE866
:100FE0007040FFF787BB70BD6820001010B5038B01
:100FF00042781943062A04460183438B15D133EA0C
:10100000010219D121EA030121832046FFF77EFC6A
:10101000012320466370628B0821FFF7FAFD214609
:10102000BDE810400548FFF7B3BB052A04D111EA1B
:10103000030201D04283E5E710BD00BF6820001025
:101040000022034B1A60034A1268DA80704700BF1F
:10105000A0200010A858000008B50E4B5A680E4B8F
:10106000196891420D4905D01A60DA880868013A7A
:1010700002449A8098880A8890420AD10022054842
:101080001A60FFF79DFBBDE8084001460148FFF7E5
:101090007FBB08BD68200010A0200010FC200010BD
:1010A00030B500240A4A136843B90360816013B164
:1010B0009D68691A996044B1206030BD9D68A9425D
:1010C000F3D31C46491B1B68EEE7106030BD00BF20
:1010D000B0200010C0B1431C11D00C4B984211D865
:1010E0004FF47A710A4B1B685A1E01FB0020B0FBBB
:1010F000F3F34FF6FE70834206D898B270474FF66E
:10110000FF7070474FF6FE70704700BF00093D004A
:101110006058000038B1830704D10378002B18BF52
:101120000020704700207047B0B50E4D00AF287802
:10113000A8B90D4C236893F8241000F06DFB2368C8
:10114000DA78FF2A03D1DA6A203282F309886268EA
:101150000AB984E80C0000F017FD01232B70002071
:10116000B0BD00BFAD200010B4200010014B1878B6
:10117000704700BFAD20001010B5EFF3108434B9F4
:10118000EFF305841CB9EFF31484E40702D4034B96
:10119000187810BDDFF808C000DF10BDAD200010CA
:1011A0006D11000090B589B000AFEFF31083002BF4
:1011B00037D1EFF30583002B33D1FFF7DDFF28B9DB
:1011C000194C246814B1646804B1A047EFF3148487
:1011D00004F00304022C18D0032C1CD0012C1ED0C8
:1011E00007F1200484F30988104C2478E40710D513
:1011F000022484F31488BFF34F8FBFF36F8FDFF89F
:1012000030C000DF2437BD4690BD084C2478E40789
:10121000F5D40324EDE7054C2478E407EFD5FF204F
:10122000F0E78220EEE700BF9C2000108E580000FF
:101230002911000070B50B461646024610B900246D
:10124000204670BD00680028F9D0B2F90440E51CC2
:10125000ADB2062DF3D8D168C1B11269043444EAA5
:10126000012100F017FB0028E9D00A4B013853F8A0
:101270002040094AE36A5A63084B1B6843B19B68E4
:1012800033B13146E0789847E063D9E70A46E5E7AD
:10129000E663D5E7B01800103D1400009C20001054
:1012A00008B500F0B1FA18B1024B013853F820002C
:1012B00008BD00BFB018001010B5FFF72BFF0446A3
:1012C00070B1084B1B681BB1DB680BB1C06B984752
:1012D000E07800F035FBFF280CBF8120002010BD16
:1012E000802010BD9C20001008B528B1FFF7F2FE49
:1012F00000F090FC402008BD08BD000010B5EFF3E1
:10130000108434B9EFF305841CB9DFF80CC000DF9A
:1013100010BD822010BD0000E9120000830705D136
:1013200038B1436901691B681846704700231946A4
:10133000FAE70346FBE7000010B504460846DFF86D
:101340000CC000DF84E80300204610BD1D13000020
:1013500010B548B1046824B1237823B92046FFF7BB
:101360000FFB204610BD002010BD70B510F0030427
:1013700005460E4611D180B10378032B0DD10846E6
:10138000FFF7A8FE01462846FFF7C8FB012806D153
:10139000002E14BFC120812070BD802070BD20466A
:1013A00070BD820708B50AD148B10378032B06D176
:1013B000FFF744FBFF280CBF8120002008BD8020E0
:1013C00008BD10B510F0030407D130B10378032B2A
:1013D00003D1FFF7DDFA204610BD802010BD0000CC
:1013E00070B50546EFF3108494B9EFF305867EB926
:1013F000EFF31484E40706D4064C24781CB9BDE846
:101400007040FFF7A5BF2846DFF80CC000DF70BDB5
:10141000002070BDAD2000105113000010B5EFF397
:10142000108434B9EFF305841CB9DFF80CC000DF79
:1014300010BD822010BD00006B130000084808B5E5
:101440004FF0FF310068FFF7E9FFDFF818C000DF59
:101450000446FFF75DF92046DFF80CC000DFFEE729
:10146000A8200010A1120000B912000010B5EFF37F
:10147000108434B9EFF305841CB9DFF80CC000DF29
:1014800010BD822010BD0000A31300002DE9F04123
:1014900080460F461646EFF3108404BBEFF3058336
:1014A000D3B9EFF31483DB0706D40E4B1B781BB9BB
:1014B000BDE8F041FFF7BEBE0B4D4FF0FF3128688D
:1014C000FFF7ACFF404639463246DFF820C000DF68
:1014D00004462868FFF7CAFF2046BDE8F0810024D3
:1014E000FAE700BFAD200010A82000103512000060
:1014F0000022FFF7CBBF000010B5EFF3108434B922
:10150000EFF305841CB9DFF80CC000DF10BD8220AA
:1015100010BD0000C313000010B5044660B101689F
:1015200051B1406848B1037833B90431890089B2B8
:10153000FFF752FC606810BD002010BD38B5114C9B
:1015400023780BB900F0A6FAFF220F4B25781B6811
:101550009A708DB929460D48FFF7DEFF0C4B2A46DD
:10156000186029460B48FFF765FE0B4B18600B48C7
:10157000FFF736FF0A4B1860012300202370094B48
:10158000187038BDAC200010B42000109458000032
:1015900070190010B058000064200010C8580000F6
:1015A000A8200010AD20001010B5EFF3108474B91E
:1015B000EFF305845CB9EFF31484E40703D4BDE8CA
:1015C0001040FFF7BBBFDFF80CC000DF10BD82206A
:1015D00010BD00003D1500002DE9FF410C4680467E
:1015E00018B30378012B25D10846FFF773FD02A934
:1015F00002464046FFF7FEFB012811D10020002CD7
:101600000246034618BF4020029904460D4616467E
:101610001F462046294632463B4604B0BDE8F081CD
:101620000020024603461020EEE7802405460646C9
:101630000746EEE7002580242E462F46E9E770B5E1
:101640000E461446054660B15AB90378012B08D1FD
:10165000FFF726FC38B128463146FFF725FC204627
:1016600070BD802070BD812070BD0000F8B5114EA6
:1016700034682CB1A368104F013BA360A26802B18B
:10168000F8BD2568214638683560FFF7D8FF10B1EE
:101690000420FFF72FF86379012B07D1E16820467A
:1016A000FFF7FEFC002DEBD02C46E7E7012323716A
:1016B000F8E700BFB0200010701900107FB5044695
:1016C0001646084601B122B180232360204604B0AB
:1016D00070BD0B78012BF7D102A9FFF7ECFB0428B2
:1016E00008BF102301AD14BF0196019395E80700D0
:1016F00084E80700EAE7000038B504461546EFF332
:10170000108010B9EFF3058028B12A462046FFF774
:10171000D5FF204638BD08461146DFF80CC000DF73
:1017200084E80700F5E70000D91500007FB50A4CF2
:101730004FF0FF32216803A8FFF7DEFF039B102B59
:10174000F6D1049901A8FFF7F7FD019B002BEFD01C
:1017500002989847ECE700BF70190010054B5860DD
:1017600002234370044B1B681BB11B690BB1C06B98
:1017700018477047B42000109C20001008B503489B
:10178000FFF71EF8BDE80840FFF7E8BF682000102B
:1017900070B5044618B9BDE87040FFF7EFBF0B4EB7
:1017A000A2783068012583789A4208D9FFF71AF8A1
:1017B000336820465D70BDE87040FFF7CFBF6570AD
:1017C0002146BDE870400248FEF7E2BFB420001099
:1017D0006820001038B50D46014680B14FF6FF7302
:1017E0009842074C02D02068FFF706F823680548A6
:1017F0005D70FEF7E5FFBDE83840FFF7AFBF38BDCD
:10180000B420001068200010024B186800B1C078A6
:10181000704700BFB420001010B5A8B9194B1B6861
:10182000997083F82410184843689B788B4201D83C
:10183000002010BD134C2168FEF7AAFF0122236887
:101840005A70FFF79BFFF3E7104B1B88984217D89D
:101850000F4B013853F8204094B10A4BA1701B681C
:1018600084F824109C42DED02046FFF737F86378D6
:10187000012BDDD10448FEF7A3FFFFF789FFD7E76F
:10188000FF2010BDB4200010682000109058000008
:10189000B01800102DE9F0470D4611F0FF0F8046FB
:1018A000234816469A4608BF0135FFF774FA0446E6
:1018B00020B94FF000094846BDE8F08700211D4BD4
:1018C00006631B88280A1C4EA0628B4201F10109A5
:1018D000EFD006EB890252F8042C0F464946002A45
:1018E000F3D10123EDB284F80390C4F81CA0C4F82E
:1018F00038A022706370A57084F824506260A260E2
:10190000E26022612262A282E2822283628384F800
:10191000252018B90948FFF73EFA206320464146C2
:10192000FFF72AF9204646F82740FFF731FFC2E7C4
:10193000981C001090580000B0180010A01600105D
:101940002DE9F84F4D4D18B12B68DB78984241D105
:1019500000232C680127637001F089FBE062FFF728
:10196000E3F92B68DFF828811C6AA4B92A68444986
:10197000D3784448013B41F82340116BFFF718FA34
:10198000296841480C63FFF713FA2C60FFF7F6FE55
:101990002046BDE8F88F6368B3B12046FEF710FF1C
:1019A00006460021FFF732F93046FEF7AFFF7770A9
:1019B00031464046FEF7ECFEE368326A6780A66077
:1019C000E26034621C46D0E7E2686380A360E360B3
:1019D0001446CAE72D4B1B8898424DD8284B471E0A
:1019E00053F827609946002E46D04FF0010A304642
:1019F000FEF75EFF3046FEF789FFDFF894B0346AE9
:101A0000B4B9316B1F4849F82740FFF7D1F9314687
:101A100034631D48FFF7CCF91D48296843689A785C
:101A20008B789A42B4D901234B70FEF7B1FEADE733
:101A30006368DBB12046FEF7C3FE80460021FFF756
:101A4000E5F84046FEF762FF88F801A04146584697
:101A5000FEF79EFEE368D8F82020A4F802A0C4F8A0
:101A60000880E260C8F820401C46C9E7E26863804D
:101A7000A360E3601446C3E7FF2489E7B4200010A5
:101A8000B0180010A0160010981C0010905800000C
:101A90006820001038B52C4B2C491A8800231846B2
:101AA00093424DD32A4B402219882A48FFF74EF91A
:101AB000294B2A481A882A4B42F000421968FFF73E
:101AC00045F9284B08221988274B284C1868FFF73E
:101AD0003DF9FF230025E370012320486370A562D0
:101AE0002570A57084F824506560A560E5602561C7
:101AF0002562A582E5822583658384F82550FFF75A
:101B00004AF91B4920632046FFF736F80422194B97
:101B100020461A705D60184B1A70DD601D619D8251
:101B2000164B1C6002236370FFF718FE144A154B16
:101B300012781D705D70DA70BDE83840FFF780BA2A
:101B400041F823000133ABE790580000B0180010B3
:101B50005C580000981C0010AC580000A016001043
:101B6000585800005E580000F0030010BC20001020
:101B7000F10600006820001080200010B420001042
:101B80008D580000EC18001008B51E4B1A6842F47E
:101B90007F021A601B681B0203F07F43DB43B3FA2A
:101BA00083F3194ADBB21268C3F10803C2F30222BD
:101BB000934298BF531C6FF08072144802FA03F3EB
:101BC000016803F07F4321F07F4213430360FFF776
:101BD00073F80F4B0028186012DBFF22012100F17F
:101BE000604000F5644002701A6853099B0003F1DD
:101BF000604302F01F0203F5614301FA02F21A602A
:101C000008BD00BF20ED00E00CED00E01CED00E0A1
:101C1000982000100321FFF7DDBD0000426810B5D9
:101C20007AB1FEF7CDFD0446FEF770FE0121204695
:101C30006170FEF7EBFF2146BDE810400348FEF758
:101C4000A7BD42880132428010BD00BF682000104D
:101C500010B50021044600F095F8012004F01F049F
:101C6000A04010BD38B505464B1C0C4629600FD06E
:101C70000846FFF7EDFF24F01F0404F11803EB60A2
:101C800004F11C032B6104F1140368606B61AC6008
:101C900038BD006800F08FB811B1012907D0704736
:101CA00082684168136823EA010313607047826801
:101CB000416813680B43F8E708B5FEF749FC0022BA
:101CC000044BC3F8C020044A136923F004031361D2
:101CD00030BF08BD00C00F4000ED00E008B5104B5C
:101CE0001868E0B901210F4A1960D2F8C43043F4F2
:101CF0000003C2F8C430A2F5D022106702200A4BBC
:101D00001B6850600948B3FBF0F3013BD36004202B
:101D10005160074900F0AAFB1022064B1A6008BD6B
:101D20006414001000C00F40E400001000093D00E2
:101D30006504000000E100E008B5044B1B680BB926
:101D4000FFF7CCFF024B986808BD00BF6414001079
:101D500000400940034B98615A6942F001025A6100
:101D6000704700BF00400940024A536923F0010355
:101D700053617047004009400122014B1A607047CF
:101D80000040094010B5032400F16040A0F51C207C
:101D900043000009800000F1804000F53030026807
:101DA00003F01E039C4022EA04020260026899408C
:101DB0001143016010BD00F16040A0F51C204309F3
:101DC0009B0003F1804303F5303330B500F01F0270
:101DD0009C6EC1F3800505FA02F224EA02049C66B7
:101DE0009C6E22439A6695B9032443000009800043
:101DF00000F1804000F53030026C03F01E039C407F
:101E000022EA04020264026C99401143016430BD6D
:101E1000012810B408D0022808D010BC70475068C0
:101E200020F00100506010E003460EE038230F4818
:101E300003FB01035868013006D018699C680460F0
:101E400093F83630002BEAD000233822514307485C
:101E5000421840580028E0D01BB992F83620002ADA
:101E6000DBD0034A1946126810BC104770140010EA
:101E700068140010034A00219068C0F34200FFF785
:101E8000C7BF00BF00C00040034A01219068C0F3F3
:101E90004200FFF7BDBF00BF00000140034A02211E
:101EA0009068C0F34200FFF7B3BF00BF0080094055
:101EB000034A03219068C0F34200FFF7A9BF00BFA7
:101EC00000C0094070B50B46066829498E4222D0F1
:101ED00006DCA1F580418E420CD000210C460BE0BF
:101EE00024498E421AD001F580418E42F5D1224913
:101EF000082401E0052421499AB10125726805FAF8
:101F000003F313437360204600F0B0FA1C4B05FA4C
:101F100004F41C6070BD1B490624EDE71A49072430
:101F2000EAE7012B0AD042683820184900FB021268
:101F300092F8361092F83520D14217D1012202FAD8
:101F400003F0B3FA83F371685B0921EA0001716061
:101F5000716802FA03F30B4208D1094B02FA04F448
:101F6000C3F88040BFF34F8FBFF36F8F70BD00BFCA
:101F70000000014000800940B11E0000751E0000F5
:101F800000E100E0891E00009D1E0000701400109A
:101F90002DE9F04F644B046887B09C4200F08D80BF
:101FA0006ADCA3F580439C4279D0604B0801D3F8EA
:101FB00000C0BCFBF0F293B200FB12C2002A00F09A
:101FC000AA800125E6469946AB464FF0000A0191EA
:101FD000039100264FEA4E030493DDF804804FEA94
:101FE0008E03EFB20593F3B20093049B002BABBFBB
:101FF000059BB3FBF8F3B3FBF8F31B09A8BF5B0920
:102000000133C3F34F03002B00F0888016B1012B7E
:1020100008BF0223A8195843C000BEFBF0F00130EE
:10202000C1EB50000028B8BF40420290029A0398CA
:10203000824262DA91425AD10F2D07D1BB469946AE
:10204000DDF800A05F464B46CDF800A0217B41F0B3
:1020500080012173C3F30721DBB221712370009B40
:1020600043EA0712D2B284F82820237B03F07F03CF
:10207000237307B0BDE8F08F2D4B9C4229D003F5A8
:1020800080439C4291D12B4BD3F8AC2122F44022C7
:10209000C3F8AC21D3F8AC2142F4802224E0254BD4
:1020A000D3F8A82122F0C002C3F8A821D3F8A821B0
:1020B00042F04002C3F8A82177E71E4BD3F8A821CD
:1020C00022F44072C3F8A821D3F8A82142F4807208
:1020D000F0E7184BD3F8AC2122F44032C3F8AC211E
:1020E000D3F8AC2142F48032C3F8AC215DE7BB46A3
:1020F0009946029ADDF800A003920136F3B2BB4282
:102100008844FFF470AF0F2D9CD0019B01350B4428
:10211000E64401935DE70127009297E7002E0CBF8C
:102120000123022376E700BF00000140E400001015
:102130000080094000C00F40034B196038234168FC
:102140004B430249CA5070476814001070140010C5
:1021500030B431B938254368034C05FB034383F899
:10216000362030BCFFF7AEBE7014001010B5026808
:10217000137DDB07FCD5382443680848117804FB3D
:1021800003035868C9B2013006D058699B680360E0
:10219000536843F001035360084610BD70140010EB
:1021A0003821114A436801FB0323DA69013209D05F
:1021B0001A6B1B6A12681A4214D10368187DC0F3A7
:1021C000801070470268127D920604D5002201201B
:1021D00083F83420704793F834000F288CBF002018
:1021E00001207047002070477014001038B5044675
:1021F0000D462046FFF7D4FF0028FAD03821236887
:10220000EDB21D706368044A01FB032393F8342088
:10221000013283F8342038BD701400102DE9F84FD6
:102220009A463C4C03680546A34218BF00248946E1
:10223000904647681CB1237C03F03F032374382386
:102240004FF0FF32344E284603FB0763DA615A60D1
:10225000002283F835201146FFF734FEB9F1000F54
:1022600055D02E494046FEF755F92D498346504634
:10227000FEF750F9A9F10203012B1BD8BAF1FF3F79
:102280000BD0244B98420DD164B1237C244943F0F8
:10229000800323745046FEF70FF9B9F1030F0CD0F9
:1022A000BDE8F88F382000FB076051461C30FEF770
:1022B000C2F8F2E7B9F1010F29D1B8F1FF3F01D11E
:1022C000BDE8F88F07222B681A72124B9B450AD182
:1022D0004CB1237C404643F0400323740F49BDE8D2
:1022E000F84FFEF7E9B8382404FB076041460022A6
:1022F0000430FEF7A3F801226B68284604FB03664E
:1023000086F835200021BDE8F84FFFF7DBBDBDE8BA
:10231000F88F00BF0000014070140010F05800005A
:10232000CC5800002DE9F0410F4605464649384695
:102330001646FEF7FBF8454904463046FEF7F6F828
:1023400001462046FEF7D4F8414B044698422860E7
:102350005DD047D8A3F58043984250D001234FF079
:10236000000823724FF416512846C4F80480FFF782
:102370000FFE03222B6834491A733846FEF79CF887
:1023800032493046FEF798F87A1C03D04146384669
:10239000FFF711FD731C03D000213046FFF70BFD42
:1023A0002B4B9C424BD03ED8A3F580439C4243D05C
:1023B00038216A68274B284601FB02324FF0FF3371
:1023C00000215360D3611A46FFF728FF224B9C423D
:1023D00006D10122214B69681A602868204B03C38B
:1023E000BDE8F0811F4B984217D003F58043984217
:1023F000B4D11D4AD2F8C43043F0007304E01A4A45
:10240000D2F8C43043F00803C2F8C430A6E7164A35
:10241000D2F8C43043F01003F6E7134AD2F8C430C0
:1024200043F08073F0E70F4B9C420AD003F58043E2
:102430009C42BDD1032300E000236B60B8E7012379
:10244000FBE70223F9E700BF8059000014590000A0
:10245000000001407014001000C000406C14001017
:10246000002100100080094000C00F4030B50C4C26
:10247000A268A4681346B4F1805F0CD2131F094C04
:10248000094A53F8045F42F8045FA242F9D14FF0C1
:102490008053034A9360103043F8201030BD00BFD2
:1024A00000ED00E0C0000010FCFFFF0F2022264BD3
:1024B000C3F8A021D3F8A021920603D5D3F8A02118
:1024C0005006FBD50222C3F8042100220120C3F8E4
:1024D000A821C3F8AC210B22C3F80C01AA21C3F830
:1024E00084205522C3F88C10C3F88C20C3F88000D8
:1024F000C3F88C10C3F88C20134B1A46D3F88810FD
:102500004901FBD50321C3F88010AA21C3F88C1020
:102510005521C3F88C10D2F8883013F0407FFAD0E0
:102520000523C2F80831094BC2F8C4300023C2F8B1
:10253000C831136823F4704323F03A0343F4405343
:1025400043F03A031360704700C00F40DE87280451
:102550000368DB69184703685B69184703689B6A6F
:10256000184700F0CFB9A0F13000FFF7FABF00F034
:10257000CCB9A0F13000FFF7FABF4FF0FF31443083
:1025800000F064BDA0F13000FFF7F7BF443000F069
:1025900060BDA0F13000FFF7F9BF000038B5044678
:1025A0001D46049B00F0B8F9294604F1300000F004
:1025B0004BF8064B04F1440003F108022833226073
:1025C000236300F02BFD204638BD00BFEC5900000E
:1025D00070477047F8B50E46036804469B6B8F182A
:1025E00035469847BD4207D0236815F8011B1B6C80
:1025F000204698470130F5D123682046DB6B984789
:10260000A81BF8BDF8B50E46036804469B6B8F18EF
:1026100035469847BD4208D0236820465B6C9847F2
:10262000431C02D005F8010BF4E723682046DB6B5E
:102630009847A81BF8BD00207047002070477047DE
:1026400000207047002070471FB50446002200F0AC
:10265000CDF8094B2246236000230849236101A8D5
:1026600002F0F0F9064901A801F070F9206100F0CC
:10267000C8FB204604B010BDB45A0000A45A0000A4
:10268000A85A000010B50446054B0360006900F02D
:102690006FFF044B2046236000F0CCF8204610BDAD
:1026A000B45A0000645A000038B5044603689B6BB6
:1026B0009847206901F016F8206900F0A5FB05464F
:1026C00023682046DB6B9847284638BD0EB477B5A3
:1026D0000446036807AD55F8046B9B6B9847206967
:1026E000019500F0FFFF019A3146206901F0E4FCFA
:1026F000054623682046DB6B9847284603B0BDE8B3
:10270000704003B07047002310B5036043600A783F
:1027100004462F2A0DD14A785AB1481C1946206028
:1027200023681A782F2A06D10133236000F0B8F805
:102730006060204610BD002AF8D0013301312360CB
:10274000EEE700687047406808B520B100F032F845
:10275000431E5842584108BD10B50446FFF7F3FF29
:1027600000B1606810BD406808B520B100F022F8E3
:10277000B0FA80F0400908BD10B50446FFF7F3FF3A
:1027800000B1606810BD4068003018BF012070477C
:10279000884238B504460D460AD0FDF723FD3CB10A
:1027A000EB681BB15B68294620469847EB68E360FD
:1027B000204638BD007B7047036870B5044683B976
:1027C000094D4FF0FF312868FEF728FE23682BB92A
:1027D000261D02D0304600F021FC26602868FEF756
:1027E00045FE206870BD00BF7419001038B50E4B4F
:1027F0000446036000230D464360A16002730B484A
:10280000FFF7DAFF4FF0FF3100F020FC55B1084B25
:102810001A681C6062600548FFF7CEFF00F019FCE3
:10282000204638BD6560F6E7045B000054150010D3
:102830005015001010B50446114B03601148FFF706
:10284000BBFF4FF0FF3100F001FCA3682BB10E4A33
:1028500013689C420ED1636813600A48FFF7ACFF0F
:1028600000F0F7FB237B13B9204600F0F3FA204673
:1028700010BD13465A689442FBD162685A60ECE777
:10288000045B0000541500105015001010B50446EC
:10289000FFF7D0FF204600F0DAFA204610BD000016
:1028A000F8B5074610480E46FFF786FF4FF0FF3198
:1028B00000F0CCFB0D4B1C6864B1A5688DB13246AD
:1028C0003946284602F063F958B9284602F057F90C
:1028D000864206D10448FFF76FFF00F0BAFB20469E
:1028E000F8BD6468E8E700BF5415001050150010EB
:1028F00070477047704700EB0112936902F10C00BA
:102900001B6818470430FFF731BC10B50C46043083
:10291000FFF76CFC204610BD2DE9FF410F4600215A
:1029200004469046174A184E184DC3620260416033
:1029300081608161816269460C3003950096FFF7E2
:1029400027FF6846FDF74EFC694604F11C0003951D
:102950000096251DFFF71CFF6846FDF743FC424625
:1029600039462846FFF7DEFCE16A2846FFF710FBF0
:10297000284622460649FFF7DFFB204604B0BDE8A3
:10298000F08100BF145B0000F1280000B057000088
:10299000F72800002DE9FF4105468846164655F800
:1029A000043B04461B689847FDF7E8FDD8F80C7017
:1029B000300197B10C3041462044FFF7E9FE012277
:1029C00031462846FFF7C4FBFDF7EEFD236820469D
:1029D0005B68984704B0BDE8F081074B0C3000936A
:1029E000064B694620440393FFF7D2FE6846FDF785
:1029F000F9FB3A46E4E700BFF1280000B0570000B9
:102A000010B50446006930B1036861695B6A984794
:102A10000023236110BD6FF0150010BD30B40446D3
:102A2000006903689D6A1346AC460A46616930BC7A
:102A3000604730B4044600690368DD6A1346AC465B
:102A40000A46616930BC6047036941691A681846E3
:102A5000126B1047036941691A681846526B104798
:102A600030B40446006903689D6B1346AC460A46C1
:102A7000616930BC6047036941691A681846D26BC6
:102A80001047036941691A681846126C10470369B8
:102A900041691A681846526C104770B50D460169B5
:102AA000044641B929680E6A00F114012846B0476E
:102AB00018B9256170BD6FF0150070BD074B10B5DA
:102AC0000360036904460BB1FFF79AFF044B2046ED
:102AD0002360FFF7AFFE204610BD00BF2C5B000057
:102AE000645A000010B50446FFF7E8FF204600F0E6
:102AF000AEF9204610BD0000002210B50446114674
:102B0000FFF774FE034B20462360002323616361BB
:102B100010BD00BF2C5B000001F00CB901F068B9DA
:102B200001F0BCB870B505464FF47A74FFF704F9AC
:102B300095FBF4F4002C064602DDFDF718FD28B9DC
:102B4000FFF7FAF8801BA842FAD370BD204600F0C8
:102B500063FAF5E708B5044900F03CFB00F08AFC95
:102B6000BDE80840FFF7DEBF002474494FF47A73D4
:102B70005843FFF7D7BF0000034B10B5036004466E
:102B8000FFF79CFF204610BD785B000008B5084B9E
:102B90001B685BB907490848084AFFF7C3FB4FF4B5
:102BA0001651BDE808400448FFF7F2B908BD00BF60
:102BB0006C14001002C009200021001003C009207D
:102BC00070470000022810B5044601DC002010BD4B
:102BD00000F076FC092300220360094B033C53F804
:102BE000240043F8242040B103681B699847041E61
:102BF000ECDA00F065FC644204604FF0FF3010BD79
:102C000070150010F8B505460E46144600F058FC45
:102C10000923022D03600FDC124B1B680BB9FFF771
:102C2000B5FF35463719104EBD4215D015F8011BBA
:102C30003046FFF7DBFAF7E70C4B033D53F825006E
:102C400060B103682246DB6831469847041E03DA08
:102C500000F036FC634203602046F8BD4FF0FF34BD
:102C6000FAE700BF6C14001000210010701500106E
:102C700070B504460D46164600F022FC0923022CCE
:102C800003600BDC0F4B1B680BB9FFF77FFF0E488F
:102C9000FFF76CFA01242870204670BD0B4B033CF3
:102CA00053F8240058B1036832469B682946984778
:102CB000041EF1DA00F004FC63420360ECE74FF01D
:102CC000FF34E9E76C1400100021001070150010AB
:102CD00010B5044600F0F4FB0923022C036010DD5C
:102CE0000A4B033C53F8240040B103689B699847A2
:102CF000041E08DA00F0E4FB644204604FF0FF3089
:102D000010BD012010BD002010BD00BF70150010C7
:102D100070B504460D46164600F0D2FB0923022C7E
:102D200003600BDD084B033C53F8240040B10368FB
:102D300032462946BDE87040DB691847002070BD67
:102D40004FF0FF3070BD00BF70150010022808B5AD
:102D500004DC4FF4005300204B6008BD00F0B0FBD2
:102D6000092303604FF0FF3008BD08B5FFF728FFC7
:102D7000FDF7F2FC08BD704708B5FFF7FCFFBDE8A2
:102D80000840FDF76FBA00000C4A10B513681844EC
:102D9000EFF30881884205D30C22094B4FF0FF3036
:102DA0001A6010BD07490C6824B10749096821441D
:102DB0008842F1D21060184610BD00BFE800001034
:102DC000082100108C16001090160010094C08B550
:102DD00023680546986800F085FC2368D86800F0F1
:102DE00081FCFDF7B3FB08B1FDF7F2FB0DB1FDF778
:102DF0000FFCFEE7EC0000100120704708B5FFF75C
:102E0000E5FF002101F067BD00F0AABC08B5FDF7A1
:102E1000B1FC08BD08B5FDF7B5FC08BD10B500F064
:102E2000F1FE044610B90248FDF72EFC204610BD05
:102E3000BC5B000008B100F0EDBE704710B5044661
:102E4000FFF79AFE2046FFF7F5FF204610BDFFF77B
:102E5000F1BF000010B504460C48FFF7ADFC4FF081
:102E6000FF3100F0F3F800231946094A52F8230015
:102E7000A04208BF42F823100133402BF6D103488B
:102E8000FFF79AFCBDE8104000F0E3B870160010A0
:102E9000701500102DE9F34789464E49064601F0AA
:102EA00064FE044628B9FFF771FE204602B0BDE873
:102EB000F0874949304601F058FE18B9FFF766FE21
:102EC0000124F2E74549304601F04FFE18B9FFF7FB
:102ED0005DFE0224E9E700F0F3FA0923404F0360A6
:102EE0004048FFF769FC4FF0FF3100F0AFF80024D5
:102EF000B84657F82450002D54D00134402CF8D156
:102F000000F0DEFA182303603648FFF755FC00F0A6
:102F1000A0F80DE031466846FFF7F5FB6846FFF77D
:102F200032FC40B947F8240000F0CAFA02230360DB
:102F30004FF0FF34B9E76846FFF715FC20B168464B
:102F4000FFF71AFC05463FE06846FFF705FC82469E
:102F500030B900F0B5FA0223036047F824A0E7E790
:102F60001820FFF75BFF0646FFF7C6FD1E4B6846BD
:102F70003360FFF7E6FB29F48033024651463046C2
:102F8000FFF78BFD071E0BDA00F09AFA7F4207600D
:102F90001EB1336830465B68984748F82450C7E74D
:102FA000354611E04FF0FF330E4847F82430FFF765
:102FB00003FC00F04EF833783A2BABD16A460B494C
:102FC000304601F063FD009D002DE6D048F8245006
:102FD00003346AE7E15B0000E85B0000D95B0000B6
:102FE0007015001070160010785B0000A45A0000E5
:102FF00038B50446FFF704FD05461CB1236820469A
:103000005B689847284638BD024B1B6803B11847D8
:10301000704700BF94160010FEF770B938B504462B
:1030200000F1080510220021284600F02EFE20465F
:1030300040F8045FFEF7D4F9206010B90248FDF7AC
:1030400023FB204638BD00BFF05B00000068FEF7A0
:10305000E5B90068FEF70ABA10B504460068FEF745
:103060004BFA204610BD000080F309887047EFF34B
:1030700009807047684680F309883F480078C00798
:1030800014BF0220032080F314887047DFF8ECC0DF
:10309000EFF305831B0618BF6047EFF31483DB07CC
:1030A00008BF604700DF7047DFF8D4C0EFF3058347
:1030B0001B0618BF6047EFF31483DB0708BF6047A8
:1030C00000DF7047EFF30980816911F8021CF1B944
:1030D00090E80F10E047EFF3098C8CE80700294BCC
:1030E00093E8060091420FD039B12CE9F00FC1F8F6
:1030F0002CC00CB4FDF718FE0CBC1A60D2F82CC022
:10310000BCE8F00F8CF309886FF0020E704710B521
:103110001D4A1268914209D81C4C54F8214090E88D
:103120000F10A047EFF3098C8CE80F0010BDFDF7DE
:1031300087FD144B93E80600914210D0EFF3098C01
:103140002CE9F00FC1F82CC00CB4FDF7EDFD0CBC60
:103150001A60D2F82CC0BCE8F00F8CF309886FF02D
:10316000020E7047FDF7C2FDFFF7E3BFFDF7BCFDA0
:10317000FDF7BCFDFFF7DDBF8E580000970D000086
:10318000B10D0000B420001000000000FCFFFFFFA4
:103190000649074A074B9A42BEBF51F8040B42F852
:1031A000040BF8E70448804704480047F05D00003E
:1031B000C8000010C8020010AD240000A9030000E0
:1031C000FEE7FEE7FEE7FEE7FEE7FEE7FEE7FEE7D7
:1031D000FEE7FEE74FF0FF0C1CEAD0521EBF1CEAD0
:1031E000D15392EA0C0F93EA0C0F6FD01A4480EA85
:1031F000010C400218BF5FEA41211ED04FF000636E
:1032000043EA501043EA5111A0FB01310CF0004099
:10321000B1F5000F3EBF490041EAD3715B0040EABF
:10322000010062F17F02FD2A1DD8B3F1004F40EB8F
:10323000C25008BF20F00100704790F0000F0CF062
:10324000004C08BF49024CEA502040EA51207F3A26
:10325000C2BFD2F1FF0340EAC250704740F4000001
:103260004FF00003013A5DDC12F1190FDCBF00F0F2
:1032700000407047C2F10002410021FA02F1C2F1A0
:10328000200200FA02FC5FEA310040F1000053EA3C
:103290004C0308BF20EADC70704792F0000F00F08A
:1032A000004C02BF400010F4000F013AF9D040EA90
:1032B0000C0093F0000F01F0004C02BF490011F424
:1032C000000F013BF9D041EA0C018FE70CEAD15322
:1032D00092EA0C0F18BF93EA0C0F0AD030F0004CA2
:1032E00018BF31F0004CD8D180EA010000F0004056
:1032F000704790F0000F17BF90F0004F084691F014
:10330000000F91F0004F14D092EA0C0F01D142024D
:103310000FD193EA0C0F03D14B0218BF084608D116
:1033200080EA010000F0004040F0FE4040F4000060
:10333000704740F0FE4040F4400070474FF0FF0CF3
:103340001CEAD0521EBF1CEAD15392EA0C0F93EA3A
:103350000C0F69D0A2EB030280EA010C49024FEA8C
:10336000402037D04FF0805343EA111143EA101345
:103370000CF000408B4238BF5B0042F17D024FF4FD
:10338000000C8B4224BF5B1A40EA0C00B3EB510FD8
:1033900024BFA3EB510340EA5C00B3EB910F24BFC1
:1033A000A3EB910340EA9C00B3EBD10F24BFA3EB46
:1033B000D10340EADC001B0118BF5FEA1C1CE0D10E
:1033C000FD2A3FF650AF8B4240EBC25008BF20F0C1
:1033D000010070470CF0004C4CEA50207F32C2BF15
:1033E000D2F1FF0340EAC250704740F400004FF0B2
:1033F0000003013A37E792F0000F00F0004C02BFE3
:10340000400010F4000F013AF9D040EA0C0093F0AC
:10341000000F01F0004C02BF490011F4000F013B06
:10342000F9D041EA0C0195E70CEAD15392EA0C0F6E
:1034300008D142027FF47DAF93EA0C0F7FF470AFA6
:10344000084676E793EA0C0F04D14B023FF44CAFE9
:1034500008466EE730F0004C18BF31F0004CCAD17E
:1034600030F000427FF45CAF31F000437FF43CAFBA
:103470005FE700BF4FEA4002B2F1FE4F0FD34FF0BB
:103480009E03B3EB12620DD94FEA002343F00043D1
:1034900010F0004F23FA02F018BF404270474FF07F
:1034A0000000704712F1610F01D1420205D110F006
:1034B000004008BF6FF0004070474FF000007047B9
:1034C000014B1868704700BFEC00001070B505464E
:1034D0000C4611B90026304670BD18B183690BB98E
:1034E00000F086F91F4B9C4232D16C68B4F90C3065
:1034F000002BEFD02146284600F042F8236B064609
:1035000033B1216A284698470028B8BF4FF0FF36EC
:10351000A3891B0603D521692846FFF701FB616BD0
:1035200041B104F14403994202D02846FFF7F8FA6A
:1035300000236363A16C21B12846FFF7F1FA002351
:10354000A36400F0C1F90023A38100F0BEF9C2E733
:10355000054B9C4201D1AC68C8E7044B9C4208BFB4
:10356000EC68C3E7385C0000585C0000185C0000A1
:10357000024B01461868FFF7A9BF00BFEC0000101E
:103580008A892DE9F041054610070C465AD44B684C
:10359000002B05DC0B6C002B02DC0020BDE8F08169
:1035A000E66A002EF9D0002312F480522F682B60B7
:1035B00033D0606DA3895A0705D56368C01A636B61
:1035C0000BB1236CC01A00230246E66A216A284622
:1035D000B047431CA38906D129681D294BD82B4A23
:1035E000CA40D60747D5002262602269D90422600A
:1035F00004D5421C01D12B6803B96065616B2F6053
:103600000029CAD004F14403994202D02846FFF7AA
:1036100087FA00206063BDE8F081216A0123284613
:10362000B047411CC6D12B68002BC3D01D2B01D045
:10363000162B01D12F60B0E7A38943F04003A3818B
:10364000BDE8F0810F69002FA7D0930718BF0023B2
:103650000E6808BF4B69A6EB07080F608B60B8F1D6
:10366000000F9ADD43463A46216A2846A66AB047CB
:10367000002807DCA38943F04003A3814FF0FF300B
:10368000BDE8F0810744A8EB0008E8E7010040200E
:1036900038B50B6905460C46DBB118B183690BB927
:1036A00000F0A6F80C4B9C4209D16C68B4F90C30C0
:1036B0007BB121462846BDE83840FFF761BF074B84
:1036C0009C4201D1AC68F1E7054B9C4208BFEC6815
:1036D000ECE7002038BD00BF385C0000585C0000FB
:1036E000185C0000014620B9044B0549186800F039
:1036F000E3B9044B1868FFF7CBBF00BF785C00004C
:1037000091360000EC00001038B50C46054618B1A3
:1037100083690BB900F06CF80E4B9C420BD16C68BE
:103720006368013B002B63600FDA21462846BDE841
:10373000384001F065B8084B9C4201D1AC68EFE716
:10374000064B9C4208BFEC68EAE723685A1C2260DB
:10375000187838BD385C0000585C0000185C000028
:10376000024B01461868FFF7CFBF00BFEC00001006
:10377000014900F0A1B900BF91360000002310B547
:10378000044603604360836081814366C2810361B4
:1037900043618361194608225C3000F076FA054BDC
:1037A00024626362044BA362044BE362044B236311
:1037B00010BD00BFE14A0000074B00003F4B000076
:1037C000634B000070B568254A1E55430E4605F14F
:1037D0007401FFF7A1F9044640B1002180E84200DE
:1037E0000C30A06005F1680200F04FFA204670BD71
:1037F000836910B5044633BB8364C3640365124B0D
:10380000124A1B688262984204BF0123836100F060
:103810001FF86060204600F01BF8A060204600F012
:1038200017F80022E06004216068FFF7A7FF01227B
:103830000921A068FFF7A2FF02221221E068FFF72A
:103840009DFF0123A36110BD785C0000713700006B
:10385000F8B51C4B07461E68B36913B93046FFF72D
:10386000C7FF4836B4687368013B03D5336833B18A
:103870003668F7E7B4F90C506DB16834F4E7042109
:103880003846FFF79FFF30600028F1D10C23044633
:103890003B602046F8BD4FF6FF73E3810123656668
:1038A000A3812560A560656025616561A561082229
:1038B000294604F15C0000F0E8F96563A563A5649E
:1038C000E564E6E7785C000070477047F7B50F469F
:1038D000114601AA054601F0ABFB064618B90024C3
:1038E000204603B0F0BD2846FFF7B2FF044600288B
:1038F000F5D04FF4DB73019A3946284600F0D8FE24
:10390000002806DA0025FFF7DFFFA581FFF7DDFFBE
:10391000E5E70A4BE0816362094BA681A362094B8C
:103920002462E362084B2363F305D9D50223002206
:103930002146284600F012F8D2E700BFE14A000015
:10394000074B00003F4B0000634B0000024B0A4650
:1039500001461868FFF7BABFEC00001000F000B88D
:103960002DE9F8430C4691461E46054618B1836979
:103970000BB9FFF73DFF3F4B9C4212D16C68A38906
:1039800003F48473B3F5847F03D121462846FFF7FF
:103990007FFED4F82C80B8F1000F0CD11D232B60D2
:1039A00057E0354B9C4201D1AC68E8E7334B9C4271
:1039B00008BFEC68E3E7012E30D0022E01D0002EC4
:1039C00055D123691BB92146284600F0DBF8214672
:1039D0002846FFF75DFE074600283AD133464A469F
:1039E000216A2846C047013033D0616B41B104F1F0
:1039F0004403994202D02846FFF792F800236363FC
:103A00000021236961602360A389082223F40263F3
:103A1000A38104F15C0000F038F91CE0214628463F
:103A2000FFF736FEA28912F480520CD0606DA38994
:103A30005A0713D56368C01A636B0BB1236CC01AA5
:103A400081440026BDE7216A33462846C047411C11
:103A5000EDD14FF0FF373846BDE8F8831B07EFD5AF
:103A60002368002BECD022699B1A1844E8E7162340
:103A700095E700BF385C0000585C0000185C00004F
:103A80002DE9F0418846002600F1480414B930467B
:103A9000BDE8F081A5686768013F01D52468F5E7B6
:103AA000AB89012B06D9B5F90E30013302D0284677
:103AB000C04706436835EFE72DE9F843804689465D
:103AC000002600F1480414B93046BDE8F883A56823
:103AD0006768013F01D52468F5E7AB89012B07D959
:103AE000B5F90E30013303D029464046C847064396
:103AF0006835EEE770B500250C4E0D4CA41BA410E4
:103B0000A54209D101F048FE00250A4E0A4CA41B2B
:103B1000A410A54205D170BD56F82530984701354F
:103B2000EEE756F8253098470135F2E7BC02001061
:103B3000BC020010BC020010C402001070B50E469A
:103B4000B1F90E1090B0002914461D4607DA002383
:103B50002B60B3891A0610D44FF480630EE001AADB
:103B600001F09CFA0028F2DB029A02F47042A2F5FE
:103B700000535A425A412A60EEE740230020236056
:103B800010B070BD8B8973B59D0706460C4607D5EE
:103B900004F14703236023610123636102B070BD18
:103BA00001AB6A46FFF7CAFF009905463046FEF7AB
:103BB000B3FF48B9B4F90C309A05EFD423F00303EE
:103BC00043F00203A381E3E70D4BB362A3892060B6
:103BD00043F08003A381009B20616361019B5BB183
:103BE000B4F90E10304601F06BFA28B1A38923F026
:103BF000030343F00103A381A3891D43A581CDE7FE
:103C000071370000024B01461868FEF785BF00BF00
:103C1000EC000010024B01461868FEF781BF00BFA0
:103C2000EC00001010B5C9B202449042034601D125
:103C3000002010BD1C7801308C42F6D1184610BD12
:103C400010B5431E0A44914200D110BD11F8014B3A
:103C500003F8014FF7E7884210B501EB020303D8E0
:103C6000421E99420CD110BD9842F9D28118D21A45
:103C7000D34200D110BD13F8014D01F8014DF7E713
:103C800011F8014B02F8014FEBE70346024493425F
:103C900000D1704703F8011BF9E7000038B505466D
:103CA000002943D051F8043C0C1F002BB8BFE41886
:103CB000FFF7ACF81E4A1368104633B9636014600E
:103CC0002846BDE83840FFF7A5B8A3420BD92168C4
:103CD0006218934201BF1A685B68521822606360E1
:103CE0000460EDE713465A680AB1A242FAD919688E
:103CF0005818A0420BD1206801445818824219601C
:103D0000DED110685268014419605A60D8E702D9C0
:103D10000C232B60D4E7206821188A4201BF116868
:103D200052680918216062605C60C9E738BD00BF55
:103D30009816001070B5CD1C25F0030508350C2D24
:103D400038BF0C25002D064601DBA94203D90C2300
:103D50003360002070BDFFF759F8234A14682146EC
:103D600091B9224C23681BB9304600F075FD2060E4
:103D70002946304600F070FD431C26D10C23304606
:103D80003360FFF747F8E4E70B685B1B1AD40B2B93
:103D90000FD90B60CC18CD503046FFF73BF804F13B
:103DA0000B00231D20F00700C31A1BD05A42E2501B
:103DB00070BD8C420BBF63684B681360636018BFB3
:103DC0000C46E9E70C464968CAE7C41C24F0030422
:103DD000A04205D0211A304600F03EFD0130CDD082
:103DE0002560D9E770BD00BF981600109C16001022
:103DF000F8B5074614460E4621B91146BDE8F8400D
:103E0000FEF78ABE22B9FEF78BFE25462846F8BD8E
:103E100001F09CF984420FD921463846FEF77CFE1A
:103E200005460028F2D031462246FFF709FF314609
:103E30003846FEF775FEE9E73546E7E7936810B4C4
:103E4000013B002B936008DA9469A34202DBCBB2FA
:103E50000A2B02D110BC01F009B81368581C10607D
:103E60001970C8B210BC7047F8B506460F46144624
:103E7000D518AC4201D1002007E03A4614F8011BE6
:103E80003046FFF7DBFF431CF3D1F8BD2DE9F04FBF
:103E90009DB00C4617460393064618B183690BB9CB
:103EA000FFF7A6FC7C4B9C4257D17468A389180786
:103EB0005DD52369002B5AD00023099320238DF868
:103EC000293030234FF0010B8DF82A30B846454693
:103ED00015F8013B002B55D1B8EB070A0BD0534620
:103EE0003A4621463046FFF7BFFF013000F0C4805C
:103EF000099B5344099398F80030002B00F0BC80D4
:103F000000234FF0FF3204930793059206938DF838
:103F100053301A93052229786048FFF783FE05F194
:103F20000108049B002831D1D90644BF20228DF816
:103F300053201A0744BF2B228DF853202A782A2AAF
:103F40002CD000210A20079AA84698F800300135A5
:103F5000303B092B6DD971B326E0514B9C4201D106
:103F6000B468A3E74F4B9C4208BFF4689EE7214624
:103F7000304600F0DFFF00289ED04FF0FF301DB02C
:103F8000BDE8F08F252BA7D0A846A0E7434A4546B9
:103F9000801A0BFA00F018430490BBE7039A111D36
:103FA00012680391002A01DB079204E0524243F0B9
:103FB00002030792049398F800302E2B10D198F842
:103FC000013008F101012A2B37D1039B08F10208C7
:103FD0001A1D1B680392002BB8BF4FF0FF330593E7
:103FE000314D032298F800102846FFF71BFE40B120
:103FF0004023401B03FA00F0049B08F1010803432F
:10400000049398F800100622284808F101078DF85B
:104010002810FFF707FE002834D0254B03BB039B75
:10402000073323F0070308330393099B4B44099399
:104030004CE700FB0232012186E700230A251846DF
:104040000593884698F800200131303A092A03D9AF
:10405000002BC5D00590C3E705FB00200123F0E746
:1040600003AB00932246134B04A93046AFF3008004
:10407000B0F1FF3F8146D8D1A3895B063FF57DAF04
:1040800009987CE703AB009322460A4B04A930460B
:1040900000F094F8ECE700BF385C00007C5C0000A6
:1040A000585C0000185C0000825C0000865C000028
:1040B00000000000693E000013460A46014602481F
:1040C0000068FFF7E3BE00BFEC0000102DE9F047E9
:1040D00091461F468A680B6906469342B8BF13464D
:1040E000C9F8003091F843200C46DDF8208012B169
:1040F0000133C9F800302368990642BFD9F800306F
:104100000233C9F80030256815F0060507D104F11F
:10411000190AE368D9F800209B1A9D422ADB94F81B
:1041200043302268003318BF012392062FD404F1D4
:10413000430239463046C047013022D02368E56843
:1041400003F00603042B18BF0025D9F800204FF018
:10415000000908BFAD1AA368226908BF25EAE57502
:104160009342C4BF9B1AED181A344D451BD1002051
:10417000BDE8F0870123524639463046C04701303A
:1041800003D14FF0FF30BDE8F0870135C1E73020A3
:10419000E11881F843005A1C94F845102244023378
:1041A00082F84310C3E70123224639463046C04710
:1041B0000130E6D009F10109D7E700002DE9F0430D
:1041C00017460A7E85B06E2A984606460C460C9B1A
:1041D00001F1430E00F0BC801AD8632A2ED00AD811
:1041E000002A00F0C880582A00F08A8004F14205B5
:1041F00084F842202AE0642A01D0692AF6D1216895
:104200001A6811F0800F23D0111D1960136827E080
:10421000732A00F0B48008D86F2A2AD0702AE5D11A
:104220000A6842F020020A6003E0752A21D0782A49
:10423000DCD178226F4984F8452064E01A6801F1E6
:104240004205111D1960136884F842300123A3E070
:1042500011F0400F02F104011960D7D0B2F900301B
:10426000002B03DA2D225B4284F8432062490A22A4
:1042700017E02068196810F0800F03D0081D18603F
:104280000B6806E010F0400F01F104001860F7D051
:104290000B886F2A14BF0A2208225749002084F88D
:1042A00043006568002DA560C0F29C80206820F066
:1042B00004002060002B3FD1002D40F09580754612
:1042C000082A0BD12368DA0708D5236962689A4265
:1042D000DEBF302305F8013C05F1FF35AEEB0503E9
:1042E0002361CDF800803B4603AA21463046FFF704
:1042F000EDFE013055D14FF0FF3005B0BDE8F08341
:1043000081F845203C492268186812F0800F00F1BE
:1043100004051D6001D0036802E05506FBD5038843
:10432000D00744BF42F0200222601BB9226822F06D
:10433000200222601022B1E77546B3FBF2F002FBC7
:104340001033CB5C05F8013D03460028F5D1B7E7F3
:1043500008681A6810F0800F496904D0101D1860B1
:104360001368196007E010F0400F02F104001860B4
:104370001368F6D01980002375462361B1E71A68E7
:10438000111D19601568002162682846FFF74AFC74
:1043900008B1401B606063682361002384F84330E8
:1043A0009FE723692A4639463046C0470130A2D0EC
:1043B00023689B0707D5002504F11909E368039AD0
:1043C0009B1A9D4205DBE068039B9842B8BF1846E4
:1043D00093E701234A4639463046C04701308AD028
:1043E0000135EBE7002BA7D10B7804F1420584F8E7
:1043F000423065E79E5C00008D5C00002DE9F041D5
:1044000015468A6880460C4632B98A69002A0CBF74
:1044100001224FF0FF328A6000262268D1065FBF7A
:104420001A68111D19601768A369DBB1012B07D148
:104430002B6862691B78D35CA3B9002E31D106E0EA
:10444000022B07D0002E2CD1A369012B29D10120EA
:10445000BDE8F08100F048FE2B681B7818444378D3
:104460001B07EFD423680136DA065EBF2B681B7882
:104470003B702A686B6802F101022A60A26803F1AE
:10448000FF3302F1FF326B6058BF0137A26042B1C7
:10449000002BC9DCD4F880312946404698470028D3
:1044A000C2D0236813F0100305D1E2680132E26044
:1044B000A26902B13B70236900201E442661BDE859
:1044C000F08100002DE9F04F0C469A46744B87B0FE
:1044D0008346164693E8070003ABA76883E8070006
:1044E000704BA169704A04F11C09032918BF1A46D0
:1044F0007B1EB3F5AE7F84BF40F25D13A3602368DB
:1045000088BF6FF4AE7543F45063236098BF0027F3
:104510004B464FF00008009288BF7F193168019325
:1045200003AB53F8280002220978FFF77BFB019BBD
:1045300028B3B8F1010F56D162682AB90822626027
:10454000226842F400722260226822F4A062226093
:10455000A268511EA16092B132685D1C511C31608D
:1045600012781A707368013B002B736006DCD4F874
:104570008031314658469847002877D12B4608F1BC
:104580000108B8F1030FC9D162680AB90A22626052
:10459000626846496069891A019300F06DF9019BD0
:1045A0004FF000081D46A368002B39D031686069C0
:1045B0000A78805C002833D0302A226821D1100587
:1045C0001FD508F1010817B10133013FA3607368DB
:1045D000013B002B73601CDD336801333360A3683B
:1045E000013BA360DFE7B8F1020FB1D1226802F40A
:1045F000C061B1F5007FC2D1102142F480726160C8
:10460000A5E722F4106222600B78013505F8013C21
:10461000DDE7D4F880313146584698470028DED08F
:104620002368D9050CD54D4508D915F8011C6F1E16
:10463000D4F87C313246584698473D464D452CD0FB
:10464000226812F010021ED12A706368494658464B
:10465000009EB0472268DAF8003012F0200F08D030
:104660001A1DCAF800201B68186009E04FF0000806
:10467000D6E7D207F4D51A1DCAF800201B681880A7
:10468000E3680133E3600020A5EB0905A844256930
:104690004544256107B0BDE8F08F0120FAE700BF6F
:1046A000B05C0000D54D0000B54C0000CC5C0000B3
:1046B00038B50546084611460022054C22601A46C8
:1046C000FEF7E8FB431C02D1236803B12B6038BD21
:1046D00008210010838903F00903092B01D1FFF79A
:1046E00001B8002070470000F8B50C46054618B127
:1046F00083690BB9FFF77CF83C4B9C420AD16C688C
:104700000023B4F90C20636093B29E060CD54FF0E1
:10471000FF30F8BD364B9C4201D1AC68F0E7354B19
:104720009C4208BFEC68EBE7580749D4D90605D48A
:10473000092342F040022B60A281E8E71A070BD55B
:1047400021462846FEF7A4FF0028E0D1A389A060F7
:1047500023F00803A381A061A38943F00403A3818C
:1047600023691BB921462846FFF70CFAB4F90C70EF
:10477000BEB2B3070FD00123A3811F4B1F49186896
:1047800006F00906FFF77CF9092EA78103D121461F
:104790002846FEF7F5FE2269666A22606369216A8F
:1047A0002846B047002860601DDC18BF0022A3899E
:1047B00016BF626043F0200343F04003A381A6E7E5
:1047C000616B0029CCD004F14403994202D0284601
:1047D000FEF7A6F90020236C60636360002BBFD056
:1047E000E36B2360F8BD0020F8BD00BF385C00001B
:1047F000585C0000185C0000785C0000D5460000A2
:1048000038B50C46054618B183690BB9FEF7F0FFC1
:104810000E4B9C420DD16C6821462846FFF764FF81
:1048200088B96368013B636023685A1C226018786A
:1048300038BD074B9C4201D1AC68EDE7054B9C426B
:1048400008BFEC68E8E74FF0FF3038BD385C000087
:10485000585C0000185C000038B50023054C054684
:1048600008462360FEF790FA431C02D1236803B187
:104870002B6038BD0821001070B50B78441E5E2BEC
:1048800013BF4A1C8A1C4B78002108BF012100F18C
:10489000FF0504F8011FA542FBD113B9013A1046E8
:1048A00070BD81F001041146C4540D784A1C2D2DB1
:1048B00006D05D2DF3D00DB90A46F0E72B46F2E79E
:1048C0004E785D2EFAD0B342F8DC023101339E42BD
:1048D000C454FBDCE9E700294FF480630CBF0222DB
:1048E000002200F001B800002DE9F7431D46514BAE
:1048F00004461E680F46904626B1B36913B9304688
:10490000FEF776FF4C4B9C4252D17468B8F1020F0F
:1049100006D0B8F1010F00F28980002DC0F2868028
:1049200021463046FEF7B4FE616B41B104F1440309
:10493000994202D03046FEF7F3F800236363002368
:10494000A3616360A3891B0603D521693046FEF786
:10495000E7F8A389B8F1020F23F44A6323F00303B5
:10496000A3815DD001AB6A4621463046FFF7E6F8E9
:10497000A3891843A0812DBB009D2846FFF742F96B
:10498000074600284ED1DDF80090A9453CD14FF0F4
:10499000FF30A38943F00203A3810023A36004F145
:1049A0004703236023610123636103B0BDE8F08303
:1049B000224B9C4201D1B468A8E7214B9C4208BF1E
:1049C000F468A3E7002FD8D0B36913B93046FEF7D7
:1049D0000FFFB8F1010F08BFA389276004BF43F0A0
:1049E0000103A381A389276113F0080065611BD02F
:1049F00013F001004FF000031FBF6D42A360A561DB
:104A0000184608BFA560D0E74846FFF7FBF8074601
:104A10000028BCD0A3894D4643F08003A381D3E78F
:104A20000020B6E7A946F5E7A060BEE74FF0FF30EB
:104A3000BBE700BFEC000010385C0000585C0000D1
:104A4000185C00000EB44FF4027100B59CB0ADF8D4
:104A500014106FF00041049107914FF6FF711DABE8
:104A600002900690084853F8042BADF81610006821
:104A700002A9019300F0CEFB0022029B1A701CB029
:104A80005DF804EB03B07047EC0000100EB44FF477
:104A9000017230B59CB01FAC54F8045BADF8142023
:104AA0000290069000F06BF80B4B03900B930023E1
:104AB0000F9314934FF6FF7307900848ADF8163024
:104AC0002A46234602A90068019400F0F1FC1CB0BC
:104AD000BDE8304003B07047034B0000EC0000100D
:104AE00010B50C46B1F90E1000F036FE0028ABBF31
:104AF000636DA3891B1823F48053ACBF6365A38146
:104B000010BD002070472DE9F0411F468B890546F6
:104B1000DB050C46164605D502230022B1F90E101E
:104B200000F0F0FAA389324623F48053A381B4F94C
:104B30000E103B462846BDE8F04100F0E9B910B53B
:104B40000C46B1F90E1000F0DDFA431CA38915BF25
:104B5000606523F4805343F48053A38118BFA3817D
:104B600010BDB1F90E1000F053BA10F8012B11F876
:104B7000013B012A28BF9A42F7D0D01A704703465A
:104B800013F8012B002AFBD1181A0138704710B511
:104B90006AB10139841810F8013B11F8012F9342D2
:104BA00003D1A04201D0002BF5D1981A10BD1046B8
:104BB00010BD2DE9F84F8046894692461F468B4628
:104BC0005D460A9815F8014B00F08AFA20444678B1
:104BD00016F008060BD12D2C0BD101262C780BF1E9
:104BE000020567B1102F14D1302C0AD011E0AB466A
:104BF000E6E72B2C04BF2C780BF10205F1E7302CF3
:104C000027D12B7803F0DF03582B4BD110276C787A
:104C10000235002E0CBF6FF000414FF00041002222
:104C2000B1FBF7FE104607FB1E1CA4F13003092B55
:104C300011D81C46A7421DDD531C07D0864516D34C
:104C400001D1A44513DB012200FB074015F8014BFD
:104C5000EBE70A27DDE7A4F14103192B01D8373C24
:104C6000E8E7A4F16103192B04D8573CE2E74FF0C1
:104C7000FF32EBE7531C08D122230846C8F8003066
:104C8000BAF1000F07D1BDE8F88F06B14042BAF182
:104C9000000F0CD022B1013DCAF80050BDE8F88FDA
:104CA0004D46F9E73024002FB3D10827B1E7BDE81E
:104CB000F88F000037B5064C064D2468246A002C96
:104CC00008BF2C460094FFF774FF03B030BD00BF4F
:104CD000EC000010500100102DE9F0478046894695
:104CE00092461E460F463D46089815F8014B00F0C7
:104CF000F7F92044437813F008030AD12D2C0AD188
:104D000001232C78BD1C5EB1102E13D1302C09D09C
:104D100010E02F46E7E72B2C04BF2C78BD1CF2E7F0
:104D2000302C25D12A7802F0DF02582A4AD11026E9
:104D30006C7802354FF0FF31B1FBF6F1002706FB2E
:104D400001FE38466FEA0E0EA4F13002092A11D88E
:104D50001446A6421DDD002F18DB814216D301D177
:104D6000A64513DB012700FB064015F8014BEBE7D6
:104D70000A26DFE7A4F14102192A01D8373CE8E707
:104D8000A4F16102192A04D8573CE2E74FF0FF373B
:104D9000EBE7002F09DA22234FF0FF30C8F800308C
:104DA000BAF1000F07D1BDE8F08703B14042BAF174
:104DB000000F0CD027B1013DCAF80050BDE8F087C4
:104DC0004D46F9E73024002EB4D10826B2E7BDE8FD
:104DD000F087000037B5064C064D2468246A002C85
:104DE00008BF2C460094FFF777FF03B030BD00BF2B
:104DF000EC000010500100102DE9F0410C46496B09
:104E000004F1440399421CD14FF48061FDF784FE04
:104E100018B94FF0FF30BDE8F0814FF48063A36311
:104E200094F84630606380F8FF3394F8453000F220
:104E3000FD30437094F84430037020600020BDE8DA
:104E4000F081A66B77003A46FDF768FE054600281C
:104E5000DFD000EB0608014632464046FEF7F0FE82
:104E6000C4F800806563A763E8E70000F8B50E4664
:104E70001446054618B183690BB9FEF7B9FC214BFE
:104E80009C422AD16C68A369A360A3891A072ED516
:104E9000236963B323692068F6B2C01A6369374691
:104EA000984204DB21462846FEF7F2FB28BBA368A4
:104EB0000130013BA36023685A1C22601E706369A5
:104EC000984204D0A389DB0719D50A2E17D12146B1
:104ED0002846FEF7DDFB90B10FE00B4B9C4201D161
:104EE000AC68D0E7094B9C4208BFEC68CBE7214691
:104EF000284600F01FF80028CCD04FF0FF37384686
:104F0000F8BD00BF385C0000585C0000185C000071
:104F100038B50546084611460022054C22601A465F
:104F2000FDF770FE431C02D1236803B12B6038BD2E
:104F300008210010324B70B51D6806460C4625B19D
:104F4000AB6913B92846FEF753FC2E4B9C420FD198
:104F50006C68B4F90C309AB215072CD4D00611D471
:104F60000922326043F04003A3814FF0FF3070BD4F
:104F7000254B9C4201D1AC68EBE7244B9C4208BF17
:104F8000EC68E6E7510712D5616B41B104F14403C7
:104F9000994202D03046FDF7C3FD00236363A38925
:104FA00023F02403A3810023636023692360A38982
:104FB00043F00803A38123694BB9A38903F4207349
:104FC000B3F5007F03D021463046FEF7DBFDA28912
:104FD00012F001030CD00023A36063695B42A3615C
:104FE000236953B9B4F90C3013F08000BAD170BD05
:104FF000920758BF6369A360F2E70020F7E700BF9C
:10500000EC000010385C0000585C0000185C0000E8
:1050100038B50023054C054608462360FDF7D2FD50
:10502000431C02D1236803B12B6038BD0821001056
:105030000B7830B5722B13D0772B07D0612B13D19F
:105040004FF4027401234FF4847003E04FF4C06402
:105050000123082011F8015F55B92343136030BDC7
:10506000002404202346F5E716230360002030BD0A
:10507000622D0CD0782D0DD02B2DEBD120F01C0003
:1050800023F0030340F0100043F00203E2E743F48F
:105090008033DFE743F40063DCE7000038B500232A
:1050A000064C0546084611462360FDF74FFE431C9B
:1050B00002D1236803B12B6038BD00BF0821001066
:1050C00038B50023054C054608462360FBF780F9F8
:1050D000431C02D1236803B12B6038BD08210010A6
:1050E000D0F8EC0070470000044B054A1B681B6AAF
:1050F000002B08BF1346D3F8EC007047EC000010FB
:105100005001001038B50546084611460022054CEE
:1051100022601A46FDF7FCFD431C02D1236803B14F
:105120002B6038BD0821001082B001B901A942B13D
:105130004BB113780B601278101C18BF012002B01D
:1051400070471046FBE76FF00100F8E751F8040CD8
:105150000028A0F10400BCBF0B58C01870472DE90F
:10516000F0478E6882469E420C469146984635D856
:105170008A8912F4906F31D00223256809696F1A69
:10518000656905EB450595FBF3F508F101033B4423
:105190009D4238BF1D46530531D52946FDF7BCFC5D
:1051A000064650B90C23CAF80030A3894FF0FF30EF
:1051B00043F04003A381BDE8F0873A462169FEF73A
:1051C0003FFDA38923F4906343F08003A38126610C
:1051D0003E44266046466561ED1BA560464528BFF6
:1051E0004646494632462068FEF735FDA368002052
:1051F0009B1BA36023681E442660BDE8F0872A46F7
:10520000FDF78CFC06460028E1D121695046FDF7E8
:1052100087FCC7E72DE9F04F9DB003938B8980464B
:105220001C060D4616460FD50B696BB94021FDF7DC
:1052300073FC2860286128B90C23C8F800304FF0AF
:10524000FF30C4E040236B610023099320238DF8D5
:10525000293030234FF0010B8DF82A3037463C4679
:1052600014F8013B002B3CD1B7EB060A0BD0534698
:10527000324629464046FFF772FF013000F0A28017
:10528000099B534409933B78002B00F09B8000233B
:105290004FF0FF3204930793059206938DF8533035
:1052A0001A93052221785048FEF7BCFC671C049B2A
:1052B000D8B9D90644BF20228DF853201A0744BF1D
:1052C0002B228DF8532022782A2A16D000210A207A
:1052D000079A27463B780134303B092B50D9C9B196
:1052E00011E0252BC0D02746B9E73F4A3C46801A3B
:1052F0000BFA00F018430490D3E7039A111D1268CB
:105300000391002A01DB079204E0524243F00203BA
:10531000079204933B782E2B0DD17B78791C2A2B96
:1053200032D1039B02371A1D1B680392002BB8BFB2
:105330004FF0FF3305932D4C032239782046FEF7BA
:1053400071FC38B14023001B03FA00F0049B0137C5
:10535000034304933978062225487E1C8DF82810D3
:10536000FEF760FC002835D0224BFBB9039B0733C6
:1053700023F0070308330393099B4B4409936DE71C
:1053800000FB02320121A4E700230A2418460593FA
:105390000F463A780131303A092A03D9002BCAD096
:1053A0000590C8E704FB00200123F1E703AB00935D
:1053B0002A46114B04A94046AFF30080B0F1FF3FED
:1053C0008146D9D1AB895B063FF539AF09981DB04D
:1053D000BDE8F08F03AB00932A46074B04A9404673
:1053E000FEF7ECFEEAE700BF7C5C0000825C000098
:1053F000865C0000000000005F51000038B54B1CC7
:10540000144603D14FF0FF35284638BD9389CDB2FD
:1054100023F020039381536B52688BB1A36B9A42A4
:1054200008DA23685A1E226003F8015C63680133BE
:105430006360E9E72146FFF7DFFC0028F1D0E1E7F0
:105440002169236851B1994208D213F8011C8D4299
:1054500004D1013B013223606260D5E7E36304F1CC
:10546000440363630323A3632346226403F8465F74
:1054700023600123DCE710B50C46496B69B104F1E8
:105480004403994201D0FDF74BFB0020236C60637D
:10549000636013B1E36B236010BD23694FF0FF30ED
:1054A000236000236360A38943F02003A38110BD20
:1054B0002DE9F04FADF5257D0193002306460C46FE
:1054C00092460A27469347939F4B0DF10C08A293EF
:1054D0009E4BDFF87C92CDF82081A3939AF80030A0
:1054E000002B00F02F81FFF7FFFD9AF800B0584421
:1054F000437813F0080343D1BBF1250F0AF10105EE
:1055000040F09980459343939AF801302A2B03D1B8
:1055100010230AF1020543932978AA46A1F130022B
:10552000092A05F1010541D903228948FEF77AFBD2
:1055300038B1A0EB09030120AA469840439B1843C9
:1055400043909AF800300AF10105672B4AD8652B81
:1055500080F0B780472B2FD8452B80F0B280002BEE
:1055600000F08280252B66D003234497499345E0C1
:1055700047990133013147916168236001396160C6
:105580006368002B0BDDFFF7AFFD23681978084433
:1055900041780D07ECD40AF10105AA469EE7A39BCA
:1055A0002146304698470028EDD0F4E7459B07FB9D
:1055B0000313303B4593AFE75B2B61D00CD8582BDE
:1055C000D2D1439A42F400724392102244926F2B3C
:1055D000B4BF0323042310E0632B5CD0642BC3D13E
:1055E0004497F4E7702B42D01DD86E2B59D043D886
:1055F000692BB9D100234493032349936368002B9B
:1056000061DD439B59066FD5499B022B7CDC01ABC6
:10561000224643A93046FEF7F1FE012800F09280B1
:105620000228BAD11DE0752BDAD0782BC9D0732BA4
:105630009AD10223E1E76368002B0CDD23681A7816
:1056400093457FD1013362682360479B013A013360
:1056500062604793A1E7A39B214630469847002804
:10566000ECD04698002863D14FF0FF3066E0439AB3
:1056700042F020024392A4E7082344930423BCE7AA
:1056800029464046FFF7F8F8439B054643F04003A0
:1056900043930123B1E7439B43F04003439300232B
:1056A000ABE7439AD0063FF578AF12F0010F019AAD
:1056B000479B02F104010191126814BF138013602B
:1056C0006BE7052399E7A39B2146304698470028BE
:1056D00097D0C6E7479A013247926268013A002A9A
:1056E00062600ADD01332360FFF7FEFC23681A784D
:1056F000104442781207EDD486E7A39B214630463A
:1057000098470028F0D0ACE7042B06DC01AB22461A
:1057100043A93046FEF7D6FE7FE70E4B002B3FF441
:105720003CAF01AB224643A93046AFF3008074E79B
:10573000A38913F0400F18BF4FF0FF300DF5257D02
:10574000BDE8F08F4698F9E7FD530000775400005C
:10575000825C00000000000038B50546084611468E
:105760000022054C22601A46FDF782FA431C02D142
:10577000236803B12B6038BD0821001049B1FF2A0E
:105780008BBF8A230A700360012088BF4FF0FF306F
:105790007047084670470000F8B500BFF8BC08BC69
:1057A0009E467047F8B500BFF8BC08BC9E467047DF
:1057B000390100003D010000450100005365726998
:1057C000616C20696E74657272757074206F6E20E2
:1057D000424C452E207374617465203D2025642C55
:1057E00020627574746F6E5F7265616479203D200C
:1057F0002564200D0A00000000580000DC030010A2
:10580000DD1C0000391D0000691D0000791D00002D
:10581000551D000070696E6D6170206D69732D6D8E
:10582000617463680070696E6D6170206E6F7420C2
:10583000666F756E6420666F72207065726970683D
:105840006572616C00636F756C64206E6F7420709C
:10585000696E6F757400000010020000CC03000038
:10586000E8030000525458206572726F7220636F13
:1058700064653A203078253038582C207461736B79
:105880002049443A203078253038580A0010010069
:105890000F000000040000000004001020040010AD
:1058A0003004001040040010050001000002000157
:1058B0002D1700000200000001000000200300007E
:1058C00078190010FF7601005414001011C009204F
:1058D000000001400100000042C00920000001401A
:1058E00002000000FFFFFFFFFFFFFFFF00000000BE
:1058F00016C00920000001400100000047C0092037
:105900000000014002000000FFFFFFFFFFFFFFFF5C
:105910000000000001C0092000C009400200000092
:1059200003C0092000C00040010000000BC0092096
:10593000008009400100000010C009200000014063
:10594000010000001AC0092000C009400300000047
:1059500041C00920000001400200000049C00920A8
:1059600000800940020000009DC0092000C00940DD
:1059700003000000FFFFFFFFFFFFFFFF000000002C
:1059800000C0092000C009400200000002C0092038
:1059900000C00040010000000AC00920008009404A
:1059A000010000000FC009200000014001000000BC
:1059B00019C0092000C009400300000040C00920B0
:1059C000000001400200000048C00920008009409A
:1059D000020000009CC0092000C009400300000034
:1059E000FFFFFFFFFFFFFFFF0000000000000000BF
:1059F000000000007B2500008D2500003102000022
:105A0000ED020000632500006F250000D0FFFFFFBE
:105A1000000000005D020000FF02000005260000FB
:105A2000D525000041260000412600004126000047
:105A3000372600003B2600003F26000045260000D8
:105A400051250000572500005D2500008525000038
:105A5000932500007325000067250000000000006A
:105A6000000000000000000000000000E50300004E
:105A7000E5030000E5030000E5030000E503000086
:105A8000E5030000E5030000E5030000E503000076
:105A900051250000572500005D250000D12500009C
:105AA000D32500003A257000772B0000000000008D
:105AB00000000000000000000000000005260000BB
:105AC000D5250000412600004126000041260000A7
:105AD000372600003B2600003F2600004526000038
