:100000000080001095270000C5270000C7270000CA
:10001000C9270000CB270000CD270000000000000A
:10002000000000000000000000000000C9260000E1
:10003000D1270000000000003327000069270000DE
:10004000D7270000D7270000D7270000D7270000B8
:10005000D7270000D7270000D7270000D7270000A8
:10006000D7270000D7270000D7270000D727000098
:10007000D7270000D7270000D7270000D727000088
:10008000D7270000D7270000D7270000D727000078
:10009000D7270000D7270000D7270000D727000068
:1000A000D7270000D7270000D7270000D727000058
:1000B000D7270000D7270000D7270000D727000048
:1000C000D7270000D7270000D727000010B5054C20
:1000D000237833B9044B13B10448AFF300800123F4
:1000E000237010BDE002001000000000C05C0000A2
:1000F0000C4B43B10C4810B50C49AFF300800C48D1
:10010000036823B910BD0A48036833B97047094B27
:10011000002BF7D0BDE810401847064B002BF5D058
:10012000184700BF00000000C05C0000E40200109F
:10013000E00200100000000038B504460D4600F053
:100140005DF92946204601F0E9FCBDE8384000F0A1
:100150006BB900002DE9F84300F050F94FF4FA7143
:10016000254801F005FD00F05FF900212248FFF766
:10017000E3FF4FF0000800264FF080491F4F002496
:100180001F4D6A6911686A6811422BD0204602F03F
:1001900075FC32463B4602F001FE02F00FFF0146BD
:1001A0001548FFF7C9FF484602F032F901340B2C1D
:1001B000E6D108246B691A686B681A4217D020468A
:1001C00002F05CFC32463B4602F0E8FD02F0F6FE2F
:1001D00001460948FFF7B0FF484602F019F9023C12
:1001E000E8D1CCE741460448FFF7A6FFDEE74146E9
:1001F0000148FFF7A1FFF2E7FC02001000002440D5
:100200000403001010B50A4C18220021204603F008
:100210000AFC20460222074900F04FF800F0EEF8F1
:100220000549064801F0C0FCBDE8104000F0FCB8EC
:100230000403001019C0092045C00920FC02001069
:100240000748084A08B5121A002103F0ECFB02F037
:10025000B1F903F0B1FB02F0B4F902F0F1F900BF1B
:10026000E00200101420001070B50E46044615463A
:1002700001F0C4FB013609D02046002101F0D8FB73
:1002800029462046BDE8704001F0CFBB70BD38B5AF
:1002900004460D4643685AB1C268204613600121E6
:1002A00001F0C6FB29462046BDE8384001F0BDBB41
:1002B0000269F2E70322FFF7D7BFFFF7D5BF70B59A
:1002C0000E460446154601F099FB013606D02A4633
:1002D0002046BDE870400221FFF7D9BF70BD002263
:1002E000FFF7EDBF014800F003B800BF84570000DE
:1002F000036870B5DB680446984763685A682368EA
:100300001AB99B68BDE8704018475B681568984744
:100310006368281A00285A6807DC916859601B68CE
:10032000002BEAD050689847E7E7236810681B69FC
:10033000BDE870401847000010B5044601300DD1EB
:1003400010BD9C4209D12046896801F077FC204607
:10035000BDE81040022101F08ABC0C310B685A1C28
:10036000EFD10248BDE8104000F0CEB8D1570000F0
:10037000884208B508D0431C06D0013106D0044895
:1003800000F0C2F84FF0FF31084608BD0146FBE718
:10039000A05700000B685A1C01D1184670478342D1
:1003A00001D1486870470C31F4E70000421C10B5D9
:1003B000044607D0FFF7EEFF431C044602D1024873
:1003C00000F0A2F8204610BDB157000000F04CB874
:1003D00008B500F049F838B100F04EF830B900F037
:1003E00043F80028FBD108BD4FF0FF3008BDEFF304
:1003F0001080C04300F001007047000008B5FFF70F
:10040000F6FF72B6064B1A6822B980F00100054A61
:10041000C0B210701A681A6801321A6008BD00BFB5
:10042000280300102403001008B5074B1A6852B1C6
:10043000FFF7DDFF1A68013A1A601B681BB9034B0E
:100440001B7803B962B608BD28030010240300100E
:1004500030B585B06D46182420462946ABBE04460B
:10046000204605B030BD0000024B186800F00100C6
:10047000704700BFF0ED00E037B540F2051401AD64
:1004800020462946ABBE0446204603B030BD0000DE
:1004900000B599B0FFF7B2FF17496846FFF71FFF95
:1004A000164906A8FFF71BFF15490CA8FFF717FF11
:1004B000144912A8FFF713FF019A039B96201A60B4
:1004C000079A0A9B1A600D9A109B1A60139A159B43
:1004D0001A6001F0A9FF019A049B96201A60079AFE
:1004E000099B1A600D9A0F9B1A60139A169B1A604B
:1004F00001F09AFFE0E700BF32C0092034C00920B4
:1005000035C0092037C009200FB4012008B502F01A
:1005100097F801F09DBA000008B5024C236898478F
:10052000FCE700BFC800001008B50B4800F034FE1F
:100530000A4B18600A4800F02FFE0A4B18600A4860
:1005400000F02AFE094B186003F036FABDE80840B7
:100550000021084602F035B8305800007C18001021
:100560002C58000034030010285800002C03001001
:10057000FFF7D2BF10B5044600F07CFD2146BDE870
:10058000104002460148FFF7BFBF00BFF057000010
:1005900002F062B80B4AF0B4C2F1805303F5004395
:1005A000B3F5806F194628BF4FF48061064F074DA1
:1005B0005B1A074C07489E183A602E602360016062
:1005C000F0BC704718200010981500103C03001074
:1005D000941500103803001000F0B2FEFFF7DAFFA8
:1005E0000348002100F060FE00F0C6FCFEE70000BA
:1005F000CC000010024B4FF0FF31186800F0EABD4C
:1006000034030010014B186800F00CBE34030010D6
:1006100030B502788C78013A4368D2B213B19D7834
:10062000A54207D2022A4B60416006D803B1996007
:10063000886030BD18465B68F0E700238B6030BDF2
:10064000436802785968013A022A41604FF000027B
:1006500005D809B188605A609A60184670475A6098
:10066000FBE70000034B5A6842600022586082603A
:10067000704700BF701F0010104B10B5DA688AB1C8
:100680009A8A8A42DC680CD3C460D860C46803616B
:1006900004B12061521A92B28282998A8A1A9A828D
:1006A00010BD3CB900248A1AC460D86003619A82E4
:1006B000848210BDA38A1A442346E2E7881F0010F3
:1006C0002DE9F041174DEB6853B10026AB8A164F68
:1006D000013BDFF85880AB82AA8A0AB9EC680CB9F2
:1006E000BDE8F081A36833B161685960616809B100
:1006F0008B606260A66021463846FFF789FFA38AB7
:10070000AB826378042B01BFD8F80030E28A9B18D3
:10071000A38201236370E368EB600BB11D61E660A7
:100720002661D9E7881F0010701F001004200010F8
:1007300083682BB142685A6042685AB1936070472F
:10074000054B5A68904202D142685A60704713467E
:10075000002AF6D1704700BF701F001010B58468E2
:1007600001462CB94378012B0DD1074C03E0A46856
:100770002378002BFBD00846FFF7DAFF2046BDE8C0
:100780001040FFF745BF10BD701F0010036910B582
:1007900063B1C268DA60C2684AB1998A848A214426
:1007A000998213610023C3600023036110BD9A8204
:1007B000FAE7000070B4114BDD78EFF31086EFF329
:1007C000108272B69A78954211D901329A701A78CD
:1007D000541CA54208BF00241C7006B962B695429D
:1007E00007D970BC03EBC203586099607047002EB4
:1007F000F4D070BC0220FFF7BDBE00BFF41700109C
:10080000032303700023438043608360C360704709
:100810002DE9F84343880546002B63D0324F8168A9
:100820003A6891425ED1013B9BB243801BB10024E8
:100830002046BDE8F8830B6A984229D1C3680B6251
:1008400091F824300C6A5CBB8B706A68DFF89C807E
:10085000002A3BD02846FFF7F3FE06464FF0010979
:10086000214600F0BDF83046FFF790FF336A396843
:10087000EB60D8F80430A5F80290AE6035628A7853
:100880009B789A4214D3304600F04EFED0E71346D0
:10089000002BD5D0DA689542F9D1EA68DA60CFE763
:1008A00062681AB19278934238BF1346E468CAE787
:1008B0004046FFF7ADFE31464046FFF7A9FE3B68D4
:1008C00083F8019086F801902046DDE7D8F80420EF
:1008D00092789A42ABD94046FFF79AFE01223B68D4
:1008E0005A70F1E7FF24A3E7BC1F0010701F00102F
:1008F000438870B504460E46134D43B92A68116A01
:100900008260C160106201336380002070BD806826
:100910002A689042F7D081B1937882789A4202D2C5
:100920008370FFF71BFF62684AB129682046FFF712
:100930006FFE0921304600F019FE012070BD2B68C2
:1009400063605A609C60F4E7BC1F0010F0B54FF084
:1009500080764FF0000E836A056B9B0802BF1E4B2A
:100960001B889B0805EB8302540748BF043A02E941
:100970004200A2F14004A2F14406A2F10C0746F89D
:1009800004EFBE42FBD1C66942F8206C41631249B4
:10099000C4620968C90017D5112B15D96FF007017A
:1009A000103B5B084B43A3F138010A444FF0CC30B5
:1009B000214691420BD108331C44231F9D423CBF6A
:1009C0004FF0CC3344F8043C044B2B60F0BD41F8AD
:1009D000040C41F8080DECE738580000A52E5AE247
:1009E000C36A19627047C36A19625A62704700008D
:1009F000054B1B7823B94FF08052044B1A607047A7
:100A00000122034B1A7070479013001004ED00E0B0
:100A10009113001038B51A4B1A4C18680123437013
:100A2000FFF720FE6578A3783BB917486570FFF79C
:100A300007FEBDE8384000F05DBD04EBC503586813
:100A400002789AB9198900F0BBF9E37801359D4223
:100A500008BF0025EFF31083EFF3108272B6A2787F
:100A6000013AA270002BDED162B6DCE7012A03D185
:100A7000996800F033F9E8E700F09CFFE5E700BF74
:100A8000BC1F0010F4170010701F0010084B4FF02F
:100A9000FF301A68074B1A6000225A60072243F899
:100AA000042C054A136843F07F431360704700BF6E
:100AB0005058000014E000E020ED00E07047000016
:100AC00008B50B4B186801234370FFF7CBFD00F00E
:100AD000ADF9084A136801331360FFF7F1FD00F028
:100AE00091FC0548FFF7ACFDBDE8084000F002BDF1
:100AF000BC1F001004200010701F0010064B1A6865
:100B0000136BD26A934203D81A68044B9A4202D0FC
:100B10000120FFF72FBD7047BC1F0010A52E5AE221
:100B2000002ABBBF22F000420732033222F0070244
:100B3000A8BF22F0030210B5B4BF10230C2392B15A
:100B4000D4188C420FD801440344544241600360DE
:100B5000826021449818814202D300510346F9E78C
:100B60000020186010BD012010BDEFF3108372B695
:100B7000026803F001030AB11168016003B962B6AB
:100B80001046704781420DD3436899420AD2EFF371
:100B9000108372B602680A60016013F0010003D18D
:100BA00062B6704701207047002070470123037030
:100BB00000231039890843708370436003814381A7
:100BC0008381C1817047000070B58589044616464F
:100BD000002D38D043891A1D50F8222001330A60B5
:100BE000C2899BB29A42438104BF00234381436878
:100BF000F3B14378022B1BD1FFF722FD05460021FC
:100C0000FFF7EEFE2389E9691A1D44F8221001332B
:100C1000E2899BB29A42238108BF0023284608BF7D
:100C20002381FFF7B3FD284600F07EFC002070BD55
:100C3000EFF31080EFF3108372B6013DA581002819
:100C4000F4D162B670BD4AB14268094B42B119682D
:100C5000FFF7DEFC0821304600F088FC012070BD63
:100C60001B6843605A60986001234370F2E700BF3D
:100C7000BC1F0010C2898089101A704708B5FFF7A1
:100C800099FDBDE80840FFF7B3BE838910B504465F
:100C90000BB34389043350F823300B604378022BA5
:100CA00004D10021FFF786FDFFF7A2FEEFF31083CA
:100CB000EFF3108272B6A289013AA28103B962B63B
:100CC0006389E28901339BB29A42638101D1002397
:100CD0006381042010BD184610BD0000436870B544
:100CE00004460E46002B4BD04578022D20D0032D14
:100CF0000AD0012D61D1FFF7A3FC04463246102132
:100D0000FFF771FE65700EE00846FFF72EFF0546FF
:100D1000002852D02046FFF793FC29460446FFF7EF
:100D20005FFE012363702046FFF730FD214622E07D
:100D3000FFF786FC05460021FFF752FE2389E9698B
:100D40001A1D44F82210EFF31082EFF3108172B6EF
:100D5000A1890131A18102B962B6E28901339BB256
:100D60009A42238104BF00232381012328466B700C
:100D7000FFF70CFD2946BDE870401048FFF748BC5E
:100D80008089E189884213D223891A1D44F82260A0
:100D9000EFF31082EFF3108572B60130A08102B933
:100DA00062B601339BB2994208BF0023238170BD14
:100DB0000320BDE87040FFF7DDBB70BD701F001061
:100DC00010B5038B42781943062A04460183438BEE
:100DD00015D133EA010219D121EA0301218320460A
:100DE000FFF7D4FC012320466370628B0821FFF7D4
:100DF000FAFD2146BDE810400548FFF709BC052A69
:100E000004D111EA030201D04283E5E710BD00BF1F
:100E1000701F00100022034B1A60034A1268DA8028
:100E2000704700BFA81F00103458000008B50E4BD3
:100E30005A680E4B196891420D4905D01A60DA883C
:100E40000868013A02449A8098880A8890420AD138
:100E5000002205481A60FFF7F3FBBDE80840014691
:100E60000148FFF7D5BB08BD701F0010A81F001078
:100E70000420001030B500240A4A136843B9036007
:100E8000816013B19D68691A996044B1206030BDDA
:100E90009D68A942F3D31C46491B1B68EEE710600E
:100EA00030BD00BFB81F0010C0B1431C11D00C4BA7
:100EB000984211D84FF47A710A4B1B685A1E01FBF5
:100EC0000020B0FBF3F34FF6FE70834206D898B2D1
:100ED00070474FF6FF7070474FF6FE70704700BFC7
:100EE00000093D00EC57000038B1830704D10378B6
:100EF000002B18BF0020704700207047B0B50E4D82
:100F000000AF2878A8B90D4C236893F8241000F09E
:100F10004FFB2368DA78FF2A03D1DA6A203282F3A2
:100F2000098862680AB984E80C0000F0F9FC012322
:100F30002B700020B0BD00BFB51F0010BC1F0010FB
:100F4000014B1878704700BFB51F001010B5EFF3C4
:100F5000108434B9EFF305841CB9EFF31484E4076B
:100F600002D4034B187810BDDFF808C000DF10BDB5
:100F7000B51F0010410F000090B589B000AFEFF32E
:100F80001083002B37D1EFF30583002B33D1FFF70C
:100F9000DDFF28B9194C246814B1646804B1A04776
:100FA000EFF3148404F00304022C18D0032C1CD09B
:100FB000012C1ED007F1200484F30988104C2478FA
:100FC000E40710D5022484F31488BFF34F8FBFF3D6
:100FD0006F8FDFF830C000DF2437BD4690BD084C6E
:100FE0002478E407F5D40324EDE7054C2478E407DE
:100FF000EFD5FF20F0E78220EEE700BFA41F00102E
:101000001A580000FD0E000070B50B461646024649
:1010100010B90024204670BD00680028F9D0B2F94C
:101020000440E51CADB2062DF3D8D168C1B11269F8
:10103000043444EA012100F0F9FA0028E9D00A4B0F
:10104000013853F82040094AE36A5A63084B1B6889
:1010500043B19B6833B13146E0789847E063D9E704
:101060000A46E5E7E663D5E7B8170010F51100007A
:10107000A41F001008B500F093FA18B1024B013814
:1010800053F8200008BD00BFB817001010B5FFF7D7
:101090002BFF044670B1084B1B681BB1DB680BB11A
:1010A000C06B9847E07800F017FBFF280CBF812049
:1010B000002010BD802010BDA41F001008B528B16D
:1010C000FFF7F2FE00F072FC402008BD08BD0000F2
:1010D00010B5EFF3108434B9EFF305841CB9DFF8D1
:1010E0000CC000DF10BD822010BD0000BD1000004C
:1010F000830705D138B1436901691B6818467047F9
:1011000000231946FAE70346FBE7000010B5044642
:101110000846DFF80CC000DF84E80300204610BD5D
:10112000F110000010B548B1046824B1237823B948
:101130002046FFF765FB204610BD002010BD70B5AE
:1011400010F0030405460E4611D180B10378032B3D
:101150000DD10846FFF7A8FE01462846FFF7C8FB59
:10116000012806D1002E14BFC120812070BD80202F
:1011700070BD204670BD820708B50AD148B103781A
:10118000032B06D1FFF744FBFF280CBF8120002072
:1011900008BD802008BD000070B50546EFF310843F
:1011A00094B9EFF305867EB9EFF31484E40706D40F
:1011B000064C24781CB9BDE87040FFF7B3BF284641
:1011C000DFF80CC000DF70BD002070BDB51F00103F
:1011D0002511000010B5EFF3108434B9EFF3058446
:1011E0001CB9DFF80CC000DF10BD822010BD00006C
:1011F0003F110000084808B54FF0FF310068FFF7C5
:10120000E9FFDFF818C000DF0446FFF7C1F9204608
:10121000DFF80CC000DFFEE7B01F00107510000003
:101220008D10000010B5EFF3108434B9EFF305848E
:101230001CB9DFF80CC000DF10BD822010BD00001B
:10124000771100002DE9F04180460F461646EFF376
:10125000108404BBEFF30583D3B9EFF31483DB07EA
:1012600006D40E4B1B781BB9BDE8F041FFF7CCBE8E
:101270000B4D4FF0FF312868FFF7ACFF4046394671
:101280003246DFF820C000DF04462868FFF7CAFFB7
:101290002046BDE8F0810024FAE700BFB51F00102A
:1012A000B01F0010091000000022FFF7CBBF10B5DF
:1012B000044660B1016851B1406848B1037833B960
:1012C0000431890089B2FFF771FC606810BD00200D
:1012D00010BD000038B5114C23780BB900F0A6FA08
:1012E000FF220F4B25781B689A708DB929460D484F
:1012F000FFF7DDFF0C4B2A46186029460B48FFF725
:1013000083FE0B4B18600B48FFF746FF0A4B186033
:10131000012300202370094B187038BDB41F001042
:10132000BC1F001020580000781800103C58000026
:101330006C1F001054580000B01F0010B51F0010A3
:1013400010B5EFF3108474B9EFF305845CB9EFF3D3
:101350001484E40703D4BDE81040FFF7BBBFDFF8F7
:101360000CC000DF10BD822010BD0000D5120000AF
:101370002DE9FF410C46804618B30378012B25D197
:101380000846FFF791FD02A902464046FFF71CFC04
:10139000012811D10020002C0246034618BF40202E
:1013A000029904460D4616461F46204629463246F7
:1013B0003B4604B0BDE8F081002002460346102001
:1013C000EEE78024054606460746EEE70025802422
:1013D0002E462F46E9E770B50E461446054660B125
:1013E0005AB90378012B08D1FFF744FC38B12846DD
:1013F0003146FFF743FC204670BD802070BD812040
:1014000070BD0000F8B5114E34682CB1A368104FC0
:10141000013BA360A26802B1F8BD25682146386887
:101420003560FFF7D8FF10B10420FFF7A3F8637908
:10143000012B07D1E1682046FFF71CFD002DEBD002
:101440002C46E7E701232371F8E700BFB81F00101F
:10145000781800107FB504461646084601B122B13F
:1014600080232360204604B070BD0B78012BF7D198
:1014700002A9FFF70AFC042808BF102301AD14BF1E
:101480000196019395E8070084E80700EAE7000069
:1014900038B504461546EFF3108010B9EFF3058018
:1014A00028B12A462046FFF7D5FF204638BD08461A
:1014B0001146DFF80CC000DF84E80700F5E7000004
:1014C000711300007FB50A4C4FF0FF32216803A86A
:1014D000FFF7DEFF039B102BF6D1049901A8FFF75D
:1014E00015FE019B002BEFD002989847ECE700BF58
:1014F00078180010054B586002234370044B1B689A
:101500001BB11B690BB1C06B18477047BC1F0010A3
:10151000A41F001008B50348FFF792F8BDE8084083
:10152000FFF7E8BF701F001070B5044618B9BDE89A
:101530007040FFF7EFBF0B4EA2783068012583782B
:101540009A4208D9FFF78EF8336820465D70BDE8EF
:101550007040FFF7CFBF65702146BDE8704002487C
:10156000FFF756B8BC1F0010701F001038B50D46AD
:10157000014680B14FF6FF739842074C02D02068B5
:10158000FFF77AF8236805485D70FFF759F8BDE862
:101590003840FFF7AFBF38BDBC1F0010701F0010F0
:1015A000024B186800B1C078704700BFBC1F001024
:1015B00010B5A8B9194B1B68997083F82410184806
:1015C00043689B788B4201D8002010BD134C2168E2
:1015D000FFF71EF8012223685A70FFF79BFFF3E71D
:1015E000104B1B88984217D80F4B013853F82040F6
:1015F00094B10A4BA1701B6884F824109C42DED081
:101600002046FFF7ABF86378012BDDD10448FFF7E4
:1016100017F8FFF789FFD7E7FF2010BDBC1F0010A8
:10162000701F00101C580000B81700102DE9F0477B
:101630000D4611F0FF0F8046234816469A4608BF14
:101640000135FFF792FA044620B94FF000094846E9
:10165000BDE8F08700211D4B06631B88280A1C4E3D
:10166000A0628B4201F10109EFD006EB890252F82A
:10167000042C0F464946002AF3D10123EDB284F829
:101680000390C4F81CA0C4F838A022706370A57041
:1016900084F824506260A260E26022612262A28229
:1016A000E2822283628384F8252018B90948FFF773
:1016B0005CFA206320464146FFF748F9204646F889
:1016C0002740FFF731FFC2E7A01B00101C580000A5
:1016D000B8170010A81500102DE9F84F4D4D18B19E
:1016E0002B68DB78984241D100232C680127637076
:1016F00000F0BFFFE062FFF701FA2B68DFF82881F6
:101700001C6AA4B92A684449D3784448013B41F88B
:101710002340116BFFF736FA296841480C63FFF745
:1017200031FA2C60FFF7F6FE2046BDE8F88F6368BB
:10173000B3B12046FEF784FF06460021FFF750F9BB
:101740003046FFF723F8777031464046FEF760FFDA
:10175000E368326A6780A660E26034621C46D0E7C4
:10176000E2686380A360E3601446CAE72D4B1B88E0
:1017700098424DD8284B471E53F827609946002EB3
:1017800046D04FF0010A3046FEF7D2FF3046FEF752
:10179000FDFFDFF894B0346AB4B9316B1F4849F8E3
:1017A0002740FFF7EFF9314634631D48FFF7EAF9A8
:1017B0001D48296843689A788B789A42B4D90123E6
:1017C0004B70FEF725FFADE76368DBB12046FEF7FF
:1017D00037FF80460021FFF703F94046FEF7D6FFAA
:1017E00088F801A041465846FEF712FFE368D8F892
:1017F0002020A4F802A0C4F80880E260C8F82040C5
:101800001C46C9E7E2686380A360E3601446C3E74F
:10181000FF2489E7BC1F0010B8170010A81500109E
:10182000A01B00101C580000701F001038B52C4B76
:101830002C491A880023184693424DD32A4B402244
:1018400019882A48FFF76CF9294B2A481A882A4B2D
:1018500042F000421968FFF763F9284B0822198803
:10186000274B284C1868FFF75BF9FF230025E3702E
:10187000012320486370A5622570A57084F8245068
:101880006560A560E56025612562A582E582258306
:10189000658384F82550FFF768F91B4920632046CB
:1018A000FFF754F80422194B20461A705D60184B5C
:1018B0001A70DD601D619D82164B1C6002236370EF
:1018C000FFF718FE144A154B12781D705D70DA7020
:1018D000BDE83840FFF79EBA41F823000133ABE77B
:1018E0001C580000B8170010E8570000A01B00109B
:1018F00038580000A8150010E4570000EA5700000F
:1019000030030010C41F001071050000701F00108C
:10191000881F0010BC1F001019580000F417001099
:1019200008B51E4B1A6842F47F021A601B681B023E
:1019300003F07F43DB43B3FA83F3194ADBB2126847
:10194000C3F10803C2F30222934298BF531C6FF005
:101950008072144802FA03F3016803F07F4321F018
:101960007F4213430360FFF791F80F4B0028186084
:1019700012DBFF22012100F1604000F5644002709B
:101980001A6853099B0003F1604302F01F0203F53C
:10199000614301FA02F21A6008BD00BF20ED00E0C9
:1019A0000CED00E01CED00E0A01F00100321FFF78C
:1019B000DDBD0000426810B57AB1FEF741FE044675
:1019C000FEF7E4FE012120466170FFF709F8214689
:1019D000BDE810400348FEF71BBE4288013242803A
:1019E00010BD00BF701F001010B50021044600F0AC
:1019F00025F9012004F01F04A04010BD38B50546AC
:101A00004B1C0C4629600FD00846FFF7EDFF24F071
:101A10001F0404F11803EB6004F11C032B6104F1B3
:101A2000140368606B61AC6038BD006800F01FB9DA
:101A300011B1012907D0704782684168136823EA11
:101A40000103136070478268416813680B43F8E72D
:101A500008B5FEF7BDFC0022044BC3F8C020044AC1
:101A6000136923F00403136130BF08BD00C00F40A9
:101A700000ED00E008B5104B1868E0B901210F4AED
:101A80001960D2F8C43043F40003C2F8C430A2F5A0
:101A9000D022106702200A4B1B6850600948B3FB34
:101AA000F0F3013BD36004205160074900F020FCB3
:101AB0001022064B1A6008BDA413001000C00F408E
:101AC000FC00001000093D00E502000000E100E01C
:101AD00008B5044B1B680BB9FFF7CCFF024B9868A5
:101AE00008BD00BFA413001000400940034B9861DB
:101AF0005A6942F001025A61704700BF0040094034
:101B0000024A536923F001035361704700400940C2
:101B10000122014B1A6070470040094070B50D4624
:101B200006460021284601F045FDE8B94FF07E51F8
:101B3000284601F05DFD08B14FF07E550B4CA069C1
:101B400001F042FB294601F097FB01F081FDA369FA
:101B500031799842336808BF013018600123226D43
:101B60008B401343236570BD0025E7E700800140EB
:101B70000B4B10B51A680B4B4A43022159609A610E
:101B8000996931B1006801689C695143B1FBF4F176
:101B900001601A6D42F001021A6509225A6010BDF7
:101BA000A81300100080014070B50D461D4E04467C
:101BB00031462846FEF7FAFB1B4B2071C0B253F8A2
:101BC00020302360194BD3F8C42042F04002C3F800
:101BD000C420D3F8A82122F44052C3F8A82100223F
:101BE000A3F56423DA6002225A6100F108020120A1
:101BF000D96C90400843D8640D4B0E4A1B682046B0
:101C0000B3FBF2F30C4A44F620611360FFF7B0FF18
:101C100020460021FFF782FF31462846BDE870408C
:101C2000FEF78ABB58580000E000001000C00F40CB
:101C3000FC00001000093D00A813001010B503249B
:101C400000F16040A0F51C2043000009800000F175
:101C5000804000F53030026803F01E039C4022EA09
:101C600004020260026899401143016010BD00F156
:101C70006040A0F51C2043099B0003F1804303F55D
:101C8000303330B500F01F029C6EC1F3800505FAB9
:101C900002F224EA02049C669C6E22439A6695B97D
:101CA000032443000009800000F1804000F530303B
:101CB000026C03F01E039C4022EA04020264026CE0
:101CC00099401143016430BD012810B408D00228A6
:101CD00008D010BC7047506820F00100506010E040
:101CE00003460EE038230F4803FB01035868013018
:101CF00006D018699C68046093F83630002BEAD04F
:101D00000023382251430748421840580028E0D0A9
:101D10001BB992F83620002ADBD0034A1946126814
:101D200010BC1047B4130010AC130010034A00217C
:101D30009068C0F34200FFF7C7BF00BF00C000407B
:101D4000034A01219068C0F34200FFF7BDBF00BF06
:101D500000000140034A02219068C0F34200FFF7EF
:101D6000B3BF00BF00800940034A03219068C0F35D
:101D70004200FFF7A9BF00BF00C0094070B50B4685
:101D8000066829498E4222D006DCA1F580418E42A8
:101D90000CD000210C460BE024498E421AD001F5EC
:101DA00080418E42F5D12249082401E005242149D1
:101DB0009AB10125726805FA03F313437360204654
:101DC00000F096FA1C4B05FA04F41C6070BD1B4928
:101DD0000624EDE71A490724EAE7012B0AD04268F6
:101DE0003820184900FB021292F8361092F835207C
:101DF000D14217D1012202FA03F0B3FA83F37168DA
:101E00005B0921EA00017160716802FA03F30B4279
:101E100008D1094B02FA04F4C3F88040BFF34F8F96
:101E2000BFF36F8F70BD00BF00000140008009400C
:101E3000691D00002D1D000000E100E0411D0000B3
:101E4000551D0000B41300102DE9F04F644B0468D9
:101E500087B09C4200F08D806ADCA3F580439C42F1
:101E600079D0604B0801D3F800C0BCFBF0F293B20C
:101E700000FB12C2002A00F0AA800125E64699461E
:101E8000AB464FF0000A0191039100264FEA4E0342
:101E90000493DDF804804FEA8E03EFB20593F3B2AA
:101EA0000093049B002BABBF059BB3FBF8F3B3FB84
:101EB000F8F31B09A8BF5B090133C3F34F03002BE1
:101EC00000F0888016B1012B08BF0223A8195843DF
:101ED000C000BEFBF0F00130C1EB50000028B8BFDD
:101EE00040420290029A0398824262DA91425AD1A9
:101EF0000F2D07D1BB469946DDF800A05F464B4643
:101F0000CDF800A0217B41F080012173C3F30721AC
:101F1000DBB221712370009B43EA0712D2B284F82E
:101F20002820237B03F07F03237307B0BDE8F08FE5
:101F30002D4B9C4229D003F580439C4291D12B4BE1
:101F4000D3F8AC2122F44022C3F8AC21D3F8AC2161
:101F500042F4802224E0254BD3F8A82122F0C002CD
:101F6000C3F8A821D3F8A82142F04002C3F8A82161
:101F700077E71E4BD3F8A82122F44072C3F8A821BA
:101F8000D3F8A82142F48072F0E7184BD3F8AC21C3
:101F900022F44032C3F8AC21D3F8AC2142F48032B1
:101FA000C3F8AC215DE7BB469946029ADDF800A074
:101FB00003920136F3B2BB428844FFF470AF0F2D99
:101FC0009CD0019B01350B44E64401935DE701275A
:101FD000009297E7002E0CBF0123022376E700BF93
:101FE00000000140FC0000100080094000C00F40CC
:101FF00010B50268137DDB07FCD538244368084818
:10200000117804FB03035868C9B2013006D058693F
:102010009B680360536843F001035360084610BD9A
:10202000B41300103821114A436801FB0323DA6915
:10203000013209D01A6B1B6A12681A4214D1036864
:10204000187DC0F3801070470268127D920604D597
:102050000022012083F83420704793F834000F28C1
:102060008CBF00200120704700207047B41300107F
:1020700038B504460D462046FFF7D4FF0028FAD0B5
:1020800038212368EDB21D706368044A01FB032305
:1020900093F83420013283F8342038BDB413001093
:1020A0002DE9F84F9A463C4C03680546A34218BFF9
:1020B00000248946904647681CB1237C03F03F0307
:1020C000237438234FF0FF32344E284603FB076356
:1020D000DA615A60002283F835201146FFF74EFE80
:1020E000B9F1000F55D02E494046FEF753F92D495E
:1020F00083465046FEF74EF9A9F10203012B1BD887
:10210000BAF1FF3F0BD0244B98420DD164B1237C30
:10211000244943F0800323745046FEF70DF9B9F1CA
:10212000030F0CD0BDE8F88F382000FB0760514644
:102130001C30FEF7BFF8F2E7B9F1010F29D1B8F171
:10214000FF3F01D1BDE8F88F07222B681A72124BAE
:102150009B450AD14CB1237C404643F04003237495
:102160000F49BDE8F84FFEF7E7B8382404FB0760D5
:10217000414600220430FEF7A2F801226B6828468F
:1021800004FB036686F835200021BDE8F84FFFF711
:10219000F5BDBDE8F88F00BF00000140B41300108A
:1021A000305900000C5900002DE9F0410F4605465A
:1021B000464938461646FEF7F9F845490446304682
:1021C000FEF7F4F801462046FEF7D2F8414B0446EC
:1021D000984228605DD047D8A3F58043984250D0FC
:1021E00001234FF0000823724FF416512846C4F81B
:1021F0000480FFF729FE03222B6834491A733846FE
:10220000FEF79AF832493046FEF796F87A1C03D06A
:1022100041463846FFF72BFD731C03D000213046A2
:10222000FFF725FD2B4B9C424BD03ED8A3F58043B6
:102230009C4243D038216A68274B284601FB023272
:102240004FF0FF3300215360D3611A46FFF728FF98
:10225000224B9C4206D10122214B69681A602868F2
:10226000204B03C3BDE8F0811F4B984217D003F504
:1022700080439842B4D11D4AD2F8C43043F0007371
:1022800004E01A4AD2F8C43043F00803C2F8C4305C
:10229000A6E7164AD2F8C43043F01003F6E7134A13
:1022A000D2F8C43043F08073F0E70F4B9C420AD061
:1022B00003F580439C42BDD1032300E000236B6003
:1022C000B8E70123FBE70223F9E700BFC05900008C
:1022D0005459000000000140B413001000C0004039
:1022E000B0130010082000100080094000C00F400B
:1022F00030B50C4CA268A4681346B4F1805F0CD2D0
:10230000131F094C094A53F8045F42F8045FA242C4
:10231000F9D14FF08053034A9360103043F82010F6
:1023200030BD00BF00ED00E0C0000010FCFFFF0F5B
:102330002022264BC3F8A021D3F8A021920603D572
:10234000D3F8A0215006FBD50222C3F804210022B5
:102350000120C3F8A821C3F8AC210B22C3F80C015B
:10236000AA21C3F884205522C3F88C10C3F88C200E
:10237000C3F88000C3F88C10C3F88C20134B1A46A6
:10238000D3F888104901FBD50321C3F88010AA2196
:10239000C3F88C105521C3F88C10D2F8883013F094
:1023A000407FFAD00523C2F80831094BC2F8C43087
:1023B0000023C2F8C831136823F4704323F03A03B2
:1023C00043F4405343F03A031360704700C00F409A
:1023D000DE87280401F08ABB01F03CBB01F02BBB77
:1023E00070B505464FF47A74FFF772FB95FBF4F471
:1023F000002C064602DDFDF7FAFF28B9FFF768FB5F
:10240000801BA842FAD370BD204600F02DF9F5E7F5
:1024100008B5044900F030FF01F0F4F8BDE80840C9
:10242000FFF7DEBF002474494FF47A735843FFF777
:10243000D7BF000008B5084B1B685BB907490848BF
:10244000084AFFF7B1FE4FF41651BDE808400448B2
:10245000FFF7FABC08BD00BFB013001002C009208E
:102460000820001003C0092070470000022810B5A2
:10247000044601DC002010BD01F00AF90923002206
:102480000360094B033C53F8240043F8242040B177
:1024900003681B699847041EECDA01F0F9F86442FE
:1024A00004604FF0FF3010BD94140010F8B50546DD
:1024B0000E46144601F0ECF80923022D03600FDCF0
:1024C000124B1B680BB9FFF7B5FF35463719104E95
:1024D000BD4215D015F8011B3046FFF7C9FDF7E7DF
:1024E0000C4B033D53F8250060B103682246DB68BE
:1024F00031469847041E03DA01F0CAF863420360CC
:102500002046F8BD4FF0FF34FAE700BFB0130010CB
:10251000082000109414001070B504460D461646AD
:1025200001F0B6F80923022C03600BDC0F4B1B688B
:102530000BB9FFF77FFF0E48FFF75AFD0124287003
:10254000204670BD0B4B033C53F8240058B1036880
:1025500032469B6829469847041EF1DA01F098F844
:1025600063420360ECE74FF0FF34E9E7B01300107B
:10257000082000109414001070B504460D4616464D
:1025800001F086F80923022C03600BDD084B033CA5
:1025900053F8240040B1036832462946BDE8704034
:1025A000DB691847002070BD4FF0FF3070BD00BFE1
:1025B0009414001008B5FFF757FFFEF70DF808BD9B
:1025C000704708B5FFF7FCFFBDE80840FDF7C2BD46
:1025D0000C4A10B513681844EFF30881884205D3FC
:1025E0000C22094B4FF0FF301A6010BD07490C68F0
:1025F00024B10749096821448842F1D21060184685
:1026000010BD00BF00010010102000109415001034
:1026100098150010094C08B523680546986801F024
:10262000EFF82368D86801F0EBF8FDF7CFFE08B1AA
:10263000FDF70EFF0DB1FDF72BFFFEE704010010C3
:1026400008B5FFF7E7FF08B5FDF7D4FF08BD08B5EB
:10265000FDF7D8FF08BD0000024B1B6803B1184707
:10266000704700BF9C150010FEF732BD80F309884B
:102670007047EFF309807047684680F309883F4848
:102680000078C00714BF0220032080F3148870472D
:10269000DFF8ECC0EFF305831B0618BF6047EFF3CC
:1026A0001483DB0708BF604700DF7047DFF8D4C042
:1026B000EFF305831B0618BF6047EFF31483DB07B6
:1026C00008BF604700DF7047EFF30980816911F8A8
:1026D000021CF1B990E80F10E047EFF3098C8CE889
:1026E0000700294B93E8060091420FD039B12CE93D
:1026F000F00FC1F82CC00CB4FEF700FA0CBC1A6045
:10270000D2F82CC0BCE8F00F8CF309886FF0020EF1
:10271000704710B51D4A1268914209D81C4C54F8F4
:10272000214090E80F10A047EFF3098C8CE80F00D0
:1027300010BDFEF76FF9144B93E80600914210D0DC
:10274000EFF3098C2CE9F00FC1F82CC00CB4FEF7A4
:10275000D5F90CBC1A60D2F82CC0BCE8F00F8CF391
:1027600009886FF0020E7047FEF7AAF9FFF7E3BF82
:10277000FEF7A4F9FEF7A4F9FFF7DDBF1A58000031
:102780006B0B0000850B0000BC1F00100000000058
:10279000FCFFFFFF0649074A074B9A42BEBF51F8AC
:1027A000040B42F8040BF8E704488047044800474C
:1027B000CC5C0000C8000010E002001031230000D3
:1027C00041020000FEE7FEE7FEE7FEE7FEE7FEE768
:1027D000FEE7FEE7FEE7FEE781F0004102E000BF12
:1027E00083F0004330B54FEA41044FEA430594EAD1
:1027F000050F08BF90EA020F1FBF54EA000C55EA0C
:10280000020C7FEA645C7FEA655C00F0E2804FEADC
:102810005454D4EB5555B8BF6D420CDD2C4480EABE
:10282000020281EA030382EA000083EA010180EAEE
:10283000020281EA0303362D88BF30BD11F0004F3C
:102840004FEA01314FF4801C4CEA113102D0404272
:1028500061EB410113F0004F4FEA03334CEA1333AD
:1028600002D0524263EB430394EA050F00F0A780C5
:10287000A4F10104D5F1200E0DDB02FA0EFC22FAC0
:1028800005F2801841F1000103FA0EF2801843FAB4
:1028900005F359410EE0A5F120050EF1200E012AA5
:1028A00003FA0EFC28BF4CF0020C43FA05F3C018E3
:1028B00051EBE37101F0004507D54FF0000EDCF15C
:1028C000000C7EEB00006EEB0101B1F5801F1BD305
:1028D000B1F5001F0CD349085FEA30004FEA3C0C09
:1028E00004F101044FEA445212F5800F80F09A80FF
:1028F000BCF1004F08BF5FEA500C50F1000041EB03
:10290000045141EA050130BD5FEA4C0C404141EB06
:10291000010111F4801FA4F10104E9D191F0000F2D
:1029200004BF01460020B1FA81F308BF2033A3F1B0
:102930000B03B3F120020CDA0C3208DD02F1140CA7
:10294000C2F10C0201FA0CF021FA02F10CE002F1E2
:102950001402D8BFC2F1200C01FA02F120FA0CFCDB
:10296000DCBF41EA0C019040E41AA2BF01EB045124
:10297000294330BD6FEA04041F3C1CDA0C340EDC22
:1029800004F11404C4F1200220FA04F001FA02F365
:1029900040EA030021FA04F345EA030130BDC4F123
:1029A0000C04C4F1200220FA02F001FA04F340EA18
:1029B0000300294630BD21FA04F0294630BD94F0C9
:1029C000000F83F4801306BF81F480110134013DB0
:1029D0004EE77FEA645C18BF7FEA655C29D094EA21
:1029E000050F08BF90EA020F05D054EA000C04BF9F
:1029F0001946104630BD91EA030F1EBF002100208A
:102A000030BD5FEA545C05D14000494128BF41F028
:102A1000004130BD14F580043CBF01F5801130BD8C
:102A200001F0004545F0FE4141F470014FF0000017
:102A300030BD7FEA645C1ABF194610467FEA655CC8
:102A40001CBF0B46024650EA013406BF52EA03356A
:102A500091EA030F41F4002130BD00BF90F0000F58
:102A600004BF0021704730B54FF4806404F1320494
:102A70004FF000054FF0000150E700BF90F0000F4D
:102A800004BF0021704730B54FF4806404F1320474
:102A900010F0004548BF40424FF000013EE700BF44
:102AA00042004FEAE2014FEA31014FEA02701FBFD4
:102AB00012F07F4393F07F4F81F06051704792F0A6
:102AC000000F14BF93F07F4F704730B54FF4607420
:102AD00001F0004521F0004120E700BF50EA01026B
:102AE00008BF704730B54FF000050AE050EA010218
:102AF00008BF704730B511F0004502D5404261EB88
:102B000041014FF4806404F132045FEA915C3FF4C8
:102B1000DCAE4FF003025FEADC0C18BF03325FEA61
:102B2000DC0C18BF033202EBDC02C2F1200300FA16
:102B300003FC20FA02F001FA03FE40EA0E0021FA3B
:102B400002F11444C1E600BF70B54FF0FF0C4CF425
:102B5000E06C1CEA11541DBF1CEA135594EA0C0FDB
:102B600095EA0C0F00F0DEF82C4481EA030621EA16
:102B70004C5123EA4C5350EA013518BF52EA033551
:102B800041F4801143F4801338D0A0FB02CE4FF003
:102B90000005E1FB02E506F00042E0FB03E54FF033
:102BA0000006E1FB03569CF0000F18BF4EF0010E2B
:102BB000A4F1FF04B6F5007F64F5407404D25FEA27
:102BC0004E0E6D4146EB060642EAC62141EA5551DA
:102BD0004FEAC52040EA5E504FEACE2EB4F1FD0C1C
:102BE00088BFBCF5E06F1ED8BEF1004F08BF5FEA9A
:102BF000500E50F1000041EB045170BD06F000464C
:102C000046EA010140EA020081EA0301B4EB5C04F8
:102C1000C2BFD4EB0C0541EA045170BD41F48011F0
:102C20004FF0000E013C00F3AB8014F1360FDEBF15
:102C3000002001F0004170BDC4F10004203C35DAF1
:102C40000C341BDC04F11404C4F1200500FA05F374
:102C500020FA04F001FA05F240EA020001F0004215
:102C600021F0004110EBD37021FA04F642EB06018B
:102C70005EEA430E08BF20EAD37070BDC4F10C04B5
:102C8000C4F1200500FA04F320FA05F001FA04F279
:102C900040EA020001F0004110EBD37041F1000165
:102CA0005EEA430E08BF20EAD37070BDC4F1200570
:102CB00000FA05F24EEA020E20FA04F301FA05F2D8
:102CC00043EA020321FA04F001F0004121FA04F280
:102CD00020EA020000EBD3705EEA430E08BF20EA50
:102CE000D37070BD94F0000F0FD101F0004640008A
:102CF00041EB010111F4801F08BF013CF7D041EA0C
:102D0000060195F0000F18BF704703F0004652000F
:102D100043EB030313F4801F08BF013DF7D043EAE0
:102D20000603704794EA0C0F0CEA135518BF95EA96
:102D30000C0F0CD050EA410618BF52EA4306D1D11D
:102D400081EA030101F000414FF0000070BD50EA3C
:102D5000410606BF1046194652EA430619D094EAC6
:102D60000C0F02D150EA013613D195EA0C0F05D1B0
:102D700052EA03361CBF104619460AD181EA030104
:102D800001F0004141F0FE4141F470014FF00000BC
:102D900070BD41F0FE4141F4780170BD70B54FF057
:102DA000FF0C4CF4E06C1CEA11541DBF1CEA1355D7
:102DB00094EA0C0F95EA0C0F00F0A7F8A4EB0504B9
:102DC00081EA030E52EA03354FEA013100F08880B0
:102DD0004FEA03334FF0805545EA131343EA126379
:102DE0004FEA022245EA111545EA10654FEA00262E
:102DF0000EF000419D4208BF964244F1FD0404F5E7
:102E0000407402D25B084FEA3202B61A65EB030542
:102E10005B084FEA32024FF480104FF4002CB6EBFF
:102E2000020E75EB030E22BFB61A754640EA0C007F
:102E30005B084FEA3202B6EB020E75EB030E22BFBF
:102E4000B61A754640EA5C005B084FEA3202B6EB00
:102E5000020E75EB030E22BFB61A754640EA9C00BF
:102E60005B084FEA3202B6EB020E75EB030E22BF8F
:102E7000B61A754640EADC0055EA060E18D04FEA4D
:102E8000051545EA16754FEA06164FEAC30343EAED
:102E900052734FEAC2025FEA1C1CC0D111F4801FBA
:102EA0000BD141EA00014FF000004FF0004CB6E7B3
:102EB00011F4801F04BF01430020B4F1FD0C88BF52
:102EC000BCF5E06F3FF6AFAEB5EB030C04BFB6EB5D
:102ED000020C5FEA500C50F1000041EB045170BD50
:102EE0000EF0004E4EEA113114EB5C04C2BFD4EB7D
:102EF0000C0541EA045170BD41F480114FF0000E01
:102F0000013C90E645EA060E8DE60CEA135594EA7C
:102F10000C0F08BF95EA0C0F3FF43BAF94EA0C0F7F
:102F20000AD150EA01347FF434AF95EA0C0F7FF4F4
:102F300025AF104619462CE795EA0C0F06D152EA48
:102F400003353FF4FDAE1046194622E750EA41062C
:102F500018BF52EA43067FF4C5AE50EA41047FF43D
:102F60000DAF52EA43057FF4EBAE12E74FEA4102A0
:102F700012F5001215D211D56FF47873B3EB6252CB
:102F800012D94FEAC12343F0004343EA505311F0F2
:102F9000004F23FA02F018BF404270474FF0000084
:102FA000704750EA013005D111F0004008BF6FF0C2
:102FB000004070474FF00000704700BF4FEA4102E9
:102FC000B2F1E04324BFB3F5001CDCF1FE5C0DD987
:102FD00001F0004C4FEAC0024CEA5070B2F1004FD1
:102FE00040EB830008BF20F00100704711F0804FD4
:102FF00021D113F13872BCBF01F00040704741F499
:1030000080114FEA5252C2F11802C2F1200C10FA9C
:103010000CF320FA02F018BF40F001004FEAC12380
:103020004FEAD32303FA0CFC40EA0C0023FA02F324
:103030004FEA4303CCE77FEA625307D150EA0133FA
:103040001EBF4FF0FE4040F44000704701F00040CA
:1030500040F0FE4040F40000704700BF80F00040A8
:1030600002E000BF81F0004142001FBF5FEA410360
:1030700092EA030F7FEA226C7FEA236C6AD04FEA60
:103080001262D2EB1363C1BFD218414048404140A5
:10309000B8BF5B42192B88BF704710F0004F40F457
:1030A000000020F07F4018BF404211F0004F41F473
:1030B000000121F07F4118BF494292EA030F3FD03F
:1030C000A2F1010241FA03FC10EB0C00C3F1200352
:1030D00001FA03F100F0004302D5494260EB4000E1
:1030E000B0F5000F13D3B0F1807F06D340084FEA4C
:1030F000310102F10102FE2A51D2B1F1004F40EB41
:10310000C25008BF20F0010040EA030070474900A8
:1031100040EB000010F4000FA2F10102EDD1B0FA73
:1031200080FCACF1080CB2EB0C0200FA0CF0AABF68
:1031300000EBC25052421843BCBFD0401843704706
:1031400092F0000F81F4000106BF80F4000001320C
:10315000013BB5E74FEA41037FEA226C18BF7FEAE3
:10316000236C21D092EA030F04D092F0000F08BF25
:103170000846704790EA010F1CBF0020704712F00C
:103180007F4F04D1400028BF40F00040704712F14B
:1031900000723CBF00F50000704700F0004343F0B0
:1031A000FE4040F4000070477FEA226216BF0846E6
:1031B0007FEA23630146420206BF5FEA412390EAA9
:1031C000010F40F4800070474FF0000304E000BF9F
:1031D00010F0004348BF40425FEA000C08BF704750
:1031E00043F0964301464FF000001CE050EA010214
:1031F00008BF70474FF000030AE000BF50EA010229
:1032000008BF704711F0004302D5404261EB410115
:103210005FEA010C02BF84460146002043F0B6433A
:1032200008BFA3F18053A3F50003BCFA8CF2083A5F
:10323000A3EBC25310DB01FA02FC634400FA02FC68
:10324000C2F12002BCF1004F20FA02F243EB02006F
:1032500008BF20F00100704702F1200201FA02FCD1
:10326000C2F1200250EA4C0021FA02F243EB0200C4
:1032700008BF20EADC7070474FF0FF0C1CEAD05208
:103280001EBF1CEAD15392EA0C0F93EA0C0F6FD0C9
:103290001A4480EA010C400218BF5FEA41211ED0A7
:1032A0004FF0006343EA501043EA5111A0FB013193
:1032B0000CF00040B1F5000F3EBF490041EAD37168
:1032C0005B0040EA010062F17F02FD2A1DD8B3F1E4
:1032D000004F40EBC25008BF20F00100704790F053
:1032E000000F0CF0004C08BF49024CEA502040EAA5
:1032F00051207F3AC2BFD2F1FF0340EAC25070476B
:1033000040F400004FF00003013A5DDC12F1190FA8
:10331000DCBF00F000407047C2F10002410021FA1A
:1033200002F1C2F1200200FA02FC5FEA310040F132
:10333000000053EA4C0308BF20EADC70704792F0AB
:10334000000F00F0004C02BF400010F4000F013AE3
:10335000F9D040EA0C0093F0000F01F0004C02BFDE
:10336000490011F4000F013BF9D041EA0C018FE74D
:103370000CEAD15392EA0C0F18BF93EA0C0F0AD053
:1033800030F0004C18BF31F0004CD8D180EA010079
:1033900000F00040704790F0000F17BF90F0004F12
:1033A000084691F0000F91F0004F14D092EA0C0FF4
:1033B00001D142020FD193EA0C0F03D14B0218BF87
:1033C000084608D180EA010000F0004040F0FE40CD
:1033D00040F40000704740F0FE4040F44000704769
:1033E0004FF0FF0C1CEAD0521EBF1CEAD15392EAE8
:1033F0000C0F93EA0C0F69D0A2EB030280EA010CD8
:1034000049024FEA402037D04FF0805343EA111170
:1034100043EA10130CF000408B4238BF5B0042F1CE
:103420007D024FF4000C8B4224BF5B1A40EA0C0073
:10343000B3EB510F24BFA3EB510340EA5C00B3EBA5
:10344000910F24BFA3EB910340EA9C00B3EBD10F93
:1034500024BFA3EBD10340EADC001B0118BF5FEAE5
:103460001C1CE0D1FD2A3FF650AF8B4240EBC2500E
:1034700008BF20F0010070470CF0004C4CEA5020CF
:103480007F32C2BFD2F1FF0340EAC250704740F41E
:1034900000004FF00003013A37E792F0000F00F010
:1034A000004C02BF400010F4000F013AF9D040EA8E
:1034B0000C0093F0000F01F0004C02BF490011F422
:1034C000000F013BF9D041EA0C0195E70CEAD1531A
:1034D00092EA0C0F08D142027FF47DAF93EA0C0F01
:1034E0007FF470AF084676E793EA0C0F04D14B02E5
:1034F0003FF44CAF08466EE730F0004C18BF31F097
:10350000004CCAD130F000427FF45CAF31F0004390
:103510007FF43CAF5FE700BF4FF0FF3C06E000BF29
:103520004FF0010C02E000BF4FF0010C4DF804CD4C
:103530004FEA40024FEA41037FEA226C18BF7FEA5C
:10354000236C11D001B052EA530C18BF90EA010F5E
:1035500058BFB2EB030088BFC81738BF6FEAE170ED
:1035600018BF40F0010070477FEA226C02D15FEA89
:10357000402C05D17FEA236CE4D15FEA412CE1D0F5
:103580005DF8040B704700BF844608466146FFE7BC
:103590000FB5FFF7C9FF002848BF10F1000F0FBD9E
:1035A0004DF808EDFFF7F4FF0CBF012000205DF897
:1035B00008FB00BF4DF808EDFFF7EAFF34BF01201C
:1035C00000205DF808FB00BF4DF808EDFFF7E0FFB5
:1035D00094BF012000205DF808FB00BF4DF808ED06
:1035E000FFF7D2FF94BF012000205DF808FB00BF69
:1035F0004DF808EDFFF7C8FF34BF012000205DF84B
:1036000008FB00BF4FEA4002B2F1FE4F0FD34FF06C
:103610009E03B3EB12620DD94FEA002343F000433F
:1036200010F0004F23FA02F018BF404270474FF0ED
:103630000000704712F1610F01D1420205D110F074
:10364000004008BF6FF0004070474FF00000704727
:1036500042000ED2B2F1FE4F0BD34FF09E03B3EBFC
:10366000126209D44FEA002343F0004323FA02F028
:1036700070474FF00000704712F1610F01D1420214
:1036800002D14FF0FF3070474FF00000704700BF8D
:10369000014B1868704700BF040100108A892DE9AA
:1036A000F041054610070C465AD44B68002B05DC48
:1036B0000B6C002B02DC0020BDE8F081E66A002ED6
:1036C000F9D0002312F480522F682B6033D0606D44
:1036D000A3895A0705D56368C01A636B0BB1236CC5
:1036E000C01A00230246E66A216A2846B047431CF6
:1036F000A38906D129681D294BD82B4ACA40D60771
:1037000047D5002262602269D904226004D5421C98
:1037100001D12B6803B96065616B2F600029CAD0A5
:1037200004F14403994202D02846FEF755FE0020DA
:103730006063BDE8F081216A01232846B047411C3F
:10374000C6D12B68002BC3D01D2B01D0162B01D165
:103750002F60B0E7A38943F04003A381BDE8F08167
:103760000F69002FA7D0930718BF00230E6808BF6A
:103770004B69A6EB07080F608B60B8F1000F9ADD6C
:1037800043463A46216A2846A66AB047002807DC25
:10379000A38943F04003A3814FF0FF30BDE8F081DF
:1037A0000744A8EB0008E8E70100402038B50B69A2
:1037B00005460C46DBB118B183690BB900F072F80D
:1037C0000C4B9C4209D16C68B4F90C307BB121469A
:1037D0002846BDE83840FFF761BF074B9C4201D146
:1037E000AC68F1E7054B9C4208BFEC68ECE70020B1
:1037F00038BD00BF4C5A00006C5A00002C5A000023
:10380000014620B9044B0549186800F0B7B8044BCD
:103810001868FFF7CBBF00BF8C5A0000AD3700001F
:1038200004010010014900F0A9B800BFAD37000045
:10383000002310B5044603604360836081814366C2
:10384000C281036143618361194608225C3000F044
:10385000EAF8054B24626362044BA362044BE36203
:10386000044B236310BD00BF4D4200006F420000B7
:10387000A7420000CB42000070B568254A1E5543A0
:103880000E4605F17401FEF7A5FD044640B1002186
:1038900080E842000C30A06005F1680200F0C3F837
:1038A000204670BD836910B5044633BB8364C3648E
:1038B0000365124B124A1B688262984204BF0123BF
:1038C000836100F01FF86060204600F01BF8A060E4
:1038D000204600F017F80022E06004216068FFF73E
:1038E000A7FF01220921A068FFF7A2FF02221221EF
:1038F000E068FFF79DFF0123A36110BD8C5A000013
:1039000025380000F8B51C4B07461E68B36913B98B
:103910003046FFF7C7FF4836B4687368013B03D5EC
:10392000336833B13668F7E7B4F90C506DB16834D9
:10393000F4E704213846FFF79FFF30600028F1D1FB
:103940000C2304463B602046F8BD4FF6FF73E3812D
:1039500001236566A3812560A560656025616561B9
:10396000A5610822294604F15C0000F05CF865635B
:10397000A563A564E564E6E78C5A00002DE9F843E9
:1039800080468946002600F1480414B93046BDE857
:10399000F883A5686768013F01D52468F5E7AB891E
:1039A000012B07D9B5F90E30013303D02946404623
:1039B000C84706436835EEE770B500250C4E0D4C40
:1039C000A41BA410A54209D101F0D0FE00250A4E87
:1039D0000A4CA41BA410A54205D170BD56F8253091
:1039E00098470135EEE756F8253098470135F2E75C
:1039F000D4020010D4020010D4020010DC02001027
:103A0000024B01461868FEF7E5BC00BF0401001038
:103A100010B5431E0A44914200D110BD11F8014B6C
:103A200003F8014FF7E703460244934200D1704781
:103A300003F8011BF9E738B502FB01F42146FEF754
:103A4000C9FC054618B122460021FFF7ECFF2846C5
:103A500038BD000038B50546002943D051F8043C74
:103A60000C1F002BB8BFE418FEF7EDFD1E4A1368CB
:103A7000104633B9636014602846BDE83840FEF74D
:103A8000E6BDA3420BD921686218934201BF1A68B0
:103A90005B685218226063600460EDE713465A6861
:103AA0000AB1A242FAD919685818A0420BD120686D
:103AB0000144581882421960DED1106852680144EE
:103AC00019605A60D8E702D90C232B60D4E720682C
:103AD00021188A4201BF116852680918216062608A
:103AE0005C60C9E738BD00BFA015001070B5CD1CE3
:103AF00025F0030508350C2D38BF0C25002D064692
:103B000001DBA94203D90C233360002070BDFEF70E
:103B10009AFD234A1468214691B9224C23681BB9A7
:103B2000304600F083FB20602946304600F07EFBE3
:103B3000431C26D10C2330463360FEF788FDE4E7B2
:103B40000B685B1B1AD40B2B0FD90B60CC18CD5014
:103B50003046FEF77CFD04F10B00231D20F007002A
:103B6000C31A1BD05A42E25070BD8C420BBF63682F
:103B70004B681360636018BF0C46E9E70C46496860
:103B8000CAE7C41C24F00304A04205D0211A304621
:103B900000F04CFB0130CDD02560D9E770BD00BFEF
:103BA000A0150010A4150010002B2DE9F0471E46AB
:103BB000BBBF03F100431E4600232D2388B0149F92
:103BC000129927F02007462F1446109DDDF84CA0CF
:103BD0000B7004D0452F00D10135022300E00323F0
:103BE00007AA049206AA03928DE8280422463346C7
:103BF00000F026FC472F804602D1119BDB0726D51B
:103C0000462F08EB050911D198F80030302B0AD166
:103C1000002200232046314601F060FD18B9C5F1AD
:103C20000105CAF80050DAF8003099440022002358
:103C30002046314601F052FD38B93022079B9945A4
:103C400005D9591C07911A70F8E7CDF81C90404629
:103C5000079B159AA3EB0803136008B0BDE8F08733
:103C60000346F7B5002903F8022BB6BF2D222B22FD
:103C700049420929427021DD0DF1070217460A2643
:103C800091FBF6F506FB1511092D01F1300102F843
:103C9000011C02F1FF34294609DC3031023A04F8F4
:103CA000011CBA421C4604D3201A03B0F0BD2246C0
:103CB000E6E712F8011B03F8011BF2E730221C466D
:103CC000114404F8022B5970EEE700002DE9F04F83
:103CD00091B00C461A9F93461E46054601F084F9A2
:103CE00003681846099300F0F4FA00230E933B682A
:103CF0000A90073323F0070303F1080294F81880B1
:103D0000D4F800A03A60D3E90023C4E91223D4F820
:103D10004C90A76C29F000430B934FF0FF32A64B59
:103D200038460B9901F00CFD002840F0F7814FF068
:103D3000FF32A14B38460B9901F0E4FC002840F01B
:103D4000ED81002200233846494601F0D1FC10B134
:103D50002D2384F84330994B994FB8F1470F98BF02
:103D60001F4603234FF0000923612AF00403236058
:103D700000965B460FAA2146284600F0DFF9013085
:103D800040F09A804FF0FF3011B0BDE8F08F6268CC
:103D90000EA8531C0DF1340E4AF4806341D1062263
:103DA000626000212360019363680DF13302059086
:103DB000029200933A464B460691CDF81080CDF81A
:103DC0000CE02846FFF7F0FE08F0DF03472B07461C
:103DD00009D10D9BD81C02DB6268934259DDA8F122
:103DE00002085FFA88F8B8F1650F0D9936D80139E5
:103DF000424604F150000D91FFF732FF0E9A8146C2
:103E00008318012A236102DC2268D10701D501331E
:103E100023619DF83330002BAAD02D2384F8433042
:103E2000A6E7B8F1670F02D0B8F1470FB9D19AB140
:103E3000002106910DF133018DE80C0023600590FF
:103E40003A46CDF81080CDF80CE002914B4628465A
:103E5000FFF7AAFE0746BCE70122A1E7B8F1660F0B
:103E600019D1002963680CDD216113B92268D207DA
:103E700002D501330B4423610D9B4FF00009A3656C
:103E8000C7E713B92268D00701D50233F3E701234E
:103E9000F1E74FF067080D9B0E9A934205DB22680D
:103EA0002361D107E8D50133E5E7002BCCBF01231F
:103EB000C3F102031344DEE723685A0507D42369DC
:103EC0003A4659462846B04701302AD15AE7B8F158
:103ED000650F40F2DC80D4E912010022002301F0DA
:103EE000FDFB002839D00123364A59462846B04701
:103EF00001303FF447AF0E9B0D9A9A4202DB2368D4
:103F0000D8070ED50A9B099A59462846B047013072
:103F10003FF438AF002704F11A080E9B013B9F4283
:103F200011DB23689F0708D5002704F11908E3680F
:103F30000F9A9B1A9F42C0F2E780E0680F9B98425D
:103F4000B8BF184620E70123424659462846B047E5
:103F500001303FF417AF0137DFE70D9B002B33DC57
:103F60000123184A59462846B04701303FF40AAFAA
:103F70000D9B23B90E9B13B92368D907D1D50A9B92
:103F8000099A59462846B04701303FF4FBAE4FF03E
:103F9000000804F11A090D9B5B42984501DB0E9B5A
:103FA0008EE701234A4659462846B04701303FF480
:103FB000E9AE08F10108EEE7FFFFEF7F905A00003D
:103FC000945A0000A05A00000E9AA36D9A42A8BF0E
:103FD0001A46002A904636DC4FF0000A04F11A0314
:103FE00028EAE8780B93D4F85890A9EB08039A458F
:103FF00031DB0E9B0D9A9A4238DB2368DA0735D401
:104000000E9B0D99A3EB0902A3EB01089045A8BFF5
:104010009046B8F1000F31DC002728EAE87804F177
:104020001A090D9A0E9B9B1AA3EB08039F42BFF639
:1040300078AF01234A4659462846B04701303FF43D
:10404000A1AE0137EDE7134659463A462846B04738
:104050000130C1D196E601230B9A59462846B04754
:1040600001303FF48FAE0AF1010ABCE70A9B099ABE
:1040700059462846B0470130C2D183E6434607EB94
:10408000090259462846B0470130C5D17AE60E9A52
:10409000012A01DCDB0734D501233A46594628467C
:1040A000B04701303FF46EAE0A9B099A5946284644
:1040B000B04701303FF466AED4E91201002200237C
:1040C00001F00CFB50B1002704F11A080E9B013BD4
:1040D0009F420CDB4B4604F15002F2E60E9B7A1C29
:1040E000013B59462846B0470130F3D14AE6012347
:1040F000424659462846B04701303FF443AE0137A7
:10410000E4E701233A46ECE70123424659462846B4
:10411000B04701303FF436AE013708E73A464B4628
:104120003846494601F00CFB00283FF430AE014B05
:10413000014F12E6985A00009C5A00002DE9F04702
:1041400091461F468A680B6906469342B8BF1346DC
:10415000C9F8003091F843200C46DDF8208012B1F8
:104160000133C9F800302368990642BFD9F80030FE
:104170000233C9F80030256815F0060507D104F1AF
:10418000190AE368D9F800209B1A9D422ADB94F8AB
:1041900043302268003318BF012392062FD404F164
:1041A000430239463046C047013022D02368E568D3
:1041B00003F00603042B18BF0025D9F800204FF0A8
:1041C000000908BFAD1AA368226908BF25EAE57592
:1041D0009342C4BF9B1AED181A344D451BD10020E1
:1041E000BDE8F0870123524639463046C0470130CA
:1041F00003D14FF0FF30BDE8F0870135C1E7302033
:10420000E11881F843005A1C94F845102244023307
:1042100082F84310C3E70123224639463046C0479F
:104220000130E6D009F10109D7E7000038B50023D5
:10423000054C054608462360FEF7CAF9431C02D127
:10424000236803B12B6038BD1020001010B50C4658
:10425000B1F90E1001F0CCF90028ABBF636DA38952
:104260001B1823F48053ACBF6365A38110BD2DE9F7
:10427000F0411F468B890546DB050C46164605D5E1
:1042800002230022B1F90E1000F0BCFEA3893246D1
:1042900023F48053A381B4F90E103B462846BDE8B1
:1042A000F04100F01FB810B50C46B1F90E1000F047
:1042B000A9FE431CA38915BF606523F4805343F412
:1042C0008053A38118BFA38110BDB1F90E1000F077
:1042D0001BB8034613F8012B002AFBD1181A01382A
:1042E0007047000038B50546084611460022054CC7
:1042F00022601A46FEF7DAF8431C02D1236803B1A4
:104300002B6038BD1020001038B50023054C054641
:1043100008462360FEF7AAF8431C02D1236803B1C4
:104320002B6038BD102000102DE9F74F03690C6990
:1043300080469C4200F38280013C01F1140700F1A9
:10434000140657F8245056F824000135B0FBF5F553
:104350004FEA840E06EB0E0307EB0E0901938DB3B3
:104360004FF0000A3846B446D34650F8042B93B2B7
:1043700005FB03A3120C4FEA134A05FB02A29BB2F2
:10438000ABEB0303BCF800B04FEA124A5B441FFAE0
:1043900082FBDCF800208145CBEB124202EB23428A
:1043A0009BB243EA02434FEA224B4CF8043BDCD277
:1043B00056F80E3033B9019B043B9E421A4631D366
:1043C000C8F81040404601F04AF8002826DB304685
:1043D0004FF0000E013557F8041BD0F800C08BB227
:1043E000AEEB03031FFA8CF213440A0CC2EB1C421F
:1043F00002EB23429BB243EA0243B9454FEA224E05
:1044000040F8043BE7D256F8242006EB84032AB98F
:10441000043B9E421A460BD3C8F81040284603B00E
:10442000BDE8F08F1268043B002AC9D1013CC4E703
:104430001268043B002AEFD1013CEAE70020EEE7D6
:104440002DE9F04F466A95B00446219DCDE902233F
:104450003EB91020FFF7D4FA6062466086600660BD
:10446000C660636A196851B15A68012393404A6073
:104470008B60204600F01EFE0022636A1A60039BD8
:10448000002BB7BF012300232B60039BAEBF2B6023
:1044900023F000430393DDF80C90AB4B33EA0903A0
:1044A0001BD142F20F73209A1360029B23B9C9F308
:1044B0001300002800F08385229B53B9A34B21E011
:1044C000A34B06930833229A1360069815B0BDE8F3
:1044D000F08F9E4B06930333F5E7DDE90267002278
:1044E00000233046394601F0F9F8804660B10123D7
:1044F000209A1360229B002B00F05E85954B229A38
:104500001360013B0693E0E712AB019313AB0093FA
:1045100032463B46204601F01BF8C9F30A55824655
:10452000002D7DD03046C7F3130343F07F5141F493
:104530004011A5F2FF35CDF840800022864BFEF7F2
:104540004FF97BA3D3E90023FEF7FEFA7AA3D3E960
:104550000023FEF747F9064628460F46FEF78EFA77
:1045600077A3D3E90023FEF7EFFA02460B46304665
:104570003946FEF737F906460F46FEF7F7FC0022EC
:10458000834600233046394601F0B2F858B1584608
:10459000FEF774FA02460B463046394601F09EF8A3
:1045A00008B90BF1FF3BBBF1160F58D8DDE9022328
:1045B0006A4901EBCB01D1E9000101F0B7F800280D
:1045C0004FD000230BF1FF3B0D93129B5D1B6B1E25
:1045D000079343BF0023C5F1010807934FF000087C
:1045E000BBF1000F3FDB079BCDF830B05B44079376
:1045F000002308931E9B092B00F2B480052BC4BF37
:10460000043B1E931E9BC8BF0026A3F10203D8BF24
:104610000126032B00F2B280DFE803F084862D78B8
:10462000139B129D1D4405F23243202B11DD029A8B
:1046300005F21240C3F1400322FA00F009FA03F335
:104640001843FEF70BFA0123A1F1F871013D109315
:1046500073E7C3F12000029B03FA00F0F1E70123A6
:10466000B2E70D90B1E7CBF1000308930023A8EB6C
:104670000B080C93BEE7012309931F9B002B40F30B
:1046800080809946049300220421656A6A6001F1E2
:1046900014029A427AD96968204600F0D7FC636A0E
:1046A00028601B68B9F10E0F069300F2F080002E0F
:1046B00000F0ED80DDE90223BBF1000FCDE90E2310
:1046C00079DD264A0BF00F034FEA2B1602EBC303EA
:1046D000F006D3E90023CDE90A235CD5DDE90E011C
:1046E0001F4B0325D3E90823FEF758FBCDE9020150
:1046F00006F00F061A4F002E4FD1DDE90A23DDE93F
:104700000201FEF74BFBCDE902016EE001230993A4
:104710001F9B5B4403F1010904934B46012BB8BF77
:104720000123B0E70023A7E70023F0E7AFF3008001
:1047300061436F63A787D23FB3C8608B288AC63FA7
:10474000FB799F501344D33F0000F07FAB5A000029
:10475000A25A0000A15A00000000F83FE85A0000E9
:10476000C05A00000126002309961E934FF0FF3324
:1047700000220493994612231F9284E70123099390
:10478000F4E70123049399461A46F5E76A6849005D
:1047900001326A607BE70225ACE7F10708D5DDE965
:1047A0000A01D7E90023FEF7CFF9CDE90A01013567
:1047B000761008379FE700F0A580DDE90E01CBF108
:1047C0000006A24B06F00F0203EBC203D3E900235D
:1047D000FEF7BAF902250023CDE902019C4F3611FC
:1047E000002E40F08480002B8DD10D9B002B00F01B
:1047F0008B80DDE90223CDE90A23DDE90A010022ED
:10480000944B00F075FF00287ED0B9F1000F7BD0EB
:10481000049B002B37DDDDE90A0100228E4BFEF7F9
:1048200093F9CDE90201049E0BF1FF3701352846CB
:10483000FEF724F9DDE90223FEF786F9874B002213
:10484000FDF7D0FFCDE90A010B9BA3F150750B9545
:10485000002E5CD1DDE902010022814BFDF7C0FF93
:104860000A9A2B46CDE9020100F060FF002840F0D3
:10487000F782DDE902010A9A05F1004300F038FFF2
:10488000002840F0EB82DDE90E23CDE90223139BE3
:10489000002BC0F25081BBF10E0F00F34C816B4B2B
:1048A00003EBCB03D3E90023CDE904231F9B002BAB
:1048B00080F2DA80B9F1000F00F3D68040F0CD82AB
:1048C000DDE904010022664BFEF73EF9DDE9022333
:1048D00000F022FF4E464F46002840F0A482069B7F
:1048E000069A5D1C31230BF1010B13709FE2F20756
:1048F00005D5D7E90023FEF727F901230135761006
:1049000008376DE7022570E75F464E468FE7069A47
:104910004E4B32441192099A711E002A48D003EB83
:10492000C103D3E9002300204E49FEF737FADDE941
:104930000A23FDF755FFCDE90A01069DDDE90201D5
:10494000FEF714FB0646FEF799F802460B46DDE932
:104950000201FDF745FFDDE90A23303605F8016B5A
:10496000CDE9020100F0C4FE002864D1DDE9022394
:1049700000203849FDF734FFDDE90A2300F0B8FED6
:10498000002840F0B980119B9D423FF47CAFDDE9E7
:104990000A010022304BFEF7D7F80022CDE90A01C8
:1049A000DDE902012C4BFEF7CFF8CDE90201C5E7A6
:1049B00003EBC101D1E90001DDE90A23FEF7C4F8E8
:1049C000CDE90A01069DDDE90201FEF7CFFA0646B0
:1049D000FEF754F802460B46DDE90201FDF700FF41
:1049E0003036119B05F8016BAB42CDE902014FF067
:1049F000000224D11B4BDDE90A01FDF7F3FE02465C
:104A00000B46DDE9020100F091FE002874D1DDE9DA
:104A10000A2300201349FDF7E3FE02460B46DDE9B9
:104A2000020100F065FE00283FF42DAF15F8013CAF
:104A30006A1E302B01D0BB464DE01546F6E7064B0B
:104A4000FEF782F8CDE90201BDE700BFE85A000099
:104A5000C05A00000000F03F0000244000001C404D
:104A6000000014400000E03F069DDDE90267DDE93B
:104A7000042330463946FEF791F9FEF777FA80466F
:104A8000FDF7FCFFDDE90423FEF75EF802460B4666
:104A900030463946FDF7A4FE08F1300605F8016BF3
:104AA000069E0246AE1BB1450B4637D1FDF79AFE76
:104AB00006460F4602460B46DDE9040100F018FEEB
:104AC000C8B9DDE9040132463B4600F007FE10B1EB
:104AD00018F0010F0FD15146204600F0EBFA0023E9
:104AE000209A2B700BF101031360229B002B3FF4E3
:104AF000ECAC1D60E9E45F4615F8012C6B1E392A09
:104B000006D1069A9A4207D1302313701346013713
:104B10001A7801321A708EE71D46EDE70022B54B78
:104B2000FEF712F80022002306460F4600F0D6FDDD
:104B300000289CD0CFE7099A002A00F029811E9A0C
:104B4000012A00F30E81109A002A00F0068103F278
:104B500033434546089E079A01211A44204698444B
:104B6000079200F047FB0746002D0BDD079B002B4B
:104B700008DDAB42A8BF2B46079AA8EB0308ED1A45
:104B8000D31A0793089BFBB1099B002B00F004810B
:104B9000002E11DD39463246204600F0C1FB524658
:104BA00001460746204600F02EFB51460A9020465B
:104BB00000F080FA0A9B9A46089B9A1B04D0514643
:104BC000204600F0ADFB82460121204600F012FB9A
:104BD0000C9B0646002B40F3E1801A460146204616
:104BE00000F09EFB1E9B0646012B40F3DA8000235B
:104BF0000893336906EB8303186900F0ADFAC0F13E
:104C00002000079B184410F01F0000F0F080C0F156
:104C10002003042B40F3E280079BC0F11C0080447A
:104C2000054403440793B8F1000F05DD51464246A1
:104C3000204600F0C3FB8246079B002B05DD314672
:104C40001A46204600F0BAFB06460D9B002B00F0EA
:104C5000D3803146504600F002FC002880F2CC8020
:104C6000002351460A22204600F03BFA099B0BF133
:104C7000FF3B8246002B00F0A981002339460A221F
:104C8000204600F02EFA049B0746002B03DC1E9BF7
:104C9000022B00F3B980002D05DD39462A46204657
:104CA00000F08CFB0746089B002B00F01081796810
:104CB000204600F0CBF905463A6907F10C010232B3
:104CC00092000C30FEF7A4FE01222946204600F097
:104CD00075FB07970746029BDDF8188003F0010378
:104CE000089331465046FFF71FFB0799054600F130
:104CF0003009504600F0B3FB3A4602903146204658
:104D000000F0C7FBC3680246002B40F0E28001467A
:104D10000990504600F0A3FB0346099A114620462D
:104D2000099300F0C7F9099B002B40F0D4801E9A2C
:104D3000002A40F0D080089A002A40F0CC80B9F1D7
:104D4000390F00F0E880029B002B01DD05F13109ED
:104D500008F1010588F800906BE0129BC3F136035F
:104D6000F7E6089B09F1FF36B342B7BF089B9E1BCD
:104D7000F21A0C9BBFBF08969B180C930026B9F142
:104D8000000FB9BFA8EB0905002345464B46E2E6F4
:104D9000089E4546099FE7E6089A10E71E9B012BEF
:104DA00018DC029BB3B9039BC3F31303A3B9039BA2
:104DB00023F000431B0D1B052BB1079B08F10108D5
:104DC00001330793012308930C9B002B7FF411AF51
:104DD000012016E70023F6E7029BF4E73FF423AF38
:104DE000079A1C331A4498441D4413461AE7034695
:104DF000F6E700BF00002440B9F1000F33DC1E9B32
:104E0000022B30DDCDF81090049B63B931460522AA
:104E1000204600F066F901460646504600F01FFBAA
:104E200000283FF75CAD1F9B069D6FEA030B002334
:104E300007933146204600F03DF9002F3FF44BAE7A
:104E4000079B2BB1BB4203D01946204600F032F934
:104E50003946204600F02EF93DE600263746E2E7C7
:104E6000BB4637463BE5099BCDF81090002B7FF4FD
:104E700012AF069D31465046FFF756FA069B00F1E9
:104E8000300905F8019B049AEB1A9A4200F38180DD
:104E9000069B012AACBF9B18013398460023079359
:104EA00051460122204600F089FA3146824600F040
:104EB000D6FA002834DC02D119F0010F30D1454672
:104EC00015F8013C6A1E302BB3D11546F8E7384679
:104ED000FFE6012322E7029A002A04DB28D11E9A6A
:104EE00032BB089A22BB002B7FF732AF514601221A
:104EF000204600F063FA3146824600F0B0FA0028FE
:104F000005DC7FF425AF19F0010F3FF421AFB9F1B3
:104F1000390F7FF41BAF392308F1010808F8013C71
:104F2000454615F8013C6A1E392B3AD001333FE063
:104F3000002B08F1010505DDB9F1390FEBD009F1BE
:104F4000010907E7069B049AEB1A9342A84605F865
:104F5000019CA5D0514600230A22204600F0C1F84A
:104F6000079B8246BB424FF00A024FF000030799AD
:104F7000204604D100F0B5F807900746B1E600F0EE
:104F8000B0F8002307900A223946204600F0A9F81D
:104F9000F3E7514600230A22204600F0A2F8824699
:104FA00068E7069B934205D13123069A0BF1010B6A
:104FB00013703EE71546B4E7094BFFF7A3BA229BEF
:104FC000002B7FF47DAA074BFFF79CBA049B002BB4
:104FD0003FF74FAF1E9B022B7FF74BAF14E700BF8D
:104FE000A05A0000A25A0000044B1B68186A044B28
:104FF000002808BF1846F030704700BF04010010B9
:105000006801001038B50546084611460022054CD7
:1050100022601A46FDF7B0FA431C02D1236803B19F
:105020002B6038BD1020001082B001B901A942B137
:105030004BB113780B601278101C18BF012002B01E
:1050400070471046FBE76FF00100F8E770B5456A5E
:1050500004460E463DB91020FEF7D2FC6062456062
:1050600085600560C560656AEB6883B1636ADB686B
:1050700053F82600B8B9012101FA06F56A1D92001D
:105080002046FDF7ABF960B1466085600EE0212255
:1050900004212046FDF7A2F9636AE860DB68002B73
:1050A000E4D1002070BD026843F82620002303618C
:1050B000C36070BD70B5446A06460D463CB9102009
:1050C000FEF79EFC7062446084600460C4603DB181
:1050D000736A6A68DB6853F82210296043F822502B
:1050E00070BD2DE9F0411F4606460C4600230D69B0
:1050F00001F1140EDEF80000013381B202FB0171F0
:10510000000C0F0C02FB007089B201EB00419D42C4
:105110004FEA10474EF8041BECDCD7B1A3689D4260
:1051200012DB616830460131FFF790FF804622694B
:1051300004F10C01023292000C30FEF769FC2146AA
:105140003046FFF7B7FF444604EB850301355F6146
:1051500025612046BDE8F081020C12040346B2B975
:105160000304102013F07F4F04BF1B02083013F01C
:10517000704F04BF1B01043013F0404F04BF9B006D
:105180000230002B06DB5B0003D5013070470020A6
:10519000E8E7202070470368014613F007020BD0B0
:1051A000DA0723D4980749BF5B089B0801200B60EE
:1051B0005CBF0B600220704798B2A8B910201B0C8E
:1051C00013F0FF0F04BF1B0A08301A0704BF1B09A6
:1051D00004309A0704BF9B080230DA0702D45B0848
:1051E00006D001300B6070471046E9E70020704799
:1051F0002020704710B50C460121FFF727FF012240
:105200004461026110BD2DE9F74F14460A69236914
:1052100089469A42BEBF0B46A1461C46D9F810707B
:10522000D4F810A0D9F80830D9F8041007EB0A0612
:105230009E42C8BF0131FFF709FF00F114052B465C
:10524000002205EB8608434516D304F1140209F148
:10525000140102EB8A0301EB87070193019C1346BB
:1052600094420CD8002E03DD58F8043D002B54D096
:10527000066103B0BDE8F08F43F8042BE3E7B3F811
:1052800000A00432BAF1000F20D0AE4689464FF09C
:10529000000C59F8044BBEF800B0A3B20AFB03B3EC
:1052A0004FEA144BDEF8004063444FEA144C0AFB0B
:1052B0000BC404EB13449BB243EA04434F454FEA4B
:1052C000144C4EF8043BE4D8CEF800C032F8029CEF
:1052D000B9F1000F1FD0AE468C464FF0000A2B6884
:1052E000BCF80040BEF802B09BB209FB04B4A24473
:1052F00043EA0A434EF8043B5CF8043BBEF8004026
:105300001B0C09FB0343674503EB1A434FEA134A9F
:10531000E6D8CEF800300435A0E7013EA2E7000051
:105320002DE9F843154612F0030206460F4607D052
:10533000214C013A002354F82220FFF7D2FE074601
:10534000AD1035D0746A3CB91020FEF759FB70627D
:10535000446084600460C460D6F82480D8F80840B3
:105360004CB940F271213046FFF744FF0023044658
:10537000C8F8080003604FF00008EB070AD539466B
:1053800022463046FFF73FFF814639463046FFF759
:1053900091FE4F466D100BD0206838B92246214649
:1053A0003046FFF730FF2060C0F800800446E4E795
:1053B0003846BDE8F88300BFB05B00002DE9F04738
:1053C0000C460746164623694FEA621A0AEB0309A0
:1053D0004968A36809F10105AB4231DB3846FFF7A4
:1053E00035FE00228046114600F1140352452ADBA7
:1053F00020692AEAEA7A04F1140116F01F0203EB8D
:105400008A0301EB800E22D00020C2F1200C0E682E
:105410009640304343F8040B51F8040B8E4520FAB4
:105420000CF0F4D8186008B109F10205013D3846C6
:10543000C8F810502146FFF73DFE4046BDE8F08712
:1054400001315B00C8E743F822100132CEE7043B8C
:1054500051F8042B8E4543F8042FF9D8E6E7036989
:105460000A6930B59B1A0CD192001430143184189B
:10547000114454F8045D51F8042D954203D005D32E
:105480000123184630BDA042F3D3FAE74FF0FF33B3
:10549000F7E72DE9F0470D46074611462846144622
:1054A000FFF7DDFF061E08D131463846FFF7CEFD77
:1054B000012346610361BDE8F087A4BF23462C4663
:1054C00038466168A6BF1D4600260126FFF7BEFDCF
:1054D0004FF0000CC6602B69266904F1140205F137
:1054E000140902EB860709EB830800F1140152F856
:1054F00004AB59F8045B1FFA8AF36344ACB21B1B7C
:105500002C0CC4EB1A4404EB23449BB24FEA244C0A
:10551000C84543EA0444964641F8044BE7D8BE45E3
:1055200005D351F8043D8BB10661BDE8F0875EF804
:10553000044BA2B26244131403EB144392B242EA46
:1055400003424FEA234C41F8042BE8E7013EE8E729
:105550002DE9F3411C4601219046089E099DFFF765
:1055600075FDC4F31302C4F30A54074634BB019219
:10557000B8F1000F27D002A840F8088DFFF70BFE06
:105580000099F0B1019AC0F1200302FA03F30B4332
:10559000C2407B610192019B002B14BF02210121BB
:1055A000BB613961C4B1A4F2334404443460C0F136
:1055B00035002860384602B0BDE8F08142F4801220
:1055C000D5E77961E7E701A8FFF7E5FD0121019B38
:1055D00039617B612030E5E7A0F2324007EB8103BF
:1055E00030601869FFF7B8FDC0EB4110E1E700003B
:1055F00038B50546084611460022054C22601A4679
:10560000FCF78AFF431C02D1236803B12B6038BD2D
:105610001020001049B1FF2A8BBF8A230A70036053
:10562000012088BF4FF0FF307047084670470000E8
:105630004FF0FF3C06E000BF4FF0010C02E000BF5E
:105640004FF0010C4DF804CD4FEA410C7FEA6C5C41
:105650004FEA430C18BF7FEA6C5C1BD001B050EAE4
:10566000410C0CBF52EA430C91EA030F02BF90EACF
:10567000020F0020704710F1000F91EA030F58BF8E
:10568000994208BF90422CBFD8176FEAE37040F0F0
:10569000010070474FEA410C7FEA6C5C02D150EA8E
:1056A000013C07D14FEA430C7FEA6C5CD6D152EA49
:1056B000033CD3D05DF8040B704700BF844610460E
:1056C00062468C461946634600E000BF01B5FFF70D
:1056D000B7FF002848BF10F1000F01BD4DF808EDDD
:1056E000FFF7F4FF0CBF012000205DF808FB00BFAE
:1056F0004DF808EDFFF7EAFF34BF012000205DF808
:1057000008FB00BF4DF808EDFFF7E0FF94BF012054
:1057100000205DF808FB00BF4DF808EDFFF7CEFF55
:1057200094BF012000205DF808FB00BF4DF808ED94
:10573000FFF7C4FF34BF012000205DF808FB00BF65
:105740004FEA410C7FEA6C5C02D150EA013C0AD17D
:105750004FEA430C7FEA6C5C02D152EA033C02D16F
:105760004FF0000070474FF001007047F8B500BFE0
:10577000F8BC08BC9E467047F8B500BFF8BC08BC32
:105780009E4670478C5700001C030010751A0000DD
:10579000D11A0000011B0000111B0000ED1A0000CF
:1057A00070696E6D6170206D69732D6D61746368D1
:1057B0000070696E6D6170206E6F7420666F756E1B
:1057C0006420666F72207065726970686572616CC2
:1057D00000636F756C64206E6F742070696E6F75F6
:1057E0007400000010020000CC030000E803000079
:1057F000525458206572726F7220636F64653A204C
:105800003078253038582C207461736B2049443A25
:10581000203078253038580A001001000F000000B1
:10582000040000004003001060030010700300102B
:10583000800300100500010000020001C5140000F3
:10584000020000000100000020030000801800108A
:10585000FF7601009413001032C0092001000000FF
:105860000200000034C00920020000000200000015
:1058700035C00920030000000200000037C00920E5
:10588000040000000200000038C0092005000000EC
:10589000020000003AC009200600000002000000DB
:1058A00040C00920010000000100000041C00920A3
:1058B000020000000100000042C0092003000000B7
:1058C0000100000043C009200400000001000000A6
:1058D00044C00920050000000100000045C0092067
:1058E000060000000100000079C00920020000004D
:1058F000030000007AC0092003000000030000003C
:10590000FFFFFFFFFFFFFFFF0000000011C00920A5
:10591000000001400100000042C0092000000140D9
:1059200002000000FFFFFFFFFFFFFFFF000000007D
:1059300016C00920000001400100000047C00920F6
:105940000000014002000000FFFFFFFFFFFFFFFF1C
:105950000000000001C0092000C009400200000052
:1059600003C0092000C00040010000000BC0092056
:10597000008009400100000010C009200000014023
:10598000010000001AC0092000C009400300000007
:1059900041C00920000001400200000049C0092068
:1059A00000800940020000009DC0092000C009409D
:1059B00003000000FFFFFFFFFFFFFFFF00000000EC
:1059C00000C0092000C009400200000002C00920F8
:1059D00000C00040010000000AC00920008009400A
:1059E000010000000FC0092000000140010000007C
:1059F00019C0092000C009400300000040C0092070
:105A0000000001400200000048C009200080094059
:105A1000020000009CC0092000C0094003000000F3
:105A2000FFFFFFFFFFFFFFFF00000000000000007E
:105A30000000000000000000000000000000000066
:105A40000000000000000000000000000000000056
:105A50000000000000000000000000000000000046
:105A60000000000000000000000000000000000036
:105A70000000000000000000000000000000000026
:105A800000000000000000000000000008010010FD
:105A9000494E4600696E66004E414E006E616E00D2
:105AA0003000496E66696E697479004E614E00433C
:105AB00000504F534958002E000000000000000025
:105AC0000080E03779C34143176E05B5B5B89346FA
:105AD000F5F93FE9034F384D321D30F94877825AC6
