:1000000000800010154E0000454E0000474E0000D5
:10001000494E00004B4E00004D4E00000000000015
:10002000000000000000000000000000494D00003A
:10003000514E000000000000B34D0000E94D0000EB
:10004000574E0000574E0000574E0000574E00001C
:10005000574E0000574E0000574E0000574E00000C
:10006000574E0000574E0000574E0000574E0000FC
:10007000574E0000574E0000574E0000574E0000EC
:10008000574E0000574E0000574E0000574E0000DC
:10009000574E0000574E0000574E0000574E0000CC
:1000A000574E0000574E0000574E0000574E0000BC
:1000B000574E0000574E0000574E0000574E0000AC
:1000C000574E0000574E0000574E000010B5054C2B
:1000D000237833B9044B13B10448AFF300800123F4
:1000E000237010BDD0030010000000003CBC0200D3
:1000F0000C4B43B10C4810B50C49AFF300800C48D1
:10010000036823B910BD0A48036833B97047094B27
:10011000002BF7D0BDE810401847064B002BF5D058
:10012000184700BF000000003CBC0200D4030010D0
:10013000CC0300100000000070B50546094B0646D0
:1001400045F80C3B5DB100F12C04AC4207D0103CEB
:10015000E368002BF9D09B6820469847F5E73046C6
:1001600070BD00BF1C7F020010B50446084B443030
:1001700040F8443C203340F8143C04F0AFFD04F157
:10018000300003F069FE2046FFF7D6FF204610BD81
:10019000A87D0200A0F13000E6E700BF10B50446DC
:1001A000FFF7CAFF204604F094FC204610BD10B5AE
:1001B0000446FFF7D9FF204604F08BFC204610BD13
:1001C000A0F13000F3E700004FF4165313B5084CCC
:1001D0000093084A00230849204603F0CBFD20463F
:1001E000064A074902B0BDE8104004F00FBC00BF4A
:1001F000EC03001003C0092002C00920C800001051
:10020000690100004FF07E5370B50360174B0E4636
:100210004360174B04468360164B00F11805C3601A
:10022000154B03611423436101F0F0FA314628466F
:1002300003F03CF901F000FB666901F0E7FA314692
:10024000284603F02DF901F0F7FAE3682362266AE5
:1002500001F0DCFA2846314603F088F901F0ECFAA7
:100260000023204684F8243070BD00BF0000A04168
:1002700017B7D13927A0093B7910463970470000DC
:1002800070B50446006AE1681EF02AFD28B11849DD
:10029000184803F0F3FD002070BD256A04F118062C
:1002A000E16828461EF012FD70B101F0AFFA294650
:1002B000304603F05BF901F0BFFA256294F8243070
:1002C0006BB1002384F82430206A1DF0E3FE02465F
:1002D0000B460848084903F0D1FD012070BD206895
:1002E00004F03CFA284621691EF040FA0546D7E79B
:1002F000F2770200780400100778020070B5044617
:10030000006AA1681EF0E2FC28B11849184803F001
:10031000B5FD002070BD256A04F11806A1682846C5
:100320001EF0DEFC70B101F071FA2946304603F090
:100330001DF901F081FA256294F824306BB1002395
:1003400084F82430206A1DF0A5FE02460B460848BA
:10035000084903F093FD012070BD206804F0FEF908
:10036000284621691EF000FA0546D7E72D780200DD
:1003700078040010447802000123034980F82430F7
:10038000024803F07BBD00BFE07702007804001054
:100390004FF4165313B5084C0093084A002308493C
:1003A000204603F0E7FC2046064A074902B0BDE8B4
:1003B000104004F02BBB00BF4804001003C009200C
:1003C00002C00920C8000010690100000368DB6951
:1003D000184703685B69184703689B6A18477047AA
:1003E00070474FF0FF307047C0F8A810C0F8AC203D
:1003F00070470000F8B504460F46124D00F1440660
:100400000911304603F0FEFE284604F0A7F9E36B1D
:10041000226B28461A6004F0A1F9A36B226B3946BF
:100420001A60304603F0EEFE284604F097F9E36BBD
:10043000226B28461A6004F091F9A36B226B1A60B4
:10044000F8BD00BFACC52738426A83691360FFF767
:10045000D1BF000010B501210446FFF7F5FF0448A5
:1004600004F07CF90023C4F8A830C4F8AC3010BD07
:1004700045F5D63A2DE9F04104462546884617460B
:100480008EB000211E4603F0C9FC304B182245F8FF
:10049000143B002128461FF099FC2846414604F1F0
:1004A0002C0501F0D3F81822002128461FF08EFCFD
:1004B0002846394601F0CAF84FF0FF330C930B93EE
:1004C0000A93099308930793069305930493039360
:1004D00002930193169B31460093149A159B04F1E5
:1004E000440003F01DFE9DF85C30226B84F8A430BC
:1004F000A36B17481A60A269636A03251A6004F0A7
:100500002DF9144E03212046FFF774FF304604F006
:1005100025F9013DF6D102212046FFF76BFF0E4879
:1005200004F01CF920462821FFF78EFF20460C21FD
:10053000FFF78AFF06212046FFF786FF2046FFF7D8
:1005400089FF20460EB0BDE8F08100BF747802003C
:100550008FC2753C45F5D63AACC52738026A836927
:100560001360FFF747BF90F8A430012B10D0032B86
:1005700014D1032A0CD8DFE802F00E02050801F1BD
:10058000C000704701F19400704701F1D40070473A
:10059000282000FB021101F180007047901C01EB44
:1005A0008010704738B504461D46FFF7DCFF014652
:1005B0002046FFF749FF29462046BDE83840FFF7AF
:1005C000CDBF90F8A430023B012B8CBF102014202B
:1005D000704790F8A430032B0CBF04200220704712
:1005E0000A2938B504460D4610D10023D0F8AC20B6
:1005F000C0F8A8300132C0F8AC20FFF7EAFF824211
:1006000002DB0023C4F8AC30284638BD0B46D0F8D6
:10061000AC20D0F8A810FFF7C5FFD4F8A8202046DA
:100620000132C4F8A820FFF7CCFF8242ECDB0023A4
:10063000D4F8AC20C4F8A8300132C4F8AC2020466D
:10064000DBE7000010B50446044B40F8443B03F0E0
:100650003DFD204603F000FC204610BD74780200EA
:1006600010B50446FFF7EEFF204604F032FA2046AC
:1006700010BD000010B5044603F0A6FC20460B494F
:1006800003F0B8FC00232046C4F89030C4F894303E
:10069000C4F89830C4F89C30C4F8A030C4F8A43032
:1006A000C4F8A830C4F8AC3010BD00BFA08601006B
:1006B000002380F88C3080F88D30C0F89030C0F87E
:1006C0009430C0F89830C0F89C30C0F8A030C0F822
:1006D000A430C0F8A830C0F8AC3070472DE9F04124
:1006E00090F88D10042903DC00231846BDE8F08142
:1006F0004B1E1F2B00F297800C3100F10C034418A5
:1007000013F8016B0A2E0CDD93F81FC0BCF10A0F21
:1007100007DD93F83F500A2D03DD93F85F200A2A86
:1007200002DC9C42ECD1DFE7002EDDD0BCF1000FF3
:10073000DAD0002DD8D0002AD6D0014411F8017C9F
:100740004C1E0A2F0DDD94F82080B8F10A0F08DD49
:1007500094F840E0BEF10A0F03DD94F860300A2BF4
:1007600008DC0E390B1A002B2146E7DA00239E46DF
:1007700098461F466424A7EB08016143474491FB58
:10078000F7F7A6EB0C016143664491FBF6F6BF1B3D
:10079000AEEB03066643734496FBF3F3AE1A744361
:1007A0002A4494FBF2F2D0F890409A1AD0F8943090
:1007B0003C441344312CC0F89040C0F894303BDDE9
:1007C0000124312BC0F898403CDD0123D0F898403B
:1007D000C0F89C3007F11303002C46D1D0F89C40A0
:1007E000002C42D1262B3FF67FAF02F11303262BBC
:1007F0003FF67AAF67BB5ABBD0F8A0300133C0F8E0
:10080000A030D0F8A030092B7FF76EAFD0F8A4301D
:10081000012B7FF769AF012307BB002A7FF465AF87
:10082000C0F8A83061E700239E4698461F461A4646
:100830001D469C461E469DE73134B4BF4FF0FF3441
:100840000024BEE73133B4BF4FF0FF330023BDE7D0
:10085000D0F8A4300133C0F8A430D2E7002A3FF426
:1008600044AF0222C0F8A8203FE7262B3FF63CAF5A
:1008700002F11303262B3FF637AF2FB922B9D0F878
:10088000A0300133C0F8A030D0F8A030092B7FF79A
:100890002BAF0023C0F89830C0F89C30C0F89030DF
:1008A000C0F8943021E7D0F8A830012B04D10522FC
:1008B000C0F8AC2018467047022B04D10623C0F8BC
:1008C000AC300123F6E7D0F89830591C04D1D0F8A9
:1008D0009C30B3B90323F2E7012B04D1D0F89C304C
:1008E000FBB90423EBE7002B4BD1D0F89C20012A65
:1008F00001D10223E3E70132DCD10123C0F8AC309F
:10090000D8E7012B1DD1D0F8903083EAE372A2EB37
:10091000E372D0F89430002BB8BF5B429A42D9DC26
:10092000E7E75A1C1DD1D0F8903083EAE372A2EBBE
:10093000E372D0F89430002BB8BF5B429A42D0DC0F
:10094000DBE701331DD1D0F8903083EAE372A2EBEC
:10095000E372D0F89430002BB8BF5B429A42B9DC06
:10096000CBE7012B0DD1D0F8903083EAE372A2EBF4
:10097000E372D0F89430002BB8BF5B429A42B8DDE6
:10098000AFE7002396E71FB500238DF80C108DF814
:100990000D20009303AA0223722103F057FBB0FA43
:1009A00080F0400905B05DF804FB0A4608B5A021B7
:1009B000FFF7E9FF003018BF012008BD0A4608B55F
:1009C000A121FFF7E0FF003018BF012008BD38B5B6
:1009D000CAB20C4684210546FFF7D5FF38B1220A7A
:1009E00085212846FFF7CFFF003018BF012038BD12
:1009F00038B5CAB20C4686210546FFF7C4FF38B1A8
:100A0000220A87212846FFF7BEFF003018BF0120C9
:100A100038BD0A4608B58921FFF7B5FF003018BF79
:100A2000012008BD0A4608B58B21FFF7ACFF003056
:100A300018BF012008BD7FB50124FF23154604AA75
:100A400002F8011D8DF80E300094234672210646EF
:100A500003F0FCFA00230DF10E02009372212346ED
:100A6000304603F013FBB0FA80F09DF80E304009D9
:100A70002B7004B070BD07B580210DF10702FFF7A0
:100A8000DAFF20B19DF8070003B05DF804FBFF20FA
:100A9000FAE770B505460E461446FFF7ECFFFF284F
:100AA0001BD0062E04F0010410DC0123B34054B126
:100AB0001843C0B2024680212846FFF764FF003089
:100AC00018BF012070BD20EA0300F2E7072EF1D124
:100AD000002C14BF7F200020ECE7002070BD012215
:100AE0000021FFF7D6BF07B5AF210DF10702FFF7D1
:100AF000A2FF30B19DF8070000F0010003B05DF8DF
:100B000004FB0120F8E708B500230A460B709C217E
:100B1000FFF791FF003018BF012008BD37B50D4623
:100B20000DF107028F210446FFF785FF78B19DF88C
:100B300007208F2102F03F0242EA8512D2B22046FE
:100B40008DF80720FFF71FFF003018BF012003B00A
:100B500030BD37B50C460DF107028F210546FFF772
:100B60006AFF80B19DF80720A40002F07B0204F028
:100B70000C0422438F2128468DF80720FFF703FF3E
:100B8000003018BF012003B030BD37B50C460DF161
:100B900007028F210546FFF74EFF78B19DF8072029
:100BA00004F0030422F0430222438F2128468DF8EB
:100BB0000720FFF7E8FE003018BF012003B030BD6A
:100BC00037B50C460DF1070290210546FFF733FFBC
:100BD00080B19DF80720240102F0170204F03004D0
:100BE0002243902128468DF80720FFF7CCFE0030E5
:100BF00018BF012003B030BD37B50C460DF1070218
:100C0000A3210546FFF717FF80B19DF80720640177
:100C100022F0180204F060042243A32128468DF834
:100C20000720FFF7B0FE003018BF012003B030BD31
:100C300037B50C460DF10702A3210546FFF7FBFE71
:100C400080B19DF80720E40022F0300204F018047F
:100C50002243A32128468DF80720FFF794FE003099
:100C600018BF012003B030BD37B50C460DF10702A7
:100C7000A3210546FFF7DFFE78B19DF8072004F0B9
:100C8000070402F058022243A32128468DF80720CA
:100C9000FFF779FE003018BF012003B030BD07B563
:100CA000AB210DF10702FFF7C6FE30B19DF807003A
:100CB000C0F3400003B05DF804FBFF20FAE737B54E
:100CC0000C460DF10702AB210546FFF7B4FE80B1DB
:100CD0009DF80720640022F0420204F0020422433F
:100CE000AB2128468DF80720FFF74DFE003018BFD6
:100CF000012003B030BD13B592210DF10702044667
:100D0000FFF799FE10B9002002B010BD9DF8073022
:100D1000AB2B01D09C2BF6D1002207212046FFF7F8
:100D2000B8FE0028EFD0F62283212046FFF72BFEE5
:100D30000028E8D087228E212046FFF724FE0028D5
:100D4000E1D000229D212046FFF71DFE0028DAD0C9
:100D500000229E212046FFF716FE0028D3D06022F5
:100D60008D212046FFF70FFE0028CCD00021204621
:100D7000FFF7D4FE0028C6D002212046FFF7E9FE87
:100D80000028C0D001212046FFF7FFFE0028BAD07E
:100D900000212046FFF73DFE0028B4D03221204636
:100DA000FFF740FE0028AED04FF6FF712046FFF758
:100DB0000EFE0028A7D000212046FFF719FE0028CC
:100DC000A1D011228C212046FFF7DDFD00289AD00A
:100DD000012290212046FFF7D6FD002893D0002263
:100DE0009F212046FFF7CFFD00288CD028212046E8
:100DF000FFF7DBFD002886D01E212046FFF7DEFD31
:100E0000002880D04022A2212046FFF7BCFD002808
:100E10003FF479AF02212046FFF7EEFE00283FF4B1
:100E200072AF00212046FFF703FF00283FF46BAFAD
:100E300001212046FFF718FF00283FF464AF00228D
:100E4000A4212046FFF79FFD00283FF45CAF00225D
:100E5000A5212046FFF797FD00283FF454AF00225C
:100E6000A7212046FFF78FFD00283FF44CAF00225A
:100E7000A9212046FFF787FD00283FF444AFC9228F
:100E8000A6212046FFF77FFD00283FF43CAF00225B
:100E9000AA212046FFF777FD00283FF434AF002158
:100EA0002046FFF70CFF2FE737B50C460DF1070280
:100EB000AB210546FFF7BFFD78B19DF8072004F090
:100EC000010422F039022243AB2128468DF8072085
:100ED000FFF759FD003018BF012003B030BD38B511
:100EE0000D460446FFF7E4FBFF228321FFF74BFD8D
:100EF00070B389228E212046FFF745FD40B30321C0
:100F00002046FFF75DFE18B305B301212046FFF729
:100F1000D6FEE8B101212046FFF7C6FFC0B120464A
:100F2000FFF7DDFDA0B1012203212046FFF7B1FD4F
:100F300070B1012202212046FFF7ABFD40B12046EF
:100F4000BDE8384001220621FFF7A3BD2946DDE7B1
:100F5000002038BD7FB51C460123164604AA02F8BE
:100F6000011D00937221054603F070F800233246FC
:100F7000009372212346284603F088F8204604B0E7
:100F800070BD0023F0B5A3B004468DF80630FFF71E
:100F9000AAFD18B90022104623B0F0BD2046FFF785
:100FA0006AFD10F0410FF5D01E2003F0E3FB0DF1B8
:100FB0000702AF212046FFF73EFD08B9FF22EAE70E
:100FC0009DF80730DB0743D50DF10602AE21204620
:100FD000FFF731FD0028F1D09DF80630002BE3D05B
:100FE00002AD9B002A46FC212046FFF7B3FFC0B2AA
:100FF0000328D9DD002694F88D7094F88C30FF1A00
:10100000A95DE2181173A91991F801E0013382F882
:101010002CE091F802E0C978DBB2043682F84CE0AB
:1010200082F86C10B04203EB0702D2B2E8DC84F81D
:101030008C3084F88D202046FFF750FB10B12046FD
:10104000FFF731FC002384F88C3084F88D30ABE757
:101050001E2003F08FFB2046FFF725FC2046D4F826
:10106000AC20FFF725FB96E710B5054C204603F0B2
:10107000F3FE2046BDE81040024A034903F0C6BC17
:10108000A4040010C8000010714F00004FF0765308
:1010900010B50360902304464360103002F094FFC3
:1010A000204610BD7047012307B5037260234372C9
:1010B000A02383720023009300F1080241680323F8
:1010C000103002F0C3FF03B05DF804FB73B50025D8
:1010D0000446057200F11006009500F1080241680F
:1010E0000123304602F0B2FF0095022304F10B0207
:1010F0006168304602F0CAFF02B070BD10B5044608
:10110000FFF7E4FFE37A207B00EB032000111DF0E2
:10111000E1FB21681DF032FC1CF0BCFF0022074BF4
:101120001DF00CF80022064B1DF032F90022054B91
:101130001CF052FE1DF0C4FA10BD00BF000022409A
:1011400000001440000040400368184708B10B68D5
:10115000036070477047704710B50748FFF7CEFF30
:10116000064B18601CF096FFBDE8104002460B4687
:101170000348044902F082BE34060010F406001051
:10118000C8060010D379020010B5054C2046FFF7C1
:1011900061F92046BDE81040024902F06FBE00BF71
:1011A0005C050010C878020070B50546084C0122A5
:1011B00020460A21FFF718F928461CF06BFF02466B
:1011C0000B462046BDE87040024902F057BE00BF02
:1011D0005C050010F079020038B50546054C204644
:1011E000FFF738F92A462046BDE83840024902F0A8
:1011F00045BE00BF5C050010D77802000138032807
:101200000CD8DFE800F0020205080548FFF7B4B883
:101210000348FFF735B80248FFF770B8704700BFC2
:101220000C06001010B51B4886B0FFF7AAFE044656
:101230000DF107011748FFF766FC224616491748CB
:1012400002F01CFE9DF807201549144802F016FE16
:10125000631E052B1CD8DFE803F0031113151719C3
:10126000104902A820F079F802A8FFF7B5FF204640
:10127000FFF7C4FFFFF788FF06B010BD0A49F0E78B
:101280000A49EEE70A49ECE70A49EAE70A49E8E7CA
:101290000A49E6E7A8040010DA780200C806001040
:1012A000F3780200057902000E7902001779020036
:1012B0001F79020029790200367902004479020080
:1012C0001FB51848FFF717FD044668B916491748B7
:1012D00002F0D4FD1649684620F03FF86846FFF753
:1012E0007BFF204604B010BD01210E48FFF7F7FD3B
:1012F000044628B90F490D4802F0C0FD0E49EAE73F
:101300000848FFF7CCFC0D490246084802F0B6FD3C
:101310000448FFF736FE0A490246044802F0AEFDD3
:10132000DFE700BFA804001051790200C8060010D2
:10133000747902007E790200A3790200AB79020081
:10134000C5790200C36810B504460BB19B68984785
:10135000204610BD38B505460446064B45F8183BF7
:1013600002F0CBFD2846FFF7EDFF204603F040F9E1
:10137000204638BDB87E020010B50446FFF7EAFFEC
:10138000204603F0A6FB204610BD38B5CB680446C6
:101390000D460BB15B689847EB682046E36038BDAB
:1013A00070B54FF4165188B0234803F0A4F82349D0
:1013B000234802F063FD2348FFF74CF8FFF7E4FEF3
:1013C0002148FFF770FE214B69460093204B04A88B
:1013D0000393FFF7DAFF1F48FFF7B4FF04A91D4886
:1013E000FFF7D3FF1C491D4802F073FD04A8FFF767
:1013F000A9FF6846FFF7A6FFFFF762FF0446A0B10A
:10140000174C184D0E4E2046FFF76DFB28B12946AC
:10141000304602F033FDFFF705FF134B1868FFF766
:10142000C3FEC82003F0A6F9EDE71049044802F016
:1014300025FD204608B070BD98060010F679020020
:10144000C80600105C050010340600105911000099
:10145000BC78020010070010404B4C00F80600104A
:10146000A80400101A7A0200F4060010357A02006F
:101470002DE9FF4100262F4B2F4D0293013301939D
:1014800001332E4C0093039601332D4A2D492846F3
:10149000FEF7F0FFDFF8FC802B4F28462B4D22464D
:1014A0002B4903F0B3FA424639462846FFF7EEFDD2
:1014B0002846284D2246284903F0A8FA42463946D4
:1014C0002846FFF7D7F82846244D2246244903F042
:1014D0009DFA24492846FEF795FE224622492846D1
:1014E00003F094FA4FF41653204D0093204A3346EC
:1014F0002049284602F03EFC28461F4D22461F493F
:1015000003F084FA284603F055F81D4B6E622B60F9
:1015100028461C4D22461C4903F078FA1B492846F0
:1015200002F08CFF22462846194904B0BDE8F0417C
:1015300003F06CBA42C009205C050010C80000101E
:101540003FC0092011C0092000C009203406001046
:1015500045060000A8040010A51000000C060010AD
:101560005711000040C009207D02000098060010BD
:1015700003C0092002C00920F8060010690100001C
:10158000B87E0200500600105513000009C0092063
:101590000144000001C009200748084A08B5121A92
:1015A00000211EF013FC03F0EAF91EF027FA03F005
:1015B000EDF903F02DFA00BFD0030010783B0010C6
:1015C000022801DD03F08EB90120704708B5012023
:1015D00003F01EFA08B5FFF7F9FF70B50E46044692
:1015E000154601F053FD013609D02046002101F0D7
:1015F00067FD29462046BDE8704001F05EBD70BD24
:1016000038B504460D4643685AB1C2682046136097
:10161000012101F055FD29462046BDE8384001F082
:101620004CBD0269F2E70322FFF7D7BF70B50E4643
:101630000446154601F02AFD013606D02A4620460A
:10164000BDE870400221FFF7DBBF70BD0022FFF74D
:10165000EDBF000000487047507A0200014800F0DA
:101660000CB800BF507A020038B504460D46036836
:101670001B68984763681D6038BD036870B5DB68F8
:101680000446984763685A6823681AB99B68BDE89E
:10169000704018475B68156898476368281A0028E7
:1016A0005A6807DC916859601B68002BEAD05068C3
:1016B0009847E7E7236810681B69BDE87040184742
:1016C000F8B506460C461F46154600F09FF8002167
:1016D000706884E8A000436853B9A36079B933689F
:1016E00044601B6928469847BDE8F84000F0A4B85C
:1016F0001A68AA1A002AF0DB19469B68ECE78C608E
:10170000F2E738B505460C4600F080F86A68536881
:10171000A3420ED19B6853602A682BB993689847FF
:10172000BDE8384000F088B8126918689047F7E7BC
:101730001346002BF4D09A689442F9D1A2689A60BB
:10174000EEE703685B68184710B5044601300DD119
:1017500010BD9C4209D12046896801F017FF204640
:10176000BDE81040022101F02ABF0C310B685A1C61
:10177000EFD10248BDE8104000F0CEB89D7A0200DB
:10178000884208B508D0431C06D0013106D0044871
:1017900000F0C2F84FF0FF31084608BD0146FBE7F4
:1017A0006C7A02000B685A1C01D1184670478342BC
:1017B00001D1486870470C31F4E70000421C10B5B5
:1017C000044607D0FFF7EEFF431C044602D102484F
:1017D00000F0A2F8204610BD7D7A020000F04CB85F
:1017E00008B500F049F838B100F04EF830B900F013
:1017F00043F80028FBD108BD4FF0FF3008BDEFF3E0
:101800001080C04300F001007047000008B5FFF7EA
:10181000F6FF72B6064B1A6822B980F00100054A3D
:10182000C0B210701A681A6801321A6008BD00BF91
:101830002C0700102807001008B5074B1A6852B192
:10184000FFF7DDFF1A68013A1A601B681BB9034BEA
:101850001B7803B962B608BD2C07001028070010DA
:1018600030B585B06D46182420462946ABBE0446E7
:10187000204605B030BD0000024B186800F00100A2
:10188000704700BFF0ED00E037B540F2051401AD40
:1018900020462946ABBE0446204603B030BD0000BA
:1018A00000B599B0FFF7B2FF17496846FFF7CEFEC3
:1018B000164906A8FFF7CAFE15490CA8FFF7C6FE91
:1018C000144912A8FFF7C2FE019A039B96201A60E2
:1018D000079A0A9B1A600D9A109B1A60139A159B1F
:1018E0001A6002F047FF019A049B96201A60079A3B
:1018F000099B1A600D9A0F9B1A60139A169B1A6027
:1019000002F038FFE0E700BF32C0092034C00920F0
:1019100035C0092037C009200FB4012008B503F0F5
:1019200077F801F0DDBB000008B5024C236898474A
:10193000FCE700BFCC00001008B50B4800F0A6FE85
:101940000A4B18600A4800F0A1FE0A4B18600A48CA
:1019500000F09CFE094B18601EF050F8BDE80840EE
:101960000021084603F012B8FC7A0200CC3A0010BD
:10197000F87A020038070010F47A020030070010ED
:10198000FFF7D2BF10B5044600F0E0FD2146BDE8E8
:10199000104002460148FFF7BFBF00BFBC7A0200FB
:1019A00003F074B90B4AF0B4C2F1805303F500435D
:1019B000B3F5806F194628BF4FF48061064F074D7D
:1019C0005B1A074C07489E183A602E60236001603E
:1019D000F0BC7047783B0010BC1A001040070010A4
:1019E000B81A00103C07001000F034FFFFF7DAFFD0
:1019F0000348002100F0D2FE00F02AFDFEE70000BF
:101A0000D0000010024B4FF0FF31186800F05CBEB0
:101A100038070010014B186800F07EBE3807001030
:101A2000024B4FF0FF31186800F04EBE3007001037
:101A3000014B186800F070BE3007001030B5027816
:101A40008C78013A4368D2B213B19D78A54207D28F
:101A5000022A4B60416006D803B19960886030BDAE
:101A600018465B68F0E700238B6030BD436802785E
:101A70005968013A022A41604FF0000205D809B1C5
:101A800088605A609A60184670475A60FBE7000009
:101A9000034B5A684260002258608260704700BF62
:101AA000D03A0010104B10B5DA688AB19A8A8A428F
:101AB000DC680CD3C460D860C468036104B12061E1
:101AC000521A92B28282998A8A1A9A8210BD3CB9BD
:101AD00000248A1AC460D86003619A82848210BD8F
:101AE000A38A1A442346E2E7E83A00102DE9F041C0
:101AF000174DEB6853B10026AB8A164F013BDFF858
:101B00005880AB82AA8A0AB9EC680CB9BDE8F081AA
:101B1000A36833B161685960616809B18B60626024
:101B2000A66021463846FFF789FFA38AAB82637817
:101B3000042B01BFD8F80030E28A9B18A38201234E
:101B40006370E368EB600BB11D61E6602661D9E765
:101B5000E83A0010D03A0010683B001083682BB1BF
:101B600042685A6042685AB193607047054B5A68A0
:101B7000904202D142685A6070471346002AF6D15B
:101B8000704700BFD03A001010B5846801462CB9E8
:101B90004378012B0DD1074C03E0A4682378002B78
:101BA000FBD00846FFF7DAFF2046BDE81040FFF7FC
:101BB00045BF10BDD03A0010036910B563B1C268CB
:101BC000DA60C2684AB1998A848A21449982136191
:101BD0000023C3600023036110BD9A82FAE700006E
:101BE00070B4114BDD78EFF31086EFF3108272B60C
:101BF0009A78954211D901329A701A78541CA542EC
:101C000008BF00241C7006B962B6954207D970BCA3
:101C100003EBC203586099607047002EF4D070BC8B
:101C20000220FFF7AFBE00BF783600100323037019
:101C30000023438043608360C3607047F8B54388E6
:101C400004469BB18068036A9C4228D1E368036222
:101C500090F82430026A52BB82789A4206D0837090
:101C60001F4B1B68984201D0FFF78EFF01261D4FC6
:101C7000656825BB1B4843686BB1194E9A7831687B
:101C80008B789A4207D9FFF7D9FE0122336828469C
:101C90005A7000F0D3FE00202070F8BD1346002BD0
:101CA000D6D0DA689442F9D1E268DA60D0E75168B8
:101CB00019B189788B4238BF0B46D268CBE72046F2
:101CC000FFF7D4FE0546002100F0F6F82846FFF79E
:101CD00073FF6E7029463846FFF7B0FEC8E700BFB5
:101CE000203B0010D03A00102DE9F8434388054608
:101CF000002B63D0324F81683A6891425ED1013B3C
:101D00009BB243801BB100242046BDE8F8830B6AD8
:101D1000984229D1C3680B6291F824300C6A5CBBED
:101D20008B706A68DFF89C80002A3BD02846FFF75A
:101D30009DFE06464FF00109214600F0BDF83046F1
:101D4000FFF73AFF336A3968EB60D8F80430A5F83A
:101D50000290AE6035628A789B789A4214D33046FE
:101D600000F06CFED0E71346002BD5D0DA68954220
:101D7000F9D1EA68DA60CFE762681AB192789342E3
:101D800038BF1346E468CAE74046FFF757FE3146BE
:101D90004046FFF753FE3B6883F8019086F80190B8
:101DA0002046DDE7D8F8042092789A42ABD9404625
:101DB000FFF744FE01223B685A70F1E7FF24A3E7D6
:101DC000203B0010D03A0010438870B504460E4600
:101DD000134D43B92A68116A8260C16010620133F1
:101DE0006380002070BD80682A689042F7D081B17E
:101DF000937882789A4202D28370FFF7C5FE6268B8
:101E00004AB129682046FFF719FE0921304600F043
:101E100037FE012070BD2B6863605A609C60F4E758
:101E2000203B0010F0B54FF080764FF0000E836A33
:101E3000056B9B0802BF1E4B1B889B0805EB8302AA
:101E4000540748BF043A02E94200A2F14004A2F15B
:101E50004406A2F10C0746F804EFBE42FBD1C66966
:101E600042F8206C41631249C4620968C90017D561
:101E7000112B15D96FF00701103B5B084B43A3F101
:101E800038010A444FF0CC30214691420BD108333F
:101E90001C44231F9D423CBF4FF0CC3344F8043C0C
:101EA000044B2B60F0BD41F8040C41F8080DECE741
:101EB000047B0200A52E5AE2C36A19627047C36A06
:101EC00019625A6270470000054B1B7823B94FF026
:101ED0008052044B1A6070470122034B1A707047FE
:101EE0009417001004ED00E09517001038B51A4B58
:101EF0001A4C186801234370FFF7CAFD6578A37870
:101F00003BB917486570FFF7B1FDBDE8384000F0F8
:101F10007BBD04EBC503586802789AB9198900F0B3
:101F2000BBF9E37801359D4208BF0025EFF310832C
:101F3000EFF3108272B6A278013AA270002BDED1C4
:101F400062B6DCE7012A03D1996800F033F9E8E7CB
:101F500000F0BAFFE5E700BF203B00107836001024
:101F6000D03A0010084B4FF0FF301A68074B1A6048
:101F700000225A60072243F8042C054A136843F0F4
:101F80007F431360704700BF1C7B020014E000E039
:101F900020ED00E07047000008B50B4B18680123E6
:101FA0004370FFF775FD00F0ADF9084A136801337F
:101FB0001360FFF79BFD00F0AFFC0548FFF756FDEF
:101FC000BDE8084000F020BD203B0010683B001039
:101FD000D03A0010064B1A68136BD26A934203D8AA
:101FE0001A68044B9A4202D00120FFF7CBBC70471D
:101FF000203B0010A52E5AE2002ABBBF22F000426F
:102000000732033222F00702A8BF22F0030210B504
:10201000B4BF10230C2392B1D4188C420FD80144C2
:102020000344544241600360826021449818814215
:1020300002D300510346F9E70020186010BD0120CB
:1020400010BDEFF3108372B6026803F001030AB10A
:102050001168016003B962B61046704781420DD322
:10206000436899420AD2EFF3108372B602680A609D
:10207000016013F0010003D162B670470120704780
:102080000020704701230370002310398908437032
:1020900083704360038143818381C1817047000065
:1020A00070B5858904461646002D38D043891A1D1F
:1020B00050F8222001330A60C2899BB29A424381C0
:1020C00004BF002343814368F3B14378022B1BD143
:1020D000FFF7CCFC05460021FFF7EEFE2389E969F6
:1020E0001A1D44F822100133E2899BB29A422381DF
:1020F00008BF0023284608BF2381FFF75DFD28465F
:1021000000F09CFC002070BDEFF31080EFF3108313
:1021100072B6013DA5810028F4D162B670BD4AB106
:102120004268094B42B11968FFF788FC0821304624
:1021300000F0A6FC012070BD1B6843605A609860E7
:1021400001234370F2E700BF203B0010C289808961
:10215000101A704708B5FFF743FDBDE80840FFF7C8
:10216000B3BE838910B504460BB34389043350F8DA
:1021700023300B604378022B04D10021FFF730FDA0
:10218000FFF7A2FEEFF31083EFF3108272B6A2897D
:10219000013AA28103B962B66389E28901339BB235
:1021A0009A42638101D100236381042010BD184647
:1021B00010BD0000436870B504460E46002B4BD09E
:1021C0004578022D20D0032D0AD0012D61D1FFF7D3
:1021D0004DFC044632461021FFF771FE65700EE09B
:1021E0000846FFF72EFF0546002852D02046FFF78D
:1021F0003DFC29460446FFF75FFE0123637020463D
:10220000FFF7DAFC214622E0FFF730FC054600210B
:10221000FFF752FE2389E9691A1D44F82210EFF3F3
:102220001082EFF3108172B6A1890131A18102B948
:1022300062B6E28901339BB29A42238104BF002334
:102240002381012328466B70FFF7B6FC2946BDE8C1
:1022500070401048FFF7F2BB8089E189884213D2B1
:1022600023891A1D44F82260EFF31082EFF31085E2
:1022700072B60130A08102B962B601339BB29942B5
:1022800008BF0023238170BD0320BDE87040FFF725
:1022900079BB70BDD03A001010B5038B427819435A
:1022A000062A04460183438B15D133EA010219D172
:1022B00021EA030121832046FFF77EFC012320460B
:1022C0006370628B0821FFF7FAFD2146BDE81040DC
:1022D0000548FFF7B3BB052A04D111EA030201D078
:1022E0004283E5E710BD00BFD03A00100022034B47
:1022F0001A60034A1268DA80704700BF083B00107A
:10230000007B020008B50E4B5A680E4B19689142CB
:102310000D4905D01A60DA880868013A02449A80AB
:1023200098880A8890420AD1002205481A60FFF76F
:102330009DFBBDE8084001460148FFF77FBB08BD93
:10234000D03A0010083B0010683B001030B5002464
:102350000A4A136843B90360816013B19D68691A22
:10236000996044B1206030BD9D68A942F3D31C46FA
:10237000491B1B68EEE7106030BD00BF183B001022
:10238000C0B1431C11D00C4B984211D84FF47A7154
:102390000A4B1B685A1E01FB0020B0FBF3F34FF6FB
:1023A000FE70834206D898B270474FF6FF707047B0
:1023B0004FF6FE70704700BF00093D00B87A02007A
:1023C00038B1830704D10378002B18BF0020704771
:1023D00000207047B0B50E4D00AF2878A8B90D4C5D
:1023E000236893F8241000F06DFB2368DA78FF2A45
:1023F00003D1DA6A203282F3098862680AB984E874
:102400000C0000F017FD01232B700020B0BD00BFB1
:102410001C3B0010203B0010014B1878704700BF98
:102420001C3B001010B5EFF3108434B9EFF30584B2
:102430001CB9EFF31484E40702D4034B187810BDE1
:10244000DFF808C000DF10BD1C3B0010192400009D
:1024500090B589B000AFEFF31083002B37D1EFF3C5
:102460000583002B33D1FFF7DDFF28B9194C246811
:1024700014B1646804B1A047EFF3148404F00304BA
:10248000022C18D0032C1CD0012C1ED007F12004E4
:1024900084F30988104C2478E40710D5022484F3CF
:1024A0001488BFF34F8FBFF36F8FDFF830C000DFAA
:1024B0002437BD4690BD084C2478E407F5D40324A6
:1024C000EDE7054C2478E407EFD5FF20F0E7822004
:1024D000EEE700BF043B0010E67A0200D5230000BF
:1024E00070B50B461646024610B90024204670BD52
:1024F00000680028F9D0B2F90440E51CADB2062D01
:10250000F3D8D168C1B11269043444EA012100F062
:1025100017FB0028E9D00A4B013853F82040094A3C
:10252000E36A5A63084B1B6843B19B6833B1314679
:10253000E0789847E063D9E70A46E5E7E663D5E740
:102540002C340010E9260000043B001008B500F010
:10255000B1FA18B1024B013853F8200008BD00BF92
:102560002C34001010B5FFF72BFF044670B1084B58
:102570001B681BB1DB680BB1C06B9847E07800F0BB
:1025800035FBFF280CBF8120002010BD802010BD2E
:10259000043B001008B528B1FFF7F2FE00F090FCF4
:1025A000402008BD08BD000010B5EFF3108434B919
:1025B000EFF305841CB9DFF80CC000DF10BD8220EA
:1025C00010BD000095250000830705D138B143698F
:1025D00001691B681846704700231946FAE703464D
:1025E000FBE7000010B504460846DFF80CC000DF2A
:1025F00084E80300204610BDC925000010B548B18D
:10260000046824B1237823B92046FFF70FFB204646
:1026100010BD002010BD70B510F0030405460E4635
:1026200011D180B10378032B0DD10846FFF7A8FE26
:1026300001462846FFF7C8FB012806D1002E14BF2B
:10264000C120812070BD802070BD204670BD8207F2
:1026500008B50AD148B10378032B06D1FFF744FB34
:10266000FF280CBF8120002008BD802008BD10B5C8
:1026700010F0030407D130B10378032B03D1FFF727
:10268000DDFA204610BD802010BD000070B5054663
:10269000EFF3108494B9EFF305867EB9EFF3148459
:1026A000E40706D4064C24781CB9BDE87040FFF757
:1026B000A5BF2846DFF80CC000DF70BD002070BD4C
:1026C0001C3B0010FD25000010B5EFF3108434B959
:1026D000EFF305841CB9DFF80CC000DF10BD8220C9
:1026E00010BD000017260000084808B54FF0FF3164
:1026F0000068FFF7E9FFDFF818C000DF0446FFF7C6
:102700004FF92046DFF80CC000DFFEE7143B001055
:102710004D2500006525000010B5EFF3108434B995
:10272000EFF305841CB9DFF80CC000DF10BD822078
:1027300010BD00004F2600002DE9F04180460F46F5
:102740001646EFF3108404BBEFF30583D3B9EFF320
:102750001483DB0706D40E4B1B781BB9BDE8F04190
:10276000FFF7BEBE0B4D4FF0FF312868FFF7ACFFFF
:10277000404639463246DFF820C000DF044628686C
:10278000FFF7CAFF2046BDE8F0810024FAE700BF4A
:102790001C3B0010143B0010E12400000022FFF756
:1027A000CBBF000010B5EFF3108434B9EFF305840C
:1027B0001CB9DFF80CC000DF10BD822010BD000086
:1027C0006F26000010B5044660B1016851B1406841
:1027D00048B1037833B90431890089B2FFF752FC5C
:1027E000606810BD002010BD38B5114C23780BB9BE
:1027F00000F0A6FAFF220F4B25781B689A708DB95E
:1028000029460D48FFF7DEFF0C4B2A461860294683
:102810000B48FFF765FE0B4B18600B48FFF736FFC0
:102820000A4B1860012300202370094B187038BD33
:10283000103B0010203B0010EC7A020028340010FE
:10284000087B0200FC360010207B0200143B0010C5
:102850001C3B001010B5EFF3108474B9EFF305843E
:102860005CB9EFF31484E40703D4BDE81040FFF72C
:10287000BBBFDFF80CC000DF10BD822010BD000020
:10288000E92700002DE9FF410C46804618B3037884
:10289000012B25D10846FFF773FD02A902464046E9
:1028A000FFF7FEFB012811D10020002C0246034651
:1028B00018BF4020029904460D4616461F46204682
:1028C000294632463B4604B0BDE8F081002002466E
:1028D00003461020EEE78024054606460746EEE74D
:1028E000002580242E462F46E9E770B50E46144693
:1028F000054660B15AB90378012B08D1FFF726FCD1
:1029000038B128463146FFF725FC204670BD8020AF
:1029100070BD812070BD0000F8B5114E34682CB137
:10292000A368104F013BA360A26802B1F8BD2568FF
:10293000214638683560FFF7D8FF10B10420FFF753
:1029400021F86379012B07D1E1682046FFF7FEFCEF
:10295000002DEBD02C46E7E701232371F8E700BFF9
:10296000183B0010283400107FB504461646084670
:1029700001B122B180232360204604B070BD0B78E2
:10298000012BF7D102A9FFF7ECFB042808BF1023A5
:1029900001AD14BF0196019395E8070084E8070094
:1029A000EAE7000038B504461546EFF3108010B989
:1029B000EFF3058028B12A462046FFF7D5FF2046D1
:1029C00038BD08461146DFF80CC000DF84E8070078
:1029D000F5E70000852800007FB50A4C4FF0FF3274
:1029E000216803A8FFF7DEFF039B102BF6D10499A3
:1029F00001A8FFF7F7FD019B002BEFD00298984745
:102A0000ECE700BF28340010054B586002234370E8
:102A1000044B1B681BB11B690BB1C06B1847704797
:102A2000203B0010043B001008B50348FFF71EF8D8
:102A3000BDE80840FFF7E8BFD03A001070B5044683
:102A400018B9BDE87040FFF7EFBF0B4EA2783068B1
:102A5000012583789A4208D9FFF71AF8336820468F
:102A60005D70BDE87040FFF7CFBF65702146BDE8DF
:102A700070400248FEF7E2BF203B0010D03A001041
:102A800038B50D46014680B14FF6FF739842074CAA
:102A900002D02068FFF706F8236805485D70FEF74E
:102AA000E5FFBDE83840FFF7AFBF38BD203B001061
:102AB000D03A0010024B186800B1C078704700BFD0
:102AC000203B001010B5A8B9194B1B68997083F80A
:102AD0002410184843689B788B4201D8002010BD11
:102AE000134C2168FEF7AAFF012223685A70FFF7F2
:102AF0009BFFF3E7104B1B88984217D80F4B013808
:102B000053F8204094B10A4BA1701B6884F824103C
:102B10009C42DED02046FFF737F86378012BDDD1E9
:102B20000448FEF7A3FFFFF789FFD7E7FF2010BD9A
:102B3000203B0010D03A0010E87A02002C3400103C
:102B40002DE9F0470D4611F0FF0F80462348164649
:102B50009A4608BF0135FFF774FA044620B94FF0D2
:102B600000094846BDE8F08700211D4B06631B881D
:102B7000280A1C4EA0628B4201F10109EFD006EB3E
:102B8000890252F8042C0F464946002AF3D101234A
:102B9000EDB284F80390C4F81CA0C4F838A02270E9
:102BA0006370A57084F824506260A260E2602261C4
:102BB0002262A282E2822283628384F8252018B9ED
:102BC0000948FFF73EFA206320464146FFF72AF9FD
:102BD000204646F82740FFF731FFC2E700370010D4
:102BE000E87A02002C340010683400102DE9F84F08
:102BF0004D4D18B12B68DB78984241D100232C68E9
:102C00000127637002F075F8E062FFF7E3F92B68C3
:102C1000DFF828811C6AA4B92A684449D37844485B
:102C2000013B41F82340116BFFF718FA296841482E
:102C30000C63FFF713FA2C60FFF7F6FE2046BDE8A1
:102C4000F88F6368B3B12046FEF710FF06460021F7
:102C5000FFF732F93046FEF7AFFF77703146404656
:102C6000FEF7ECFEE368326A6780A660E2603462D9
:102C70001C46D0E7E2686380A360E3601446CAE7BD
:102C80002D4B1B8898424DD8284B471E53F8276080
:102C90009946002E46D04FF0010A3046FEF75EFFFF
:102CA0003046FEF789FFDFF894B0346AB4B9316B6F
:102CB0001F4849F82740FFF7D1F9314634631D48D2
:102CC000FFF7CCF91D48296843689A788B789A42B7
:102CD000B4D901234B70FEF7B1FEADE76368DBB1F9
:102CE0002046FEF7C3FE80460021FFF7E5F8404688
:102CF000FEF762FF88F801A041465846FEF79EFEA7
:102D0000E368D8F82020A4F802A0C4F80880E260A4
:102D1000C8F820401C46C9E7E2686380A360E3600E
:102D20001446C3E7FF2489E7203B00102C34001031
:102D30006834001000370010E87A0200D03A001022
:102D400038B52C4B2C491A880023184693424DD392
:102D50002A4B402219882A48FFF74EF9294B2A4866
:102D60001A882A4B42F000421968FFF745F9284BB0
:102D700008221988274B284C1868FFF73DF9FF23D4
:102D80000025E370012320486370A5622570A570BB
:102D900084F824506560A560E56025612562A58200
:102DA000E5822583658384F82550FFF74AF91B499E
:102DB00020632046FFF736F80422194B20461A708C
:102DC0005D60184B1A70DD601D619D82164B1C60A2
:102DD00002236370FFF718FE144A154B12781D701A
:102DE0005D70DA70BDE83840FFF780BA41F8230023
:102DF0000133ABE7E87A02002C340010B47A020009
:102E000000370010047B020068340010B07A020022
:102E1000B67A020034070010283B00108119000028
:102E2000D03A0010E83A0010203B0010E57A02008A
:102E30007836001008B51E4B1A6842F47F021A60FB
:102E40001B681B0203F07F43DB43B3FA83F3194A89
:102E5000DBB21268C3F10803C2F30222934298BFA7
:102E6000531C6FF08072144802FA03F3016803F0F8
:102E70007F4321F07F4213430360FFF773F80F4B4A
:102E80000028186012DBFF22012100F1604000F5EC
:102E9000644002701A6853099B0003F1604302F01A
:102EA0001F0203F5614301FA02F21A6008BD00BF78
:102EB00020ED00E00CED00E01CED00E0003B001018
:102EC0000321FFF7DDBD0000426810B57AB1FEF7BF
:102ED000CDFD0446FEF770FE012120466170FEF72D
:102EE000EBFF2146BDE810400348FEF7A7BD42882E
:102EF0000132428010BD00BFD03A00102DE9F74FDB
:102F00004FF0010A3A4C3B4AD4F80490DFF8E8B09D
:102F1000D4F80880676AA66AB9F1000F15D1DFF806
:102F2000D490DFF8D4A0B8F1000F22D14FF0010AFD
:102F3000DFF8C080DFF8C09077BB2E4FDFF8B88095
:102F4000002E3ED103B0BDE8F08FB9FA89F5C5F186
:102F50001F05EDB252F8250028B10121DBF8003041
:102F600001929847019A0AFA05F5E560A9EB05096F
:102F7000D2E7B8FA88F5C5F11F05EDB259F825007A
:102F800018B10221DAF800309847012303FA05F559
:102F9000E560A8EB0508C6E7B7FA87F5C5F11F0598
:102FA000EDB20F2D08D805F1200358F8230018B111
:102FB0000121D9F8003098470AFA05F5E5627F1B30
:102FC000BAE7B6FA86F5C5F11F05EDB20F2D08D8A0
:102FD00005F1200357F8230018B10221D8F800307A
:102FE0009847012303FA05F5E562761BA8E700BFC1
:102FF00080800240A81700106818001070B51E46A7
:103000004B1C044622D0124B124D1A6021F01F03B4
:10301000036001F01F0321F05F01A942436002D069
:103020000D48FEF779FC23686268AB420B4918BF74
:10303000203241F82260A2600949152000F00CFE00
:103040004FF40012074B00201A6070BD084670BD97
:103050006818001000C00920247B0200A817001087
:10306000FD2E000000E100E000218268014B43F8E2
:1030700022107047A817001010B50021044600F078
:1030800085FA012004F01F04A04010BD38B50546A4
:103090004B1C0C4629600FD00846FFF7EDFF24F0CB
:1030A0001F0404F11803EB6004F11C032B6104F10D
:1030B000140368606B61AC6038BD006800F07FBAD3
:1030C00011B1012907D0704782684168136823EA6B
:1030D0000103136070478268416813680B43F8E787
:1030E00008B5FEF77DFB0022044BC3F8C020044A5C
:1030F000136923F00403136130BF08BD00C00F4003
:1031000000ED00E008B5104B1868E0B901210F4A46
:103110001960D2F8C43043F40003C2F8C430A2F5F9
:10312000D022106702200A4B1B6850600948B3FB8D
:10313000F0F3013BD36004205160074900F08CFD9F
:103140001022064B1A6008BD6C18001000C00F401A
:103150000001001000093D005D16000000E100E0E4
:1031600008B5044B1B680BB9FFF7CCFF024B9868FE
:1031700008BD00BF6C18001000400940034B986167
:103180005A6942F001025A61704700BF004009408D
:10319000024A536923F0010353617047004009401C
:1031A0000122014B1A607047004009400168054B3D
:1031B0000A68120701D500207047013BF8D14FF093
:1031C000FF307047A18601003421036810B51A68EA
:1031D0009961120748BF08224FF024010446196084
:1031E00048BF9A61FFF7E2FF2022236858689A617E
:1031F00010BD0000102203681A6008229A61054A77
:10320000186810F0100000D17047013AF8D1012081
:10321000704700BFA1860100044B49001B689B0852
:10322000B3FBF1F1036859611961704700010010A7
:10323000F8B50E460446204930461546FEF7BEFA5C
:103240001E4907462846FEF7B9FA01463846FEF7FA
:1032500097FA1B4B2060984221D003F588239842AF
:1032600023D0A3F50423984206D1164AD2F8C430DD
:1032700043F08003C2F8C43020461349FFF7CCFF67
:103280003C22236830469A6140220B491A60FEF7BF
:103290005BFA2846BDE8F8400849FEF755BA094AE6
:1032A000D2F8C43043F40023E4E7064AD2F8C4302D
:1032B00043F08063DEE700BF907B0200547B020096
:1032C00000C0054000C00F40A08601002DE9F04E6F
:1032D00004460E4691461D46FFF776FF102809D09A
:1032E000082807D02046FFF785FF6FF00105284624
:1032F000BDE8F08E0827236846F001069E60204650
:103300009F61FFF753FF23685B68402B17D10026AE
:103310004FF0040B05F1FF3A5645236815DBC3F85F
:1033200018B020469F61FFF741FF23689A685B68E9
:10333000582B1ED02046FFF75DFF5546D7E72046A5
:10334000FFF758FF4FF0FF35D1E7C3F800B0204634
:103350009F61FFF72BFF23689A685B68502B04D0AE
:103360002046FFF747FF3546C1E709F8062001363A
:10337000D2E7089B09F80620002BB8D02046FFF7BB
:1033800039FFB4E72DE9F843089F04460E469146FD
:103390001D46FFF719FF102809D0082807D020463E
:1033A000FFF728FF6FF001052846BDE8F8834FF0CE
:1033B0000808236806F0FE069E602046C3F81880C1
:1033C000FFF7F4FE23685B68182B08D10026AE4295
:1033D0000BDB002FE8D02046FFF70CFFE4E7204688
:1033E000FFF708FF4FF0FF35DEE7236819F80620E6
:1033F00020469A60C3F81880FFF7D8FE23685B6800
:10340000282B04D02046FFF7F5FE3546CCE70136E1
:10341000DDE7000070B50D460646002128461BF08A
:103420004BFCE8B94FF07E5128461BF063FC08B115
:103430004FF07E550B4CA0691BF048FA29461BF053
:103440009DFA1BF087FCA36931799842336808BF65
:10345000013018600123226D8B401343236570BD3A
:103460000025E7E7008001400B4B10B51A680B4BB5
:103470004A43022159609A61996931B10068016833
:103480009C695143B1FBF4F101601A6D42F00102F5
:103490001A6509225A6010BD7018001000800140A2
:1034A0004FF47A735943FFF7DFBF000070B50D4644
:1034B0001D4E044631462846FEF780F91B4B20710D
:1034C000C0B253F820302360194BD3F8C42042F027
:1034D0004002C3F8C420D3F8A82122F44052C3F814
:1034E000A8210022A3F56423DA6002225A6100F1C8
:1034F00008020120D96C90400843D8640D4B0E4A55
:103500001B682046B3FBF2F30C4A44F620611360BB
:10351000FFF7AAFF20460021FFF77CFF314628462F
:10352000BDE87040FEF710B9CC7B0200E40000104B
:1035300000C00F400001001000093D00701800108D
:10354000084B1B685943084B9A699142026808BFAF
:103550000131116001220079196D82400A431A6518
:10356000704700BF701800100080014010B504467D
:10357000084605491BF002FA1BF0C6FB014620462F
:10358000BDE81040FFF7DCBF0024744910B50324E8
:1035900000F16040A0F51C2043000009800000F10C
:1035A000804000F53030026803F01E039C4022EAA0
:1035B00004020260026899401143016010BD00F1ED
:1035C0006040A0F51C2043099B0003F1804303F5F4
:1035D000303330B500F01F029C6EC1F3800505FA50
:1035E00002F224EA02049C669C6E22439A6695B914
:1035F000032443000009800000F1804000F53030D2
:10360000026C03F01E039C4022EA04020264026C76
:1036100099401143016430BD012810B408D002283C
:1036200008D010BC7047506820F00100506010E0D6
:1036300003460EE038230F4803FB010358680130AE
:1036400006D018699C68046093F83630002BEAD0E5
:103650000023382251430748421840580028E0D040
:103660001BB992F83620002ADBD0034A19461268AB
:1036700010BC10477C18001074180010034A002179
:103680009068C0F34200FFF7C7BF00BF00C0004012
:10369000034A01219068C0F34200FFF7BDBF00BF9D
:1036A00000000140034A02219068C0F34200FFF786
:1036B000B3BF00BF00800940034A03219068C0F3F4
:1036C0004200FFF7A9BF00BF00C0094070B50B461C
:1036D000066829498E4222D006DCA1F580418E423F
:1036E0000CD000210C460BE024498E421AD001F583
:1036F00080418E42F5D12249082401E00524214968
:103700009AB10125726805FA03F3134373602046EA
:1037100000F0A2FA1C4B05FA04F41C6070BD1B49B2
:103720000624EDE71A490724EAE7012B0AD042688C
:103730003820184900FB021292F8361092F8352012
:10374000D14217D1012202FA03F0B3FA83F3716870
:103750005B0921EA00017160716802FA03F30B4210
:1037600008D1094B02FA04F4C3F88040BFF34F8F2D
:10377000BFF36F8F70BD00BF0000014000800940A3
:10378000B93600007D36000000E100E0913600000F
:10379000A53600007C1800102DE9F04F644B04683A
:1037A00087B09C4200F08D806ADCA3F580439C4288
:1037B00079D0604B0801D3F800C0BCFBF0F293B2A3
:1037C00000FB12C2002A00F0AA800125E6469946B5
:1037D000AB464FF0000A0191039100264FEA4E03D9
:1037E0000493DDF804804FEA8E03EFB20593F3B241
:1037F0000093049B002BABBF059BB3FBF8F3B3FB1B
:10380000F8F31B09A8BF5B090133C3F34F03002B77
:1038100000F0888016B1012B08BF0223A819584375
:10382000C000BEFBF0F00130C1EB50000028B8BF73
:1038300040420290029A0398824262DA91425AD13F
:103840000F2D07D1BB469946DDF800A05F464B46D9
:10385000CDF800A0217B41F080012173C3F3072143
:10386000DBB221712370009B43EA0712D2B284F8C5
:103870002820237B03F07F03237307B0BDE8F08F7C
:103880002D4B9C4229D003F580439C4291D12B4B78
:10389000D3F8AC2122F44022C3F8AC21D3F8AC21F8
:1038A00042F4802224E0254BD3F8A82122F0C00264
:1038B000C3F8A821D3F8A82142F04002C3F8A821F8
:1038C00077E71E4BD3F8A82122F44072C3F8A82151
:1038D000D3F8A82142F48072F0E7184BD3F8AC215A
:1038E00022F44032C3F8AC21D3F8AC2142F4803248
:1038F000C3F8AC215DE7BB469946029ADDF800A00B
:1039000003920136F3B2BB428844FFF470AF0F2D2F
:103910009CD0019B01350B44E64401935DE70127F0
:10392000009297E7002E0CBF0123022376E700BF29
:1039300000000140000100100080094000C00F405D
:10394000034B1960382341684B430249CA50704702
:10395000741800107C18001010B50268137DDB0786
:10396000FCD5382443680848117804FB03035868E1
:10397000C9B2013006D058699B680360536843F0B0
:1039800001035360084610BD7C1800103821114A0D
:10399000436801FB0323DA69013209D01A6B1B6A01
:1039A00012681A4214D10368187DC0F38010704762
:1039B0000268127D920604D50022012083F834208B
:1039C000704793F834000F288CBF00200120704707
:1039D000002070477C18001038B504460D4620467C
:1039E000FFF7D4FF0028FAD038212368EDB21D700C
:1039F0006368044A01FB032393F83420013283F8FF
:103A0000342038BD7C1800102DE9F84F9A463C4C04
:103A100003680546A34218BF0024894690464768BC
:103A20001CB1237C03F03F03237438234FF0FF3293
:103A3000344E284603FB0763DA615A60002283F89C
:103A400035201146FFF742FEB9F1000F55D02E493F
:103A50004046FDF7A7FE2D4983465046FDF7A2FEDE
:103A6000A9F10203012B1BD8BAF1FF3F0BD0244B65
:103A700098420DD164B1237C244943F08003237420
:103A80005046FDF761FEB9F1030F0CD0BDE8F88F89
:103A9000382000FB076051461C30FDF7C4FDF2E7FB
:103AA000B9F1010F29D1B8F1FF3F01D1BDE8F88F7D
:103AB00007222B681A72124B9B450AD14CB1237C0A
:103AC000404643F0400323740F49BDE8F84FFDF72B
:103AD0003BBE382404FB0760414600220430FDF75A
:103AE000A5FD01226B68284604FB036686F8352095
:103AF0000021BDE8F84FFFF7E9BDBDE8F88F00BF32
:103B0000000001407C180010A47C0200807C0200B0
:103B10002DE9F0410F460546464938461646FDF761
:103B20004DFE454904463046FDF748FE0146204615
:103B3000FDF726FE414B0446984228605DD047D8E9
:103B4000A3F58043984250D001234FF00008237220
:103B50004FF416512846C4F80480FFF71DFE0322D7
:103B60002B6834491A733846FDF7EEFD324930466A
:103B7000FDF7EAFD7A1C03D041463846FFF71FFDEA
:103B8000731C03D000213046FFF719FD2B4B9C42DC
:103B90004BD03ED8A3F580439C4243D038216A687D
:103BA000274B284601FB02324FF0FF3300215360C0
:103BB000D3611A46FFF728FF224B9C4206D101220F
:103BC000214B69681A602868204B03C3BDE8F08167
:103BD0001F4B984217D003F580439842B4D11D4A39
:103BE000D2F8C43043F0007304E01A4AD2F8C4306B
:103BF00043F00803C2F8C430A6E7164AD2F8C4302E
:103C000043F01003F6E7134AD2F8C43043F0807350
:103C1000F0E70F4B9C420AD003F580439C42BDD194
:103C2000032300E000236B60B8E70123FBE70223D6
:103C3000F9E700BF347D0200C87C020000000140AB
:103C40007C18001000C00040781800106C3B001079
:103C50000080094000C00F4030B50C4CA268A46839
:103C60001346B4F1805F0CD2131F094C094A53F874
:103C7000045F42F8045FA242F9D14FF08053034A37
:103C80009360103043F8201030BD00BF00ED00E01D
:103C9000C0000010FCFFFF0F2022264BC3F8A0211C
:103CA000D3F8A021920603D5D3F8A0215006FBD566
:103CB0000222C3F8042100220120C3F8A821C3F87E
:103CC000AC210B22C3F80C01AA21C3F88420552291
:103CD000C3F88C10C3F88C20C3F88000C3F88C1094
:103CE000C3F88C20134B1A46D3F888104901FBD532
:103CF0000321C3F88010AA21C3F88C105521C3F802
:103D00008C10D2F8883013F0407FFAD00523C2F827
:103D10000831094BC2F8C4300023C2F8C831136817
:103D200023F4704323F03A0343F4405343F03A033F
:103D30001360704700C00F40DE87280400F0EEBB20
:103D4000A0F13000FFF7FABF00F0EBBBA0F13000AC
:103D5000FFF7FABF4FF0FF31443000F0B9BFA0F1D8
:103D60003000FFF7F7BF443000F0B5BFA0F13000DE
:103D7000FFF7F9BF38B504461D46049B00F0D8FB99
:103D8000294604F1300000F049F8064B04F14400E4
:103D900003F1080228332260236300F081FF2046EC
:103DA00038BD00BFA07D0200F8B50E46036804468A
:103DB0009B6B8F1835469847BD4207D0236815F88E
:103DC000011B1B6C204698470130F5D12368204623
:103DD000DB6B9847A81BF8BDF8B50E460368044690
:103DE0009B6B8F1835469847BD4208D02368204604
:103DF0005B6C9847431C02D005F8010BF4E723687D
:103E00002046DB6B9847A81BF8BD002070470020B8
:103E10007047704700207047002070471FB5044668
:103E2000002200F069FA094B22462360002308496A
:103E3000236101A81DF0F2F9064901A81BF0BEFBA1
:103E4000206100F0E8FD204604B010BD687E02004D
:103E5000587E02005C7E020010B50446054B0360EC
:103E600000691BF0BBF9044B2046236000F068FAA0
:103E7000204610BD687E0200187E02000EB477B5A1
:103E80000446036807AD55F8046B9B6B984720699F
:103E900001951BF05DFA019A314620691CF0BAF9D0
:103EA000054623682046DB6B9847284603B0BDE8EB
:103EB000704003B0704710B5044643694168194427
:103EC00000F08CFB636A04F118001B68BDE8104029
:103ED000184738B504460D46FDF798FC204600F01B
:103EE00083FB65612069FDF72CFC2918204600F052
:103EF00075FBBDE83840FDF79FBC7FB506466D46B3
:103F0000FDF784FC304600F06FFB002306F1180437
:103F1000AC4203930BD02046FDF714FA3CB1039B4F
:103F20001BB15B68694620469847039B736228462D
:103F3000FDF708FAFDF780FC04B070BD7047000083
:103F400070B50D4C23687BB90C4D4FF0FF312868DC
:103F5000FEF7BAFB236823B9261D304600F0A0FE09
:103F600026602868FEF7D8FB20684FF0FF31BDE8D7
:103F7000704000F0ADBE00BF5C190010CC3A0010DC
:103F800010B5044600F0A5FD204610BD70B50C4CE0
:103F900023687BB90B4D4FF0FF312868FEF794FB87
:103FA000236823B9261D304600F07AFE2660286873
:103FB000FEF7B2FB2068BDE8704000F08CBE00BF89
:103FC0005C190010CC3A0010074B10B503600023B9
:103FD00004464360054B04304360FFF729F9044B66
:103FE00020461C6010BD00BFCC7E0200A0860100F0
:103FF0007819001070B504460D4603681B68984791
:10400000201DA5602946FFF707F9044B20461C60D8
:104010002368BDE870405B68184700BF781900103E
:1040200070B504460368084D1B6898472B689C428E
:1040300004D0A168201DFFF7EFF82C60236820460C
:10404000BDE870405B68184778190010F7B5044662
:104050000E4617461D4603681B6898472046FFF723
:10406000DFFF9DF82030314683F0010300933A468C
:104070002B46201DFFF786F90646236820465B681D
:104080009847A81B18BF012003B0F0BDF7B5044640
:104090000E4617461D4603681B6898472046FFF7E3
:1040A000BFFF9DF82030314683F0010300933A466C
:1040B0002B46201DFFF70AF90646236820465B6859
:1040C0009847A81B18BF012003B0F0BD70B5044687
:1040D0000546094B00F1440644F8043B54F8040B30
:1040E00008B100F0F6FCB442F8D105F1480000F048
:1040F000F5FD284670BD00BFE47E020010B5044601
:10410000FFF7E4FF204600F0E4FC204610BD4FF02E
:10411000FF31483000F0DCBD483000F0DCBD00006D
:104120002DE9F0411C46274B90B0054640F8483B2E
:104130000F46164600F0B4FD02940024169B00972B
:104140000393179B01960493189B6C640593199B2A
:104150002F1D06931A9B07931B9B08931C9B099387
:104160001D9B0A931E9B0B931F9B0C93209B0D93EF
:10417000219B0E93229B0F935DF82480B8F1FF3FA3
:104180001DD0182000F080FC0646002118221BF0EC
:104190001DFE41463046FDF759FAB8F1FF3F47F89A
:1041A000046B05D0012303FA04F26B6C13436B64B8
:1041B0000134102CE0D1284610B0BDE8F081002673
:1041C000EBE700BFE47E020070B5044654F8043B00
:1041D00005469B680E469847002354F8042B42B1CD
:1041E00046FA03F111F0010F506814BFD26812694A
:1041F00010600133102BF0D12B682846BDE87040C9
:10420000DB68184710B50446FFF7DEFF204610BDF7
:10421000002310B5036043600A7804462F2A0DD1AD
:104220004A785AB1481C1946206023681A782F2A08
:1042300006D10133236000F0B9F86060204610BD5C
:10424000002AF8D0013301312360EEE7006870479F
:10425000406808B520B100F032F8431E584258417A
:1042600008BD10B50446FFF7F3FF00B1606810BD4C
:10427000406808B520B100F022F8B0FA80F040099B
:1042800008BD10B50446FFF7F3FF00B1606810BD2C
:104290004068003018BF01207047884238B5044696
:1042A0000D460AD0FDF74EF83CB1EB681BB15B68D8
:1042B000294620469847EB68E360204638BD007BDE
:1042C00070470000036870B5044683B9094D4FF08C
:1042D000FF312868FEF7F8F923682BB9261D02D0B4
:1042E000304600F0DDFC26602868FEF715FA2068ED
:1042F00070BD00BFCC3A001038B50E4B04460360C9
:1043000000230D464360A16002730B48FFF7DAFFFC
:104310004FF0FF3100F0DCFC55B1084B1A681C600F
:1043200062600548FFF7CEFF00F0D5FC204638BD9F
:104330006560F6E7FC7E0200801900107C19001011
:1043400010B50446114B03601148FFF7BBFF4FF057
:10435000FF3100F0BDFCA3682BB10E4A13689C42EC
:104360000ED1636813600A48FFF7ACFF00F0B3FC9E
:10437000237B13B9204600F0AFFB204610BD134647
:104380005A689442FBD162685A60ECE7FC7E0200F6
:10439000801900107C19001010B50446FFF7D0FFFB
:1043A000204600F096FB204610BD0000F8B50746F9
:1043B00010480E46FFF786FF4FF0FF3100F088FCF3
:1043C0000D4B1C6864B1A5688DB13246394628464C
:1043D0001DF05AFD58B928461DF04EFD864206D103
:1043E0000448FFF76FFF00F076FC2046F8BD6468D4
:1043F000E8E700BF801900107C190010704700002A
:1044000010B50446074B40F81C3BFEF72DFE04F1A7
:104410003800FCF797FF04F12800FCF793FF2046D3
:1044200010BD00BF0C7F020010B50446FFF7E8FF87
:10443000204600F04EFB204610BD00002DE9FF4154
:1044400005461C4B044645F8043B18220E462846F8
:1044500000211BF0BBFC0023DFF86480164FE361F2
:104460002362636263636364694604F12800CDF8E4
:1044700000800397FFF711FF6846FCF763FF69466A
:1044800004F13800CDF800800397FFF706FF684677
:10449000FCF758FF2346094A314604F11C00FEF799
:1044A000ADFD28463146FDF7BEF8204604B0BDE814
:1044B000F08100BF0C7F0200BC780200CB440000FA
:1044C000FD430000C3681B681847012908B502D0E6
:1044D000022904D008BD2830FFF7F4FF08BD3830AA
:1044E000FAE770477047704700EB0112936902F1D9
:1044F0000C001B68184770B505460E46044655F873
:10450000043B1B68984728463146FFF745F9236866
:10451000E6622046BDE870405B6818470430FFF74C
:104520001BBA10B50C460430FFF756FA204610BDF2
:104530002DE9FF410F46002104469046174A184EC8
:10454000184DC36202604160816081618162694689
:104550000C3003950096FFF7A0FE6846FCF7F2FECC
:10456000694604F11C0003950096251DFFF795FE92
:104570006846FCF7E7FE424639462846FFF7C8FA88
:10458000E16A2846FFF708F9284622460649FFF760
:10459000D7F9204604B0BDE8F08100BF1C7F0200BF
:1045A000E3440000BC780200E944000003689B6813
:1045B00018470000074B10B5036000234360836079
:1045C000C3600446FDF746F803492061FDF74CF847
:1045D000204610BD347F0200AD45000003460A4668
:1045E000011D0069FDF76CB8011D0069FDF789B870
:1045F00010B50446024B0360FFF7F6FF204610BDDE
:10460000347F020010B50446006930B10368616967
:104610005B6A98470023236110BD6FF0150010BD41
:1046200030B40446006903689D6A1346AC460A46E6
:10463000616930BC604730B4044600690368DD6AD4
:104640001346AC460A46616930BC6047036941695C
:104650001A681846126B1047036941691A681846B0
:10466000526B104730B40446006903689D6B1346D3
:10467000AC460A46616930BC6047036941691A6803
:104680001846D26B1047036941691A681846126CC4
:104690001047036941691A681846526C104770B593
:1046A0000D460169044641B929680E6A00F11401FA
:1046B0002846B04718B9256170BD6FF0150070BD70
:1046C000074B10B50360036904460BB1FFF79AFF6F
:1046D000044B20462360FFF733FE204610BD00BF89
:1046E000487F0200187E020010B50446FFF7E8FF7D
:1046F000204600F0EEF9204610BD0000002210B563
:1047000004461146FFF7F8FD034B204623600023C3
:104710002361636110BD00BF487F02001BF0B8BB7E
:104720001BF014BC1BF068BB1BF058BB70B50546F2
:104730004FF47A74FEF714FD95FBF4F4002C064652
:1047400002DDFDF75CF828B9FEF70AFD801BA842E0
:10475000FAD370BD204600F0A1FAF5E708B5044988
:104760001AF00CF91AF0D0FABDE80840FFF7DEBFE6
:10477000002474494FF47A735843FFF7D7BF000001
:10478000014B1868FDF7C8BFCC3A0010034B10B5B9
:1047900003600446FFF794FF204610BD947F02009B
:1047A00008B5084B1B685BB907490848084AFFF77A
:1047B000AFF94FF41651BDE808400448FEF7ECBFCE
:1047C00008BD00BF7818001002C009206C3B001023
:1047D00003C0092070470000022810B5044601DC20
:1047E000002010BD1AF0A2FC092300220360094B2F
:1047F000033C53F8240043F8242040B103681B69AC
:104800009847041EECDA1AF091FC644204604FF001
:10481000FF3010BD9C190010F8B505460E46144631
:104820001AF084FC0923022D03600FDC124B1B6875
:104830000BB9FFF7B5FF35463719104EBD4215D0FD
:1048400015F8011B3046FFF7C7F8F7E70C4B033D9F
:1048500053F8250060B103682246DB68314698476B
:10486000041E03DA1AF062FC634203602046F8BDBE
:104870004FF0FF34FAE700BF781800106C3B0010CF
:104880009C19001070B504460D4616461AF04EFCF1
:104890000923022C03600BDC0F4B1B680BB9FFF7DD
:1048A0007FFF0E48FFF758F801242870204670BD9E
:1048B0000B4B033C53F8240058B1036832469B6805
:1048C00029469847041EF1DA1AF030FC634203606F
:1048D000ECE74FF0FF34E9E7781800106C3B00106C
:1048E0009C19001010B504461AF020FC0923022C74
:1048F000036010DD0A4B033C53F8240040B1036809
:104900009B699847041E08DA1AF010FC64420460A0
:104910004FF0FF3010BD012010BD002010BD00BFC2
:104920009C19001070B504460D4616461AF0FEFBA1
:104930000923022C03600BDD084B033C53F82400D1
:1049400040B1036832462946BDE87040DB6918472C
:10495000002070BD4FF0FF3070BD00BF9C190010EB
:10496000022808B504DC4FF4005300204B6008BD5A
:104970001AF0DCFB092303604FF0FF3008BD08B5D7
:10498000FFF728FFFDF730F808BD704708B5FFF7BF
:10499000FCFFBDE80840FCF703BD00000C4A10B561
:1049A00013681844EFF30881884205D30C22094BA1
:1049B0004FF0FF301A6010BD07490C6824B1074959
:1049C000096821448842F1D21060184610BD00BF2A
:1049D00004010010743B0010B81A0010BC1A00103B
:1049E000094C08B52368054698681AF0B1FC23689D
:1049F000D8681AF0ADFCFCF7F1FE08B1FCF730FF07
:104A00000DB1FCF74DFFFEE7880100100120704753
:104A100008B5FFF7E5FF00211CF015BB08B5FCF752
:104A2000F1FF08BD08B5FCF7F5FF08BD08B5FCF7B8
:104A3000F7FF08BD08B5FCF7FBFF08BD10B503780C
:104A4000044603F00303012B0CD00A4B4FF0FF3157
:104A50001868FDF739FE237803F00302012A03D119
:104A6000FFF78EFE002010BD43F0020323700120EB
:104A700010BD00BFCC3A0010037823F0030343F0CD
:104A800001030370FFF77CBE10B51BF001F904466B
:104A900010B90248FCF740FF204610BDF77F020026
:104AA00010B51BF0F5F8044610B90248FCF734FFC6
:104AB000204610BDD87F020008B11BF0F1B8704746
:104AC00010B50446FFF762FE2046FFF7F5FF2046CB
:104AD00010BDFFF7F1BF000010B504460C48FFF70A
:104AE000F1FB4FF0FF3100F0F3F800231946094ABB
:104AF00052F82300A04208BF42F823100133402B94
:104B0000F6D10348FFF7DEFBBDE8104000F0E3B844
:104B10009C1A00109C1900102DE9F34789464E4954
:104B200006461CF00EFC044628B9FFF739FE204665
:104B300002B0BDE8F087494930461CF002FC18B9C4
:104B4000FFF72EFE0124F2E7454930461CF0F9FB41
:104B500018B9FFF725FE0224E9E71AF0E7FA09235E
:104B6000404F03604048FFF7ADFB4FF0FF3100F0CE
:104B7000AFF80024B84657F82450002D54D0013423
:104B8000402CF8D11AF0D2FA182303603648FFF708
:104B900099FB00F0A0F80DE031466846FFF738FBBE
:104BA0006846FFF775FB40B947F824001AF0BEFAD3
:104BB000022303604FF0FF34B9E76846FFF758FB64
:104BC00020B16846FFF75DFB05463FE06846FFF70A
:104BD00048FB824630B91AF0A9FA0223036047F86D
:104BE00024A0E7E71820FFF74FFF0646FFF786FDF2
:104BF0001E4B68463360FFF729FB29F480330246D9
:104C000051463046FFF74BFD071E0BDA1AF08EFABD
:104C10007F4207601EB1336830465B68984748F8AA
:104C20002450C7E7354611E04FF0FF330E4847F8F0
:104C30002430FFF747FB00F04EF833783A2BABD126
:104C40006A460B4930461CF00DFB009D002DE6D056
:104C500048F8245003346AE71C80020023800200D5
:104C6000148002009C1900109C1A0010947F02000E
:104C7000587E020038B50446FFF7C4FC05461CB157
:104C8000236820465B689847284638BD024B1B685E
:104C900003B11847704700BFC01A0010FDF784BC6D
:104CA00038B5044600F108051022002128461BF003
:104CB0008DF8204640F8045FFDF7E8FC206010B94D
:104CC0000248FCF729FE204638BD00BF2B800200B9
:104CD0000068FDF7F9BC0068FDF71EBD10B504467D
:104CE0000068FDF75FFD204610BD000080F30988D5
:104CF0007047EFF309807047684680F309883F48A2
:104D00000078C00714BF0220032080F31488704786
:104D1000DFF8ECC0EFF305831B0618BF6047EFF325
:104D20001483DB0708BF604700DF7047DFF8D4C09B
:104D3000EFF305831B0618BF6047EFF31483DB070F
:104D400008BF604700DF7047EFF30980816911F801
:104D5000021CF1B990E80F10E047EFF3098C8CE8E2
:104D60000700294B93E8060091420FD039B12CE996
:104D7000F00FC1F82CC00CB4FDF72CF90CBC1A6074
:104D8000D2F82CC0BCE8F00F8CF309886FF0020E4B
:104D9000704710B51D4A1268914209D81C4C54F84E
:104DA000214090E80F10A047EFF3098C8CE80F002A
:104DB00010BDFDF79BF8144B93E80600914210D00C
:104DC000EFF3098C2CE9F00FC1F82CC00CB4FDF7FF
:104DD00001F90CBC1A60D2F82CC0BCE8F00F8CF3BF
:104DE00009886FF0020E7047FDF7D6F8FFF7E3BFB2
:104DF000FDF7D0F8FDF7D0F8FFF7DDBFE67A020047
:104E0000432000005D200000203B00100000000057
:104E1000FCFFFFFF0649074A074B9A42BEBF51F805
:104E2000040B42F8040BF8E70448804704480047A5
:104E300048BC0200C8000010CC030010993C0000E0
:104E400099150000FEE7FEE7FEE7FEE7FEE7FEE756
:104E5000FEE7FEE7FEE7FEE72DE9F843334D0746A0
:104E60002B685A1C2A60002B5CD10122304C314B3C
:104E700031481A702368DFF8EC80996807F004FA6B
:104E800023682E48596807F0FFF92368DFF8D890A7
:104E9000D9682B482B4E07F0F7F92749404606F012
:104EA000CDF92649484600F0E7F82549304606F096
:104EB000C5F92349244806F0C1F93369C6F874805E
:104EC00043F4005333612368C9F8788099681F4818
:104ED00007F0EAF923681E48596807F0E5F92368E6
:104EE0001C4ED968DFF884801B4807F0DDF91B4CA5
:104EF0001649304606F0FCF91549404600F008F91D
:104F00001549204606F0F4F91349154806F0F0F962
:104F10002369C8F8786043F4005323612B686667FF
:104F200001332B603846BDE8F88300BF3420001001
:104F30008801001008010010141B0010C41A001092
:104F4000EC1A0010441C0010D01C00108C1B001028
:104F50003C1B00109C1F0010641B00107C1E0010E6
:104F60000C1F00105C1D0010B41B0010E81D001089
:104F70000D4A10B513680446591E022B116011D159
:104F80000A4806F091F90A4806F08EF9094806F039
:104F90008BF9094806F0E2F9084806F0DFF90848FD
:104FA00006F0DCF9204610BD342000105C1D001016
:104FB000441C0010D01C00109C1F00107C1E001010
:104FC0000C1F0010064B10B50360143383600023E0
:104FD00004464360083006F021FF204610BD00BFA4
:104FE00064800200036853F80C3C1844EAE700BFF1
:104FF000064B10B5036014338360002304464360FE
:10500000083006F015FF204610BD00BF9480020056
:10501000036853F80C3C1844EAE700BF10B5044697
:10502000FFF7D0FF2046FFF754FD204610BD036870
:1050300053F80C3C1844F1E710B50446FFF7D8FFCD
:105040002046FFF746FD204610BD036853F80C3C90
:105050001844F1E710B504460B680360486853F83C
:105060000C1C60500021616053F80C0C1146204468
:1050700006F046FF204610BD70B5044600F1080555
:1050800028460E4606F008FF054B284623601433D9
:10509000A36000233146636006F032FF204670BDF6
:1050A0006480020010B5044691B91368236089B981
:1050B00053F80C3C234479B952681A6000236360AA
:1050C0008B0703D504F1080006F0A8FE204610BDAA
:1050D000024BEBE70823EDE7014AEEE764800200AC
:1050E000788002000A460021FFF7DCBF10B50446B5
:1050F0000B680360486853F80C1C60500021616025
:1051000053F80C0C1146204406F05FFF204610BDFA
:1051100070B5044600F1080528460E4606F020FF4B
:10512000054B284623601433A36000233146636097
:1051300006F04BFF204670BD9480020010B5044677
:1051400091B91368236089B953F80C3C234479B9A9
:1051500052681A60002363608B0703D504F10800CE
:1051600006F066FE204610BD024BEBE70823EDE794
:10517000014AEEE794800200A88002000A4600215E
:10518000FFF7DCBF03689B6818477047704730B56E
:1051900000224FF0FF344FF0FF358260C0E9004538
:1051A000C26030BD82B08DE80C004FF0FF334FF08D
:1051B000FF32C0E90023002302B08360C360704760
:1051C00000207047002070474FF0FF3070470368A1
:1051D00010B55B6A04469847431C1EBFA36813F8CA
:1051E000010BA36010BD4FF0FF3070474FF0FF3050
:1051F00070477047704730B500224FF0FF344FF0D2
:10520000FF358260C0E90045C26030BD82B08DE8E4
:105210000C004FF0FF334FF0FF32C0E900230023B2
:1052200002B08360C3607047002070470020704761
:105230004FF0FF307047036810B55B6A044698472B
:10524000431C1EBFA36853F8040BA36010BD4FF0AE
:10525000FF3070474FF0FF307047000010B5044634
:10526000034B40F81C3B0EF061FC204610BD00BF14
:105270001481020010B50446034B40F81C3B0EF0AD
:1052800055FC204610BD00BF5481020010B50446F5
:10529000FFF7E4FF2046FFF71CFC204610BD10B5C9
:1052A0000446FFF7E7FF2046FFF713FC204610BD3A
:1052B0002DE9F04106460D469046002444451DDA8E
:1052C0007069B7693B1A0FD0A8EB04079F42A8BFCB
:1052D0001F4629463A461AF054FD73693C443D4442
:1052E000A0451F447761E9DD336829785B6B304660
:1052F0009847013002D001340135DFE72046BDE890
:10530000F0812DE9F04107460E46904600254545BF
:1053100020DA7869BC69241AA31011D0A8EB05041F
:105320009C42A8BF1C461CB1224631461FF0C1F862
:105330007B692544A4002644A8451C447C61E6DD25
:105340003B6831685B6B38469847013002D00135C5
:105350000436DCE72846BDE8F0812DE9F041064639
:105360000D469046002444451DDAB168F7687B1A63
:105370000FD0A8EB04079F42A8BF1F4628463A4615
:105380001AF0FFFCB3683C443D44A0451F44B7609D
:10539000E9DD336830469B6A9847431C03D0287088
:1053A00001340135DFE72046BDE8F0812DE9F04109
:1053B00007460E4690460025454520DAB968FC6848
:1053C000641AA31011D0A8EB05049C42A8BF1C4688
:1053D0001CB1224630461FF06CF8BB682544A4007F
:1053E0002644A8451C44BC60E6DD3B6838469B6A01
:1053F0009847431C03D0306001350436DCE728466B
:10540000BDE8F08103689B6918478368C16802465C
:105410008B4202D303689B6A184713F8010B936011
:1054200070478268C1688A4202D303685B6A184782
:105430001078704703681B6B18470000074B10B5C6
:1054400003600023044643608360C36003614361DB
:1054500083611C300DF022FC204610BD1481020037
:1054600003689B6918478368C16802468B4202D370
:1054700003689B6A184753F8040B9360704782686F
:10548000C1688A4202D303685B6A18471068704794
:1054900003681B6B18470000074B10B5036000231F
:1054A000044643608360C3600361436183611C30D1
:1054B0000DF0F4FB204610BD5481020008467047F1
:1054C0000846704710B50446074B40F8083B0EF0FD
:1054D0003FF8237B1BB1A06908B1FFF7EDFA204626
:1054E0000EF0B4FA204610BD5482020010B50446F6
:1054F000FFF7E8FF2046FFF7ECFA204610BD10B595
:1055000014460298521A1AF03CFC204610BD10B501
:1055100014461846521A1AF034FC204610BD0000FA
:1055200010B50446054B40F8083B0EF011F8044B4B
:10553000204623600EF08AFA204610BD84820200C5
:10554000D88C020010B50446FFF7EAFF2046FFF7AB
:10555000C0FA204610BDF0B505460024C1B00DF8D4
:1055600004400134B4F5807FF9D12B6805F11D06A4
:10557000DF6940AA334669462846B84701232246D8
:105580002B77314668461AF0EDFB08B102232B77E2
:1055900041B0F0BD003118BF0121074B10B541608B
:1055A000036004460EF06CFA0023A06023732046CB
:1055B00006F013F8204610BD848202000F4B10B590
:1055C00000F12401036000230A460446436083601F
:1055D000C360036143618361C3610362643013602C
:1055E000536008329042FAD10823A166636604F141
:1055F0006C000DF053FB204610BD00BFD8820200A6
:1056000070B505460E46846934B16368A2682946C0
:10561000304698472468F7E770BD38B5044680697E
:1056200040B1C3685A1EC26023B90568FFF751FA3A
:105630002846F5E70023A36138BD000010B50446F5
:105640000B4B00210360FFF7DBFF2046FFF7E5FF70
:10565000A06E04F12403984204D008B1FFF72CFA9D
:105660000023A36604F16C000EF060FA204610BD22
:10567000D882020010B50446FFF7E0FF2046FFF78E
:1056800028FA204610BD8368587C70478368987C50
:1056900070478368D86A7047836800201B6B82B0AC
:1056A000DAB262F30700C3F3072262F30F20C3F3F9
:1056B000074262F317401B0E63F31F6002B070478E
:1056C000836800205B6B82B0DAB262F30700C3F339
:1056D000072262F30F20C3F3074262F317401B0E49
:1056E00063F31F6002B070478368587C704783681B
:1056F000987C70478368D86A7047836800201B6B6A
:1057000082B0DAB262F30700C3F3072262F30F201C
:10571000C3F3074262F317401B0E63F31F6002B02E
:105720007047836800205B6B82B0DAB262F30700D7
:10573000C3F3072262F30F20C3F3074262F317405B
:105740001B0E63F31F6002B07047836893F8240058
:105750007047836893F82500704700207047002049
:10576000704770470020914204D211F8013B03EBCF
:105770007060F8E7704700000D4B10B5036090F8BB
:10578000433004467BB1806808B1FFF795F9606942
:1057900008B1FFF791F9E06908B1FFF78DF9606A88
:1057A00008B1FFF789F920460EF050F9204610BDE8
:1057B000388502000D4B10B5036090F84330044665
:1057C0007BB1806808B1FFF777F9606908B1FFF72E
:1057D00073F9E06908B1FFF76FF9606A08B1FFF784
:1057E0006BF920460EF032F9204610BD48850200C4
:1057F00010B50446024B03600EF028F9204610BD98
:10580000CC84020010B50446024B03600EF01EF972
:10581000204610BDE48402000B4B10B5036090F8E5
:10582000643004465BB1806808B1FFF745F96069F0
:1058300008B1FFF741F9E06908B1FFF73DF92046EB
:105840000EF004F9204610BD5885020010B504463C
:10585000024B03600EF0FAF8204610BD9083020060
:1058600010B50446024B03600EF0F0F8204610BD60
:10587000CC83020010B50446024B03600EF0E6F83C
:10588000204610BDFC83020010B50446024B0360A5
:105890000EF0DCF8204610BDFC84020010B5044672
:1058A000024B03600EF0D2F8204610BD10850200B6
:1058B00010B50446FFF760FF2046FFF70AF92046BF
:1058C00010BD10B50446FFF775FF2046FFF701F93C
:1058D000204610BD10B50446FFF78AFF2046FFF7AB
:1058E000F8F8204610BD10B50446FFF78BFF2046A0
:1058F000FFF7EFF8204610BD10B50446FFF78CFF08
:105900002046FFF7E6F8204610BD10B50446FFF725
:105910009DFF2046FFF7DDF8204610BD10B5044678
:10592000FFF79EFF2046FFF7D4F8204610BD10B5C4
:105930000446FFF79FFF2046FFF7CBF8204610BD37
:1059400010B50446FFF7A0FF2046FFF7C2F8204637
:1059500010BD10B50446FFF7A1FF2046FFF7B9F8C8
:10596000204610BD13B504468B6801AA996806F05D
:10597000F9F9204602B010BD13B504468B6801AAA0
:10598000596906F0EFF9204602B010BD13B5044680
:105990008B6801AAD96906F0E5F9204602B010BD6E
:1059A00013B504468B6801AA596A06F0DBF9204654
:1059B00002B010BD13B504468B6801AA996806F0C1
:1059C000D1F9204602B010BD13B504468B6801AA78
:1059D000596906F0C7F9204602B010BD13B5044658
:1059E0008B6801AAD96906F0BDF9204602B010BD46
:1059F00013B504468B6801AA596A06F0B3F920462C
:105A000002B010BD13B504468B6801AA996806F070
:105A1000A9F9204602B010BD13B504468B6801AA4F
:105A2000596906F09FF9204602B010BD13B504462F
:105A30008B6801AAD96906F095F9204602B010BD1D
:105A400010B50446044B40F8083B0DF081FD20469C
:105A50000DF0FCFF204610BD8484020010B5044602
:105A6000FFF7EEFF2046FFF734F8204610BD000098
:105A700010B50446044B40F8083B0DF069FD204684
:105A80000DF0E4FF204610BD5083020010B504461F
:105A9000FFF7EEFF2046FFF71CF8204610BD000080
:105AA00038B50D4B0569036004460DF0F3FF8542E0
:105AB00003D015B12846FEF7FFFFA06810B10368B8
:105AC0005B68984704F10C000DF042FD20460DF094
:105AD000BDFF204638BD00BF0C84020010B504464F
