:10000000008000103D5100006D5100006F51000054
:100010007151000073510000755100000000000094
:10002000000000000000000000000000715000000F
:100030007951000000000000DB5000001151000069
:100040007F5100007F5100007F5100007F51000070
:100050007F5100007F5100007F5100007F51000060
:100060007F5100007F5100007F5100007F51000050
:100070007F5100007F5100007F5100007F51000040
:100080007F5100007F5100007F5100007F51000030
:100090007F5100007F5100007F5100007F51000020
:1000A0007F5100007F5100007F5100007F51000010
:1000B0007F5100007F5100007F5100007F51000000
:1000C0007F5100007F5100007F51000010B5054CAA
:1000D000237833B9044B13B10448AFF300800123F4
:1000E000237010BDD0030010000000005CBF0200B0
:1000F0000C4B43B10C4810B50C49AFF300800C48D1
:10010000036823B910BD0A48036833B97047094B27
:10011000002BF7D0BDE810401847064B002BF5D058
:10012000184700BF000000005CBF0200D4030010AD
:10013000D00300100000000070B50546094B0646CC
:1001400045F80C3B5DB100F12C04AC4207D0103CEB
:10015000E368002BF9D09B6820469847F5E73046C6
:1001600070BD00BF3C82020010B50446084B44300D
:1001700040F8443C203340F8143C04F043FF04F1C1
:10018000300003F05DFF2046FFF7D6FF204610BD8C
:10019000C8800200A0F13000E6E700BF10B50446B9
:1001A000FFF7CAFF204604F028FE204610BD10B518
:1001B0000446FFF7D9FF204604F01FFE204610BD7D
:1001C000A0F13000F3E700004FF4165313B5084CCC
:1001D0000093084A00230849204603F0BFFE20464A
:1001E000064A074902B0BDE8104004F0A1BD00BFB7
:1001F000EC03001003C0092002C00920C800001051
:10020000690100004FF07E5370B50360174B0E4636
:100210004360174B04468360164B00F11805C3601A
:10022000154B03611423436101F0D6FB3146284688
:1002300003F022FA01F0E6FB666901F0CDFB3146DE
:10024000284603F013FA01F0DDFBE3682362266A17
:1002500001F0C2FB2846314603F06EFA01F0D2FBF2
:100260000023204684F8243070BD00BF0000A04168
:1002700017B7D13927A0093B7910463970470000DC
:1002800070B50446006AE1681EF0BEFE28B1184948
:10029000184803F0F9FE002070BD256A04F1180625
:1002A000E16828461EF0A6FE70B101F095FB2946D4
:1002B000304603F041FA01F0A5FB256294F82430A2
:1002C0006BB1002384F82430206A1EF077F80246D0
:1002D0000B460848084903F0D7FE012070BD20688E
:1002E00004F0CEFB284621691EF0D4FB0546D7E773
:1002F000A47B020078040010B97B020070B50446AC
:10030000006AA1681EF076FE28B11849184803F06B
:10031000BBFE002070BD256A04F11806A1682846BE
:100320001EF072FE70B101F057FB2946304603F013
:1003300003FA01F067FB256294F824306BB10023C7
:1003400084F82430206A1EF039F802460B4608482B
:10035000084903F099FE012070BD206804F090FB6D
:10036000284621691EF094FB0546D7E7DF7B020093
:1003700078040010F67B02000123034980F8243042
:10038000024803F081BE00BF927B02007804001097
:1003900073B50469066A8168054620461EF07AFB3B
:1003A000014630461EF026FEE0B92146E8681EF000
:1003B0006FFB2E6A014630464FF001041EF024FE0A
:1003C00000B9044684F00104E4B2286A1DF0F6FF87
:1003D000009402460B460448044903F055FE2046AB
:1003E00002B070BD0224F0E778040010707B0200B8
:1003F0004FF4165313B5084C0093084A00230849DC
:10040000204603F0ABFD2046064A074902B0BDE88E
:10041000104004F08DBC00BF4804001003C0092048
:1004200002C00920C8000010690100000368DB69F0
:10043000184703685B69184703689B6A1847704749
:1004400070474FF0FF307047C0F8A810C0F8AC20DC
:1004500070470000F8B504460F46124D00F14406FF
:100460000911304603F0D4FF284604F009FBE36B82
:10047000226B28461A6004F003FBA36B226B3946FB
:100480001A60304603F0C4FF284604F0F9FAE36B23
:10049000226B28461A6004F0F3FAA36B226B1A60F1
:1004A000F8BD00BFACC52738426A83691360FFF707
:1004B000D1BF000010B501210446FFF7F5FF044845
:1004C00004F0DEFA0023C4F8A830C4F8AC3010BD44
:1004D00045F5D63A2DE9F0410446254688461746AB
:1004E0008EB000211E4603F08DFD304B182245F8DA
:1004F000143B002128461FF031FE2846414604F1F6
:100500002C0501F089F91822002128461FF026FE4B
:100510002846394601F080F94FF0FF330C930B93D6
:100520000A930993089307930693059304930393FF
:1005300002930193169B31460093149A159B04F184
:10054000440003F0F3FE9DF85C30226B84F8A43085
:10055000A36B17481A60A269636A03251A6004F046
:100560008FFA144E03212046FFF774FF304604F043
:1005700087FA013DF6D102212046FFF76BFF0E48B6
:1005800004F07EFA20462821FFF78EFF20460C213A
:10059000FFF78AFF06212046FFF786FF2046FFF778
:1005A00089FF20460EB0BDE8F08100BF287C020024
:1005B0008FC2753C45F5D63AACC52738026A8369C7
:1005C0001360FFF747BF90F8A430012B10D0032B26
:1005D00014D1032A0CD8DFE802F00E02050801F15D
:1005E000C000704701F19400704701F1D4007047DA
:1005F000282000FB021101F180007047901C01EBE4
:100600008010704738B504461D46FFF7DCFF0146F1
:100610002046FFF749FF29462046BDE83840FFF74E
:10062000CDBF90F8A430023B012B8CBF10201420CA
:10063000704790F8A430032B0CBF042002207047B1
:100640000A2938B504460D4610D10023D0F8AC2055
:10065000C0F8A8300132C0F8AC20FFF7EAFF8242B0
:1006600002DB0023C4F8AC30284638BD0B46D0F876
:10067000AC20D0F8A810FFF7C5FFD4F8A82020467A
:100680000132C4F8A820FFF7CCFF8242ECDB002344
:10069000D4F8AC20C4F8A8300132C4F8AC2020460D
:1006A000DBE7000010B50446044B40F8443B03F080
:1006B00013FE204603F0C4FC204610BD287C020037
:1006C00010B50446FFF7EEFF204604F096FB2046E7
:1006D00010BD000010B5044603F07CFD20460B4918
:1006E00003F08EFD00232046C4F89030C4F8943007
:1006F000C4F89830C4F89C30C4F8A030C4F8A430D2
:10070000C4F8A830C4F8AC3010BD00BFA08601000A
:10071000002380F88C3080F88D30C0F89030C0F81D
:100720009430C0F89830C0F89C30C0F8A030C0F8C1
:10073000A430C0F8A830C0F8AC3070472DE9F041C3
:1007400090F88D10042903DC00231846BDE8F081E1
:100750004B1E1F2B00F297800C3100F10C03441844
:1007600013F8016B0A2E0CDD93F81FC0BCF10A0FC1
:1007700007DD93F83F500A2D03DD93F85F200A2A26
:1007800002DC9C42ECD1DFE7002EDDD0BCF1000F93
:10079000DAD0002DD8D0002AD6D0014411F8017C3F
:1007A0004C1E0A2F0DDD94F82080B8F10A0F08DDE9
:1007B00094F840E0BEF10A0F03DD94F860300A2B94
:1007C00008DC0E390B1A002B2146E7DA00239E467F
:1007D00098461F466424A7EB08016143474491FBF8
:1007E000F7F7A6EB0C016143664491FBF6F6BF1BDD
:1007F000AEEB03066643734496FBF3F3AE1A744301
:100800002A4494FBF2F2D0F890409A1AD0F894302F
:100810003C441344312CC0F89040C0F894303BDD88
:100820000124312BC0F898403CDD0123D0F89840DA
:10083000C0F89C3007F11303002C46D1D0F89C403F
:10084000002C42D1262B3FF67FAF02F11303262B5B
:100850003FF67AAF67BB5ABBD0F8A0300133C0F87F
:10086000A030D0F8A030092B7FF76EAFD0F8A430BD
:10087000012B7FF769AF012307BB002A7FF465AF27
:10088000C0F8A83061E700239E4698461F461A46E6
:100890001D469C461E469DE73134B4BF4FF0FF34E1
:1008A0000024BEE73133B4BF4FF0FF330023BDE770
:1008B000D0F8A4300133C0F8A430D2E7002A3FF4C6
:1008C00044AF0222C0F8A8203FE7262B3FF63CAFFA
:1008D00002F11303262B3FF637AF2FB922B9D0F818
:1008E000A0300133C0F8A030D0F8A030092B7FF73A
:1008F0002BAF0023C0F89830C0F89C30C0F890307F
:10090000C0F8943021E7D0F8A830012B04D105229B
:10091000C0F8AC2018467047022B04D10623C0F85B
:10092000AC300123F6E7D0F89830591C04D1D0F848
:100930009C30B3B90323F2E7012B04D1D0F89C30EB
:10094000FBB90423EBE7002B4BD1D0F89C20012A04
:1009500001D10223E3E70132DCD10123C0F8AC303E
:10096000D8E7012B1DD1D0F8903083EAE372A2EBD7
:10097000E372D0F89430002BB8BF5B429A42D9DCC6
:10098000E7E75A1C1DD1D0F8903083EAE372A2EB5E
:10099000E372D0F89430002BB8BF5B429A42D0DCAF
:1009A000DBE701331DD1D0F8903083EAE372A2EB8C
:1009B000E372D0F89430002BB8BF5B429A42B9DCA6
:1009C000CBE7012B0DD1D0F8903083EAE372A2EB94
:1009D000E372D0F89430002BB8BF5B429A42B8DD86
:1009E000AFE7002396E71FB500238DF80C108DF8B4
:1009F0000D20009303AA0223722103F02DFCB0FA0C
:100A000080F0400905B05DF804FB0A4608B5A02156
:100A1000FFF7E9FF003018BF012008BD0A4608B5FE
:100A2000A121FFF7E0FF003018BF012008BD38B555
:100A3000CAB20C4684210546FFF7D5FF38B1220A19
:100A400085212846FFF7CFFF003018BF012038BDB1
:100A500038B5CAB20C4686210546FFF7C4FF38B147
:100A6000220A87212846FFF7BEFF003018BF012069
:100A700038BD0A4608B58921FFF7B5FF003018BF19
:100A8000012008BD0A4608B58B21FFF7ACFF0030F6
:100A900018BF012008BD7FB50124FF23154604AA15
:100AA00002F8011D8DF80E3000942346722106468F
:100AB00003F0D2FB00230DF10E02009372212346B6
:100AC000304603F0E9FBB0FA80F09DF80E304009A3
:100AD0002B7004B070BD07B580210DF10702FFF740
:100AE000DAFF20B19DF8070003B05DF804FBFF209A
:100AF000FAE770B505460E461446FFF7ECFFFF28EF
:100B00001BD0062E04F0010410DC0123B34054B1C5
:100B10001843C0B2024680212846FFF764FF003028
:100B200018BF012070BD20EA0300F2E7072EF1D1C3
:100B3000002C14BF7F200020ECE7002070BD0122B4
:100B40000021FFF7D6BF07B5AF210DF10702FFF770
:100B5000A2FF30B19DF8070000F0010003B05DF87E
:100B600004FB0120F8E708B500230A460B709C211E
:100B7000FFF791FF003018BF012008BD37B50D46C3
:100B80000DF107028F210446FFF785FF78B19DF82C
:100B900007208F2102F03F0242EA8512D2B220469E
:100BA0008DF80720FFF71FFF003018BF012003B0AA
:100BB00030BD37B50C460DF107028F210546FFF712
:100BC0006AFF80B19DF80720A40002F07B0204F0C8
:100BD0000C0422438F2128468DF80720FFF703FFDE
:100BE000003018BF012003B030BD37B50C460DF101
:100BF00007028F210546FFF74EFF78B19DF80720C9
:100C000004F0030422F0430222438F2128468DF88A
:100C10000720FFF7E8FE003018BF012003B030BD09
:100C200037B50C460DF1070290210546FFF733FF5B
:100C300080B19DF80720240102F0170204F030046F
:100C40002243902128468DF80720FFF7CCFE003084
:100C500018BF012003B030BD37B50C460DF10702B7
:100C6000A3210546FFF717FF80B19DF80720640117
:100C700022F0180204F060042243A32128468DF8D4
:100C80000720FFF7B0FE003018BF012003B030BDD1
:100C900037B50C460DF10702A3210546FFF7FBFE11
:100CA00080B19DF80720E40022F0300204F018041F
:100CB0002243A32128468DF80720FFF794FE003039
:100CC00018BF012003B030BD37B50C460DF1070247
:100CD000A3210546FFF7DFFE78B19DF8072004F059
:100CE000070402F058022243A32128468DF807206A
:100CF000FFF779FE003018BF012003B030BD07B503
:100D0000AB210DF10702FFF7C6FE30B19DF80700D9
:100D1000C0F3400003B05DF804FBFF20FAE737B5ED
:100D20000C460DF10702AB210546FFF7B4FE80B17A
:100D30009DF80720640022F0420204F002042243DE
:100D4000AB2128468DF80720FFF74DFE003018BF75
:100D5000012003B030BD13B592210DF10702044606
:100D6000FFF799FE10B9002002B010BD9DF80730C2
:100D7000AB2B01D09C2BF6D1002207212046FFF798
:100D8000B8FE0028EFD0F62283212046FFF72BFE85
:100D90000028E8D087228E212046FFF724FE002875
:100DA000E1D000229D212046FFF71DFE0028DAD069
:100DB00000229E212046FFF716FE0028D3D0602295
:100DC0008D212046FFF70FFE0028CCD000212046C1
:100DD000FFF7D4FE0028C6D002212046FFF7E9FE27
:100DE0000028C0D001212046FFF7FFFE0028BAD01E
:100DF00000212046FFF73DFE0028B4D032212046D6
:100E0000FFF740FE0028AED04FF6FF712046FFF7F7
:100E10000EFE0028A7D000212046FFF719FE00286B
:100E2000A1D011228C212046FFF7DDFD00289AD0A9
:100E3000012290212046FFF7D6FD002893D0002202
:100E40009F212046FFF7CFFD00288CD02821204687
:100E5000FFF7DBFD002886D01E212046FFF7DEFDD0
:100E6000002880D04022A2212046FFF7BCFD0028A8
:100E70003FF479AF02212046FFF7EEFE00283FF451
:100E800072AF00212046FFF703FF00283FF46BAF4D
:100E900001212046FFF718FF00283FF464AF00222D
:100EA000A4212046FFF79FFD00283FF45CAF0022FD
:100EB000A5212046FFF797FD00283FF454AF0022FC
:100EC000A7212046FFF78FFD00283FF44CAF0022FA
:100ED000A9212046FFF787FD00283FF444AFC9222F
:100EE000A6212046FFF77FFD00283FF43CAF0022FB
:100EF000AA212046FFF777FD00283FF434AF0021F8
:100F00002046FFF70CFF2FE737B50C460DF107021F
:100F1000AB210546FFF7BFFD78B19DF8072004F02F
:100F2000010422F039022243AB2128468DF8072024
:100F3000FFF759FD003018BF012003B030BD38B5B0
:100F40000D460446FFF7E4FBFF228321FFF74BFD2C
:100F500070B389228E212046FFF745FD40B303215F
:100F60002046FFF75DFE18B305B301212046FFF7C9
:100F7000D6FEE8B101212046FFF7C6FFC0B12046EA
:100F8000FFF7DDFDA0B1012203212046FFF7B1FDEF
:100F900070B1012202212046FFF7ABFD40B120468F
:100FA000BDE8384001220621FFF7A3BD2946DDE751
:100FB000002038BD7FB51C460123164604AA02F85E
:100FC000011D00937221054603F046F900233246C5
:100FD000009372212346284603F05EF9204604B0B0
:100FE00070BD0023F0B5A3B004468DF80630FFF7BE
:100FF000AAFD18B90022104623B0F0BD2046FFF725
:101000006AFD10F0410FF5D01E2003F045FD0DF1F3
:101010000702AF212046FFF73EFD08B9FF22EAE7AD
:101020009DF80730DB0743D50DF10602AE212046BF
:10103000FFF731FD0028F1D09DF80630002BE3D0FA
:1010400002AD9B002A46FC212046FFF7B3FFC0B249
:101050000328D9DD002694F88D7094F88C30FF1A9F
:10106000A95DE2181173A91991F801E0013382F822
:101070002CE091F802E0C978DBB2043682F84CE04B
:1010800082F86C10B04203EB0702D2B2E8DC84F8BD
:101090008C3084F88D202046FFF750FB10B120469D
:1010A000FFF731FC002384F88C3084F88D30ABE7F7
:1010B0001E2003F0F1FC2046FFF725FC2046D4F863
:1010C000AC20FFF725FB96E710B5054C204604F051
:1010D00057F82046BDE81040024A034903F028BEF5
:1010E000A4040010C8000010995200004FF076537D
:1010F00010B50360902304464360103003F06AF893
:10110000204610BD7047012307B503726023437268
:10111000A02383720023009300F108024168032397
:10112000103003F099F803B05DF804FB73B50025A7
:101130000446057200F11006009500F108024168AE
:101140000123304603F088F80095022304F10B02D6
:101150006168304603F0A0F802B070BD10B50446D7
:10116000FFF7E4FFE37A207B00EB032000111DF082
:1011700045FD21681DF096FD1DF020F90022074B6A
:101180001DF070F90022064B1DF096FA0022054B67
:101190001CF0B6FF1DF028FC10BD00BF000022406F
:1011A00000001440000040400368184708B10B6875
:1011B000036070477047704708B50348FFF7CEFFDC
:1011C000024B186008BD00BF9006001060070010B9
:1011D00010B51B4C1B482378042B2ED8DFE803F0F6
:1011E000030A10161C0002F03DFF212823D1012321
:1011F000237010BD02F036FF42281CD10223F7E70E
:1012000002F030FF104B18600323F1E702F02AFFD1
:101210000E4B18600423EBE702F024FF0A4B0B4A45
:101220001B68126813446333DB43DBB2984202D17C
:101230000122074B1A700023DAE702F013FFFAE7E6
:101240005C070010D8040010B0060010AC060010B7
:10125000B406001010B5054C2046FFF72BF92046C8
:10126000BDE81040024902F00FBF00BFB8050010F2
:101270007C7C020070B50546084C012220460A21FC
:10128000FFF7E2F828461DF099F802460B46204683
:10129000BDE87040024902F0F7BE00BFB80500107B
:1012A000447D020038B50546054C2046FFF702F99B
:1012B0002A462046BDE83840024902F0E5BE00BF9C
:1012C000B80500108B7C0200013803280CD8DFE839
:1012D00000F0020205080548FFF74EB80348FEF784
:1012E000CFBF0248FFF70AB8704700BF680600107A
:1012F00010B51B4886B0FFF774FE04460DF10701D8
:101300001748FFF730FC22461649174802F0BCFE8A
:101310009DF807201549144802F0B6FE631E052B00
:101320001CD8DFE803F0031113151719104902A8A0
:1013300020F0DBF902A8FFF7B5FF2046FFF7C4FF56
:10134000FFF788FF06B010BD0A49F0E70A49EEE74B
:101350000A49ECE70A49EAE70A49E8E70A49E6E701
:10136000040500108E7C020030070010A77C0200EC
:10137000B97C0200C27C0200CB7C0200007D02002E
:10138000D37C0200E07C0200EE7C02001FB5144812
:10139000FFF7E1FC044648B91249684620F0A5F978
:1013A0006846FFF77FFF204604B010BD01210C48BE
:1013B000FFF7C5FD044608B90B49EEE70848FFF7FB
:1013C0009EFC0A4902460A4802F05EFE0448FFF706
:1013D00008FE08490246064802F056FEE3E700BF51
:1013E000040500100A7D0200147D02001C7D02002D
:1013F00030070010367D020008B50748FFF7A3FB51
:1014000048B1FFF775FF054803F0AAF9BDE80840A9
:10141000024803F06CB908BD040500106407001011
:1014200010B5134C22780AB3124B1A68352A0CD126
:101430001148FEF725FF00231048237003F090F9B0
:10144000BDE810400D4803F052B91A68362A03D19E
:101450000948FEF753FFEEE71A68372A02D01B68E7
:10146000382BE8D10448FEF787FFE4E710BD00BF42
:10147000B4060010B00600106806001064070010E3
:101480001FB5134C134B206819681DF0C7FDD0B170
:10149000114803F059F911491DF0C0FD98B11048E9
:1014A000FEF776FF02280BD00E49684620F01DF9A2
:1014B0006846FFF7F7FE0A48FEF720FFFFF7CAFE6F
:1014C000054803F04DF92068FFF7D4FE04B010BDC5
:1014D00060070010CC0000106407001000002041DD
:1014E00068060010FB7C0200C36810B504460BB10F
:1014F0009B689847204610BD38B505460446064B04
:1015000045F8183B02F0FFFD2846FFF7EDFF2046A7
:1015100003F000FA204638BDD881020010B5044619
:10152000FFF7EAFF204603F068FC204610BD38B5FF
:10153000CB6804460D460BB15B689847EB682046C4
:10154000E36038BD00B54FF4165189B0204803F070
:101550002DF92049204802F097FD2048FEF7AAFF08
:10156000FFF778FE1E48FFF7CEFD1E4CFFF70EFF7B
:101570001D4B694604A800930394FFF7D8FF1B484E
:10158000FFF7B2FF04A91948FFF7D1FF184919481E
:1015900002F0A5FD04A8FFF7A7FF6846FFF7A4FF28
:1015A000154803F0A4F8154B1548002204A904932C
:1015B000079403F057F904A8FFF796FFFFF71CFF05
:1015C000FFF72EFFFFF75CFF642003F065FAF5E7F5
:1015D000000700104A7D020030070010B805001017
:1015E00090060010707C0200B91100008C070010FA
:1015F000404B4C007407001064070010D11100002C
:10160000A80400102DE9FF410026394B394D029303
:10161000013301930133384C009303960133374A69
:1016200037492846FEF756FFDFF83481354F284604
:10163000354D2246354903F07BFB42463946284664
:10164000FFF754FD22463249284603F071FB42461B
:101650004FF416582F4D39462846FFF73BF82846D9
:101660002D4D22462D4903F063FB2D492846FEF7F8
:10167000C9FD28462B4D22462B4903F059FB2B4F21
:101680003346CDF800802A4A2A49284602F066FCF3
:101690002846294D2246394603F04AFB3346CDF809
:1016A0000080264A2649284602F058FC2846254D47
:1016B0002246394603F03CFB284603F00DF9224B45
:1016C00022462B606E6221492846214D03F030FBF3
:1016D000204803F053F82049284602F0B5FF22467F
:1016E00028461E4904B0BDE8F04103F021BB00BF0D
:1016F00042C00920B8050010C80000103FC00920F2
:1017000011C0092000C0092090060010A5060000A5
:10171000051100000405001068060010B711000054
:1017200040C00920A80400107D02000069010000EB
:101730000BC009200AC009200007001003C00920BF
:1017400002C0092074070010D8810200F9140000BB
:10175000B80600106407001009C009200D460000FB
:1017600001C009200748084A08B5121A00211EF0D6
:10177000F5FC03F096FA1EF009FB03F099FA03F06A
:10178000D9FA00BFD0030010F03B0010022801DDA1
:1017900003F03ABA0120704708B5012003F0CAFAF5
:1017A00008B5FFF7F9FF70B50E460446154601F07F
:1017B00053FD013609D02046002101F067FD29467E
:1017C0002046BDE8704001F05EBD70BD38B50446EE
:1017D0000D4643685AB1C26820461360012101F0EA
:1017E00055FD29462046BDE8384001F04CBD026950
:1017F000F2E70322FFF7D7BF70B50E460446154641
:1018000001F02AFD013606D02A462046BDE8704088
:101810000221FFF7DBBF70BD0022FFF7EDBF000024
:1018200000487047707D0200014800F00CB800BF0E
:10183000707D020038B504460D4603681B68984762
:1018400063681D6038BD036870B5DB68044698475F
:1018500063685A6823681AB99B68BDE870401847E6
:101860005B68156898476368281A00285A6807DC7F
:10187000916859601B68002BEAD050689847E7E7E9
:10188000236810681B69BDE870401847F8B5064624
:101890000C461F46154600F09FF80021706884E84A
:1018A000A000436853B9A36079B9336844601B69E9
:1018B00028469847BDE8F84000F0A4B81A68AA1A6C
:1018C000002AF0DB19469B68ECE78C60F2E738B53C
:1018D00005460C4600F080F86A685368A3420ED1B2
:1018E0009B6853602A682BB993689847BDE83840D5
:1018F00000F088B8126918689047F7E71346002B84
:10190000F4D09A689442F9D1A2689A60EEE703682D
:101910005B68184710B5044601300DD110BD9C42DC
:1019200009D12046896801F017FF2046BDE8104024
:10193000022101F02ABF0C310B685A1CEFD102487A
:10194000BDE8104000F0CEB8BD7D0200884208B569
:1019500008D0431C06D0013106D0044800F0C2F87C
:101960004FF0FF31084608BD0146FBE78C7D0200C1
:101970000B685A1C01D118467047834201D1486850
:1019800070470C31F4E70000421C10B5044607D044
:10199000FFF7EEFF431C044602D1024800F0A2F814
:1019A000204610BD9D7D020000F04CB808B500F047
:1019B00049F838B100F04EF830B900F043F800288B
:1019C000FBD108BD4FF0FF3008BDEFF31080C043DE
:1019D00000F001007047000008B5FFF7F6FF72B68F
:1019E000064B1A6822B980F00100054AC0B2107097
:1019F0001A681A6801321A6008BD00BFA8070010F3
:101A0000A407001008B5074B1A6852B1FFF7DDFFB5
:101A10001A68013A1A601B681BB9034B1B7803B99B
:101A200062B608BDA8070010A407001030B585B045
:101A30006D46182420462946ABBE0446204605B014
:101A400030BD0000024B186800F00100704700BF75
:101A5000F0ED00E037B540F2051401AD204629460F
:101A6000ABBE0446204603B030BD000000B599B0BF
:101A7000FFF7B2FF17496846FFF7CEFE164906A8E2
:101A8000FFF7CAFE15490CA8FFF7C6FE144912A8B5
:101A9000FFF7C2FE019A039B96201A60079A0A9BE1
:101AA0001A600D9A109B1A60139A159B1A6002F027
:101AB000F3FF019A049B96201A60079A099B1A600B
:101AC0000D9A0F9B1A60139A169B1A6002F0E4FF9E
:101AD000E0E700BF32C0092034C0092035C009202A
:101AE00037C009200FB4012008B503F023F901F035
:101AF000DDBB000008B5024C23689847FCE700BF37
:101B0000D000001008B50B4800F0A6FE0A4B186084
:101B10000A4800F0A1FE0A4B18600A4800F09CFE3B
:101B2000094B18601EF032F9BDE808400021084654
:101B300003F0BEB81C7E0200443B0010187E020079
:101B4000B4070010147E0200AC070010FFF7D2BFEC
:101B500010B5044600F0E0FD2146BDE81040024605
:101B60000148FFF7BFBF00BFDC7D020003F022BACF
:101B70000B4AF0B4C2F1805303F50043B3F5806F14
:101B8000194628BF4FF48061064F074D5B1A074C7A
:101B900007489E183A602E6023600160F0BC7047D1
:101BA000F03B0010381B0010BC070010341B001065
:101BB000B807001000F034FFFFF7DAFF03480021F8
:101BC00000F0D2FE00F02AFDFEE70000D400001075
:101BD000024B4FF0FF31186800F05CBEB4070010F4
:101BE000014B186800F07EBEB4070010024B4FF0A6
:101BF000FF31186800F04EBEAC070010014B1868AA
:101C000000F070BEAC07001030B502788C78013A55
:101C10004368D2B213B19D78A54207D2022A4B6025
:101C2000416006D803B19960886030BD18465B6892
:101C3000F0E700238B6030BD436802785968013AB1
:101C4000022A41604FF0000205D809B188605A604D
:101C50009A60184670475A60FBE70000034B5A68C9
:101C60004260002258608260704700BF483B00100D
:101C7000104B10B5DA688AB19A8A8A42DC680CD3B4
:101C8000C460D860C468036104B12061521A92B282
:101C90008282998A8A1A9A8210BD3CB900248A1AD3
:101CA000C460D86003619A82848210BDA38A1A44FA
:101CB0002346E2E7603B00102DE9F041174DEB6849
:101CC00053B10026AB8A164F013BDFF85880AB8238
:101CD000AA8A0AB9EC680CB9BDE8F081A36833B1EF
:101CE00061685960616809B18B606260A6602146D5
:101CF0003846FFF789FFA38AAB826378042B01BFC4
:101D0000D8F80030E28A9B18A38201236370E3684D
:101D1000EB600BB11D61E6602661D9E7603B001006
:101D2000483B0010E03B001083682BB142685A60CA
:101D300042685AB193607047054B5A68904202D18D
:101D400042685A6070471346002AF6D1704700BFB8
:101D5000483B001010B5846801462CB94378012B2C
:101D60000DD1074C03E0A4682378002BFBD0084674
:101D7000FFF7DAFF2046BDE81040FFF745BF10BD72
:101D8000483B0010036910B563B1C268DA60C268ED
:101D90004AB1998A848A2144998213610023C360DD
:101DA0000023036110BD9A82FAE7000070B4114B62
:101DB000DD78EFF31086EFF3108272B69A789542D1
:101DC00011D901329A701A78541CA54208BF002418
:101DD0001C7006B962B6954207D970BC03EBC2030A
:101DE000586099607047002EF4D070BC0220FFF755
:101DF000AFBE00BFF0360010032303700023438002
:101E000043608360C3607047F8B5438804469BB164
:101E10008068036A9C4228D1E368036290F824300A
:101E2000026A52BB82789A4206D083701F4B1B68AD
:101E3000984201D0FFF78EFF01261D4F656825BB34
:101E40001B4843686BB1194E9A7831688B789A4277
:101E500007D9FFF7D9FE0122336828465A7000F0EF
:101E6000D3FE00202070F8BD1346002BD6D0DA68D0
:101E70009442F9D1E268DA60D0E7516819B1897803
:101E80008B4238BF0B46D268CBE72046FFF7D4FE23
:101E90000546002100F0F6F82846FFF773FF6E7044
:101EA00029463846FFF7B0FEC8E700BF983B001050
:101EB000483B00102DE9F84343880546002B63D0CA
:101EC000324F81683A6891425ED1013B9BB24380B8
:101ED0001BB100242046BDE8F8830B6A984229D143
:101EE000C3680B6291F824300C6A5CBB8B706A6823
:101EF000DFF89C80002A3BD02846FFF79DFE06466F
:101F00004FF00109214600F0BDF83046FFF73AFFD7
:101F1000336A3968EB60D8F80430A5F80290AE60F7
:101F200035628A789B789A4214D3304600F06CFE72
:101F3000D0E71346002BD5D0DA689542F9D1EA688C
:101F4000DA60CFE762681AB19278934238BF1346DD
:101F5000E468CAE74046FFF757FE31464046FFF7C0
:101F600053FE3B6883F8019086F801902046DDE738
:101F7000D8F8042092789A42ABD94046FFF744FE45
:101F800001223B685A70F1E7FF24A3E7983B001059
:101F9000483B0010438870B504460E46134D43B9C4
:101FA0002A68116A8260C160106201336380002078
:101FB00070BD80682A689042F7D081B193788278AA
:101FC0009A4202D28370FFF7C5FE62684AB129685F
:101FD0002046FFF719FE0921304600F037FE0120A8
:101FE00070BD2B6863605A609C60F4E7983B0010FA
:101FF000F0B54FF080764FF0000E836A056B9B08BA
:1020000002BF1E4B1B889B0805EB8302540748BF89
:10201000043A02E94200A2F14004A2F14406A2F10E
:102020000C0746F804EFBE42FBD1C66942F8206CAB
:1020300041631249C4620968C90017D5112B15D92B
:102040006FF00701103B5B084B43A3F138010A44D2
:102050004FF0CC30214691420BD108331C44231F52
:102060009D423CBF4FF0CC3344F8043C044B2B6002
:10207000F0BD41F8040C41F8080DECE7247E0200A5
:10208000A52E5AE2C36A19627047C36A19625A627E
:1020900070470000054B1B7823B94FF08052044B6A
:1020A0001A6070470122034B1A7070471018001015
:1020B00004ED00E01118001038B51A4B1A4C1868DE
:1020C00001234370FFF7CAFD6578A3783BB9174831
:1020D0006570FFF7B1FDBDE8384000F07BBD04EB53
:1020E000C503586802789AB9198900F0BBF9E378FA
:1020F00001359D4208BF0025EFF31083EFF31082F6
:1021000072B6A278013AA270002BDED162B6DCE78B
:10211000012A03D1996800F033F9E8E700F0BAFF2B
:10212000E5E700BF983B0010F0360010483B001078
:10213000084B4FF0FF301A68074B1A6000225A60B4
:10214000072243F8042C054A136843F07F431360C9
:10215000704700BF3C7E020014E000E020ED00E08C
:102160007047000008B50B4B186801234370FFF758
:1021700075FD00F0ADF9084A136801331360FFF7ED
:102180009BFD00F0AFFC0548FFF756FDBDE8084099
:1021900000F020BD983B0010E03B0010483B0010D1
:1021A000064B1A68136BD26A934203D81A68044B21
:1021B0009A4202D00120FFF7CBBC7047983B001039
:1021C000A52E5AE2002ABBBF22F00042073203329A
:1021D00022F00702A8BF22F0030210B5B4BF1023FB
:1021E0000C2392B1D4188C420FD8014403445442BA
:1021F00041600360826021449818814202D30051FB
:102200000346F9E70020186010BD012010BDEFF370
:10221000108372B6026803F001030AB1116801600D
:1022200003B962B61046704781420DD343689942A4
:102230000AD2EFF3108372B602680A60016013F0ED
:10224000010003D162B6704701207047002070473B
:1022500001230370002310398908437083704360A1
:10226000038143818381C1817047000070B58589F6
:1022700004461646002D38D043891A1D50F82220F6
:1022800001330A60C2899BB29A42438104BF002392
:1022900043814368F3B14378022B1BD1FFF7CCFC99
:1022A00005460021FFF7EEFE2389E9691A1D44F86F
:1022B00022100133E2899BB29A42238108BF002396
:1022C000284608BF2381FFF75DFD284600F09CFCEF
:1022D000002070BDEFF31080EFF3108372B6013D64
:1022E000A5810028F4D162B670BD4AB14268094B9D
:1022F00042B11968FFF788FC0821304600F0A6FCBF
:10230000012070BD1B6843605A60986001234370D0
:10231000F2E700BF983B0010C2898089101A70470D
:1023200008B5FFF743FDBDE80840FFF7B3BE83895A
:1023300010B504460BB34389043350F823300B60C7
:102340004378022B04D10021FFF730FDFFF7A2FEF6
:10235000EFF31083EFF3108272B6A289013AA281E3
:1023600003B962B66389E28901339BB29A42638101
:1023700001D100236381042010BD184610BD000068
:10238000436870B504460E46002B4BD04578022DAD
:1023900020D0032D0AD0012D61D1FFF74DFC04465A
:1023A00032461021FFF771FE65700EE00846FFF718
:1023B0002EFF0546002852D02046FFF73DFC294657
:1023C0000446FFF75FFE012363702046FFF7DAFC47
:1023D000214622E0FFF730FC05460021FFF752FEC0
:1023E0002389E9691A1D44F82210EFF31082EFF3F4
:1023F000108172B6A1890131A18102B962B6E28968
:1024000001339BB29A42238104BF0023238101231D
:1024100028466B70FFF7B6FC2946BDE870401048AF
:10242000FFF7F2BB8089E189884213D223891A1D04
:1024300044F82260EFF31082EFF3108572B601309A
:10244000A08102B962B601339BB2994208BF002352
:10245000238170BD0320BDE87040FFF779BB70BDDC
:10246000483B001010B5038B42781943062A0446F6
:102470000183438B15D133EA010219D121EA03010B
:1024800021832046FFF77EFC012320466370628B88
:102490000821FFF7FAFD2146BDE810400548FFF787
:1024A000B3BB052A04D111EA030201D04283E5E758
:1024B00010BD00BF483B00100022034B1A60034AC6
:1024C0001268DA80704700BF803B0010207E020057
:1024D00008B50E4B5A680E4B196891420D4905D04C
:1024E0001A60DA880868013A02449A8098880A8853
:1024F00090420AD1002205481A60FFF79DFBBDE813
:10250000084001460148FFF77FBB08BD483B00106B
:10251000803B0010E03B001030B500240A4A1368ED
:1025200043B90360816013B19D68691A996044B131
:10253000206030BD9D68A942F3D31C46491B1B682F
:10254000EEE7106030BD00BF903B0010C0B1431CEF
:1025500011D00C4B984211D84FF47A710A4B1B687A
:102560005A1E01FB0020B0FBF3F34FF6FE708342CE
:1025700006D898B270474FF6FF7070474FF6FE705E
:10258000704700BF00093D00D87D020038B18307C5
:1025900004D10378002B18BF00207047002070473B
:1025A000B0B50E4D00AF2878A8B90D4C236893F84C
:1025B000241000F06DFB2368DA78FF2A03D1DA6A71
:1025C000203282F3098862680AB984E80C0000F0BE
:1025D00017FD01232B700020B0BD00BF943B0010FD
:1025E000983B0010014B1878704700BF943B0010D7
:1025F00010B5EFF3108434B9EFF305841CB9EFF391
:102600001484E40702D4034B187810BDDFF808C027
:1026100000DF10BD943B0010E525000090B589B0A7
:1026200000AFEFF31083002B37D1EFF30583002BBE
:1026300033D1FFF7DDFF28B9194C246814B1646861
:1026400004B1A047EFF3148404F00304022C18D063
:10265000032C1CD0012C1ED007F1200484F3098820
:10266000104C2478E40710D5022484F31488BFF3B7
:102670004F8FBFF36F8FDFF830C000DF2437BD46C8
:1026800090BD084C2478E407F5D40324EDE7054C0D
:102690002478E407EFD5FF20F0E78220EEE700BFC3
:1026A0007C3B0010067E0200A125000070B50B46A1
:1026B0001646024610B90024204670BD0068002866
:1026C000F9D0B2F90440E51CADB2062DF3D8D168BB
:1026D000C1B11269043444EA012100F017FB00285B
:1026E000E9D00A4B013853F82040094AE36A5A639B
:1026F000084B1B6843B19B6833B13146E07898477B
:10270000E063D9E70A46E5E7E663D5E7A4340010BD
:10271000B52800007C3B001008B500F0B1FA18B1F4
:10272000024B013853F8200008BD00BFA43400104C
:1027300010B5FFF72BFF044670B1084B1B681BB1A7
:10274000DB680BB1C06B9847E07800F035FBFF28E1
:102750000CBF8120002010BD802010BD7C3B0010EC
:1027600008B528B1FFF7F2FE00F090FC402008BD4C
:1027700008BD000010B5EFF3108434B9EFF3058401
:102780001CB9DFF80CC000DF10BD822010BD0000B6
:1027900061270000830705D138B1436901691B68CF
:1027A0001846704700231946FAE70346FBE7000086
:1027B00010B504460846DFF80CC000DF84E80300CB
:1027C000204610BD9527000010B548B1046824B11B
:1027D000237823B92046FFF70FFB204610BD0020C9
:1027E00010BD70B510F0030405460E4611D180B13E
:1027F0000378032B0DD10846FFF7A8FE01462846B3
:10280000FFF7C8FB012806D1002E14BFC12081208C
:1028100070BD802070BD204670BD820708B50AD10A
:1028200048B10378032B06D1FFF744FBFF280CBF08
:102830008120002008BD802008BD10B510F00304E1
:1028400007D130B10378032B03D1FFF7DDFA20461F
:1028500010BD802010BD000070B50546EFF3108458
:1028600094B9EFF305867EB9EFF31484E40706D438
:10287000064C24781CB9BDE87040FFF7A5BF284678
:10288000DFF80CC000DF70BD002070BD943B00106D
:10289000C927000010B5EFF3108434B9EFF30584B5
:1028A0001CB9DFF80CC000DF10BD822010BD000095
:1028B000E3270000084808B54FF0FF310068FFF734
:1028C000E9FFDFF818C000DF0446FFF74FF92046A4
:1028D000DFF80CC000DFFEE78C3B0010192700007A
:1028E0003127000010B5EFF3108434B9EFF30584FD
:1028F0001CB9DFF80CC000DF10BD822010BD000045
:102900001B2800002DE9F04180460F461646EFF3E4
:10291000108404BBEFF30583D3B9EFF31483DB0713
:1029200006D40E4B1B781BB9BDE8F041FFF7BEBEC5
:102930000B4D4FF0FF312868FFF7ACFF404639469A
:102940003246DFF820C000DF04462868FFF7CAFFE0
:102950002046BDE8F0810024FAE700BF943B001058
:102960008C3B0010AD2600000022FFF7CBBF00001B
:1029700010B5EFF3108434B9EFF305841CB9DFF818
:102980000CC000DF10BD822010BD00003B280000FD
:1029900010B5044660B1016851B1406848B1037890
:1029A00033B90431890089B2FFF752FC606810BD69
:1029B000002010BD38B5114C23780BB900F0A6FAF1
:1029C000FF220F4B25781B689A708DB929460D4858
:1029D000FFF7DEFF0C4B2A46186029460B48FFF72D
:1029E00065FE0B4B18600B48FFF736FF0A4B18606B
:1029F000012300202370094B187038BD883B00105C
:102A0000983B00100C7E0200A0340010287E0200CB
:102A100074370010407E02008C3B0010943B001085
:102A200010B5EFF3108474B9EFF305845CB9EFF3DC
:102A30001484E40703D4BDE81040FFF7BBBFDFF800
:102A40000CC000DF10BD822010BD0000B5290000C1
:102A50002DE9FF410C46804618B30378012B25D1A0
:102A60000846FFF773FD02A902464046FFF7FEFB4A
:102A7000012811D10020002C0246034618BF402037
:102A8000029904460D4616461F4620462946324600
:102A90003B4604B0BDE8F08100200246034610200A
:102AA000EEE78024054606460746EEE7002580242B
:102AB0002E462F46E9E770B50E461446054660B12E
:102AC0005AB90378012B08D1FFF726FC38B1284604
:102AD0003146FFF725FC204670BD802070BD812067
:102AE00070BD0000F8B5114E34682CB1A368104FCA
:102AF000013BA360A26802B1F8BD25682146386891
:102B00003560FFF7D8FF10B10420FFF721F8637993
:102B1000012B07D1E1682046FFF7FEFC002DEBD02A
:102B20002C46E7E701232371F8E700BF903B001034
:102B3000A03400107FB504461646084601B122B104
:102B400080232360204604B070BD0B78012BF7D1A1
:102B500002A9FFF7ECFB042808BF102301AD14BF46
:102B60000196019395E8070084E80700EAE7000072
:102B700038B504461546EFF3108010B9EFF3058021
:102B800028B12A462046FFF7D5FF204638BD084623
:102B90001146DFF80CC000DF84E80700F5E700000D
:102BA000512A00007FB50A4C4FF0FF32216803A87C
:102BB000FFF7DEFF039B102BF6D1049901A8FFF766
:102BC000F7FD019B002BEFD002989847ECE700BF80
:102BD000A0340010054B586002234370044B1B685F
:102BE0001BB11B690BB1C06B18477047983B0010B5
:102BF0007C3B001008B50348FFF71EF8BDE808400D
:102C0000FFF7E8BF483B001070B5044618B9BDE8AF
:102C10007040FFF7EFBF0B4EA27830680125837834
:102C20009A4208D9FFF71AF8336820465D70BDE86C
:102C30007040FFF7CFBF65702146BDE87040024885
:102C4000FEF7E2BF983B0010483B001038B50D4638
:102C5000014680B14FF6FF739842074C02D02068BE
:102C6000FFF706F8236805485D70FEF7E5FFBDE84D
:102C70003840FFF7AFBF38BD983B0010483B00100D
:102C8000024B186800B1C078704700BF983B001035
:102C900010B5A8B9194B1B68997083F8241018480F
:102CA00043689B788B4201D8002010BD134C2168EB
:102CB000FEF7AAFF012223685A70FFF79BFFF3E794
:102CC000104B1B88984217D80F4B013853F82040FF
:102CD00094B10A4BA1701B6884F824109C42DED08A
:102CE0002046FFF737F86378012BDDD10448FEF763
:102CF000A3FFFFF789FFD7E7FF2010BD983B001027
:102D0000483B0010087E0200A43400102DE9F04773
:102D10000D4611F0FF0F8046234816469A4608BF1D
:102D20000135FFF774FA044620B94FF00009484610
:102D3000BDE8F08700211D4B06631B88280A1C4E46
:102D4000A0628B4201F10109EFD006EB890252F833
:102D5000042C0F464946002AF3D10123EDB284F832
:102D60000390C4F81CA0C4F838A022706370A5704A
:102D700084F824506260A260E26022612262A28232
:102D8000E2822283628384F8252018B90948FFF77C
:102D90003EFA206320464146FFF72AF9204646F8CE
:102DA0002740FFF731FFC2E778370010087E0200A6
:102DB000A4340010E03400102DE9F84F4D4D18B147
:102DC0002B68DB78984241D100232C68012763707F
:102DD00002F023F9E062FFF7E3F92B68DFF82881BE
:102DE0001C6AA4B92A684449D3784448013B41F895
:102DF0002340116BFFF718FA296841480C63FFF76D
:102E000013FA2C60FFF7F6FE2046BDE8F88F6368E2
:102E1000B3B12046FEF710FF06460021FFF732F956
:102E20003046FEF7AFFF777031464046FEF7ECFEC6
:102E3000E368326A6780A660E26034621C46D0E7CD
:102E4000E2686380A360E3601446CAE72D4B1B88E9
:102E500098424DD8284B471E53F827609946002EBC
:102E600046D04FF0010A3046FEF75EFF3046FEF7CF
:102E700089FFDFF894B0346AB4B9316B1F4849F860
:102E80002740FFF7D1F9314634631D48FFF7CCF9ED
:102E90001D48296843689A788B789A42B4D90123EF
:102EA0004B70FEF7B1FEADE76368DBB12046FEF77D
:102EB000C3FE80460021FFF7E5F84046FEF762FFBB
:102EC00088F801A041465846FEF79EFEE368D8F810
:102ED0002020A4F802A0C4F80880E260C8F82040CE
:102EE0001C46C9E7E2686380A360E3601446C3E759
:102EF000FF2489E7983B0010A4340010E034001050
:102F000078370010087E0200483B001038B52C4B83
:102F10002C491A880023184693424DD32A4B40224D
:102F200019882A48FFF74EF9294B2A481A882A4B54
:102F300042F000421968FFF745F9284B082219882A
:102F4000274B284C1868FFF73DF9FF230025E37055
:102F5000012320486370A5622570A57084F8245071
:102F60006560A560E56025612562A582E58225830F
:102F7000658384F82550FFF74AF91B4920632046F2
:102F8000FFF736F80422194B20461A705D60184B83
:102F90001A70DD601D619D82164B1C6002236370F8
:102FA000FFF718FE144A154B12781D705D70DA7029
:102FB000BDE83840FFF780BA41F823000133ABE7A2
:102FC000087E0200A4340010D47D0200783700107F
:102FD000247E0200E0340010D07D0200D67D020085
:102FE000B0070010A03B00104D1B0000483B001034
:102FF000603B0010983B0010057E0200F036001088
:1030000008B51E4B1A6842F47F021A601B681B0247
:1030100003F07F43DB43B3FA83F3194ADBB2126850
:10302000C3F10803C2F30222934298BF531C6FF00E
:103030008072144802FA03F3016803F07F4321F021
:103040007F4213430360FFF773F80F4B00281860AB
:1030500012DBFF22012100F1604000F564400270A4
:103060001A6853099B0003F1604302F01F0203F545
:10307000614301FA02F21A6008BD00BF20ED00E0D2
:103080000CED00E01CED00E0783B00100321FFF7A1
:10309000DDBD0000426810B57AB1FEF7CDFD0446F3
:1030A000FEF770FE012120466170FEF7EBFF21461E
:1030B000BDE810400348FEF7A7BD428801324280B8
:1030C00010BD00BF483B00102DE9F74F4FF0010A3B
:1030D0003A4C3B4AD4F80490DFF8E8B0D4F80880C2
:1030E000676AA66AB9F1000F15D1DFF8D490DFF84E
:1030F000D4A0B8F1000F22D14FF0010ADFF8C08050
:10310000DFF8C09077BB2E4FDFF8B880002E3ED19D
:1031100003B0BDE8F08FB9FA89F5C5F11F05EDB22E
:1031200052F8250028B10121DBF8003001929847C0
:10313000019A0AFA05F5E560A9EB0509D2E7B8FAA4
:1031400088F5C5F11F05EDB259F8250018B1022127
:10315000DAF800309847012303FA05F5E560A8EB9B
:103160000508C6E7B7FA87F5C5F11F05EDB20F2DC3
:1031700008D805F1200358F8230018B10121D9F827
:10318000003098470AFA05F5E5627F1BBAE7B6FA00
:1031900086F5C5F11F05EDB20F2D08D805F1200306
:1031A00057F8230018B10221D8F8003098470123BE
:1031B00003FA05F5E562761BA8E700BF80800240B0
:1031C00024180010E418001070B51E464B1C04466D
:1031D00022D0124B124D1A6021F01F03036001F040
:1031E0001F0321F05F01A942436002D00D48FEF7A2
:1031F00079FC23686268AB420B4918BF203241F862
:103200002260A2600949152000F01AFE4FF4001256
:10321000074B00201A6070BD084670BDE41800100E
:1032200000C00920447E020024180010C9300000AC
:1032300000E100E000218268014B43F82210704752
:103240002418001010B50021044600F085FA012072
:1032500004F01F04A04010BD38B505464B1C0C46B9
:1032600029600FD00846FFF7EDFF24F01F0404F19A
:103270001803EB6004F11C032B6104F11403686074
:103280006B61AC6038BD006800F07FBA11B10129F4
:1032900007D0704782684168136823EA010313600E
:1032A00070478268416813680B43F8E708B5FEF77A
:1032B0007DFB0022044BC3F8C020044A136923F0AD
:1032C0000403136130BF08BD00C00F4000ED00E0F3
:1032D00008B5104B1868E0B901210F4A1960D2F8FF
:1032E000C43043F40003C2F8C430A2F5D022106702
:1032F00002200A4B1B6850600948B3FBF0F3013B06
:10330000D36004205160074900F09AFD1022064B5B
:103310001A6008BDE818001000C00F40040100103A
:1033200000093D002918000000E100E008B5044B49
:103330001B680BB9FFF7CCFF024B986808BD00BFB4
:10334000E818001000400940034B98615A6942F0A8
:1033500001025A61704700BF00400940024A5369A8
:1033600023F0010353617047004009400122014BE3
:103370001A607047004009400168054B0A6812074F
:1033800001D500207047013BF8D14FF0FF30704766
:10339000A18601003421036810B51A6899611207EB
:1033A00048BF08224FF024010446196048BF9A61C3
:1033B000FFF7E2FF2022236858689A6110BD0000E1
:1033C000102203681A6008229A61054A186810F0F2
:1033D000100000D17047013AF8D10120704700BFBA
:1033E000A1860100044B49001B689B08B3FBF1F167
:1033F000036859611961704704010010F8B50E4661
:103400000446204930461546FEF7BEFA1E490746D7
:103410002846FEF7B9FA01463846FEF797FA1B4BE5
:103420002060984221D003F58823984223D0A3F549
:103430000423984206D1164AD2F8C43043F08003E0
:10344000C2F8C43020461349FFF7CCFF3C22236862
:1034500030469A6140220B491A60FEF75BFA284613
:10346000BDE8F8400849FEF755BA094AD2F8C43019
:1034700043F40023E4E7064AD2F8C43043F0806303
:10348000DEE700BFB07E0200747E020000C005408F
:1034900000C00F40A08601002DE9F04E04460E4604
:1034A00091461D46FFF776FF102809D0082807D05F
:1034B0002046FFF785FF6FF001052846BDE8F08E36
:1034C0000827236846F001069E6020469F61FFF7AB
:1034D00053FF23685B68402B17D100264FF0040B85
:1034E00005F1FF3A5645236815DBC3F818B02046AE
:1034F0009F61FFF741FF23689A685B68582B1ED0D5
:103500002046FFF75DFF5546D7E72046FFF758FFF7
:103510004FF0FF35D1E7C3F800B020469F61FFF7B9
:103520002BFF23689A685B68502B04D02046FFF776
:1035300047FF3546C1E709F806200136D2E7089B68
:1035400009F80620002BB8D02046FFF739FFB4E772
:103550002DE9F843089F04460E4691461D46FFF7A5
:1035600019FF102809D0082807D02046FFF728FFA8
:103570006FF001052846BDE8F8834FF0080823687E
:1035800006F0FE069E602046C3F81880FFF7F4FEA2
:1035900023685B68182B08D10026AE420BDB002F96
:1035A000E8D02046FFF70CFFE4E72046FFF708FFCE
:1035B0004FF0FF35DEE7236819F8062020469A60B1
:1035C000C3F81880FFF7D8FE23685B68282B04D067
:1035D0002046FFF7F5FE3546CCE70136DDE7000073
:1035E00070B50D460646002128461BF0F9FCE8B9E7
:1035F0004FF07E5128461BF011FD08B14FF07E556B
:103600000B4CA0691BF0F6FA29461BF04BFB1BF094
:1036100035FDA36931799842336808BF01301860DD
:103620000123226D8B401343236570BD0025E7E71E
:10363000008001400B4B10B51A680B4B4A43022126
:1036400059609A61996931B1006801689C69514378
:10365000B1FBF4F101601A6D42F001021A65092212
:103660005A6010BDEC180010008001404FF47A73CE
:103670005943FFF7DFBF000070B50D461D4E0446ED
:1036800031462846FEF780F91B4B2071C0B253F833
:1036900020302360194BD3F8C42042F04002C3F815
:1036A000C420D3F8A82122F44052C3F8A821002254
:1036B000A3F56423DA6002225A6100F108020120B6
:1036C000D96C90400843D8640D4B0E4A1B682046C5
:1036D000B3FBF2F30C4A44F620611360FFF7AAFF34
:1036E00020460021FFF77CFF31462846BDE87040A8
:1036F000FEF710B9EC7E0200E800001000C00F4099
:103700000401001000093D00EC180010084B1B6874
:103710005943084B9A699142026808BF0131116010
:1037200001220079196D82400A431A65704700BF73
:10373000EC1800100080014010B504460846054909
:103740001BF0B0FA1BF074FC01462046BDE81040A7
:10375000FFF7DCBF0024744910B5032400F160407A
:10376000A0F51C2043000009800000F1804000F516
:103770003030026803F01E039C4022EA040202601B
:10378000026899401143016010BD00F16040A0F54E
:103790001C2043099B0003F1804303F5303330B50F
:1037A00000F01F029C6EC1F3800505FA02F224EAC4
:1037B00002049C669C6E22439A6695B903244300DA
:1037C0000009800000F1804000F53030026C03F009
:1037D0001E039C4022EA04020264026C99401143D9
:1037E000016430BD012810B408D0022808D010BCF4
:1037F0007047506820F00100506010E003460EE072
:1038000038230F4803FB01035868013006D01869BC
:103810009C68046093F83630002BEAD000233822ED
:1038200051430748421840580028E0D01BB992F88D
:103830003620002ADBD0034A1946126810BC104714
:10384000F8180010F0180010034A00219068C0F327
:103850004200FFF7C7BF00BF00C00040034A01217C
:103860009068C0F34200FFF7BDBF00BF00000140F9
:10387000034A02219068C0F34200FFF7B3BF00BFC4
:1038800000800940034A03219068C0F34200FFF71B
:10389000A9BF00BF00C0094070B50B4606682949A2
:1038A0008E4222D006DCA1F580418E420CD0002150
:1038B0000C460BE024498E421AD001F580418E421D
:1038C000F5D12249082401E0052421499AB10125B6
:1038D000726805FA03F313437360204600F0B0FAF0
:1038E0001C4B05FA04F41C6070BD1B490624EDE76F
:1038F0001A490724EAE7012B0AD042683820184900
:1039000000FB021292F8361092F83520D14217D1FE
:10391000012202FA03F0B3FA83F371685B0921EA2A
:1039200000017160716802FA03F30B4208D1094B80
:1039300002FA04F4C3F88040BFF34F8FBFF36F8FD8
:1039400070BD00BF000001400080094085380000C4
:103950004938000000E100E05D38000071380000E7
:10396000F81800102DE9F04F644B046887B09C42B2
:1039700000F08D806ADCA3F580439C4279D0604BD7
:103980000801D3F800C0BCFBF0F293B200FB12C2F6
:10399000002A00F0AA800125E6469946AB464FF082
:1039A000000A0191039100264FEA4E030493DDF8CB
:1039B00004804FEA8E03EFB20593F3B20093049BA9
:1039C000002BABBF059BB3FBF8F3B3FBF8F31B096C
:1039D000A8BF5B090133C3F34F03002B00F08880BD
:1039E00016B1012B08BF0223A8195843C000BEFB23
:1039F000F0F00130C1EB50000028B8BF4042029007
:103A0000029A0398824262DA91425AD10F2D07D16D
:103A1000BB469946DDF800A05F464B46CDF800A0B6
:103A2000217B41F080012173C3F30721DBB22171B7
:103A30002370009B43EA0712D2B284F82820237B2C
:103A400003F07F03237307B0BDE8F08F2D4B9C423A
:103A500029D003F580439C4291D12B4BD3F8AC2164
:103A600022F44022C3F8AC21D3F8AC2142F48022E6
:103A700024E0254BD3F8A82122F0C002C3F8A821E6
:103A8000D3F8A82142F04002C3F8A82177E71E4BE3
:103A9000D3F8A82122F44072C3F8A821D3F8A821B2
:103AA00042F48072F0E7184BD3F8AC2122F4403294
:103AB000C3F8AC21D3F8AC2142F48032C3F8AC2176
:103AC0005DE7BB469946029ADDF800A003920136F5
:103AD000F3B2BB428844FFF470AF0F2D9CD0019B22
:103AE00001350B44E64401935DE70127009297E717
:103AF000002E0CBF0123022376E700BF0000014027
:103B0000040100100080094000C00F40034B196001
:103B1000382341684B430249CA507047F0180010DF
:103B2000F818001030B431B938254368034C05FB50
:103B3000034383F8362030BCFFF7AEBEF818001000
:103B400010B50268137DDB07FCD5382443680848AC
:103B5000117804FB03035868C9B2013006D05869D4
:103B60009B680360536843F001035360084610BD2F
:103B7000F81800103821114A436801FB0323DA6961
:103B8000013209D01A6B1B6A12681A4214D10368F9
:103B9000187DC0F3801070470268127D920604D52C
:103BA0000022012083F83420704793F834000F2856
:103BB0008CBF00200120704700207047F8180010CB
:103BC00038B504460D462046FFF7D4FF0028FAD04A
:103BD00038212368EDB21D706368044A01FB03239A
:103BE00093F83420013283F8342038BDF8180010DF
:103BF0002DE9F84F9A463C4C03680546A34218BF8E
:103C000000248946904647681CB1237C03F03F039B
:103C1000237438234FF0FF32344E284603FB0763EA
:103C2000DA615A60002283F835201146FFF734FE2E
:103C3000B9F1000F55D02E494046FDF799FE2D49A8
:103C400083465046FDF794FEA9F10203012B1BD8D1
:103C5000BAF1FF3F0BD0244B98420DD164B1237CC5
:103C6000244943F0800323745046FDF753FEB9F115
:103C7000030F0CD0BDE8F88F382000FB07605146D9
:103C80001C30FDF7B6FDF2E7B9F1010F29D1B8F10B
:103C9000FF3F01D1BDE8F88F07222B681A72124B43
:103CA0009B450AD14CB1237C404643F0400323742A
:103CB0000F49BDE8F84FFDF72DBE382404FB07601F
:103CC000414600220430FDF797FD01226B6828462B
:103CD00004FB036686F835200021BDE8F84FFFF7A6
:103CE000DBBDBDE8F88F00BF00000140F8180010F0
:103CF000C47F0200A07F02002DE9F0410F46054677
:103D0000464938461646FDF73FFE454904463046CB
:103D1000FDF73AFE01462046FDF718FE414B0446EA
:103D2000984228605DD047D8A3F58043984250D090
:103D300001234FF0000823724FF416512846C4F8AF
:103D40000480FFF70FFE03222B6834491A733846AC
:103D5000FDF7E0FD32493046FDF7DCFD7A1C03D06B
:103D600041463846FFF711FD731C03D00021304651
:103D7000FFF70BFD2B4B9C424BD03ED8A3F5804365
:103D80009C4243D038216A68274B284601FB023207
:103D90004FF0FF3300215360D3611A46FFF728FF2D
:103DA000224B9C4206D10122214B69681A60286887
:103DB000204B03C3BDE8F0811F4B984217D003F599
:103DC00080439842B4D11D4AD2F8C43043F0007306
:103DD00004E01A4AD2F8C43043F00803C2F8C430F1
:103DE000A6E7164AD2F8C43043F01003F6E7134AA8
:103DF000D2F8C43043F08073F0E70F4B9C420AD0F6
:103E000003F580439C42BDD1032300E000236B6097
:103E1000B8E70123FBE70223F9E700BF5480020063
:103E2000E87F020000000140F818001000C00040C8
:103E3000F4180010E43B00100080094000C00F405F
:103E400030B50C4CA268A4681346B4F1805F0CD264
:103E5000131F094C094A53F8045F42F8045FA24259
:103E6000F9D14FF08053034A9360103043F820108B
:103E700030BD00BF00ED00E0C0000010FCFFFF0FF0
:103E80002022264BC3F8A021D3F8A021920603D507
:103E9000D3F8A0215006FBD50222C3F8042100224A
:103EA0000120C3F8A821C3F8AC210B22C3F80C01F0
:103EB000AA21C3F884205522C3F88C10C3F88C20A3
:103EC000C3F88000C3F88C10C3F88C20134B1A463B
:103ED000D3F888104901FBD50321C3F88010AA212B
:103EE000C3F88C105521C3F88C10D2F8883013F029
:103EF000407FFAD00523C2F80831094BC2F8C4301C
:103F00000023C2F8C831136823F4704323F03A0346
:103F100043F4405343F03A031360704700C00F402E
:103F2000DE87280400F055BCA0F13000FFF7FABF8F
:103F300000F052BCA0F13000FFF7FABF4FF0FF31A4
:103F4000443001F059B8A0F13000FFF7F7BF44301A
:103F500001F055B8A0F13000FFF7F9BF38B50446BD
:103F60001D46049B00F040FC294604F1300000F09F
:103F700049F8064B04F1440003F10802283322609B
:103F8000236301F021F8204638BD00BFC080020045
:103F9000F8B50E46036804469B6B8F183546984764
:103FA000BD4207D0236815F8011B1B6C20469847BB
:103FB0000130F5D123682046DB6B9847A81BF8BD7C
:103FC000F8B50E46036804469B6B8F183546984734
:103FD000BD4208D0236820465B6C9847431C02D042
:103FE00005F8010BF4E723682046DB6B9847A81B14
:103FF000F8BD0020704700207047704700207047D0
:10400000002070471FB50446002200F07BFA094BE0
:104010002246236000230849236101A81DF0C6FA47
:10402000064901A81BF092FC206100F086FE2046A4
:1040300004B010BD88810200788102007C810200FA
:1040400010B50446054B036000691BF05BFA044B96
:104050002046236000F07AFA204610BD88810200D5
:104060003881020038B5044603689B6B9847206985
:104070001BF002FB206900F063FE05462368204622
:10408000DB6B9847284638BD0EB477B50446036805
:1040900007AD55F8046B9B6B9847206901951BF0A1
:1040A000EBFA019A314620691CF07CFA0546236838
:1040B0002046DB6B9847284603B0BDE8704003B04C
:1040C000704710B5044643694168194400F018FC74
:1040D000636A04F118001B68BDE81040184738B542
:1040E00004460D46FDF778FC204600F00FFC6561A4
:1040F0002069FDF70CFC2918204600F001FCBDE802
:104100003840FDF77FBC7FB506466D46FDF764FC81
:10411000304600F0FBFB002306F11804AC42039389
:104120000BD02046FDF7E0F93CB1039B1BB15B6867
:10413000694620469847039B73622846FDF7D4F9E9
:10414000FDF760FC04B070BD7047000070B50D4C09
:1041500023687BB90C4D4FF0FF312868FEF79AFBBE
:10416000236823B9261D304600F02EFF26602868FC
:10417000FEF7B8FB20684FF0FF31BDE8704000F05B
:104180003BBF00BFD8190010443B001010B50446D7
:1041900000F033FE204610BD70B50C4C23687BB98F
:1041A0000B4D4FF0FF312868FEF774FB236823B9ED
:1041B000261D304600F008FF26602868FEF792FBB7
:1041C0002068BDE8704000F01ABF00BFD819001089
:1041D000443B0010074B10B50360002304464360C6
:1041E000054B04304360FFF709F9044B20461C607F
:1041F00010BD00BFEC810200A0860100F419001080
:1042000070B504460D4603681B689847201DA560DD
:104210002946FFF7E7F8044B20461C602368BDE8F9
:1042200070405B68184700BFF419001070B5044671
:104230000368084D1B6898472B689C4204D0A1680E
:10424000201DFFF7CFF82C6023682046BDE87040A2
:104250005B681847F4190010F7B504460E46174678
:104260001D4603681B6898472046FFF7DFFF9DF84F
:104270002030314683F0010300933A462B46201D3F
:10428000FFF766F90646236820465B689847A81B37
:1042900018BF012003B0F0BDF7B504460E4617461F
:1042A0001D4603681B6898472046FFF7BFFF9DF82F
:1042B0002030314683F0010300933A462B46201DFF
:1042C000FFF7EAF80646236820465B689847A81B74
:1042D00018BF012003B0F0BD70B504460546094B78
:1042E00000F1440644F8043B54F8040B08B100F014
:1042F00084FDB442F8D105F1480000F083FE284661
:1043000070BD00BF0482020010B50446FFF7E4FF51
:10431000204600F072FD204610BD4FF0FF314830BE
:1043200000F06ABE483000F06ABE00002DE9F0419E
:104330001C46274B90B0054640F8483B0F461646B2
:1043400000F042FE02940024169B00970393179BF3
:1043500001960493189B6C640593199B2F1D06937B
:104360001A9B07931B9B08931C9B09931D9B0A9305
:104370001E9B0B931F9B0C93209B0D93219B0E93D5
:10438000229B0F935DF82480B8F1FF3F1DD01820C9
:1043900000F00EFD0646002118221BF0DFFE41460C
:1043A0003046FDF739FAB8F1FF3F47F8046B05D006
:1043B000012303FA04F26B6C13436B640134102C79
:1043C000E0D1284610B0BDE8F0810026EBE700BF41
:1043D0000482020070B5044654F8043B05469B680D
:1043E0000E469847002354F8042B42B146FA03F1D5
:1043F00011F0010F506814BFD268126910600133C8
:10440000102BF0D12B682846BDE87040DB681847B8
:1044100010B50446FFF7DEFF204610BD002310B59F
:10442000036043600A7804462F2A0DD14A785AB1B6
:10443000481C1946206023681A782F2A06D10133B8
:10444000236000F0B9F86060204610BD002AF8D063
:10445000013301312360EEE700687047406808B51A
:1044600020B100F032F8431E5842584108BD10B543
:104470000446FFF7F3FF00B1606810BD406808B55F
:1044800020B100F022F8B0FA80F0400908BD10B564
:104490000446FFF7F3FF00B1606810BD40680030CC
:1044A00018BF01207047884238B504460D460AD02F
:1044B000FDF71AF83CB1EB681BB15B682946204652
:1044C0009847EB68E360204638BD007B70470000EA
:1044D000036870B5044683B9094D4FF0FF31286871
:1044E000FEF7D8F923682BB9261D02D0304600F01C
:1044F0006BFD26602868FEF7F5F9206870BD00BFE7
:10450000443B001038B50E4B0446036000230D46B3
:104510004360A16002730B48FFF7DAFF4FF0FF31F1
:1045200000F06AFD55B1084B1A681C6062600548CE
:10453000FFF7CEFF00F063FD204638BD6560F6E76B
:104540001C820200FC190010F819001010B5044676
:10455000114B03601148FFF7BBFF4FF0FF3100F034
:104560004BFDA3682BB10E4A13689C420ED16368C1
:1045700013600A48FFF7ACFF00F041FD237B13B93D
:10458000204600F03DFC204610BD13465A68944278
:10459000FBD162685A60ECE71C820200FC19001033
:1045A000F819001010B50446FFF7D0FF204600F0C0
:1045B00024FC204610BD0000F8B5074610480E4602
:1045C000FFF786FF4FF0FF3100F016FD0D4B1C6822
:1045D00064B1A5688DB13246394628461DF01CFEEF
:1045E00058B928461DF010FE864206D10448FFF750
:1045F0006FFF00F004FD2046F8BD6468E8E700BFE7
:10460000FC190010F81900107047000010B504469E
:10461000074B40F81C3BFEF70DFE04F13800FCF799
:1046200063FF04F12800FCF75FFF204610BD00BFC8
:104630002C82020010B50446FFF7E8FF204600F088
:10464000DCFB204610BD00002DE9FF4105461C4B58
:10465000044645F8043B18220E46284600211BF06C
:104660007DFD0023DFF86480164FE36123626362FF
:1046700063636364694604F12800CDF80080039702
:10468000FFF711FF6846FCF72FFF694604F1380079
:10469000CDF800800397FFF706FF6846FCF724FF7C
:1046A0002346094A314604F11C00FEF78DFD2846D9
:1046B0003146FDF79EF8204604B0BDE8F08100BF0A
:1046C0002C820200707C0200D746000009460000E0
:1046D000C3681B681847012908B502D0022904D015
:1046E00008BD2830FFF7F4FF08BD3830FAE710B5F1
:1046F0000446FDF771F923682BB9E068FDF707F967
:10470000012360602360BDE81040FDF77BB938B538
:104710000546FDF761F92C6824B1E868FDF7F7F864
:104720006C68041BFDF76EF9204638BD38B50546A8
:10473000FDF752F92846AC68FFF7E9FF0444FDF79E
:1047400061F9204638BD000008B5FFF7EFFF1AF009
:1047500055FA02491AF05AFB08BD00BF00247449FB
:1047600010B50446FDF738F9E068FDF7D0F80023EE
:104770006060A360BDE81040FDF744B9002310B5A8
:104780000360436083600446FDF74AF8E06020461A
:10479000FFF7E6FF204610BD70477047704700EBFB
:1047A0000112936902F10C001B68184770B50546A9
:1047B0000E46044655F8043B1B6898472846314688
:1047C000FFF7D0F82368E6622046BDE870405B68DA
:1047D00018470430FFF7B4B910B50C460430FFF7A2
:1047E000EFF9204610BD00002DE9FF410F460021E2
:1047F00004469046174A184E184DC3620260416045
:1048000081608161816269460C3003950096FFF7F3
:104810004AFE6846FCF768FE694604F11C000395F1
:104820000096251DFFF73FFE6846FCF75DFE4246F9
:1048300039462846FFF760FAE16A2846FFF792F802
:10484000284622460649FFF761F9204604B0BDE834
:10485000F08100BF3C82020099470000707C02009A
:104860009F4700002DE9FF4105468846164655F84A
:10487000043B04461B689847FDF7AEF8D8F80C7067
:10488000300197B10C3041462044FFF70CFE012265
:1048900031462846FFF746F9FDF7B4F8236820466D
:1048A0005B68984704B0BDE8F081074B0C3000937B
:1048B000064B694620440393FFF7F5FD6846FCF775
:1048C00013FE3A46E4E700BF99470000707C0200FF
:1048D00003689B6818470000074B10B5036000236E
:1048E00043608360C3600446FCF79AFF034920617C
:1048F000FCF7A0FF204610BD54820200D148000002
:1049000003460A46011D0069FCF7C0BF011D00698E
:10491000FCF7DDBF10B50446024B0360FFF7F6FF5E
:10492000204610BD5482020010B50446006930B123
:10493000036861695B6A98470023236110BD6FF0CB
:10494000150010BD30B40446006903689D6A134623
:10495000AC460A46616930BC604730B40446006921
:104960000368DD6A1346AC460A46616930BC60479D
:10497000036941691A681846126B10470369416957
:104980001A681846526B104730B404460069036831
:104990009D6B1346AC460A46616930BC60470369AB
:1049A00041691A681846D26B1047036941691A6851
:1049B0001846126C1047036941691A681846526C10
:1049C000104770B50D460169044641B929680E6A61
:1049D00000F114012846B04718B9256170BD6FF089
:1049E000150070BD074B10B50360036904460BB199
:1049F000FFF79AFF044B20462360FFF7A7FD2046F0
:104A000010BD00BF688202003881020010B5044664
:104A1000FFF7E8FF204600F0F0F9204610BD000047
:104A2000002210B504461146FFF76CFD034B2046EB
:104A3000236000232361636110BD00BF6882020010
:104A40001BF0EEBB1BF04ABC1BF09EBB1BF08EBBE9
:104A500070B505464FF47A74FEF768FC95FBF4F4E4
:104A6000002C064602DDFCF7B0FF28B9FEF75EFC1D
:104A7000801BA842FAD370BD204600F0A3FAF5E7E8
:104A800008B504491AF00EF91AF0D2FABDE8084048
:104A9000FFF7DEBF002474494FF47A735843FFF7E1
:104AA000D7BF0000014B1868FDF71CBF443B001046
:104AB000034B10B503600446FFF794FF204610BD7A
:104AC000B482020008B5084B1B685BB90749084867
:104AD000084AFFF711F94FF41651BDE808400448A1
:104AE000FEF740BF08BD00BFF418001002C0092047
:104AF000E43B001003C0092070470000022810B5F5
:104B0000044601DC002010BD1AF0A4FC0923002299
:104B10000360094B033C53F8240043F8242040B1C0
:104B200003681B699847041EECDA1AF093FC644290
:104B300004604FF0FF3010BD181A0010F8B505469C
:104B40000E4614461AF086FC0923022D03600FDC82
:104B5000124B1B680BB9FFF7B5FF35463719104EDE
:104B6000BD4215D015F8011B3046FFF729F8F7E7CD
:104B70000C4B033D53F8250060B103682246DB6807
:104B800031469847041E03DA1AF064FC634203605E
:104B90002046F8BD4FF0FF34FAE700BFF4180010CC
:104BA000E43B0010181A001070B504460D46164676
:104BB0001AF050FC0923022C03600BDC0F4B1B681E
:104BC0000BB9FFF77FFF0E48FEF7BAFF01242870EC
:104BD000204670BD0B4B033C53F8240058B10368CA
:104BE00032469B6829469847041EF1DA1AF032FCD7
:104BF00063420360ECE74FF0FF34E9E7F41800107C
:104C0000E43B0010181A001010B504461AF022FCFC
:104C10000923022C036010DD0A4B033C53F82400E7
:104C200040B103689B699847041E08DA1AF012FC29
:104C3000644204604FF0FF3010BD012010BD002021
:104C400010BD00BF181A001070B504460D46164678
:104C50001AF000FC0923022C03600BDD084B033C17
:104C600053F8240040B1036832462946BDE870403D
:104C7000DB691847002070BD4FF0FF3070BD00BFEA
:104C8000181A0010022808B504DC4FF40053002065
:104C90004B6008BD1AF0DEFB092303604FF0FF30C4
:104CA00008BD08B5FFF728FFFCF784FF08BD704773
:104CB00008B5FFF7FCFFBDE80840FCF743BC000067
:104CC0000C4A10B513681844EFF30881884205D3E5
:104CD0000C22094B4FF0FF301A6010BD07490C68D9
:104CE00024B10749096821448842F1D2106018466E
:104CF00010BD00BF08010010EC3B0010341B001079
:104D0000381B0010094C08B52368054698681AF04E
:104D1000B3FC2368D8681AF0AFFCFCF745FE08B175
:104D2000FCF784FE0DB1FCF7A1FEFEE78C0100103C
:104D30000120704708B5FFF7E5FF00211CF04BBBD1
:104D40001AF0D8BC08B5FCF743FF08BD08B5FCF75E
:104D500047FF08BD08B5FCF749FF08BD08B5FCF7DB
:104D60004DFF08BD10B50378044603F00303012B83
:104D70000CD00A4B4FF0FF311868FDF78BFD2378FC
:104D800003F00302012A03D1FFF78CFE002010BDBF
:104D900043F002032370012010BD00BF443B00100C
:104DA000037823F0030343F001030370FFF77ABE97
:104DB00010B51BF035F9044610B90248FCF792FE15
:104DC000204610BD1783020010B51BF029F90446D8
:104DD00010B90248FCF786FE204610BDF88202009A
:104DE00008B11BF025B9704710B50446FFF760FE07
:104DF0002046FFF7F5FF204610BDFFF7F1BF00008A
:104E000010B504460C48FFF763FB4FF0FF3100F08C
:104E1000F3F800231946094A52F82300A04208BFBC
:104E200042F823100133402BF6D10348FFF750FB23
:104E3000BDE8104000F0E3B8181B0010181A00106D
:104E40002DE9F34789464E4906461CF042FC0446CC
:104E500028B9FFF737FE204602B0BDE8F087494980
:104E600030461CF036FC18B9FFF72CFE0124F2E79F
:104E7000454930461CF02DFC18B9FFF723FE0224EB
:104E8000E9E71AF0E7FA0923404F03604048FFF7CB
:104E90001FFB4FF0FF3100F0AFF80024B84657F881
:104EA0002450002D54D00134402CF8D11AF0D2FAFD
:104EB000182303603648FFF70BFB00F0A0F80DE065
:104EC00031466846FFF7AAFA6846FFF7E7FA40B9A5
:104ED00047F824001AF0BEFA022303604FF0FF34B3
:104EE000B9E76846FFF7CAFA20B16846FFF7CFFA7C
:104EF00005463FE06846FFF7BAFA824630B91AF035
:104F0000A9FA0223036047F824A0E7E71820FFF777
:104F10004FFF0646FFF784FD1E4B68463360FFF7E0
:104F20009BFA29F48033024651463046FFF749FD8B
:104F3000071E0BDA1AF08EFA7F4207601EB1336843
:104F400030465B68984748F82450C7E7354611E07B
:104F50004FF0FF330E4847F82430FFF7B9FA00F05E
:104F60004EF833783A2BABD16A460B4930461CF0E9
:104F700041FB009D002DE6D048F8245003346AE739
:104F80003C8302004383020034830200181A00109D
:104F9000181B0010B48202007881020038B5044664
:104FA000FFF7C2FC05461CB1236820465B689847A2
:104FB000284638BD024B1B6803B11847704700BF35
:104FC0003C1B0010FDF7D6BB38B5044600F10805C0
:104FD0001022002128461BF0C1F8204640F8045F4B
:104FE000FDF73AFC206010B90248FCF77BFD204633
:104FF00038BD00BF4B8302000068FDF74BBC006862
:10500000FDF770BC10B504460068FDF7B1FC204602
:1050100010BD000080F309887047EFF309807047E6
:10502000684680F309883F480078C00714BF022013
:10503000032080F314887047DFF8ECC0EFF305839A
:105040001B0618BF6047EFF31483DB0708BF6047F8
:1050500000DF7047DFF8D4C0EFF305831B0618BFED
:105060006047EFF31483DB0708BF604700DF70473A
:10507000EFF30980816911F8021CF1B990E80F1073
:10508000E047EFF3098C8CE80700294B93E8060012
:1050900091420FD039B12CE9F00FC1F82CC00CB4FB
:1050A000FDF77EF80CBC1A60D2F82CC0BCE8F00FFB
:1050B0008CF309886FF0020E704710B51D4A126814
:1050C000914209D81C4C54F8214090E80F10A04799
:1050D000EFF3098C8CE80F0010BDFCF7EDFF144BCB
:1050E00093E80600914210D0EFF3098C2CE9F00F01
:1050F000C1F82CC00CB4FDF753F80CBC1A60D2F800
:105100002CC0BCE8F00F8CF309886FF0020E7047DA
:10511000FDF728F8FFF7E3BFFDF722F8FDF722F8C7
:10512000FFF7DDBF067E02000F22000029220000EB
:10513000983B001000000000FCFFFFFF0649074AF3
:10514000074B9A42BEBF51F8040B42F8040BF8E734
:10515000044880470448004768BF0200C8000010A8
:10516000D0030010813E000065170000FEE7FEE757
:10517000FEE7FEE7FEE7FEE7FEE7FEE7FEE7FEE707
:105180002DE9F843334D07462B685A1C2A60002B43
:105190005CD10122304C314B31481A702368DFF862
:1051A000EC80996807F004FA23682E48596807F0E4
:1051B000FFF92368DFF8D890D9682B482B4E07F009
:1051C000F7F92749404606F0CDF92649484600F050
:1051D000E7F82549304606F0C5F92349244806F08A
:1051E000C1F93369C6F8748043F40053336123680E
:1051F000C9F8788099681F4807F0EAF923681E48C3
:10520000596807F0E5F923681C4ED968DFF88480F7
:105210001B4807F0DDF91B4C1649304606F0FCF937
:105220001549404600F008F91549204606F0F4F902
:105230001349154806F0F0F92369C8F8786043F47B
:10524000005323612B68666701332B603846BDE845
:10525000F88300BFB02000108C0100100C0100107A
:10526000901B0010401B0010681B0010C01C001099
:105270004C1D0010081C0010B81B00101820001056
:10528000E01B0010F81E0010881F0010D81D001031
:10529000301C0010641E00100D4A10B5136804463F
:1052A000591E022B116011D10A4806F091F90A48E3
:1052B00006F08EF9094806F08BF9094806F0E2F984
:1052C000084806F0DFF9084806F0DCF9204610BD72
:1052D000B0200010D81D0010C01C00104C1D001084
:1052E00018200010F81E0010881F0010064B10B583
:1052F000036014338360002304464360083006F0E3
:1053000021FF204610BD00BF84830200036853F8CC
:105310000C3C1844EAE700BF064B10B50360143399
:105320008360002304464360083006F015FF2046E2
:1053300010BD00BFB4830200036853F80C3C18444E
:10534000EAE700BF10B50446FFF7D0FF2046FFF79D
:1053500054FD204610BD036853F80C3C1844F1E797
:1053600010B50446FFF7D8FF2046FFF746FD20465C
:1053700010BD036853F80C3C1844F1E710B504461F
:105380000B680360486853F80C1C60500021616092
:1053900053F80C0C1146204406F046FF204610BD81
:1053A00070B5044600F1080528460E4606F008FFD1
:1053B000054B284623601433A36000233146636005
:1053C00006F032FF204670BD8483020010B504460B
:1053D00091B91368236089B953F80C3C234479B917
:1053E00052681A60002363608B0703D504F108003C
:1053F00006F0A8FE204610BD024BEBE70823EDE7C0
:10540000014AEEE784830200988302000A460021E5
:10541000FFF7DCBF10B504460B680360486853F81B
:105420000C1C60500021616053F80C0C11462044A4
:1054300006F05FFF204610BD70B5044600F1080578
:1054400028460E4606F020FF054B284623601433FD
:10545000A36000233146636006F04BFF204670BD19
:10546000B483020010B5044691B91368236089B96A
:1054700053F80C3C234479B952681A6000236360E6
:105480008B0703D504F1080006F066FE204610BD28
:10549000024BEBE70823EDE7014AEEE7B483020095
:1054A000C88302000A460021FFF7DCBF03689B683F
:1054B00018477047704730B500224FF0FF344FF067
:1054C000FF358260C0E90045C26030BD82B08DE822
:1054D0000C004FF0FF334FF0FF32C0E900230023F0
:1054E00002B08360C360704700207047002070479F
:1054F0004FF0FF307047036810B55B6A0446984769
:10550000431C1EBFA36813F8010BA36010BD4FF02E
:10551000FF3070474FF0FF3070477047704730B52D
:1055200000224FF0FF344FF0FF358260C0E90045A4
:10553000C26030BD82B08DE80C004FF0FF334FF0F9
:10554000FF32C0E90023002302B08360C3607047CC
:1055500000207047002070474FF0FF30704703680D
:1055600010B55B6A04469847431C1EBFA36853F8F6
:10557000040BA36010BD4FF0FF3070474FF0FF30B9
:105580007047000010B50446034B40F81C3B0EF07A
:1055900061FC204610BD00BF3484020010B50446F3
:1055A000034B40F81C3B0EF055FC204610BD00BFDD
:1055B0007484020010B50446FFF7E4FF2046FFF7AD
:1055C0001CFC204610BD10B50446FFF7E7FF20463F
:1055D000FFF713FC204610BD2DE9F04106460D46AD
:1055E0009046002444451DDA7069B7693B1A0FD014
:1055F000A8EB04079F42A8BF1F4629463A461AF067
:1056000088FD73693C443D44A0451F447761E9DD52
:10561000336829785B6B30469847013002D00134FB
:105620000135DFE72046BDE8F0812DE9F04107466E
:105630000E4690460025454520DA7869BC69241A53
:10564000A31011D0A8EB05049C42A8BF1C461CB1B6
:10565000224631461FF0F5F87B692544A400264414
:10566000A8451C447C61E6DD3B6831685B6B3846CD
:105670009847013002D001350436DCE72846BDE802
:10568000F0812DE9F04106460D4690460024444540
:105690001DDAB168F7687B1A0FD0A8EB04079F42A8
:1056A000A8BF1F4628463A461AF033FDB3683C446B
:1056B0003D44A0451F44B760E9DD336830469B6A2E
:1056C0009847431C03D0287001340135DFE720469A
:1056D000BDE8F0812DE9F04107460E4690460025D1
:1056E000454520DAB968FC68641AA31011D0A8EB0C
:1056F00005049C42A8BF1C461CB1224630461FF040
:10570000A0F8BB682544A4002644A8451C44BC60FE
:10571000E6DD3B6838469B6A9847431C03D03060FF
:1057200001350436DCE72846BDE8F08103689B6953
:1057300018478368C16802468B4202D303689B6A9C
:10574000184713F8010B936070478268C1688A425A
:1057500002D303685B6A18471078704703681B6BB5
:1057600018470000074B10B5036000230446436050
:105770008360C3600361436183611C300DF022FCD0
:10578000204610BD3484020003689B691847836873
:10579000C16802468B4202D303689B6A184753F8DC
:1057A000040B936070478268C1688A4202D3036821
:1057B0005B6A18471068704703681B6B1847000046
:1057C000074B10B503600023044643608360C36049
:1057D0000361436183611C300DF0F4FB204610BD72
:1057E00074840200084670470846704710B50446A6
:1057F000074B40F8083B0EF03FF8237B1BB1A06934
:1058000008B1FFF7EDFA20460EF0B4FA204610BDBD
:105810007485020010B50446FFF7E8FF2046FFF745
:10582000ECFA204610BD10B514460298521A1AF030
:1058300070FC204610BD10B514461846521A1AF0D6
:1058400068FC204610BD000010B50446054B40F82A
:10585000083B0EF011F8044B204623600EF08AFA44
:10586000204610BDA4850200F88F020010B5044642
:10587000FFF7EAFF2046FFF7C0FA204610BDF0B55B
:1058800005460024C1B00DF804400134B4F5807F12
:10589000F9D12B6805F11D06DF6940AA3346694638
:1058A0002846B847012322462B77314668461AF02E
:1058B00021FC08B102232B7741B0F0BD003118BFA5
:1058C0000121074B10B54160036004460EF06CFAED
:1058D0000023A0602373204606F013F8204610BD75
:1058E000A48502000F4B10B500F1240103600023D2
:1058F0000A46044643608360C36003614361836179
:10590000C361036264301360536008329042FAD17D
:105910000823A166636604F16C000DF053FB20467A
:1059200010BD00BFF885020070B505460E468469BB
:1059300034B16368A2682946304698472468F7E77F
:1059400070BD38B50446806940B1C3685A1EC26054
:1059500023B90568FFF751FA2846F5E70023A3614C
:1059600038BD000010B504460B4B00210360FFF763
:10597000DBFF2046FFF7E5FFA06E04F12403984209
:1059800004D008B1FFF72CFA0023A36604F16C00E1
:105990000EF060FA204610BDF885020010B50446EE
:1059A000FFF7E0FF2046FFF728FA204610BD836886
:1059B000587C70478368987C70478368D86A7047C2
:1059C000836800201B6B82B0DAB262F30700C3F376
:1059D000072262F30F20C3F3074262F317401B0E46
:1059E00063F31F6002B07047836800205B6B82B076
:1059F000DAB262F30700C3F3072262F30F20C3F3A6
:105A0000074262F317401B0E63F31F6002B070473A
:105A10008368587C70478368987C70478368D86A2D
:105A20007047836800201B6B82B0DAB262F3070014
:105A3000C3F3072262F30F20C3F3074262F3174058
:105A40001B0E63F31F6002B07047836800205B6B1E
:105A500082B0DAB262F30700C3F3072262F30F20C9
:105A6000C3F3074262F317401B0E63F31F6002B0DB
:105A70007047836893F824007047836893F8250083
:105A80007047002070470020704770470020914207
:105A900004D211F8013B03EB7060F8E77047000097
:105AA0000D4B10B5036090F8433004467BB180681D
:105AB00008B1FFF795F9606908B1FFF791F9E0695E
:105AC00008B1FFF78DF9606A08B1FFF789F9204640
:105AD0000EF050F9204610BD588802000D4B10B54D
