:1000000000800010B9260000E9260000EB26000061
:10001000ED260000EF260000F126000000000000A1
:10002000000000000000000000000000ED250000BE
:10003000F526000000000000572600008D26000075
:10004000FB260000FB260000FB260000FB2600002C
:10005000FB260000FB260000FB260000FB2600001C
:10006000FB260000FB260000FB260000FB2600000C
:10007000FB260000FB260000FB260000FB260000FC
:10008000FB260000FB260000FB260000FB260000EC
:10009000FB260000FB260000FB260000FB260000DC
:1000A000FB260000FB260000FB260000FB260000CC
:1000B000FB260000FB260000FB260000FB260000BC
:1000C000FB260000FB260000FB26000010B5054CB7
:1000D000237833B9044B13B10448AFF300800123F4
:1000E000237010BD9801001000000000742F000064
:1000F0000C4B43B10C4810B50C49AFF300800C48D1
:10010000036823B910BD0A48036833B97047094B27
:10011000002BF7D0BDE810401847064B002BF5D058
:10012000184700BF00000000742F00009C01001061
:10013000980100100000000070B5174C05462046DD
:100140000E4601F0C2FC20F03C01204601F0B4FC58
:10015000204601F0BAFC01210235A94001432046A6
:100160000E4C01F0A9FC204601F0AFFC20F47F61A9
:10017000204601F0A1FC204601F0A7FC084B53F8F3
:10018000261040EA0111204601F096FCBDE87040BF
:10019000052002F0DBB800BFB4010010C801001058
:1001A000C8000010F8B500240025002606272146C7
:1001B0000120FFF7C1FF29460220FFF7BDFF3146AE
:1001C0000320FFF7B9FF013FF1D10136102EEDD129
:1001D0000135102DE9D10134102CE4D0E4E7000002
:1001E00008B500F0F5F801234FF47F6200210848BC
:1001F00001F03AFC00F002F900F0EAF801233C2299
:100200000221044801F030FCBDE8084000F0F6B8D7
:10021000C8010010B40100100748084A08B5121AB6
:10022000002102F023FC02F057F902F0FBFB02F080
:100230005AF902F097F900BF98010010D41E00107F
:1002400070B50E460446154601F0C2FB013609D0D2
:100250002046002101F0D6FB29462046BDE870402B
:1002600001F0CDBB70BD38B504460D4643685AB1A8
:10027000C26820461360012101F0C4FB29462046D4
:10028000BDE8384001F0BBBB0269F2E70322FFF78B
:10029000D7BF70B50E460446154601F099FB0136EE
:1002A00006D02A462046BDE870400221FFF7DBBF9A
:1002B00070BD0022FFF7EDBF014800F003B800BF9A
:1002C0001C2D0000036870B5DB680446984763681E
:1002D0005A6823681AB99B68BDE8704018475B6884
:1002E000156898476368281A00285A6807DC9168DF
:1002F00059601B68002BEAD050689847E7E72368ED
:1003000010681B69BDE870401847000010B504462E
:1003100001300DD110BD9C4209D12046896801F001
:100320002DFC2046BDE81040022101F040BC0C31FC
:100330000B685A1CEFD10248BDE8104000F0CEB85F
:10034000692D0000884208B508D0431C06D0013151
:1003500006D0044800F0C2F84FF0FF31084608BD4F
:100360000146FBE7382D00000B685A1C01D11846E6
:100370007047834201D1486870470C31F4E70000B0
:10038000421C10B5044607D0FFF7EEFF431C04469D
:1003900002D1024800F0A2F8204610BD492D00000D
:1003A00000F04CB808B500F049F838B100F04EF84C
:1003B00030B900F043F80028FBD108BD4FF0FF3002
:1003C00008BDEFF31080C04300F00100704700004B
:1003D00008B5FFF7F6FF72B6064B1A6822B980F02F
:1003E0000100054AC0B210701A681A6801321A601A
:1003F00008BD00BFE8010010E401001008B5074B7C
:100400001A6852B1FFF7DDFF1A68013A1A601B68DB
:100410001BB9034B1B7803B962B608BDE801001095
:10042000E401001030B585B06D46182420462946F9
:10043000ABBE0446204605B030BD0000024B186834
:1004400000F00100704700BFF0ED00E037B540F26A
:10045000051401AD20462946ABBE0446204603B034
:1004600030BD000000B599B0FFF7B2FF17496846EC
:10047000FFF71FFF164906A8FFF71BFF15490CA839
:10048000FFF717FF144912A8FFF713FF019A039B08
:1004900096201A60079A0A9B1A600D9A109B1A60A0
:1004A000139A159B1A6001F051FF019A049B962044
:1004B0001A60079A099B1A600D9A0F9B1A60139A8B
:1004C000169B1A6001F042FFE0E700BF32C009202E
:1004D00034C0092035C0092037C009200FB40120DD
:1004E00008B502F03FF801F09DBA000008B5024CD3
:1004F00023689847FCE700BF0801001008B50B48C7
:1005000000F034FE0A4B18600A4800F02FFE0A4B38
:1005100018600A4800F02AFE094B186002F082FABF
:10052000BDE808400021084601F0DDBFC82D0000ED
:100530003C170010C42D0000F4010010C02D000075
:10054000EC010010FFF7D2BF10B5044600F07CFDAF
:100550002146BDE8104002460148FFF7BFBF00BF7B
:10056000882D000002F00AB80B4AF0B4C2F18053A3
:1005700003F50043B3F5806F194628BF4FF480613F
:10058000064F074D5B1A074C07489E183A602E60CD
:1005900023600160F0BC7047D81E00105414001096
:1005A000FC01001050140010F801001000F0B2FE21
:1005B000FFF7DAFF0348002100F060FE00F0C6FC00
:1005C000FEE700000C010010024B4FF0FF311868ED
:1005D00000F0EABDF4010010014B186800F00CBEF9
:1005E000F401001030B502788C78013A4368D2B239
:1005F00013B19D78A54207D2022A4B60416006D80C
:1006000003B19960886030BD18465B68F0E700234D
:100610008B6030BD436802785968013A022A416014
:100620004FF0000205D809B188605A609A601846F8
:1006300070475A60FBE70000034B5A684260002293
:1006400058608260704700BF301E0010104B10B51C
:10065000DA688AB19A8A8A42DC680CD3C460D860AE
:10066000C468036104B12061521A92B28282998AED
:100670008A1A9A8210BD3CB900248A1AC460D860D4
:1006800003619A82848210BDA38A1A442346E2E75A
:10069000481E00102DE9F041174DEB6853B10026BC
:1006A000AB8A164F013BDFF85880AB82AA8A0AB9A1
:1006B000EC680CB9BDE8F081A36833B1616859609A
:1006C000616809B18B606260A66021463846FFF719
:1006D00089FFA38AAB826378042B01BFD8F800306E
:1006E000E28A9B18A38201236370E368EB600BB17D
:1006F0001D61E6602661D9E7481E0010301E00101B
:10070000C41E001083682BB142685A6042685AB117
:1007100093607047054B5A68904202D142685A6014
:1007200070471346002AF6D1704700BF301E0010F4
:1007300010B5846801462CB94378012B0DD1074CC4
:1007400003E0A4682378002BFBD00846FFF7DAFF0C
:100750002046BDE81040FFF745BF10BD301E001019
:10076000036910B563B1C268DA60C2684AB1998A98
:10077000848A2144998213610023C36000230361AA
:1007800010BD9A82FAE7000070B4114BDD78EFF3E8
:100790001086EFF3108272B69A78954211D9013221
:1007A0009A701A78541CA54208BF00241C7006B920
:1007B00062B6954207D970BC03EBC20358609960DA
:1007C0007047002EF4D070BC0220FFF7BDBE00BF02
:1007D000B41600100323037000234380436083603A
:1007E000C36070472DE9F84343880546002B63D06A
:1007F000324F81683A6891425ED1013B9BB243809F
:100800001BB100242046BDE8F8830B6A984229D129
:10081000C3680B6291F824300C6A5CBB8B706A6809
:10082000DFF89C80002A3BD02846FFF7F3FE0646FF
:100830004FF00109214600F0BDF83046FFF790FF68
:10084000336A3968EB60D8F80430A5F80290AE60DE
:1008500035628A789B789A4214D3304600F04EFE77
:10086000D0E71346002BD5D0DA689542F9D1EA6873
:10087000DA60CFE762681AB19278934238BF1346C4
:10088000E468CAE74046FFF7ADFE31464046FFF751
:10089000A9FE3B6883F8019086F801902046DDE7C9
:1008A000D8F8042092789A42ABD94046FFF79AFED6
:1008B00001223B685A70F1E7FF24A3E77C1E001079
:1008C000301E0010438870B504460E46134D43B9E0
:1008D0002A68116A8260C16010620133638000205F
:1008E00070BD80682A689042F7D081B19378827891
:1008F0009A4202D28370FFF71BFF62684AB12968EF
:100900002046FFF76FFE0921304600F019FE012056
:1009100070BD2B6863605A609C60F4E77C1E001019
:10092000F0B54FF080764FF0000E836A056B9B08A0
:1009300002BF1E4B1B889B0805EB8302540748BF70
:10094000043A02E94200A2F14004A2F14406A2F1F5
:100950000C0746F804EFBE42FBD1C66942F8206C92
:1009600041631249C4620968C90017D5112B15D912
:100970006FF00701103B5B084B43A3F138010A44B9
:100980004FF0CC30214691420BD108331C44231F39
:100990009D423CBF4FF0CC3344F8043C044B2B60E9
:1009A000F0BD41F8040C41F8080DECE7D02D000033
:1009B000A52E5AE2C36A19627047C36A19625A6265
:1009C00070470000054B1B7823B94FF08052044B51
:1009D0001A6070470122034B1A70704750120010C2
:1009E00004ED00E05112001038B51A4B1A4C18688B
:1009F00001234370FFF720FE6578A3783BB91748C1
:100A00006570FFF707FEBDE8384000F05DBD04EB00
:100A1000C503586802789AB9198900F0BBF9E378E0
:100A200001359D4208BF0025EFF31083EFF31082DC
:100A300072B6A278013AA270002BDED162B6DCE772
:100A4000012A03D1996800F033F9E8E700F09CFF30
:100A5000E5E700BF7C1E0010B4160010301E001029
:100A6000084B4FF0FF301A68074B1A6000225A609B
:100A7000072243F8042C054A136843F07F431360B0
:100A8000704700BFE82D000014E000E020ED00E01A
:100A90007047000008B50B4B186801234370FFF73F
:100AA000CBFD00F0ADF9084A136801331360FFF77E
:100AB000F1FD00F091FC0548FFF7ACFDBDE80840F2
:100AC00000F002BD7C1E0010C41E0010301E00107D
:100AD000064B1A68136BD26A934203D81A68044B08
:100AE0009A4202D00120FFF72FBD70477C1E0010F4
:100AF000A52E5AE2002ABBBF22F000420732033281
:100B000022F00702A8BF22F0030210B5B4BF1023E1
:100B10000C2392B1D4188C420FD8014403445442A0
:100B200041600360826021449818814202D30051E1
:100B30000346F9E70020186010BD012010BDEFF357
:100B4000108372B6026803F001030AB111680160F4
:100B500003B962B61046704781420DD3436899428B
:100B60000AD2EFF3108372B602680A60016013F0D4
:100B7000010003D162B67047012070470020704722
:100B80000123037000231039890843708370436088
:100B9000038143818381C1817047000070B58589DD
:100BA00004461646002D38D043891A1D50F82220DD
:100BB00001330A60C2899BB29A42438104BF002379
:100BC00043814368F3B14378022B1BD1FFF722FD29
:100BD00005460021FFF7EEFE2389E9691A1D44F856
:100BE00022100133E2899BB29A42238108BF00237D
:100BF000284608BF2381FFF7B3FD284600F07EFC9E
:100C0000002070BDEFF31080EFF3108372B6013D4A
:100C1000A5810028F4D162B670BD4AB14268094B83
:100C200042B11968FFF7DEFC0821304600F088FC6D
:100C3000012070BD1B6843605A60986001234370B7
:100C4000F2E700BF7C1E0010C2898089101A70472D
:100C500008B5FFF799FDBDE80840FFF7B3BE8389EB
:100C600010B504460BB34389043350F823300B60AE
:100C70004378022B04D10021FFF786FDFFF7A2FE87
:100C8000EFF31083EFF3108272B6A289013AA281CA
:100C900003B962B66389E28901339BB29A426381E8
:100CA00001D100236381042010BD184610BD00004F
:100CB000436870B504460E46002B4BD04578022D94
:100CC00020D0032D0AD0012D61D1FFF7A3FC0446EB
:100CD00032461021FFF771FE65700EE00846FFF7FF
:100CE0002EFF0546002852D02046FFF793FC2946E8
:100CF0000446FFF75FFE012363702046FFF730FDD7
:100D0000214622E0FFF786FC05460021FFF752FE50
:100D10002389E9691A1D44F82210EFF31082EFF3DA
:100D2000108172B6A1890131A18102B962B6E2894E
:100D300001339BB29A42238104BF00232381012304
:100D400028466B70FFF70CFD2946BDE8704010483F
:100D5000FFF748BC8089E189884213D223891A1D94
:100D600044F82260EFF31082EFF3108572B6013081
:100D7000A08102B962B601339BB2994208BF002339
:100D8000238170BD0320BDE87040FFF7DDBB70BD5F
:100D9000301E001010B5038B42781943062A044612
:100DA0000183438B15D133EA010219D121EA0301F2
:100DB00021832046FFF7D4FC012320466370628B19
:100DC0000821FFF7FAFD2146BDE810400548FFF76E
:100DD00009BC052A04D111EA030201D04283E5E7E8
:100DE00010BD00BF301E00100022034B1A60034AE2
:100DF0001268DA80704700BF681E0010CC2D00001A
:100E000008B50E4B5A680E4B196891420D4905D032
:100E10001A60DA880868013A02449A8098880A8839
:100E200090420AD1002205481A60FFF7F3FBBDE8A3
:100E3000084001460148FFF7D5BB08BD301E001031
:100E4000681E0010C41E001030B500240A4A136842
:100E500043B90360816013B19D68691A996044B118
:100E6000206030BD9D68A942F3D31C46491B1B6816
:100E7000EEE7106030BD00BF781E0010C0B1431C0B
:100E800011D00C4B984211D84FF47A710A4B1B6861
:100E90005A1E01FB0020B0FBF3F34FF6FE708342B5
:100EA00006D898B270474FF6FF7070474FF6FE7045
:100EB000704700BF00093D00842D000038B1830752
:100EC00004D10378002B18BF002070470020704722
:100ED000B0B50E4D00AF2878A8B90D4C236893F833
:100EE000241000F04FFB2368DA78FF2A03D1DA6A76
:100EF000203282F3098862680AB984E80C0000F0A5
:100F0000F9FC01232B700020B0BD00BF751E00103E
:100F10007C1E0010014B1878704700BF751E001032
:100F200010B5EFF3108434B9EFF305841CB9EFF377
:100F30001484E40702D4034B187810BDDFF808C00E
:100F400000DF10BD751E0010150F000090B589B0B0
:100F500000AFEFF31083002B37D1EFF30583002BA5
:100F600033D1FFF7DDFF28B9194C246814B1646848
:100F700004B1A047EFF3148404F00304022C18D04A
:100F8000032C1CD0012C1ED007F1200484F3098807
:100F9000104C2478E40710D5022484F31488BFF39E
:100FA0004F8FBFF36F8FDFF830C000DF2437BD46AF
:100FB00090BD084C2478E407F5D40324EDE7054CF4
:100FC0002478E407EFD5FF20F0E78220EEE700BFAA
:100FD000641E0010B22D0000D10E000070B50B464B
:100FE0001646024610B90024204670BD006800284D
:100FF000F9D0B2F90440E51CADB2062DF3D8D168A2
:10100000C1B11269043444EA012100F0F9FA002860
:10101000E9D00A4B013853F82040094AE36A5A6381
:10102000084B1B6843B19B6833B13146E078984761
:10103000E063D9E70A46E5E7E663D5E778160010EE
:10104000C9110000641E001008B500F093FA18B131
:10105000024B013853F8200008BD00BF781600107D
:1010600010B5FFF72BFF044670B1084B1B681BB18E
:10107000DB680BB1C06B9847E07800F017FBFF28E6
:101080000CBF8120002010BD802010BD641E001008
:1010900008B528B1FFF7F2FE00F072FC402008BD51
:1010A00008BD000010B5EFF3108434B9EFF30584E8
:1010B0001CB9DFF80CC000DF10BD822010BD00009D
:1010C00091100000830705D138B1436901691B689D
:1010D0001846704700231946FAE70346FBE700006D
:1010E00010B504460846DFF80CC000DF84E80300B2
:1010F000204610BDC510000010B548B1046824B1E9
:10110000237823B92046FFF765FB204610BD002059
:1011100010BD70B510F0030405460E4611D180B124
:101120000378032B0DD10846FFF7A8FE0146284699
:10113000FFF7C8FB012806D1002E14BFC120812073
:1011400070BD802070BD204670BD820708B50AD1F1
:1011500048B10378032B06D1FFF744FBFF280CBFEF
:101160008120002008BD802008BD000070B5054624
:10117000EFF3108494B9EFF305867EB9EFF314848E
:10118000E40706D4064C24781CB9BDE87040FFF78C
:10119000B3BF2846DFF80CC000DF70BD002070BD73
:1011A000751E0010F910000010B5EFF3108434B96B
:1011B000EFF305841CB9DFF80CC000DF10BD8220FE
:1011C00010BD000013110000084808B54FF0FF31B2
:1011D0000068FFF7E9FFDFF818C000DF0446FFF7FB
:1011E000C1F92046DFF80CC000DFFEE7701E0010DA
:1011F000491000006110000010B5EFF3108434B9FD
:10120000EFF305841CB9DFF80CC000DF10BD8220AD
:1012100010BD00004B1100002DE9F04180460F4643
:101220001646EFF3108404BBEFF30583D3B9EFF355
:101230001483DB0706D40E4B1B781BB9BDE8F041C5
:10124000FFF7CCBE0B4D4FF0FF312868FFF7ACFF26
:10125000404639463246DFF820C000DF04462868A1
:10126000FFF7CAFF2046BDE8F0810024FAE700BF7F
:10127000751E0010701E0010DD0F00000022FFF729
:10128000CBBF10B5044660B1016851B1406848B1A8
:10129000037833B90431890089B2FFF771FC6068C3
:1012A00010BD002010BD000038B5114C23780BB9DB
:1012B00000F0A6FAFF220F4B25781B689A708DB9B3
:1012C00029460D48FFF7DDFF0C4B2A4618602946DA
:1012D0000B48FFF783FE0B4B18600B48FFF746FFE8
:1012E0000A4B1860012300202370094B187038BD89
:1012F000741E00107C1E0010B82D0000381700105E
:10130000D42D00002C1E0010EC2D0000701E0010CB
:10131000751E001010B5EFF3108474B9EFF3058457
:101320005CB9EFF31484E40703D4BDE81040FFF781
:10133000BBBFDFF80CC000DF10BD822010BD000075
:10134000A91200002DE9FF410C46804618B303782E
:10135000012B25D10846FFF791FD02A90246404620
:10136000FFF71CFC012811D10020002C0246034687
:1013700018BF4020029904460D4616461F462046D7
:10138000294632463B4604B0BDE8F08100200246C3
:1013900003461020EEE78024054606460746EEE7A2
:1013A000002580242E462F46E9E770B50E461446E8
:1013B000054660B15AB90378012B08D1FFF744FC08
:1013C00038B128463146FFF743FC204670BD8020E7
:1013D00070BD812070BD0000F8B5114E34682CB18D
:1013E000A368104F013BA360A26802B1F8BD256855
:1013F000214638683560FFF7D8FF10B10420FFF7A9
:10140000A3F86379012B07D1E1682046FFF71CFDA3
:10141000002DEBD02C46E7E701232371F8E700BF4E
:10142000781E0010381700107FB50446164608468F
:1014300001B122B180232360204604B070BD0B7837
:10144000012BF7D102A9FFF70AFC042808BF1023DB
:1014500001AD14BF0196019395E8070084E80700E9
:10146000EAE7000038B504461546EFF3108010B9DE
:10147000EFF3058028B12A462046FFF7D5FF204626
:1014800038BD08461146DFF80CC000DF84E80700CD
:10149000F5E70000451300007FB50A4C4FF0FF321E
:1014A000216803A8FFF7DEFF039B102BF6D10499F8
:1014B00001A8FFF715FE019B002BEFD0029898477B
:1014C000ECE700BF38170010054B5860022343704B
:1014D000044B1B681BB11B690BB1C06B18477047ED
:1014E0007C1E0010641E001008B50348FFF792F838
:1014F000BDE80840FFF7E8BF301E001070B5044695
:1015000018B9BDE87040FFF7EFBF0B4EA278306806
:10151000012583789A4208D9FFF78EF83368204670
:101520005D70BDE87040FFF7CFBF65702146BDE834
:1015300070400248FFF756B87C1E0010301E0010A5
:1015400038B50D46014680B14FF6FF739842074CFF
:1015500002D02068FFF77AF8236805485D70FFF72E
:1015600059F8BDE83840FFF7AFBF38BD7C1E00100A
:10157000301E0010024B186800B1C078704700BFE1
:101580007C1E001010B5A8B9194B1B68997083F820
:101590002410184843689B788B4201D8002010BD66
:1015A000134C2168FFF71EF8012223685A70FFF7D9
:1015B0009BFFF3E7104B1B88984217D80F4B01385D
:1015C00053F8204094B10A4BA1701B6884F8241092
:1015D0009C42DED02046FFF7ABF86378012BDDD1CB
:1015E0000448FFF717F8FFF789FFD7E7FF2010BD82
:1015F0007C1E0010301E0010B42D00007816001064
:101600002DE9F0470D4611F0FF0F8046234816469E
:101610009A4608BF0135FFF792FA044620B94FF009
:1016200000094846BDE8F08700211D4B06631B8872
:10163000280A1C4EA0628B4201F10109EFD006EB93
:10164000890252F8042C0F464946002AF3D101239F
:10165000EDB284F80390C4F81CA0C4F838A022703E
:101660006370A57084F824506260A260E260226119
:101670002262A282E2822283628384F8252018B942
:101680000948FFF75CFA206320464146FFF748F916
:10169000204646F82740FFF731FFC2E7601A0010E6
:1016A000B42D000078160010681400102DE9F84FD2
:1016B0004D4D18B12B68DB78984241D100232C683E
:1016C0000127637000F067FFE062FFF701FA2B6803
:1016D000DFF828811C6AA4B92A684449D3784448B1
:1016E000013B41F82340116BFFF736FA2968414866
:1016F0000C63FFF731FA2C60FFF7F6FE2046BDE8D9
:10170000F88F6368B3B12046FEF784FF06460021D8
:10171000FFF750F93046FFF723F87770314640461F
:10172000FEF760FFE368326A6780A660E2603462B9
:101730001C46D0E7E2686380A360E3601446CAE712
:101740002D4B1B8898424DD8284B471E53F82760D5
:101750009946002E46D04FF0010A3046FEF7D2FFE0
:101760003046FEF7FDFFDFF894B0346AB4B9316B50
:101770001F4849F82740FFF7EFF9314634631D4809
:10178000FFF7EAF91D48296843689A788B789A42EE
:10179000B4D901234B70FEF725FFADE76368DBB1D9
:1017A0002046FEF737FF80460021FFF703F9404649
:1017B000FEF7D6FF88F801A041465846FEF712FF13
:1017C000E368D8F82020A4F802A0C4F80880E260FA
:1017D000C8F820401C46C9E7E2686380A360E36064
:1017E0001446C3E7FF2489E77C1E0010781600101A
:1017F00068140010601A0010B42D0000301E001094
:1018000038B52C4B2C491A880023184693424DD3E7
:101810002A4B402219882A48FFF76CF9294B2A489D
:101820001A882A4B42F000421968FFF763F9284BE7
:1018300008221988274B284C1868FFF75BF9FF230B
:101840000025E370012320486370A5622570A57010
:1018500084F824506560A560E56025612562A58255
:10186000E5822583658384F82550FFF768F91B49D5
:1018700020632046FFF754F80422194B20461A70C3
:101880005D60184B1A70DD601D619D82164B1C60F7
:1018900002236370FFF718FE144A154B12781D706F
:1018A0005D70DA70BDE83840FFF79EBA41F823005A
:1018B0000133ABE7B42D000078160010802D000036
:1018C000601A0010D02D0000681400107C2D00005C
:1018D000822D0000F0010010841E0010450500005C
:1018E000301E0010481E00107C1E0010B12D00009C
:1018F000B416001008B51E4B1A6842F47F021A6035
:101900001B681B0203F07F43DB43B3FA83F3194ADE
:10191000DBB21268C3F10803C2F30222934298BFFC
:10192000531C6FF08072144802FA03F3016803F04D
:101930007F4321F07F4213430360FFF791F80F4B81
:101940000028186012DBFF22012100F1604000F541
:10195000644002701A6853099B0003F1604302F06F
:101960001F0203F5614301FA02F21A6008BD00BFCD
:1019700020ED00E00CED00E01CED00E0601E00102A
:101980000321FFF7DDBD0000426810B57AB1FEF714
:1019900041FE0446FEF7E4FE012120466170FFF798
:1019A00009F82146BDE810400348FEF71BBE4288F7
:1019B0000132428010BD00BF301E001010B5002162
:1019C000044600F0DBF8012004F01F04A04010BD25
:1019D00038B505464B1C0C4629600FD00846FFF76A
:1019E000EDFF24F01F0404F11803EB6004F11C0365
:1019F0002B6104F1140368606B61AC6038BD006852
:101A000000F0D5B811B1012907D07047826841684C
:101A1000136823EA01031360704782684168136802
:101A20000B43F8E708B5FEF7BDFC0022044BC3F8F2
:101A3000C020044A136923F00403136130BF08BDBA
:101A400000C00F4000ED00E011B1012907D0704740
:101A500002680169136823EA010313607047026892
:101A6000016913680B43F8E7F8B504460025012720
:101A700002614A0102F1005202F51C221E4602F1E7
:101A800014030173436083600260236907FA05F25F
:101A90001A4208D0207B45EA401000F1005000F5C2
:101AA0001C20FFF78BFF0135202DEED1314620465B
:101AB000BDE8F840FFF7C8BF836842681B6800694B
:101AC00059400140594011607047836800691A68A5
:101AD0001040704708B5104B1868E0B901210F4A53
:101AE0001960D2F8C43043F40003C2F8C430A2F540
:101AF000D022106702200A4B1B6850600948B3FBD4
:101B0000F0F3013BD36004205160074900F090FBE3
:101B10001022064B1A6008BD6412001000C00F406E
:101B20002001001000093D00B902000000E100E0C2
:101B300008B5044B1B680BB9FFF7CCFF024B986844
:101B400008BD00BF6412001000400940034B9861BB
:101B50005A6942F001025A61704700BF00400940D3
:101B6000024A536923F00103536170470040094062
:101B70000122014B1A6070470040094010B5032450
:101B800000F16040A0F51C2043000009800000F136
:101B9000804000F53030026803F01E039C4022EACA
:101BA00004020260026899401143016010BD00F117
:101BB0006040A0F51C2043099B0003F1804303F51E
:101BC000303330B500F01F029C6EC1F3800505FA7A
:101BD00002F224EA02049C669C6E22439A6695B93E
:101BE000032443000009800000F1804000F53030FC
:101BF000026C03F01E039C4022EA04020264026CA1
:101C000099401143016430BD012810B408D0022866
:101C100008D010BC7047506820F00100506010E000
:101C200003460EE038230F4803FB010358680130D8
:101C300006D018699C68046093F83630002BEAD00F
:101C40000023382251430748421840580028E0D06A
:101C50001BB992F83620002ADBD0034A19461268D5
:101C600010BC10477012001068120010034A0021C7
:101C70009068C0F34200FFF7C7BF00BF00C000403C
:101C8000034A01219068C0F34200FFF7BDBF00BFC7
:101C900000000140034A02219068C0F34200FFF7B0
:101CA000B3BF00BF00800940034A03219068C0F31E
:101CB0004200FFF7A9BF00BF00C0094070B50B4646
:101CC000066829498E4222D006DCA1F580418E4269
:101CD0000CD000210C460BE024498E421AD001F5AD
:101CE00080418E42F5D12249082401E00524214992
:101CF0009AB10125726805FA03F313437360204615
:101D000000F096FA1C4B05FA04F41C6070BD1B49E8
:101D10000624EDE71A490724EAE7012B0AD04268B6
:101D20003820184900FB021292F8361092F835203C
:101D3000D14217D1012202FA03F0B3FA83F371689A
:101D40005B0921EA00017160716802FA03F30B423A
:101D500008D1094B02FA04F4C3F88040BFF34F8F57
:101D6000BFF36F8F70BD00BF0000014000800940CD
:101D7000A91C00006D1C000000E100E0811C0000B7
:101D8000951C0000701200102DE9F04F644B0468A0
:101D900087B09C4200F08D806ADCA3F580439C42B2
:101DA00079D0604B0801D3F800C0BCFBF0F293B2CD
:101DB00000FB12C2002A00F0AA800125E6469946DF
:101DC000AB464FF0000A0191039100264FEA4E0303
:101DD0000493DDF804804FEA8E03EFB20593F3B26B
:101DE0000093049B002BABBF059BB3FBF8F3B3FB45
:101DF000F8F31B09A8BF5B090133C3F34F03002BA2
:101E000000F0888016B1012B08BF0223A81958439F
:101E1000C000BEFBF0F00130C1EB50000028B8BF9D
:101E200040420290029A0398824262DA91425AD169
:101E30000F2D07D1BB469946DDF800A05F464B4603
:101E4000CDF800A0217B41F080012173C3F307216D
:101E5000DBB221712370009B43EA0712D2B284F8EF
:101E60002820237B03F07F03237307B0BDE8F08FA6
:101E70002D4B9C4229D003F580439C4291D12B4BA2
:101E8000D3F8AC2122F44022C3F8AC21D3F8AC2122
:101E900042F4802224E0254BD3F8A82122F0C0028E
:101EA000C3F8A821D3F8A82142F04002C3F8A82122
:101EB00077E71E4BD3F8A82122F44072C3F8A8217B
:101EC000D3F8A82142F48072F0E7184BD3F8AC2184
:101ED00022F44032C3F8AC21D3F8AC2142F4803272
:101EE000C3F8AC215DE7BB469946029ADDF800A035
:101EF00003920136F3B2BB428844FFF470AF0F2D5A
:101F00009CD0019B01350B44E64401935DE701271A
:101F1000009297E7002E0CBF0123022376E700BF53
:101F200000000140200100100080094000C00F4067
:101F300010B50268137DDB07FCD5382443680848D8
:101F4000117804FB03035868C9B2013006D0586900
:101F50009B680360536843F001035360084610BD5B
:101F6000701200103821114A436801FB0323DA691B
:101F7000013209D01A6B1B6A12681A4214D1036825
:101F8000187DC0F3801070470268127D920604D558
:101F90000022012083F83420704793F834000F2882
:101FA0008CBF002001207047002070477012001085
:101FB00038B504460D462046FFF7D4FF0028FAD076
:101FC00038212368EDB21D706368044A01FB0323C6
:101FD00093F83420013283F8342038BD7012001099
:101FE0002DE9F84F9A463C4C03680546A34218BFBA
:101FF00000248946904647681CB1237C03F03F03C8
:10200000237438234FF0FF32344E284603FB076316
:10201000DA615A60002283F835201146FFF74EFE40
:10202000B9F1000F55D02E494046FEF79DF92D49D4
:1020300083465046FEF798F9A9F10203012B1BD8FD
:10204000BAF1FF3F0BD0244B98420DD164B1237CF1
:10205000244943F0800323745046FEF757F9B9F141
:10206000030F0CD0BDE8F88F382000FB0760514605
:102070001C30FEF70BF9F2E7B9F1010F29D1B8F1E5
:10208000FF3F01D1BDE8F88F07222B681A72124B6F
:102090009B450AD14CB1237C404643F04003237456
:1020A0000F49BDE8F84FFEF731B9382404FB07604B
:1020B000414600220430FEF7ECF801226B68284606
:1020C00004FB036686F835200021BDE8F84FFFF7D2
:1020D000F5BDBDE8F88F00BF000001407012001090
:1020E000142E0000F02D00002DE9F0410F460546AA
:1020F000464938461646FEF743F9454904463046F8
:10210000FEF73EF901462046FEF71CF9414B044616
:10211000984228605DD047D8A3F58043984250D0BC
:1021200001234FF0000823724FF416512846C4F8DB
:102130000480FFF729FE03222B6834491A733846BE
:10214000FEF7E4F832493046FEF7E0F87A1C03D097
:1021500041463846FFF72BFD731C03D00021304663
:10216000FFF725FD2B4B9C424BD03ED8A3F5804377
:102170009C4243D038216A68274B284601FB023233
:102180004FF0FF3300215360D3611A46FFF728FF59
:10219000224B9C4206D10122214B69681A602868B3
:1021A000204B03C3BDE8F0811F4B984217D003F5C5
:1021B00080439842B4D11D4AD2F8C43043F0007332
:1021C00004E01A4AD2F8C43043F00803C2F8C4301D
:1021D000A6E7164AD2F8C43043F01003F6E7134AD4
:1021E000D2F8C43043F08073F0E70F4B9C420AD022
:1021F00003F580439C42BDD1032300E000236B60C4
:10220000B8E70123FBE70223F9E700BFA42E000093
:10221000382E0000000001407012001000C0004085
:102220006C120010C81E00100080094000C00F4052
:1022300030B50C4CA268A4681346B4F1805F0CD290
:10224000131F094C094A53F8045F42F8045FA24285
:10225000F9D14FF08053034A9360103043F82010B7
:1022600030BD00BF00ED00E0C0000010FCFFFF0F1C
:102270002022264BC3F8A021D3F8A021920603D533
:10228000D3F8A0215006FBD50222C3F80421002276
:102290000120C3F8A821C3F8AC210B22C3F80C011C
:1022A000AA21C3F884205522C3F88C10C3F88C20CF
:1022B000C3F88000C3F88C10C3F88C20134B1A4667
:1022C000D3F888104901FBD50321C3F88010AA2157
:1022D000C3F88C105521C3F88C10D2F8883013F055
:1022E000407FFAD00523C2F80831094BC2F8C43048
:1022F0000023C2F8C831136823F4704323F03A0373
:1023000043F4405343F03A031360704700C00F405A
:10231000DE87280400F0FEBB00F0B0BB70B50546B8
:102320004FF47A74FFF704FC95FBF4F4002C064696
:1023300002DDFEF746F828B9FFF7FAFB801BA8423A
:10234000FAD370BD204600F021F9F5E74FF47A7317
:102350005843FFF7E3BF000008B5084B1B685BB9A3
:1023600007490848084AFFF7BFFE4FF41651BDE879
:1023700008400448FFF708BD08BD00BF6C120010FC
:1023800002C00920C81E001003C0092070470000C9
:10239000022810B5044601DC002010BD00F0AEF9A3
:1023A000092300220360094B033C53F8240043F83F
:1023B000242040B103681B699847041EECDA00F042
:1023C0009DF9644204604FF0FF3010BD50130010BF
:1023D000F8B505460E46144600F090F90923022D83
:1023E00003600FDC124B1B680BB9FFF7B5FF3546D6
:1023F0003719104EBD4215D015F8011B3046FFF7B6
:10240000D7FDF7E70C4B033D53F8250060B1036897
:102410002246DB6831469847041E03DA00F06EF965
:10242000634203602046F8BD4FF0FF34FAE700BF77
:102430006C120010C81E00105013001070B5044636
:102440000D46164600F05AF90923022C03600BDCF6
:102450000F4B1B680BB9FFF77FFF0E48FFF768FDB6
:1024600001242870204670BD0B4B033C53F8240018
:1024700058B1036832469B6829469847041EF1DA32
:1024800000F03CF963420360ECE74FF0FF34E9E70A
:102490006C120010C81E00105013001070B50446D6
:1024A0000D46164600F02AF90923022C03600BDDC5
:1024B000084B033C53F8240040B1036832462946D8
:1024C000BDE87040DB691847002070BD4FF0FF3059
:1024D00070BD00BF5013001008B5FFF757FFFEF79F
:1024E00065F808BD704708B5FFF7FCFFBDE8084078
:1024F000FDF758BE0C4A10B513681844EFF3088175
:10250000884205D30C22094B4FF0FF301A6010BDF2
:1025100007490C6824B10749096821448842F1D26F
:102520001060184610BD00BF24010010D01E00101E
:102530005014001054140010094C08B523680546C7
:10254000986800F093F92368D86800F08FF9FDF7D8
:1025500027FF08B1FDF766FF0DB1FDF783FFFEE72A
:102560002801001008B5FFF7E7FF08B5FEF72CF8C3
:1025700008BD08B5FEF730F808BD0000024B1B6827
:1025800003B11847704700BF58140010FEF78ABD0A
:1025900080F309887047EFF309807047684680F33D
:1025A00009883F480078C00714BF0220032080F349
:1025B00014887047DFF8ECC0EFF305831B0618BFE3
:1025C0006047EFF31483DB0708BF604700DF704705
:1025D000DFF8D4C0EFF305831B0618BF6047EFF3A5
:1025E0001483DB0708BF604700DF7047EFF3098003
:1025F000816911F8021CF1B990E80F10E047EFF380
:10260000098C8CE80700294B93E8060091420FD013
:1026100039B12CE9F00FC1F82CC00CB4FEF758FA10
:102620000CBC1A60D2F82CC0BCE8F00F8CF30988FF
:102630006FF0020E704710B51D4A1268914209D81A
:102640001C4C54F8214090E80F10A047EFF3098C80
:102650008CE80F0010BDFEF7C7F9144B93E8060095
:10266000914210D0EFF3098C2CE9F00FC1F82CC087
:102670000CB4FEF72DFA0CBC1A60D2F82CC0BCE8E2
:10268000F00F8CF309886FF0020E7047FEF702FA24
:10269000FFF7E3BFFEF7FCF9FEF7FCF9FFF7DDBF3C
:1026A000B22D00003F0B0000590B00007C1E0010F3
:1026B00000000000FCFFFFFF0649074A074B9A4253
:1026C000BEBF51F8040B42F8040BF8E704488047FA
:1026D00004480047802F0000C80000109801001037
:1026E0007122000019020000FEE7FEE7FEE7FEE7A8
:1026F000FEE7FEE7FEE7FEE7FEE7FEE7014B1868B0
:10270000704700BF280100108A892DE9F041054675
:1027100010070C465AD44B68002B05DC0B6C002BC1
:1027200002DC0020BDE8F081E66A002EF9D000232B
:1027300012F480522F682B6033D0606DA3895A0742
:1027400005D56368C01A636B0BB1236CC01A0023F4
:102750000246E66A216A2846B047431CA38906D18F
:1027600029681D294BD82B4ACA40D60747D50022D5
:1027700062602269D904226004D5421C01D12B6811
:1027800003B96065616B2F600029CAD004F144036E
:10279000994202D02846FFF7BFFD00206063BDE8E4
:1027A000F081216A01232846B047411CC6D12B681D
:1027B000002BC3D01D2B01D0162B01D12F60B0E709
:1027C000A38943F04003A381BDE8F0810F69002F86
:1027D000A7D0930718BF00230E6808BF4B69A6EB6C
:1027E00007080F608B60B8F1000F9ADD43463A4648
:1027F000216A2846A66AB047002807DCA38943F06F
:102800004003A3814FF0FF30BDE8F0810744A8EBFF
:102810000008E8E70100402038B50B6905460C4682
:10282000DBB118B183690BB900F072F80C4B9C4214
:1028300009D16C68B4F90C307BB121462846BDE85B
:102840003840FFF761BF074B9C4201D1AC68F1E70C
:10285000054B9C4208BFEC68ECE7002038BD00BF88
:10286000302F0000502F0000102F0000014620B92B
:10287000044B0549186800F0B7B8044B1868FFF717
:10288000CBBF00BF702F00001928000028010010E6
:10289000014900F0A9B800BF19280000002310B5B5
:1028A000044603604360836081814366C2810361A3
:1028B00043618361194608225C3000F0D7F8054B6C
:1028C00024626362044BA362044BE362044B236300
:1028D00010BD00BFF12B0000132C00004B2C00009A
:1028E0006F2C000070B568254A1E55430E4605F151
:1028F0007401FFF70FFD044640B1002180E842005B
:102900000C30A06005F1680200F0B0F8204670BD00
:10291000836910B5044633BB8364C3640365124BFB
:10292000124A1B688262984204BF0123836100F04F
:102930001FF86060204600F01BF8A060204600F001
:1029400017F80022E06004216068FFF7A7FF01226A
:102950000921A068FFF7A2FF02221221E068FFF719
:102960009DFF0123A36110BD702F0000912800007E
:10297000F8B51C4B07461E68B36913B93046FFF71C
:10298000C7FF4836B4687368013B03D5336833B179
:102990003668F7E7B4F90C506DB16834F4E70421F8
:1029A0003846FFF79FFF30600028F1D10C23044622
:1029B0003B602046F8BD4FF6FF73E3810123656657
:1029C000A3812560A560656025616561A561082218
:1029D000294604F15C0000F049F86563A563A5642D
:1029E000E564E6E7702F00002DE9F843804689464C
:1029F000002600F1480414B93046BDE8F883A56804
:102A00006768013F01D52468F5E7AB89012B07D939
:102A1000B5F90E30013303D029464046C847064376
:102A20006835EEE770B500250C4E0D4CA41BA410C4
:102A3000A54209D100F066F900250A4E0A4CA41BF4
:102A4000A410A54205D170BD56F825309847013530
:102A5000EEE756F8253098470135F2E78C01001073
:102A60008C0100108C0100109401001003460244F8
:102A7000934200D1704703F8011BF9E738B50546CA
:102A8000002943D051F8043C0C1F002BB8BFE418B8
:102A9000FFF76BFD1E4A1368104633B9636014607C
:102AA0002846BDE83840FFF764BDA3420BD9216832
:102AB0006218934201BF1A685B6852182260636013
:102AC0000460EDE713465A680AB1A242FAD91968C0
:102AD0005818A0420BD1206801445818824219604E
:102AE000DED110685268014419605A60D8E702D9F3
:102AF0000C232B60D4E7206821188A4201BF11689B
:102B000052680918216062605C60C9E738BD00BF87
:102B10005C14001070B5CD1C25F0030508350C2D94
:102B200038BF0C25002D064601DBA94203D90C2332
:102B30003360002070BDFFF718FD234A146821465A
:102B400091B9224C23681BB9304600F041F820604F
:102B50002946304600F03CF8431C26D10C23304671
:102B60003360FFF706FDE4E70B685B1B1AD40B2B01
:102B70000FD90B60CC18CD503046FFF7FAFC04F1AA
:102B80000B00231D20F00700C31A1BD05A42E2504D
:102B900070BD8C420BBF63684B681360636018BFE5
:102BA0000C46E9E70C464968CAE7C41C24F0030454
:102BB000A04205D0211A304600F00AF80130CDD0ED
:102BC0002560D9E770BD00BF5C14001060140010D0
:102BD00038B50023054C054608462360FFF78AFCFC
:102BE000431C02D1236803B12B6038BDD01E0010F6
:102BF00010B50C46B1F90E1000F072F80028ABBF0A
:102C0000636DA3891B1823F48053ACBF6365A38154
:102C100010BD2DE9F0411F468B890546DB050C46AA
:102C2000164605D502230022B1F90E1000F046F831
:102C3000A389324623F48053A381B4F90E103B4696
:102C40002846BDE8F04100F017B810B50C46B1F9C0
:102C50000E1000F033F8431CA38915BF606523F400
:102C6000805343F48053A38118BFA38110BDB1F9F1
:102C70000E1000F013B8000038B50546084611469E
:102C80000022054C22601A46FFF7A2FB431C02D12A
:102C9000236803B12B6038BDD01E001038B5002367
:102CA000054C054608462360FFF772FB431C02D122
:102CB000236803B12B6038BDD01E001038B505461F
:102CC000084611460022054C22601A46FFF7E6FB33
:102CD000431C02D1236803B12B6038BDD01E001005
:102CE00038B50546084611460022054C22601A46B2
:102CF000FFF7A4FB431C02D1236803B12B6038BD4E
:102D0000D01E0010F8B500BFF8BC08BC9E46704746
:102D1000F8B500BFF8BC08BC9E467047242D0000E3
:102D2000DC010010D51A0000311B0000611B0000FF
:102D3000711B00004D1B000070696E6D6170206D8D
:102D400069732D6D617463680070696E6D617020C8
:102D50006E6F7420666F756E6420666F722070658A
:102D6000726970686572616C00636F756C64206E67
:102D70006F742070696E6F7574000000100200009F
:102D8000CC030000E8030000525458206572726FB3
:102D90007220636F64653A203078253038582C20D3
:102DA0007461736B2049443A203078253038580AD2
:102DB000001001000F0000000400000000020010DD
:102DC0002002001030020010400200100500010037
:102DD0000002000199140000020000000100000040
:102DE0002003000040170010FF760100541200106D
:102DF00011C00920000001400100000042C009206C
:102E00000000014002000000FFFFFFFFFFFFFFFF87
:102E10000000000016C00920000001400100000071
:102E200047C009200000014002000000FFFFFFFF33
:102E3000FFFFFFFF0000000001C0092000C00940A3
:102E40000200000003C0092000C000400100000093
:102E50000BC00920008009400100000010C00920BB
:102E600000000140010000001AC0092000C0094014
:102E70000300000041C009200000014002000000E2
:102E800049C0092000800940020000009DC00920BF
:102E900000C0094003000000FFFFFFFFFFFFFFFF2E
:102EA0000000000000C0092000C00940020000002E
:102EB00002C0092000C00040010000000AC0092033
:102EC00000800940010000000FC0092000000140FF
:102ED0000100000019C0092000C0094003000000E3
:102EE00040C00920000001400200000048C0092045
:102EF00000800940020000009CC0092000C0094079
:102F000003000000FFFFFFFFFFFFFFFF00000000C6
:102F100000000000000000000000000000000000B1
:102F200000000000000000000000000000000000A1
:102F30000000000000000000000000000000000091
:102F40000000000000000000000000000000000081
:102F50000000000000000000000000000000000071
:102F60000000000000000000000000000000000061
:082F70002C010010000000001C
:082F780018F6FF7F01000000C4
:102F80003F000000060000005B0000004F00000052
:102F9000660000006D0000007D00000007000000DA
:102FA0007F0000006F000000770000007C00000040
:102FB000390000005E000000790000007100000090
:102FC000E7040000FD040000000000000100000014
:102FD000001000005002001000D8B805D81E0010E4
:102FE0002C01001000000000302F0000502F0000C6
:102FF000102F000000000000000000000000000092
:1030000000000000000000000000000000000000C0
:1030100000000000000000000000000000000000B0
:1030200000000000000000000000000000000000A0
:103030000000000000000000000000000000000090
:1030400000000000F1000000E1010000CD000000E0
:04000003000026B91A
:00000001FF
