:1000000000800010DD2500000D2600000F260000F6
:100010001126000013260000152600000000000035
:10002000000000000000000000000000112500009A
:1000300019260000000000007B250000B12500000B
:100040001F2600001F2600001F2600001F2600009C
:100050001F2600001F2600001F2600001F2600008C
:100060001F2600001F2600001F2600001F2600007C
:100070001F2600001F2600001F2600001F2600006C
:100080001F2600001F2600001F2600001F2600005C
:100090001F2600001F2600001F2600001F2600004C
:1000A0001F2600001F2600001F2600001F2600003C
:1000B0001F2600001F2600001F2600001F2600002C
:1000C0001F2600001F2600001F26000010B5054C4B
:1000D000237833B9044B13B10448AFF300800123F4
:1000E000237010BD5801001000000000B839000056
:1000F0000C4B43B10C4810B50C49AFF300800C48D1
:10010000036823B910BD0A48036833B97047094B27
:10011000002BF7D0BDE810401847064B002BF5D058
:10012000184700BF00000000B83900005C01001053
:1001300058010010000000002DE970434FF0000846
:10014000104D114CDFF844906B691A686B681A42C5
:100150002369626814BF05200A201A6002F0B2FB0E
:1001600002460B464046494602F03CFD02F022FEA4
:10017000064602F071F8E368626830461A6002F0E1
:100180006BF8E1E78C010010740100100000E03F03
:1001900038B518250B4C2A460021204603F088F973
:1001A0002046094C094900F064F82A4600212046FF
:1001B00003F07EF92046BDE838400022044900F0F3
:1001C00046B800BF740100108C01001006C0092061
:1001D00045C009200748084A08B5121A002103F053
:1001E00067F902F00BF903F03FF902F00EF902F0A3
:1001F0004BF900BF580100109C1E001070B50E4650
:100200000446154601F0B0FB013609D02046002116
:1002100001F0C4FB29462046BDE8704001F0BBBB9D
:1002200070BD38B504460D4643685AB1C2682046D1
:100230001360012101F0B2FB29462046BDE8384099
:1002400001F0A9BB0269F2E70322FFF7D7BFFFF76E
:10025000D5BF70B50E460446154601F085FB013644
:1002600006D02A462046BDE870400221FFF7D9BFDC
:1002700070BD0022FFF7EDBF014800F003B800BFDA
:1002800060370000036870B5DB6804469847636810
:100290005A6823681AB99B68BDE8704018475B68C4
:1002A000156898476368281A00285A6807DC91681F
:1002B00059601B68002BEAD050689847E7E723682D
:1002C00010681B69BDE870401847000010B504466F
:1002D00001300DD110BD9C4209D12046896801F042
:1002E000D3FB2046BDE81040022101F0E6BB0C31F3
:1002F0000B685A1CEFD10248BDE8104000F0BAB8B4
:10030000AD370000884208B508D0431C06D0013143
:1003100006D0044800F0AEF84FF0FF31084608BDA3
:100320000146FBE77C3700000B685A1C01D11846D8
:100330007047834201D1486870470C31F4E70000F0
:10034000421C10B5044607D0FFF7EEFF431C0446DD
:1003500002D1024800F08EF8204610BD8D37000013
:1003600000F038B808B500F035F838B100F03AF8C8
:1003700030B900F02FF80028FBD108BD4FF0FF3056
:1003800008BDEFF31080C04300F00100704700008B
:1003900008B5FFF7F6FF72B6064B1A6822B980F06F
:1003A0000100054AC0B210701A681A6801321A605A
:1003B00008BD00BFB0010010AC01001030B585B021
:1003C0006D46182420462946ABBE0446204605B09B
:1003D00030BD0000024B186800F00100704700BFFC
:1003E000F0ED00E037B540F2051401AD2046294696
:1003F000ABBE0446204603B030BD000000B599B046
:10040000FFF7C6FF17496846FFF733FF164906A8EE
:10041000FFF72FFF15490CA8FFF72BFF144912A86F
:10042000FFF727FF019A039B96201A60079A0A9B01
:100430001A600D9A109B1A60139A159B1A6001F0AE
:1004400017FF019A049B96201A60079A099B1A606D
:100450000D9A0F9B1A60139A169B1A6001F008FF01
:10046000E0E700BF32C0092034C0092035C00920B0
:1004700037C009200FB4012008B502F005F801F0DB
:100480009DBA000008B5024C23689847FCE700BFFE
:10049000C800001008B50B4800F034FE0A4B186085
:1004A0000A4800F02FFE0A4B18600A4800F02AFEA6
:1004B000094B186002F0D8FFBDE80840002108464B
:1004C00001F0A3BF0C38000004170010083800002A
:1004D000BC01001004380000B4010010FFF7D2BFC7
:1004E00010B5044600F07CFD2146BDE810400246F0
:1004F0000148FFF7BFBF00BFCC37000001F0D0BFFD
:100500000B4AF0B4C2F1805303F50043B3F5806F9A
:10051000194628BF4FF48061064F074D5B1A074C00
:1005200007489E183A602E6023600160F0BC704757
:10053000A01E00101C140010C4010010181400109C
:10054000C001001000F0B2FEFFF7DAFF03480021FF
:1005500000F060FE00F0C6FCFEE70000CC000010DA
:10056000024B4FF0FF31186800F0EABDBC010010EB
:10057000014B186800F00CBEBC01001030B50278C9
:100580008C78013A4368D2B213B19D78A54207D264
:10059000022A4B60416006D803B19960886030BD83
:1005A00018465B68F0E700238B6030BD4368027833
:1005B0005968013A022A41604FF0000205D809B19A
:1005C00088605A609A60184670475A60FBE70000DE
:1005D000034B5A684260002258608260704700BF37
:1005E000F81D0010104B10B5DA688AB19A8A8A4259
:1005F000DC680CD3C460D860C468036104B12061B6
:10060000521A92B28282998A8A1A9A8210BD3CB991
:1006100000248A1AC460D86003619A82848210BD63
:10062000A38A1A442346E2E7101E00102DE9F04188
:10063000174DEB6853B10026AB8A164F013BDFF82C
:100640005880AB82AA8A0AB9EC680CB9BDE8F0817F
:10065000A36833B161685960616809B18B606260F9
:10066000A66021463846FFF789FFA38AAB826378EC
:10067000042B01BFD8F80030E28A9B18A382012323
:100680006370E368EB600BB11D61E6602661D9E73A
:10069000101E0010F81D00108C1E001083682BB176
:1006A00042685A6042685AB193607047054B5A6875
:1006B000904202D142685A6070471346002AF6D130
:1006C000704700BFF81D001010B5846801462CB9B2
:1006D0004378012B0DD1074C03E0A4682378002B4D
:1006E000FBD00846FFF7DAFF2046BDE81040FFF7D1
:1006F00045BF10BDF81D0010036910B563B1C26895
:10070000DA60C2684AB1998A848A21449982136165
:100710000023C3600023036110BD9A82FAE7000042
:1007200070B4114BDD78EFF31086EFF3108272B6E0
:100730009A78954211D901329A701A78541CA542C0
:1007400008BF00241C7006B962B6954207D970BC78
:1007500003EBC203586099607047002EF4D070BC60
:100760000220FFF7BDBE00BF7C16001003230370FC
:100770000023438043608360C36070472DE9F843E2
:1007800043880546002B63D0324F81683A68914216
:100790005ED1013B9BB243801BB100242046BDE8E3
:1007A000F8830B6A984229D1C3680B6291F8243010
:1007B0000C6A5CBB8B706A68DFF89C80002A3BD0B7
:1007C0002846FFF7F3FE06464FF00109214600F0E8
:1007D000BDF83046FFF790FF336A3968EB60D8F810
:1007E0000430A5F80290AE6035628A789B789A4210
:1007F00014D3304600F04EFED0E71346002BD5D080
:10080000DA689542F9D1EA68DA60CFE762681AB12E
:100810009278934238BF1346E468CAE74046FFF730
:10082000ADFE31464046FFF7A9FE3B6883F80190D4
:1008300086F801902046DDE7D8F8042092789A42A5
:10084000ABD94046FFF79AFE01223B685A70F1E7A8
:10085000FF24A3E7441E0010F81D0010438870B564
:1008600004460E46134D43B92A68116A8260C1607E
:10087000106201336380002070BD80682A68904256
:10088000F7D081B1937882789A4202D28370FFF7D1
:100890001BFF62684AB129682046FFF76FFE0921F5
:1008A000304600F019FE012070BD2B6863605A606D
:1008B0009C60F4E7441E0010F0B54FF080764FF0D6
:1008C000000E836A056B9B0802BF1E4B1B889B08AA
:1008D00005EB8302540748BF043A02E94200A2F143
:1008E0004004A2F14406A2F10C0746F804EFBE4210
:1008F000FBD1C66942F8206C41631249C4620968A1
:10090000C90017D5112B15D96FF00701103B5B08F3
:100910004B43A3F138010A444FF0CC3021469142B9
:100920000BD108331C44231F9D423CBF4FF0CC33F6
:1009300044F8043C044B2B60F0BD41F8040C41F832
:10094000080DECE714380000A52E5AE2C36A1962BC
:100950007047C36A19625A6270470000054B1B78E2
:1009600023B94FF08052044B1A6070470122034BA9
:100970001A7070471812001004ED00E019120010F0
:1009800038B51A4B1A4C186801234370FFF720FE44
:100990006578A3783BB917486570FFF707FEBDE897
:1009A000384000F05DBD04EBC503586802789AB981
:1009B000198900F0BBF9E37801359D4208BF002595
:1009C000EFF31083EFF3108272B6A278013AA270AF
:1009D000002BDED162B6DCE7012A03D1996800F072
:1009E00033F9E8E700F09CFFE5E700BF441E001084
:1009F0007C160010F81D0010084B4FF0FF301A68ED
:100A0000074B1A6000225A60072243F8042C054A5B
:100A1000136843F07F431360704700BF2C38000019
:100A200014E000E020ED00E07047000008B50B4B3B
:100A3000186801234370FFF7CBFD00F0ADF9084AB9
:100A4000136801331360FFF7F1FD00F091FC0548D6
:100A5000FFF7ACFDBDE8084000F002BD441E0010E9
:100A60008C1E0010F81D0010064B1A68136BD26A1A
:100A7000934203D81A68044B9A4202D00120FFF730
:100A80002FBD7047441E0010A52E5AE2002ABBBF9E
:100A900022F000420732033222F00702A8BF22F000
:100AA000030210B5B4BF10230C2392B1D4188C42AA
:100AB0000FD80144034454424160036082602144E2
:100AC0009818814202D300510346F9E700201860CC
:100AD00010BD012010BDEFF3108372B6026803F061
:100AE00001030AB11168016003B962B6104670478C
:100AF00081420DD3436899420AD2EFF3108372B654
:100B000002680A60016013F0010003D162B6704709
:100B10000120704700207047012303700023103923
:100B20008908437083704360038143818381C1815D
:100B30007047000070B5858904461646002D38D0F0
:100B400043891A1D50F8222001330A60C2899BB2E2
:100B50009A42438104BF002343814368F3B1437841
:100B6000022B1BD1FFF722FD05460021FFF7EEFE09
:100B70002389E9691A1D44F822100133E2899BB2E6
:100B80009A42238108BF0023284608BF2381FFF72C
:100B9000B3FD284600F07EFC002070BDEFF310800E
:100BA000EFF3108372B6013DA5810028F4D162B63F
:100BB00070BD4AB14268094B42B11968FFF7DEFCCB
:100BC0000821304600F088FC012070BD1B6843609E
:100BD0005A60986001234370F2E700BF441E001082
:100BE000C2898089101A704708B5FFF799FDBDE8E2
:100BF0000840FFF7B3BE838910B504460BB34389A1
:100C0000043350F823300B604378022B04D10021C9
:100C1000FFF786FDFFF7A2FEEFF31083EFF31082DC
:100C200072B6A289013AA28103B962B66389E289E8
:100C300001339BB29A42638101D100236381042076
:100C400010BD184610BD0000436870B504460E463E
:100C5000002B4BD04578022D20D0032D0AD0012D3A
:100C600061D1FFF7A3FC044632461021FFF771FE65
:100C700065700EE00846FFF72EFF0546002852D0AB
:100C80002046FFF793FC29460446FFF75FFE012349
:100C900063702046FFF730FD214622E0FFF786FC17
:100CA00005460021FFF752FE2389E9691A1D44F821
:100CB0002210EFF31082EFF3108172B6A189013197
:100CC000A18102B962B6E28901339BB29A422381C3
:100CD00004BF00232381012328466B70FFF70CFD1E
:100CE0002946BDE870401048FFF748BC8089E1897B
:100CF000884213D223891A1D44F82260EFF3108230
:100D0000EFF3108572B60130A08102B962B60133EB
:100D10009BB2994208BF0023238170BD0320BDE828
:100D20007040FFF7DDBB70BDF81D001010B5038BE0
:100D300042781943062A04460183438B15D133EACE
:100D4000010219D121EA030121832046FFF7D4FCD7
:100D5000012320466370628B0821FFF7FAFD2146CC
:100D6000BDE810400548FFF709BC052A04D111EA87
:100D7000030201D04283E5E710BD00BFF81D00105B
:100D80000022034B1A60034A1268DA80704700BFE2
:100D9000301E00101038000008B50E4B5A680E4B7C
:100DA000196891420D4905D01A60DA880868013A3D
:100DB00002449A8098880A8890420AD10022054805
:100DC0001A60FFF7F3FBBDE8084001460148FFF752
:100DD000D5BB08BDF81D0010301E00108C1E001081
:100DE00030B500240A4A136843B90360816013B127
:100DF0009D68691A996044B1206030BD9D68A94220
:100E0000F3D31C46491B1B68EEE7106030BD00BFE2
:100E1000401E0010C0B1431C11D00C4B984211D899
:100E20004FF47A710A4B1B685A1E01FB0020B0FB7D
:100E3000F3F34FF6FE70834206D898B270474FF630
:100E4000FF7070474FF6FE70704700BF00093D000D
:100E5000C837000038B1830704D10378002B18BFCE
:100E60000020704700207047B0B50E4D00AF2878C5
:100E7000A8B90D4C236893F8241000F04FFB2368A9
:100E8000DA78FF2A03D1DA6A203282F309886268AD
:100E90000AB984E80C0000F0F9FC01232B70002053
:100EA000B0BD00BF3D1E0010441E0010014B18785D
:100EB000704700BF3D1E001010B5EFF3108434B929
:100EC000EFF305841CB9EFF31484E40702D4034B59
:100ED000187810BDDFF808C000DF10BD3D1E0010FF
:100EE000AD0E000090B589B000AFEFF31083002B7A
:100EF00037D1EFF30583002B33D1FFF7DDFF28B99E
:100F0000194C246814B1646804B1A047EFF3148449
:100F100004F00304022C18D0032C1CD0012C1ED08A
:100F200007F1200484F30988104C2478E40710D5D5
:100F3000022484F31488BFF34F8FBFF36F8FDFF861
:100F400030C000DF2437BD4690BD084C2478E4074C
:100F5000F5D40324EDE7054C2478E407EFD5FF2012
:100F6000F0E78220EEE700BF2C1E0010F6370000ED
:100F7000690E000070B50B461646024610B90024F3
:100F8000204670BD00680028F9D0B2F90440E51C85
:100F9000ADB2062DF3D8D168C1B11269043444EA68
:100FA000012100F0F9FA0028E9D00A4B013853F882
:100FB0002040094AE36A5A63084B1B6843B19B68A7
:100FC00033B13146E0789847E063D9E70A46E5E770
:100FD000E663D5E740160010611100002C1E0010DA
:100FE00008B500F093FA18B1024B013853F820000D
:100FF00008BD00BF4016001010B5FFF72BFF0446D8
:1010000070B1084B1B681BB1DB680BB1C06B984714
:10101000E07800F017FBFF280CBF8120002010BDF6
:10102000802010BD2C1E001008B528B1FFF7F2FE7D
:1010300000F072FC402008BD08BD000010B5EFF3C1
:10104000108434B9EFF305841CB9DFF80CC000DF5D
:1010500010BD822010BD000029100000830705D1BB
:1010600038B1436901691B68184670470023194667
:10107000FAE70346FBE7000010B504460846DFF830
:101080000CC000DF84E80300204610BD5D100000A6
:1010900010B548B1046824B1237823B92046FFF77E
:1010A00065FB204610BD002010BD70B510F0030494
:1010B00005460E4611D180B10378032B0DD10846A9
:1010C000FFF7A8FE01462846FFF7C8FB012806D116
:1010D000002E14BFC120812070BD802070BD20462D
:1010E00070BD820708B50AD148B10378032B06D139
:1010F000FFF744FBFF280CBF8120002008BD8020A3
:1011000008BD000070B50546EFF3108494B9EFF305
:1011100005867EB9EFF31484E40706D4064C2478E0
:101120001CB9BDE87040FFF7B3BF2846DFF80CC01C
:1011300000DF70BD002070BD3D1E0010911000004A
:1011400010B5EFF3108434B9EFF305841CB9DFF860
:101150000CC000DF10BD822010BD0000AB100000ED
:10116000084808B54FF0FF310068FFF7E9FFDFF8E6
:1011700018C000DF0446FFF7C1F92046DFF80CC0B5
:1011800000DFFEE7381E0010E10F0000F90F00003D
:1011900010B5EFF3108434B9EFF305841CB9DFF810
:1011A0000CC000DF10BD822010BD0000E310000065
:1011B0002DE9F04180460F461646EFF3108404BB3C
:1011C000EFF30583D3B9EFF31483DB0706D40E4B9B
:1011D0001B781BB9BDE8F041FFF7CCBE0B4D4FF0BB
:1011E000FF312868FFF7ACFF404639463246DFF84A
:1011F00020C000DF04462868FFF7CAFF2046BDE88C
:10120000F0810024FAE700BF3D1E0010381E0010D8
:10121000750F00000022FFF7CBBF10B5044660B188
:10122000016851B1406848B1037833B9043189008D
:1012300089B2FFF771FC606810BD002010BD00008E
:1012400038B5114C23780BB900F0A6FAFF220F4BEA
:1012500025781B689A708DB929460D48FFF7DDFF88
:101260000C4B2A46186029460B48FFF783FE0B4BB0
:1012700018600B48FFF746FF0A4B18600123002057
:101280002370094B187038BD3C1E0010441E00101E
:10129000FC3700000017001018380000F41D001083
:1012A00030380000381E00103D1E001010B5EFF35E
:1012B000108474B9EFF305845CB9EFF31484E40788
:1012C00003D4BDE81040FFF7BBBFDFF80CC000DF60
:1012D00010BD822010BD0000411200002DE9FF4129
:1012E0000C46804618B30378012B25D10846FFF73A
:1012F00091FD02A902464046FFF71CFC012811D1CE
:101300000020002C0246034618BF402002990446E4
:101310000D4616461F462046294632463B4604B037
:10132000BDE8F0810020024603461020EEE780244D
:10133000054606460746EEE7002580242E462F4642
:10134000E9E770B50E461446054660B15AB9037810
:10135000012B08D1FFF744FC38B128463146FFF78E
:1013600043FC204670BD802070BD812070BD000010
:10137000F8B5114E34682CB1A368104F013BA3603F
:10138000A26802B1F8BD2568214638683560FFF7CC
:10139000D8FF10B10420FFF7A3F86379012B07D120
:1013A000E1682046FFF71CFD002DEBD02C46E7E757
:1013B00001232371F8E700BF401E00100017001042
:1013C0007FB504461646084601B122B1802323604A
:1013D000204604B070BD0B78012BF7D102A9FFF7AE
:1013E0000AFC042808BF102301AD14BF0196019325
:1013F00095E8070084E80700EAE7000038B50446EE
:101400001546EFF3108010B9EFF3058028B12A4696
:101410002046FFF7D5FF204638BD08461146DFF8C5
:101420000CC000DF84E80700F5E70000DD120000D3
:101430007FB50A4C4FF0FF32216803A8FFF7DEFFAB
:10144000039B102BF6D1049901A8FFF715FE019B11
:10145000002BEFD002989847ECE700BF0017001070
:10146000054B586002234370044B1B681BB11B697A
:101470000BB1C06B18477047441E00102C1E0010A3
:1014800008B50348FFF792F8BDE80840FFF7E8BF4A
:10149000F81D001070B5044618B9BDE87040FFF79C
:1014A000EFBF0B4EA2783068012583789A4208D9A5
:1014B000FFF78EF8336820465D70BDE87040FFF797
:1014C000CFBF65702146BDE870400248FFF756B8AF
:1014D000441E0010F81D001038B50D46014680B1BD
:1014E0004FF6FF739842074C02D02068FFF77AF856
:1014F000236805485D70FFF759F8BDE83840FFF7ED
:10150000AFBF38BD441E0010F81D0010024B186814
:1015100000B1C078704700BF441E001010B5A8B9D4
:10152000194B1B68997083F82410184843689B78FE
:101530008B4201D8002010BD134C2168FFF71EF824
:10154000012223685A70FFF79BFFF3E7104B1B88BB
:10155000984217D80F4B013853F8204094B10A4BEA
:10156000A1701B6884F824109C42DED02046FFF74F
:10157000ABF86378012BDDD10448FFF717F8FFF7CC
:1015800089FFD7E7FF2010BD441E0010F81D001092
:10159000F8370000401600102DE9F0470D4611F015
:1015A000FF0F8046234816469A4608BF0135FFF7CD
:1015B00092FA044620B94FF000094846BDE8F0878A
:1015C00000211D4B06631B88280A1C4EA0628B421B
:1015D00001F10109EFD006EB890252F8042C0F4605
:1015E0004946002AF3D10123EDB284F80390C4F8F0
:1015F0001CA0C4F838A022706370A57084F8245031
:101600006260A260E26022612262A282E2822283A0
:10161000628384F8252018B90948FFF75CFA206333
:1016200020464146FFF748F9204646F82740FFF795
:1016300031FFC2E7281A0010F837000040160010EA
:10164000301400102DE9F84F4D4D18B12B68DB78A0
:10165000984241D100232C680127637000F02DFFD0
:10166000E062FFF701FA2B68DFF828811C6AA4B951
:101670002A684449D3784448013B41F82340116B20
:10168000FFF736FA296841480C63FFF731FA2C60FE
:10169000FFF7F6FE2046BDE8F88F6368B3B1204639
:1016A000FEF784FF06460021FFF750F93046FFF7AA
:1016B00023F8777031464046FEF760FFE368326AF0
:1016C0006780A660E26034621C46D0E7E26863800F
:1016D000A360E3601446CAE72D4B1B8898424DD89F
:1016E000284B471E53F827609946002E46D04FF0EE
:1016F000010A3046FEF7D2FF3046FEF7FDFFDFF865
:1017000094B0346AB4B9316B1F4849F82740FFF7E9
:10171000EFF9314634631D48FFF7EAF91D4829689F
:1017200043689A788B789A42B4D901234B70FEF7BC
:1017300025FFADE76368DBB12046FEF737FF804643
:101740000021FFF703F94046FEF7D6FF88F801A015
:1017500041465846FEF712FFE368D8F82020A4F867
:1017600002A0C4F80880E260C8F820401C46C9E71F
:10177000E2686380A360E3601446C3E7FF2489E75F
:10178000441E00104016001030140010281A0010DB
:10179000F8370000F81D001038B52C4B2C491A887A
:1017A0000023184693424DD32A4B402219882A48D9
:1017B000FFF76CF9294B2A481A882A4B42F000425D
:1017C0001968FFF763F9284B08221988274B284C22
:1017D0001868FFF75BF9FF230025E3700123204819
:1017E0006370A5622570A57084F824506560A560BB
:1017F000E56025612562A582E5822583658384F8FD
:101800002550FFF768F91B4920632046FFF754F87D
:101810000422194B20461A705D60184B1A70DD6067
:101820001D619D82164B1C6002236370FFF718FE3A
:10183000144A154B12781D705D70DA70BDE838409F
:10184000FFF79EBA41F823000133ABE7F8370000F9
:1018500040160010C4370000281A00101438000089
:1018600030140010C0370000C6370000B801001067
:101870004C1E0010DD040000F81D0010101E0010AA
:10188000441E0010F53700007C16001008B51E4BF2
:101890001A6842F47F021A601B681B0203F07F4340
:1018A000DB43B3FA83F3194ADBB21268C3F10803CE
:1018B000C2F30222934298BF531C6FF08072144807
:1018C00002FA03F3016803F07F4321F07F421343E0
:1018D0000360FFF791F80F4B0028186012DBFF221E
:1018E000012100F1604000F5644002701A6853095C
:1018F0009B0003F1604302F01F0203F5614301FA0C
:1019000002F21A6008BD00BF20ED00E00CED00E01F
:101910001CED00E0281E00100321FFF7DDBD0000D4
:10192000426810B57AB1FEF741FE0446FEF7E4FEC8
:10193000012120466170FFF709F82146BDE81040FB
:101940000348FEF71BBE42880132428010BD00BF33
:10195000F81D001010B50021044600F095F8012094
:1019600004F01F04A04010BD38B505464B1C0C46C2
:1019700029600FD00846FFF7EDFF24F01F0404F1A3
:101980001803EB6004F11C032B6104F1140368607D
:101990006B61AC6038BD006800F08FB811B10129EF
:1019A00007D0704782684168136823EA0103136017
:1019B00070478268416813680B43F8E708B5FEF783
:1019C000D1FC0022044BC3F8C020044A136923F061
:1019D0000403136130BF08BD00C00F4000ED00E0FC
:1019E00008B5104B1868E0B901210F4A1960D2F808
:1019F000C43043F40003C2F8C430A2F5D02210670B
:101A000002200A4B1B6850600948B3FBF0F3013B0E
:101A1000D36004205160074900F090FB1022064B70
:101A20001A6008BD2C12001000C00F40E00000102A
:101A300000093D007902000000E100E008B5044B18
:101A40001B680BB9FFF7CCFF024B986808BD00BFBD
:101A50002C12001000400940034B98615A6942F073
:101A600001025A61704700BF00400940024A5369B1
:101A700023F0010353617047004009400122014BEC
:101A80001A6070470040094010B5032400F160401F
:101A9000A0F51C2043000009800000F1804000F503
:101AA0003030026803F01E039C4022EA0402026008
:101AB000026899401143016010BD00F16040A0F53B
:101AC0001C2043099B0003F1804303F5303330B5FC
:101AD00000F01F029C6EC1F3800505FA02F224EAB1
:101AE00002049C669C6E22439A6695B903244300C7
:101AF0000009800000F1804000F53030026C03F0F6
:101B00001E039C4022EA04020264026C99401143C5
:101B1000016430BD012810B408D0022808D010BCE0
:101B20007047506820F00100506010E003460EE05E
:101B300038230F4803FB01035868013006D01869A9
:101B40009C68046093F83630002BEAD000233822DA
:101B500051430748421840580028E0D01BB992F87A
:101B60003620002ADBD0034A1946126810BC104701
:101B70003812001030120010034A00219068C0F3A0
:101B80004200FFF7C7BF00BF00C00040034A012169
:101B90009068C0F34200FFF7BDBF00BF00000140E6
:101BA000034A02219068C0F34200FFF7B3BF00BFB1
:101BB00000800940034A03219068C0F34200FFF708
:101BC000A9BF00BF00C0094070B50B46066829498F
:101BD0008E4222D006DCA1F580418E420CD000213D
:101BE0000C460BE024498E421AD001F580418E420A
:101BF000F5D12249082401E0052421499AB10125A3
:101C0000726805FA03F313437360204600F096FAF6
:101C10001C4B05FA04F41C6070BD1B490624EDE75B
:101C20001A490724EAE7012B0AD0426838201849EC
:101C300000FB021292F8361092F83520D14217D1EB
:101C4000012202FA03F0B3FA83F371685B0921EA17
:101C500000017160716802FA03F30B4208D1094B6D
:101C600002FA04F4C3F88040BFF34F8FBFF36F8FC5
:101C700070BD00BF0000014000800940B51B00009E
:101C8000791B000000E100E08D1B0000A11B00009B
:101C9000381200102DE9F04F644B046887B09C4265
:101CA00000F08D806ADCA3F580439C4279D0604BC4
:101CB0000801D3F800C0BCFBF0F293B200FB12C2E3
:101CC000002A00F0AA800125E6469946AB464FF06F
:101CD000000A0191039100264FEA4E030493DDF8B8
:101CE00004804FEA8E03EFB20593F3B20093049B96
:101CF000002BABBF059BB3FBF8F3B3FBF8F31B0959
:101D0000A8BF5B090133C3F34F03002B00F08880A9
:101D100016B1012B08BF0223A8195843C000BEFB0F
:101D2000F0F00130C1EB50000028B8BF40420290F3
:101D3000029A0398824262DA91425AD10F2D07D15A
:101D4000BB469946DDF800A05F464B46CDF800A0A3
:101D5000217B41F080012173C3F30721DBB22171A4
:101D60002370009B43EA0712D2B284F82820237B19
:101D700003F07F03237307B0BDE8F08F2D4B9C4227
:101D800029D003F580439C4291D12B4BD3F8AC2151
:101D900022F44022C3F8AC21D3F8AC2142F48022D3
:101DA00024E0254BD3F8A82122F0C002C3F8A821D3
:101DB000D3F8A82142F04002C3F8A82177E71E4BD0
:101DC000D3F8A82122F44072C3F8A821D3F8A8219F
:101DD00042F48072F0E7184BD3F8AC2122F4403281
:101DE000C3F8AC21D3F8AC2142F48032C3F8AC2163
:101DF0005DE7BB469946029ADDF800A003920136E2
:101E0000F3B2BB428844FFF470AF0F2D9CD0019B0E
:101E100001350B44E64401935DE70127009297E703
:101E2000002E0CBF0123022376E700BF0000014013
:101E3000E00000100080094000C00F4010B50268AB
:101E4000137DDB07FCD5382443680848117804FB70
:101E500003035868C9B2013006D058699B68036013
:101E6000536843F001035360084610BD3812001058
:101E70003821114A436801FB0323DA69013209D092
:101E80001A6B1B6A12681A4214D10368187DC0F3DA
:101E9000801070470268127D920604D5002201204E
:101EA00083F83420704793F834000F288CBF00204B
:101EB00001207047002070473812001038B50446E2
:101EC0000D462046FFF7D4FF0028FAD038212368BA
:101ED000EDB21D706368044A01FB032393F83420BC
:101EE000013283F8342038BD381200102DE9F84F44
:101EF0009A463C4C03680546A34218BF0024894615
:101F0000904647681CB1237C03F03F0323743823B9
:101F10004FF0FF32344E284603FB0763DA615A6004
:101F2000002283F835201146FFF74EFEB9F1000F6D
:101F300055D02E494046FEF7F7F92D4983465046C5
:101F4000FEF7F2F9A9F10203012B1BD8BAF1FF3F0A
:101F50000BD0244B98420DD164B1237C244943F02B
:101F6000800323745046FEF7B1F9B9F1030F0CD08A
:101F7000BDE8F88F382000FB076051461C30FEF7A3
:101F800063F9F2E7B9F1010F29D1B8F1FF3F01D1AF
:101F9000BDE8F88F07222B681A72124B9B450AD1B5
:101FA0004CB1237C404643F0400323740F49BDE805
:101FB000F84FFEF78BB9382404FB07604146002236
:101FC0000430FEF746F901226B68284604FB0366DD
:101FD00086F835200021BDE8F84FFFF7F5BDBDE8D4
:101FE000F88F00BF00000140381200105838000080
:101FF000343800002DE9F0410F4605464649384681
:102000001646FEF79DF9454904463046FEF798F915
:1020100001462046FEF776F9414B04469842286077
:102020005DD047D8A3F58043984250D001234FF0AC
:10203000000823724FF416512846C4F80480FFF7B5
:1020400029FE03222B6834491A733846FEF73EF9FD
:1020500032493046FEF73AF97A1C03D041463846F9
:10206000FFF72BFD731C03D000213046FFF725FD41
:102070002B4B9C424BD03ED8A3F580439C4243D08F
:1020800038216A68274B284601FB02324FF0FF33A4
:1020900000215360D3611A46FFF728FF224B9C4270
:1020A00006D10122214B69681A602868204B03C3BE
:1020B000BDE8F0811F4B984217D003F5804398424A
:1020C000B4D11D4AD2F8C43043F0007304E01A4A78
:1020D000D2F8C43043F00803C2F8C430A6E7164A69
:1020E000D2F8C43043F01003F6E7134AD2F8C430F4
:1020F00043F08073F0E70F4B9C420AD003F5804316
:102100009C42BDD1032300E000236B60B8E70123AC
:10211000FBE70223F9E700BFE83800007C38000045
:10212000000001403812001000C0004034120010BE
:10213000901E00100080094000C00F4030B50C4CCC
:10214000A268A4681346B4F1805F0CD2131F094C37
:10215000094A53F8045F42F8045FA242F9D14FF0F4
:102160008053034A9360103043F8201030BD00BF05
:1021700000ED00E0C0000010FCFFFF0F2022264B06
:10218000C3F8A021D3F8A021920603D5D3F8A0214B
:102190005006FBD50222C3F8042100220120C3F817
:1021A000A821C3F8AC210B22C3F80C01AA21C3F863
:1021B00084205522C3F88C10C3F88C20C3F880000B
:1021C000C3F88C10C3F88C20134B1A46D3F8881030
:1021D0004901FBD50321C3F88010AA21C3F88C1054
:1021E0005521C3F88C10D2F8883013F0407FFAD014
:1021F0000523C2F80831094BC2F8C4300023C2F8E5
:10220000C831136823F4704323F03A0343F4405376
:1022100043F03A031360704700C00F40DE87280484
:1022200001F09AB901F04CB970B505464FF47A74D3
:10223000FFF704FC95FBF4F4002C064602DDFEF7E4
:10224000A0F828B9FFF7FAFB801BA842FAD370BDAB
:10225000204600F02DF9F5E708B5044900F0FAFD35
:1022600000F048FFBDE80840FFF7DEBF00247449D6
:102270004FF47A735843FFF7D7BF000008B5084BF7
:102280001B685BB907490848084AFFF7B3FE4FF4DB
:102290001651BDE808400448FFF7FCBC08BD00BF6C
:1022A0003412001002C00920901E001003C0092043
:1022B00070470000022810B5044601DC002010BD64
:1022C00000F03EFF092300220360094B033C53F852
:1022D000240043F8242040B103681B699847041E7A
:1022E000ECDA00F02DFF644204604FF0FF3010BDC7
:1022F00018130010F8B505460E46144600F020FFEE
:102300000923022D03600FDC124B1B680BB9FFF78A
:10231000B5FF35463719104EBD4215D015F8011BD3
:102320003046FFF7CBFDF7E70C4B033D53F8250094
:1023300060B103682246DB6831469847041E03DA21
:1023400000F0FEFE634203602046F8BD4FF0FF340C
:10235000FAE700BF34120010901E0010181300108E
:1023600070B504460D46164600F0EAFE0923022C1D
:1023700003600BDC0F4B1B680BB9FFF77FFF0E48A8
:10238000FFF75CFD01242870204670BD0B4B033C19
:1023900053F8240058B1036832469B682946984791
:1023A000041EF1DA00F0CCFE63420360ECE74FF06C
:1023B000FF34E9E734120010901E001018130010CB
:1023C00070B504460D46164600F0BAFE0923022CED
:1023D00003600BDD084B033C53F8240040B1036855
:1023E00032462946BDE87040DB691847002070BDC1
:1023F0004FF0FF3070BD00BF1813001008B5FFF795
:1024000057FFFEF79FF808BD704708B5FFF7FCFFC0
:10241000BDE80840FDF790BE0C4A10B5136818449B
:10242000EFF30881884205D30C22094B4FF0FF30AF
:102430001A6010BD07490C6824B107490968214496
:102440008842F1D21060184610BD00BFE4000010B1
:10245000981E0010181400101C140010094C08B528
:1024600023680546986800F023FF2368D86800F0C9
:102470001FFFFDF775FF08B1FDF7A0FF0DB1FDF7D8
:10248000BDFFFEE7E800001008B5FFF7E7FF08B55D
:10249000FEF766F808BD08B5FEF76AF808BD00004B
:1024A000024B1B6803B11847704700BF201400108F
:1024B000FEF7C4BD80F309887047EFF309807047C9
:1024C000684680F309883F480078C00714BF02209F
:1024D000032080F314887047DFF8ECC0EFF3058326
:1024E0001B0618BF6047EFF31483DB0708BF604784
:1024F00000DF7047DFF8D4C0EFF305831B0618BF79
:102500006047EFF31483DB0708BF604700DF7047C5
:10251000EFF30980816911F8021CF1B990E80F10FE
:10252000E047EFF3098C8CE80700294B93E806009D
:1025300091420FD039B12CE9F00FC1F82CC00CB486
:10254000FEF792FA0CBC1A60D2F82CC0BCE8F00F6F
:102550008CF309886FF0020E704710B51D4A12689F
:10256000914209D81C4C54F8214090E80F10A04724
:10257000EFF3098C8CE80F0010BDFEF701FA144B45
:1025800093E80600914210D0EFF3098C2CE9F00F8C
:10259000C1F82CC00CB4FEF767FA0CBC1A60D2F874
:1025A0002CC0BCE8F00F8CF309886FF0020E704766
:1025B000FEF73CFAFFF7E3BFFEF736FAFEF736FA0E
:1025C000FFF7DDBFF6370000D70A0000F10A000070
:1025D000441E001000000000FCFFFFFF0649074AF0
:1025E000074B9A42BEBF51F8040B42F8040BF8E7C0
:1025F0000448804704480047C4390000C800001060
:10260000580100107D210000D5010000FEE7FEE723
:10261000FEE7FEE7FEE7FEE7FEE7FEE7FEE7FEE792
:1026200081F0004102E000BF83F0004330B54FEA83
:1026300041044FEA430594EA050F08BF90EA020FF0
:102640001FBF54EA000C55EA020C7FEA645C7FEA83
:10265000655C00F0E2804FEA5454D4EB5555B8BFA6
:102660006D420CDD2C4480EA020281EA030382EA17
:10267000000083EA010180EA020281EA0303362DA9
:1026800088BF30BD11F0004F4FEA01314FF4801C7C
:102690004CEA113102D0404261EB410113F0004F8E
:1026A0004FEA03334CEA133302D0524263EB430345
:1026B00094EA050F00F0A780A4F10104D5F1200EE3
:1026C0000DDB02FA0EFC22FA05F2801841F100013E
:1026D00003FA0EF2801843FA05F359410EE0A5F112
:1026E00020050EF1200E012A03FA0EFC28BF4CF043
:1026F000020C43FA05F3C01851EBE37101F00045F9
:1027000007D54FF0000EDCF1000C7EEB00006EEB05
:102710000101B1F5801F1BD3B1F5001F0CD349088F
:102720005FEA30004FEA3C0C04F101044FEA4452E6
:1027300012F5800F80F09A80BCF1004F08BF5FEA6D
:10274000500C50F1000041EB045141EA050130BD4D
:102750005FEA4C0C404141EB010111F4801FA4F1F0
:102760000104E9D191F0000F04BF01460020B1FA45
:1027700081F308BF2033A3F10B03B3F120020CDA7D
:102780000C3208DD02F1140CC2F10C0201FA0CF05B
:1027900021FA02F10CE002F11402D8BFC2F1200CC0
:1027A00001FA02F120FA0CFCDCBF41EA0C01904076
:1027B000E41AA2BF01EB0451294330BD6FEA0404BF
:1027C0001F3C1CDA0C340EDC04F11404C4F12002AA
:1027D00020FA04F001FA02F340EA030021FA04F3BC
:1027E00045EA030130BDC4F10C04C4F1200220FA13
:1027F00002F001FA04F340EA0300294630BD21FA51
:1028000004F0294630BD94F0000F83F4801306BF16
:1028100081F480110134013D4EE77FEA645C18BF0A
:102820007FEA655C29D094EA050F08BF90EA020FA1
:1028300005D054EA000C04BF1946104630BD91EA99
:10284000030F1EBF0021002030BD5FEA545C05D19C
:102850004000494128BF41F0004130BD14F58004DB
:102860003CBF01F5801130BD01F0004545F0FE414F
:1028700041F470014FF0000030BD7FEA645C1ABF84
:10288000194610467FEA655C1CBF0B46024650EABB
:10289000013406BF52EA033591EA030F41F40021E7
:1028A00030BD00BF90F0000F04BF0021704730B56D
:1028B0004FF4806404F132044FF000054FF0000142
:1028C00050E700BF90F0000F04BF0021704730B503
:1028D0004FF4806404F1320410F0004548BF4042D8
:1028E0004FF000013EE700BF42004FEAE2014FEA2D
:1028F00031014FEA02701FBF12F07F4393F07F4F08
:1029000081F06051704792F0000F14BF93F07F4F39
:10291000704730B54FF4607401F0004521F000417C
:1029200020E700BF50EA010208BF704730B54FF002
:1029300000050AE050EA010208BF704730B511F007
:10294000004502D5404261EB41014FF4806404F13F
:1029500032045FEA915C3FF4DCAE4FF003025FEAC1
:10296000DC0C18BF03325FEADC0C18BF033202EB49
:10297000DC02C2F1200300FA03FC20FA02F001FAA3
:1029800003FE40EA0E0021FA02F11444C1E600BF42
:1029900070B54FF0FF0C4CF4E06C1CEA11541DBFF5
:1029A0001CEA135594EA0C0F95EA0C0F00F0DEF8C0
:1029B0002C4481EA030621EA4C5123EA4C5350EAA5
:1029C000013518BF52EA033541F4801143F48013F6
:1029D00038D0A0FB02CE4FF00005E1FB02E506F087
:1029E0000042E0FB03E54FF00006E1FB03569CF0DC
:1029F000000F18BF4EF0010EA4F1FF04B6F5007FE2
:102A000064F5407404D25FEA4E0E6D4146EB060653
:102A100042EAC62141EA55514FEAC52040EA5E50DC
:102A20004FEACE2EB4F1FD0C88BFBCF5E06F1ED886
:102A3000BEF1004F08BF5FEA500E50F1000041EBBD
:102A4000045170BD06F0004646EA010140EA02006A
:102A500081EA0301B4EB5C04C2BFD4EB0C0541EA8C
:102A6000045170BD41F480114FF0000E013C00F3A1
:102A7000AB8014F1360FDEBF002001F0004170BDC5
:102A8000C4F10004203C35DA0C341BDC04F11404DE
:102A9000C4F1200500FA05F320FA04F001FA05F26A
:102AA00040EA020001F0004221F0004110EBD37037
:102AB00021FA04F642EB06015EEA430E08BF20EA63
:102AC000D37070BDC4F10C04C4F1200500FA04F306
:102AD00020FA05F001FA04F240EA020001F0004198
:102AE00010EBD37041F100015EEA430E08BF20EA0B
:102AF000D37070BDC4F1200500FA05F24EEA020E53
:102B000020FA04F301FA05F243EA020321FA04F081
:102B100001F0004121FA04F220EA020000EBD37038
:102B20005EEA430E08BF20EAD37070BD94F0000F38
:102B30000FD101F00046400041EB010111F4801F6C
:102B400008BF013CF7D041EA060195F0000F18BF1D
:102B5000704703F00046520043EB030313F4801F59
:102B600008BF013DF7D043EA0603704794EA0C0F13
:102B70000CEA135518BF95EA0C0F0CD050EA410629
:102B800018BF52EA4306D1D181EA030101F00041A6
:102B90004FF0000070BD50EA410606BF10461946CE
:102BA00052EA430619D094EA0C0F02D150EA0136DA
:102BB00013D195EA0C0F05D152EA03361CBF10461B
:102BC00019460AD181EA030101F0004141F0FE41BA
:102BD00041F470014FF0000070BD41F0FE4141F43E
:102BE000780170BD70B54FF0FF0C4CF4E06C1CEA3E
:102BF00011541DBF1CEA135594EA0C0F95EA0C0FF3
:102C000000F0A7F8A4EB050481EA030E52EA0335AD
:102C10004FEA013100F088804FEA03334FF08055CE
:102C200045EA131343EA12634FEA022245EA1115FB
:102C300045EA10654FEA00260EF000419D4208BFAC
:102C4000964244F1FD0404F5407402D25B084FEA59
:102C50003202B61A65EB03055B084FEA32024FF405
:102C600080104FF4002CB6EB020E75EB030E22BF62
:102C7000B61A754640EA0C005B084FEA3202B6EB22
:102C8000020E75EB030E22BFB61A754640EA5C00D1
:102C90005B084FEA3202B6EB020E75EB030E22BF61
:102CA000B61A754640EA9C005B084FEA3202B6EB62
:102CB000020E75EB030E22BFB61A754640EADC0021
:102CC00055EA060E18D04FEA051545EA16754FEA83
:102CD00006164FEAC30343EA52734FEAC2025FEAA1
:102CE0001C1CC0D111F4801F0BD141EA00014FF030
:102CF00000004FF0004CB6E711F4801F04BF014301
:102D00000020B4F1FD0C88BFBCF5E06F3FF6AFAE1C
:102D1000B5EB030C04BFB6EB020C5FEA500C50F1AC
:102D2000000041EB045170BD0EF0004E4EEA11312F
:102D300014EB5C04C2BFD4EB0C0541EA045170BD36
:102D400041F480114FF0000E013C90E645EA060E7A
:102D50008DE60CEA135594EA0C0F08BF95EA0C0FA8
:102D60003FF43BAF94EA0C0F0AD150EA01347FF4F0
:102D700034AF95EA0C0F7FF425AF104619462CE7C7
:102D800095EA0C0F06D152EA03353FF4FDAE10462A
:102D9000194622E750EA410618BF52EA43067FF47B
:102DA000C5AE50EA41047FF40DAF52EA43057FF40B
:102DB000EBAE12E74FEA4102B2F1E04324BFB3F5B4
:102DC000001CDCF1FE5C0DD901F0004C4FEAC002A2
:102DD0004CEA5070B2F1004F40EB830008BF20F086
:102DE0000100704711F0804F21D113F13872BCBF40
:102DF00001F00040704741F480114FEA5252C2F195
:102E00001802C2F1200C10FA0CF320FA02F018BFDD
:102E100040F001004FEAC1234FEAD32303FA0CFC30
:102E200040EA0C0023FA02F34FEA4303CCE77FEABF
:102E3000625307D150EA01331EBF4FF0FE4040F409
:102E40004000704701F0004040F0FE4040F40000B8
:102E5000704700BF4FF0FF0C1CEAD0521EBF1CEAA7
:102E6000D15392EA0C0F93EA0C0F6FD01A4480EA08
:102E7000010C400218BF5FEA41211ED04FF00063F1
:102E800043EA501043EA5111A0FB01310CF000401D
:102E9000B1F5000F3EBF490041EAD3715B0040EA43
:102EA000010062F17F02FD2A1DD8B3F1004F40EB13
:102EB000C25008BF20F00100704790F0000F0CF0E6
:102EC000004C08BF49024CEA502040EA51207F3AAA
:102ED000C2BFD2F1FF0340EAC250704740F4000085
:102EE0004FF00003013A5DDC12F1190FDCBF00F076
:102EF00000407047C2F10002410021FA02F1C2F124
:102F0000200200FA02FC5FEA310040F1000053EABF
:102F10004C0308BF20EADC70704792F0000F00F00D
:102F2000004C02BF400010F4000F013AF9D040EA13
:102F30000C0093F0000F01F0004C02BF490011F4A7
:102F4000000F013BF9D041EA0C018FE70CEAD153A5
:102F500092EA0C0F18BF93EA0C0F0AD030F0004C25
:102F600018BF31F0004CD8D180EA010000F00040D9
:102F7000704790F0000F17BF90F0004F084691F097
:102F8000000F91F0004F14D092EA0C0F01D14202D1
:102F90000FD193EA0C0F03D14B0218BF084608D19A
:102FA00080EA010000F0004040F0FE4040F40000E4
:102FB000704740F0FE4040F4400070474FF0FF0C77
:102FC0001CEAD0521EBF1CEAD15392EA0C0F93EABE
:102FD0000C0F69D0A2EB030280EA010C49024FEA10
:102FE000402037D04FF0805343EA111143EA1013C9
:102FF0000CF000408B4238BF5B0042F17D024FF481
:10300000000C8B4224BF5B1A40EA0C00B3EB510F5B
:1030100024BFA3EB510340EA5C00B3EB910F24BF44
:10302000A3EB910340EA9C00B3EBD10F24BFA3EBC9
:10303000D10340EADC001B0118BF5FEA1C1CE0D191
:10304000FD2A3FF650AF8B4240EBC25008BF20F044
:10305000010070470CF0004C4CEA50207F32C2BF98
:10306000D2F1FF0340EAC250704740F400004FF035
:103070000003013A37E792F0000F00F0004C02BF66
:10308000400010F4000F013AF9D040EA0C0093F030
:10309000000F01F0004C02BF490011F4000F013B8A
:1030A000F9D041EA0C0195E70CEAD15392EA0C0FF2
:1030B00008D142027FF47DAF93EA0C0F7FF470AF2A
:1030C000084676E793EA0C0F04D14B023FF44CAF6D
:1030D00008466EE730F0004C18BF31F0004CCAD102
:1030E00030F000427FF45CAF31F000437FF43CAF3E
:1030F0005FE700BF4FEA4002B2F1FE4F0FD34FF03F
:103100009E03B3EB12620DD94FEA002343F0004354
:1031100010F0004F23FA02F018BF404270474FF002
:103120000000704712F1610F01D1420205D110F089
:10313000004008BF6FF0004070474FF0000070473C
:10314000014B1868704700BFE80000108A892DE91C
:10315000F041054610070C465AD44B68002B05DC9D
:103160000B6C002B02DC0020BDE8F081E66A002E2B
:10317000F9D0002312F480522F682B6033D0606D99
:10318000A3895A0705D56368C01A636B0BB1236C1A
:10319000C01A00230246E66A216A2846B047431C4B
:1031A000A38906D129681D294BD82B4ACA40D607C6
:1031B00047D5002262602269D904226004D5421CEE
:1031C00001D12B6803B96065616B2F600029CAD0FB
:1031D00004F14403994202D02846FFF723F8002067
:1031E0006063BDE8F081216A01232846B047411C95
:1031F000C6D12B68002BC3D01D2B01D0162B01D1BB
:103200002F60B0E7A38943F04003A381BDE8F081BC
:103210000F69002FA7D0930718BF00230E6808BFBF
:103220004B69A6EB07080F608B60B8F1000F9ADDC1
:1032300043463A46216A2846A66AB047002807DC7A
:10324000A38943F04003A3814FF0FF30BDE8F08134
:103250000744A8EB0008E8E70100402038B50B69F7
:1032600005460C46DBB118B183690BB900F072F862
:103270000C4B9C4209D16C68B4F90C307BB12146EF
:103280002846BDE83840FFF761BF074B9C4201D19B
:10329000AC68F1E7054B9C4208BFEC68ECE7002006
:1032A00038BD00BF74390000943900005439000063
:1032B000014620B9044B0549186800F0B7B8044B23
:1032C0001868FFF7CBBF00BFB43900005D320000C3
:1032D000E8000010014900F0A9B800BF5D3200000D
:1032E000002310B504460360436083608181436618
:1032F000C281036143618361194608225C3000F09A
:10330000D7F8054B24626362044BA362044BE3626B
:10331000044B236310BD00BF353600005736000054
:103320008F360000B336000070B568254A1E55433D
:103330000E4605F17401FEF773FF044640B100210B
:1033400080E842000C30A06005F1680200F0B0F89F
:10335000204670BD836910B5044633BB8364C364E3
:103360000365124B124A1B688262984204BF012314
:10337000836100F01FF86060204600F01BF8A06039
:10338000204600F017F80022E06004216068FFF793
:10339000A7FF01220921A068FFF7A2FF0222122144
:1033A000E068FFF79DFF0123A36110BDB439000061
:1033B000D5320000F8B51C4B07461E68B36913B937
:1033C0003046FFF7C7FF4836B4687368013B03D542
:1033D000336833B13668F7E7B4F90C506DB168342F
:1033E000F4E704213846FFF79FFF30600028F1D151
:1033F0000C2304463B602046F8BD4FF6FF73E38183
:1034000001236566A3812560A5606560256165610E
:10341000A5610822294604F15C0000F049F86563C3
:10342000A563A564E564E6E7B43900002DE9F84337
:1034300080468946002600F1480414B93046BDE8AC
:10344000F883A5686768013F01D52468F5E7AB8973
:10345000012B07D9B5F90E30013303D02946404678
:10346000C84706436835EEE770B500250C4E0D4C95
:10347000A41BA410A54209D100F066F900250A4E4C
:103480000A4CA41BA410A54205D170BD56F82530E6
:1034900098470135EEE756F8253098470135F2E7B1
:1034A0004C0100104C0100104C01001054010010A0
:1034B00003460244934200D1704703F8011BF9E729
:1034C00038B50546002943D051F8043C0C1F002BA9
:1034D000B8BFE418FEF7DBFF1E4A1368104633B985
:1034E000636014602846BDE83840FEF7D4BFA342AD
:1034F0000BD921686218934201BF1A685B685218A1
:10350000226063600460EDE713465A680AB1A24284
:10351000FAD919685818A0420BD1206801445818EC
:1035200082421960DED110685268014419605A6005
:10353000D8E702D90C232B60D4E7206821188A42EF
:1035400001BF116852680918216062605C60C9E7B8
:1035500038BD00BF2414001070B5CD1C25F0030544
:1035600008350C2D38BF0C25002D064601DBA9427D
:1035700003D90C233360002070BDFEF788FF234A77
:103580001468214691B9224C23681BB9304600F0DB
:1035900041F820602946304600F03CF8431C26D113
:1035A0000C2330463360FEF776FFE4E70B685B1BC5
:1035B0001AD40B2B0FD90B60CC18CD503046FEF728
:1035C0006AFF04F10B00231D20F00700C31A1BD073
:1035D0005A42E25070BD8C420BBF63684B68136067
:1035E000636018BF0C46E9E70C464968CAE7C41C8B
:1035F00024F00304A04205D0211A304600F00AF856
:103600000130CDD02560D9E770BD00BF2414001073
:103610002814001038B50023054C054608462360E1
:10362000FEF7FAFE431C02D1236803B12B6038BDBC
:10363000981E001010B50C46B1F90E1000F072F88B
:103640000028ABBF636DA3891B1823F48053ACBF64
:103650006365A38110BD2DE9F0411F468B890546A6
:10366000DB050C46164605D502230022B1F90E10E3
:1036700000F046F8A389324623F48053A381B4F9BD
:103680000E103B462846BDE8F04100F017B810B5D3
:103690000C46B1F90E1000F033F8431CA38915BF96
:1036A000606523F4805343F48053A38118BFA38142
:1036B00010BDB1F90E1000F013B8000038B5054682
:1036C000084611460022054C22601A46FEF712FEFB
:1036D000431C02D1236803B12B6038BD981E001033
:1036E00038B50023054C054608462360FEF7E2FD89
:1036F000431C02D1236803B12B6038BD981E001013
:1037000038B50546084611460022054C22601A4687
:10371000FEF756FE431C02D1236803B12B6038BD6F
:10372000981E001038B50546084611460022054C83
:1037300022601A46FEF714FE431C02D1236803B12F
:103740002B6038BD981E0010F8B500BFF8BC08BC4F
:103750009E467047F8B500BFF8BC08BC9E4670474F
:1037600068370000A4010010E11900003D1A0000B4
:103770006D1A00007D1A0000591A000070696E6D04
:103780006170206D69732D6D617463680070696E7E
:103790006D6170206E6F7420666F756E6420666F49
:1037A00072207065726970686572616C00636F7514
:1037B0006C64206E6F742070696E6F757400000009
:1037C00010020000CC030000E8030000525458200F
:1037D0006572726F7220636F64653A2030782530AD
:1037E00038582C207461736B2049443A2030782576
:1037F0003038580A001001000F00000004000000DB
:10380000C8010010E8010010F801001008020010C3
:103810000500010000020001311400000200000058
:10382000010000002003000008170010FF760100CF
:103830001C12001011C0092000000140010000000E
:1038400042C009200000014002000000FFFFFFFF0E
:10385000FFFFFFFF0000000016C00920000001402C
:103860000100000047C009200000014002000000E4
:10387000FFFFFFFFFFFFFFFF0000000001C0092066
:1038800000C009400200000003C0092000C0004041
:10389000010000000BC00920008009400100000069
:1038A00010C0092000000140010000001AC00920DA
:1038B00000C009400300000041C009200000014091
:1038C0000200000049C009200080094002000000F9
:1038D0009DC0092000C0094003000000FFFFFFFF5A
:1038E000FFFFFFFF0000000000C0092000C00940EA
:1038F0000200000002C0092000C0004001000000DA
:103900000AC0092000800940010000000FC0092002
:10391000000001400100000019C0092000C009405A
:103920000300000040C00920000001400200000028
:1039300048C0092000800940020000009CC0092006
:1039400000C0094003000000FFFFFFFFFFFFFFFF73
:103950000000000000000000000000000000000067
:103960000000000000000000000000000000000057
:103970000000000000000000000000000000000047
:103980000000000000000000000000000000000037
:103990000000000000000000000000000000000027
:1039A0000000000000000000000000000000000017
:0C39B00000000000EC000010000000000F
:0839BC00F8EAFF7F01000000A2
:1039C4007F040000950400000000000001000000D6
:1039D400001000001802001000D8B805A01E001046
:1039E400EC0000100000000074390000943900005D
:1039F4005439000000000000000000000000000036
:103A040000000000000000000000000000000000B2
:103A140000000000000000000000000000000000A2
:103A24000000000000000000000000000000000092
:103A34000000000000000000000000000000000082
:103A440000000000F100000091010000CD00000022
:04000003000025DDF7
:00000001FF
